{
	"contracts/mocks/MockResolverAlwaysWin.sol": {
		"MockResolverAlwaysWin": {
			"abi": [
				{
					"inputs": [
						{
							"internalType": "address",
							"name": "winner_",
							"type": "address"
						}
					],
					"stateMutability": "nonpayable",
					"type": "constructor"
				},
				{
					"inputs": [
						{
							"internalType": "uint256",
							"name": "",
							"type": "uint256"
						},
						{
							"internalType": "bytes32",
							"name": "",
							"type": "bytes32"
						}
					],
					"name": "commitMove",
					"outputs": [],
					"stateMutability": "nonpayable",
					"type": "function"
				},
				{
					"inputs": [
						{
							"internalType": "uint256",
							"name": "",
							"type": "uint256"
						}
					],
					"name": "firstRevealTimestamp",
					"outputs": [
						{
							"internalType": "uint256",
							"name": "",
							"type": "uint256"
						}
					],
					"stateMutability": "view",
					"type": "function"
				},
				{
					"inputs": [],
					"name": "fixedWinner",
					"outputs": [
						{
							"internalType": "address",
							"name": "",
							"type": "address"
						}
					],
					"stateMutability": "view",
					"type": "function"
				},
				{
					"inputs": [
						{
							"internalType": "uint256",
							"name": "",
							"type": "uint256"
						}
					],
					"name": "getPlayers",
					"outputs": [
						{
							"internalType": "address[2]",
							"name": "",
							"type": "address[2]"
						}
					],
					"stateMutability": "view",
					"type": "function"
				},
				{
					"inputs": [
						{
							"internalType": "uint256",
							"name": "",
							"type": "uint256"
						},
						{
							"internalType": "address",
							"name": "",
							"type": "address"
						}
					],
					"name": "hasRevealed",
					"outputs": [
						{
							"internalType": "bool",
							"name": "",
							"type": "bool"
						}
					],
					"stateMutability": "pure",
					"type": "function"
				},
				{
					"inputs": [
						{
							"internalType": "uint256",
							"name": "",
							"type": "uint256"
						},
						{
							"internalType": "address",
							"name": "",
							"type": "address"
						},
						{
							"internalType": "address",
							"name": "",
							"type": "address"
						}
					],
					"name": "registerPlayers",
					"outputs": [],
					"stateMutability": "nonpayable",
					"type": "function"
				},
				{
					"inputs": [
						{
							"internalType": "uint256",
							"name": "",
							"type": "uint256"
						}
					],
					"name": "resolveDuel",
					"outputs": [
						{
							"internalType": "address",
							"name": "",
							"type": "address"
						}
					],
					"stateMutability": "view",
					"type": "function"
				},
				{
					"inputs": [
						{
							"internalType": "uint256",
							"name": "",
							"type": "uint256"
						},
						{
							"internalType": "string",
							"name": "",
							"type": "string"
						},
						{
							"internalType": "string",
							"name": "",
							"type": "string"
						}
					],
					"name": "revealMove",
					"outputs": [],
					"stateMutability": "nonpayable",
					"type": "function"
				}
			],
			"devdoc": {
				"kind": "dev",
				"methods": {},
				"version": 1
			},
			"evm": {
				"assembly": "    /* \"contracts/mocks/MockResolverAlwaysWin.sol\":105:1013  contract MockResolverAlwaysWin is IDuelResolver {... */\n  mstore(0x40, 0x80)\n    /* \"contracts/mocks/MockResolverAlwaysWin.sol\":195:264  constructor(address winner_) {... */\n  callvalue\n  dup1\n  iszero\n  tag_1\n  jumpi\n  0x00\n  dup1\n  revert\ntag_1:\n  pop\n  mload(0x40)\n  sub(codesize, bytecodeSize)\n  dup1\n  bytecodeSize\n  dup4\n  codecopy\n  dup2\n  dup2\n  add\n  0x40\n  mstore\n  dup2\n  add\n  swap1\n  tag_2\n  swap2\n  swap1\n  tag_3\n  jump\t// in\ntag_2:\n    /* \"contracts/mocks/MockResolverAlwaysWin.sol\":249:256  winner_ */\n  dup1\n    /* \"contracts/mocks/MockResolverAlwaysWin.sol\":235:246  fixedWinner */\n  0x00\n  dup1\n    /* \"contracts/mocks/MockResolverAlwaysWin.sol\":235:256  fixedWinner = winner_ */\n  0x0100\n  exp\n  dup2\n  sload\n  dup2\n  0xffffffffffffffffffffffffffffffffffffffff\n  mul\n  not\n  and\n  swap1\n  dup4\n  0xffffffffffffffffffffffffffffffffffffffff\n  and\n  mul\n  or\n  swap1\n  sstore\n  pop\n    /* \"contracts/mocks/MockResolverAlwaysWin.sol\":195:264  constructor(address winner_) {... */\n  pop\n    /* \"contracts/mocks/MockResolverAlwaysWin.sol\":105:1013  contract MockResolverAlwaysWin is IDuelResolver {... */\n  jump(tag_6)\n    /* \"#utility.yul\":88:205   */\ntag_8:\n    /* \"#utility.yul\":197:198   */\n  0x00\n    /* \"#utility.yul\":194:195   */\n  dup1\n    /* \"#utility.yul\":187:199   */\n  revert\n    /* \"#utility.yul\":334:460   */\ntag_10:\n    /* \"#utility.yul\":371:378   */\n  0x00\n    /* \"#utility.yul\":411:453   */\n  0xffffffffffffffffffffffffffffffffffffffff\n    /* \"#utility.yul\":404:409   */\n  dup3\n    /* \"#utility.yul\":400:454   */\n  and\n    /* \"#utility.yul\":389:454   */\n  swap1\n  pop\n    /* \"#utility.yul\":334:460   */\n  swap2\n  swap1\n  pop\n  jump\t// out\n    /* \"#utility.yul\":466:562   */\ntag_11:\n    /* \"#utility.yul\":503:510   */\n  0x00\n    /* \"#utility.yul\":532:556   */\n  tag_20\n    /* \"#utility.yul\":550:555   */\n  dup3\n    /* \"#utility.yul\":532:556   */\n  tag_10\n  jump\t// in\ntag_20:\n    /* \"#utility.yul\":521:556   */\n  swap1\n  pop\n    /* \"#utility.yul\":466:562   */\n  swap2\n  swap1\n  pop\n  jump\t// out\n    /* \"#utility.yul\":568:690   */\ntag_12:\n    /* \"#utility.yul\":641:665   */\n  tag_22\n    /* \"#utility.yul\":659:664   */\n  dup2\n    /* \"#utility.yul\":641:665   */\n  tag_11\n  jump\t// in\ntag_22:\n    /* \"#utility.yul\":634:639   */\n  dup2\n    /* \"#utility.yul\":631:666   */\n  eq\n    /* \"#utility.yul\":621:684   */\n  tag_23\n  jumpi\n    /* \"#utility.yul\":680:681   */\n  0x00\n    /* \"#utility.yul\":677:678   */\n  dup1\n    /* \"#utility.yul\":670:682   */\n  revert\n    /* \"#utility.yul\":621:684   */\ntag_23:\n    /* \"#utility.yul\":568:690   */\n  pop\n  jump\t// out\n    /* \"#utility.yul\":696:839   */\ntag_13:\n    /* \"#utility.yul\":753:758   */\n  0x00\n    /* \"#utility.yul\":784:790   */\n  dup2\n    /* \"#utility.yul\":778:791   */\n  mload\n    /* \"#utility.yul\":769:791   */\n  swap1\n  pop\n    /* \"#utility.yul\":800:833   */\n  tag_25\n    /* \"#utility.yul\":827:832   */\n  dup2\n    /* \"#utility.yul\":800:833   */\n  tag_12\n  jump\t// in\ntag_25:\n    /* \"#utility.yul\":696:839   */\n  swap3\n  swap2\n  pop\n  pop\n  jump\t// out\n    /* \"#utility.yul\":845:1196   */\ntag_3:\n    /* \"#utility.yul\":915:921   */\n  0x00\n    /* \"#utility.yul\":964:966   */\n  0x20\n    /* \"#utility.yul\":952:961   */\n  dup3\n    /* \"#utility.yul\":943:950   */\n  dup5\n    /* \"#utility.yul\":939:962   */\n  sub\n    /* \"#utility.yul\":935:967   */\n  slt\n    /* \"#utility.yul\":932:1051   */\n  iszero\n  tag_27\n  jumpi\n    /* \"#utility.yul\":970:1049   */\n  tag_28\n  tag_8\n  jump\t// in\ntag_28:\n    /* \"#utility.yul\":932:1051   */\ntag_27:\n    /* \"#utility.yul\":1090:1091   */\n  0x00\n    /* \"#utility.yul\":1115:1179   */\n  tag_29\n    /* \"#utility.yul\":1171:1178   */\n  dup5\n    /* \"#utility.yul\":1162:1168   */\n  dup3\n    /* \"#utility.yul\":1151:1160   */\n  dup6\n    /* \"#utility.yul\":1147:1169   */\n  add\n    /* \"#utility.yul\":1115:1179   */\n  tag_13\n  jump\t// in\ntag_29:\n    /* \"#utility.yul\":1105:1179   */\n  swap2\n  pop\n    /* \"#utility.yul\":1061:1189   */\n  pop\n    /* \"#utility.yul\":845:1196   */\n  swap3\n  swap2\n  pop\n  pop\n  jump\t// out\n    /* \"contracts/mocks/MockResolverAlwaysWin.sol\":105:1013  contract MockResolverAlwaysWin is IDuelResolver {... */\ntag_6:\n  dataSize(sub_0)\n  dup1\n  dataOffset(sub_0)\n  0x00\n  codecopy\n  0x00\n  return\nstop\n\nsub_0: assembly {\n        /* \"contracts/mocks/MockResolverAlwaysWin.sol\":105:1013  contract MockResolverAlwaysWin is IDuelResolver {... */\n      mstore(0x40, 0x80)\n      callvalue\n      dup1\n      iszero\n      tag_1\n      jumpi\n      0x00\n      dup1\n      revert\n    tag_1:\n      pop\n      jumpi(tag_2, lt(calldatasize, 0x04))\n      shr(0xe0, calldataload(0x00))\n      dup1\n      0x4400e01c\n      gt\n      tag_11\n      jumpi\n      dup1\n      0x4400e01c\n      eq\n      tag_7\n      jumpi\n      dup1\n      0x460e2049\n      eq\n      tag_8\n      jumpi\n      dup1\n      0x526999d0\n      eq\n      tag_9\n      jumpi\n      dup1\n      0xcdd69a12\n      eq\n      tag_10\n      jumpi\n      jump(tag_2)\n    tag_11:\n      dup1\n      0x0907af75\n      eq\n      tag_3\n      jumpi\n      dup1\n      0x16b5551d\n      eq\n      tag_4\n      jumpi\n      dup1\n      0x26826f62\n      eq\n      tag_5\n      jumpi\n      dup1\n      0x3ef17ee6\n      eq\n      tag_6\n      jumpi\n    tag_2:\n      0x00\n      dup1\n      revert\n        /* \"contracts/mocks/MockResolverAlwaysWin.sol\":889:1010  function firstRevealTimestamp(uint256) external view override returns (uint256) {... */\n    tag_3:\n      tag_12\n      0x04\n      dup1\n      calldatasize\n      sub\n      dup2\n      add\n      swap1\n      tag_13\n      swap2\n      swap1\n      tag_14\n      jump\t// in\n    tag_13:\n      tag_15\n      jump\t// in\n    tag_12:\n      mload(0x40)\n      tag_16\n      swap2\n      swap1\n      tag_17\n      jump\t// in\n    tag_16:\n      mload(0x40)\n      dup1\n      swap2\n      sub\n      swap1\n      return\n        /* \"contracts/mocks/MockResolverAlwaysWin.sol\":776:883  function hasRevealed(uint256, address) external pure override returns (bool) {... */\n    tag_4:\n      tag_18\n      0x04\n      dup1\n      calldatasize\n      sub\n      dup2\n      add\n      swap1\n      tag_19\n      swap2\n      swap1\n      tag_20\n      jump\t// in\n    tag_19:\n      tag_21\n      jump\t// in\n    tag_18:\n      mload(0x40)\n      tag_22\n      swap2\n      swap1\n      tag_23\n      jump\t// in\n    tag_22:\n      mload(0x40)\n      dup1\n      swap2\n      sub\n      swap1\n      return\n        /* \"contracts/mocks/MockResolverAlwaysWin.sol\":408:466  function commitMove(uint256, bytes32) external override {} */\n    tag_5:\n      tag_24\n      0x04\n      dup1\n      calldatasize\n      sub\n      dup2\n      add\n      swap1\n      tag_25\n      swap2\n      swap1\n      tag_26\n      jump\t// in\n    tag_25:\n      tag_27\n      jump\t// in\n    tag_24:\n      stop\n        /* \"contracts/mocks/MockResolverAlwaysWin.sol\":160:186  address public fixedWinner */\n    tag_6:\n      tag_28\n      tag_29\n      jump\t// in\n    tag_28:\n      mload(0x40)\n      tag_30\n      swap2\n      swap1\n      tag_31\n      jump\t// in\n    tag_30:\n      mload(0x40)\n      dup1\n      swap2\n      sub\n      swap1\n      return\n        /* \"contracts/mocks/MockResolverAlwaysWin.sol\":561:633  function registerPlayers(uint256, address, address) external override {} */\n    tag_7:\n      tag_32\n      0x04\n      dup1\n      calldatasize\n      sub\n      dup2\n      add\n      swap1\n      tag_33\n      swap2\n      swap1\n      tag_34\n      jump\t// in\n    tag_33:\n      tag_35\n      jump\t// in\n    tag_32:\n      stop\n        /* \"contracts/mocks/MockResolverAlwaysWin.sol\":639:770  function getPlayers(uint256) external view override returns (address[2] memory) {... */\n    tag_8:\n      tag_36\n      0x04\n      dup1\n      calldatasize\n      sub\n      dup2\n      add\n      swap1\n      tag_37\n      swap2\n      swap1\n      tag_14\n      jump\t// in\n    tag_37:\n      tag_38\n      jump\t// in\n    tag_36:\n      mload(0x40)\n      tag_39\n      swap2\n      swap1\n      tag_40\n      jump\t// in\n    tag_39:\n      mload(0x40)\n      dup1\n      swap2\n      sub\n      swap1\n      return\n        /* \"contracts/mocks/MockResolverAlwaysWin.sol\":472:555  function revealMove(uint256, string calldata, string calldata) external override {} */\n    tag_9:\n      tag_41\n      0x04\n      dup1\n      calldatasize\n      sub\n      dup2\n      add\n      swap1\n      tag_42\n      swap2\n      swap1\n      tag_43\n      jump\t// in\n    tag_42:\n      tag_44\n      jump\t// in\n    tag_41:\n      stop\n        /* \"contracts/mocks/MockResolverAlwaysWin.sol\":272:380  function resolveDuel(uint256) external view override returns (address) {... */\n    tag_10:\n      tag_45\n      0x04\n      dup1\n      calldatasize\n      sub\n      dup2\n      add\n      swap1\n      tag_46\n      swap2\n      swap1\n      tag_14\n      jump\t// in\n    tag_46:\n      tag_47\n      jump\t// in\n    tag_45:\n      mload(0x40)\n      tag_48\n      swap2\n      swap1\n      tag_31\n      jump\t// in\n    tag_48:\n      mload(0x40)\n      dup1\n      swap2\n      sub\n      swap1\n      return\n        /* \"contracts/mocks/MockResolverAlwaysWin.sol\":889:1010  function firstRevealTimestamp(uint256) external view override returns (uint256) {... */\n    tag_15:\n        /* \"contracts/mocks/MockResolverAlwaysWin.sol\":960:967  uint256 */\n      0x00\n        /* \"contracts/mocks/MockResolverAlwaysWin.sol\":987:1002  block.timestamp */\n      timestamp\n        /* \"contracts/mocks/MockResolverAlwaysWin.sol\":980:1002  return block.timestamp */\n      swap1\n      pop\n        /* \"contracts/mocks/MockResolverAlwaysWin.sol\":889:1010  function firstRevealTimestamp(uint256) external view override returns (uint256) {... */\n      swap2\n      swap1\n      pop\n      jump\t// out\n        /* \"contracts/mocks/MockResolverAlwaysWin.sol\":776:883  function hasRevealed(uint256, address) external pure override returns (bool) {... */\n    tag_21:\n        /* \"contracts/mocks/MockResolverAlwaysWin.sol\":847:851  bool */\n      0x00\n        /* \"contracts/mocks/MockResolverAlwaysWin.sol\":871:875  true */\n      0x01\n        /* \"contracts/mocks/MockResolverAlwaysWin.sol\":864:875  return true */\n      swap1\n      pop\n        /* \"contracts/mocks/MockResolverAlwaysWin.sol\":776:883  function hasRevealed(uint256, address) external pure override returns (bool) {... */\n      swap3\n      swap2\n      pop\n      pop\n      jump\t// out\n        /* \"contracts/mocks/MockResolverAlwaysWin.sol\":408:466  function commitMove(uint256, bytes32) external override {} */\n    tag_27:\n      pop\n      pop\n      jump\t// out\n        /* \"contracts/mocks/MockResolverAlwaysWin.sol\":160:186  address public fixedWinner */\n    tag_29:\n      0x00\n      dup1\n      sload\n      swap1\n      0x0100\n      exp\n      swap1\n      div\n      0xffffffffffffffffffffffffffffffffffffffff\n      and\n      dup2\n      jump\t// out\n        /* \"contracts/mocks/MockResolverAlwaysWin.sol\":561:633  function registerPlayers(uint256, address, address) external override {} */\n    tag_35:\n      pop\n      pop\n      pop\n      jump\t// out\n        /* \"contracts/mocks/MockResolverAlwaysWin.sol\":639:770  function getPlayers(uint256) external view override returns (address[2] memory) {... */\n    tag_38:\n        /* \"contracts/mocks/MockResolverAlwaysWin.sol\":700:717  address[2] memory */\n      tag_53\n      tag_54\n      jump\t// in\n    tag_53:\n        /* \"contracts/mocks/MockResolverAlwaysWin.sol\":730:762  return [fixedWinner, address(0)] */\n      mload(0x40)\n      dup1\n      0x40\n      add\n      0x40\n      mstore\n      dup1\n        /* \"contracts/mocks/MockResolverAlwaysWin.sol\":738:749  fixedWinner */\n      0x00\n      dup1\n      sload\n      swap1\n      0x0100\n      exp\n      swap1\n      div\n      0xffffffffffffffffffffffffffffffffffffffff\n      and\n        /* \"contracts/mocks/MockResolverAlwaysWin.sol\":730:762  return [fixedWinner, address(0)] */\n      0xffffffffffffffffffffffffffffffffffffffff\n      and\n      0xffffffffffffffffffffffffffffffffffffffff\n      and\n      dup2\n      mstore\n      0x20\n      add\n        /* \"contracts/mocks/MockResolverAlwaysWin.sol\":759:760  0 */\n      0x00\n        /* \"contracts/mocks/MockResolverAlwaysWin.sol\":730:762  return [fixedWinner, address(0)] */\n      0xffffffffffffffffffffffffffffffffffffffff\n      and\n      0xffffffffffffffffffffffffffffffffffffffff\n      and\n      dup2\n      mstore\n      pop\n      swap1\n      pop\n        /* \"contracts/mocks/MockResolverAlwaysWin.sol\":639:770  function getPlayers(uint256) external view override returns (address[2] memory) {... */\n      swap2\n      swap1\n      pop\n      jump\t// out\n        /* \"contracts/mocks/MockResolverAlwaysWin.sol\":472:555  function revealMove(uint256, string calldata, string calldata) external override {} */\n    tag_44:\n      pop\n      pop\n      pop\n      pop\n      pop\n      jump\t// out\n        /* \"contracts/mocks/MockResolverAlwaysWin.sol\":272:380  function resolveDuel(uint256) external view override returns (address) {... */\n    tag_47:\n        /* \"contracts/mocks/MockResolverAlwaysWin.sol\":334:341  address */\n      0x00\n        /* \"contracts/mocks/MockResolverAlwaysWin.sol\":361:372  fixedWinner */\n      dup1\n      0x00\n      swap1\n      sload\n      swap1\n      0x0100\n      exp\n      swap1\n      div\n      0xffffffffffffffffffffffffffffffffffffffff\n      and\n        /* \"contracts/mocks/MockResolverAlwaysWin.sol\":354:372  return fixedWinner */\n      swap1\n      pop\n        /* \"contracts/mocks/MockResolverAlwaysWin.sol\":272:380  function resolveDuel(uint256) external view override returns (address) {... */\n      swap2\n      swap1\n      pop\n      jump\t// out\n    tag_54:\n      mload(0x40)\n      dup1\n      0x40\n      add\n      0x40\n      mstore\n      dup1\n      0x02\n      swap1\n      0x20\n      dup3\n      mul\n      dup1\n      calldatasize\n      dup4\n      calldatacopy\n      dup1\n      dup3\n      add\n      swap2\n      pop\n      pop\n      swap1\n      pop\n      pop\n      swap1\n      jump\t// out\n        /* \"#utility.yul\":88:205   */\n    tag_59:\n        /* \"#utility.yul\":197:198   */\n      0x00\n        /* \"#utility.yul\":194:195   */\n      dup1\n        /* \"#utility.yul\":187:199   */\n      revert\n        /* \"#utility.yul\":211:328   */\n    tag_60:\n        /* \"#utility.yul\":320:321   */\n      0x00\n        /* \"#utility.yul\":317:318   */\n      dup1\n        /* \"#utility.yul\":310:322   */\n      revert\n        /* \"#utility.yul\":334:411   */\n    tag_61:\n        /* \"#utility.yul\":371:378   */\n      0x00\n        /* \"#utility.yul\":400:405   */\n      dup2\n        /* \"#utility.yul\":389:405   */\n      swap1\n      pop\n        /* \"#utility.yul\":334:411   */\n      swap2\n      swap1\n      pop\n      jump\t// out\n        /* \"#utility.yul\":417:539   */\n    tag_62:\n        /* \"#utility.yul\":490:514   */\n      tag_92\n        /* \"#utility.yul\":508:513   */\n      dup2\n        /* \"#utility.yul\":490:514   */\n      tag_61\n      jump\t// in\n    tag_92:\n        /* \"#utility.yul\":483:488   */\n      dup2\n        /* \"#utility.yul\":480:515   */\n      eq\n        /* \"#utility.yul\":470:533   */\n      tag_93\n      jumpi\n        /* \"#utility.yul\":529:530   */\n      0x00\n        /* \"#utility.yul\":526:527   */\n      dup1\n        /* \"#utility.yul\":519:531   */\n      revert\n        /* \"#utility.yul\":470:533   */\n    tag_93:\n        /* \"#utility.yul\":417:539   */\n      pop\n      jump\t// out\n        /* \"#utility.yul\":545:684   */\n    tag_63:\n        /* \"#utility.yul\":591:596   */\n      0x00\n        /* \"#utility.yul\":629:635   */\n      dup2\n        /* \"#utility.yul\":616:636   */\n      calldataload\n        /* \"#utility.yul\":607:636   */\n      swap1\n      pop\n        /* \"#utility.yul\":645:678   */\n      tag_95\n        /* \"#utility.yul\":672:677   */\n      dup2\n        /* \"#utility.yul\":645:678   */\n      tag_62\n      jump\t// in\n    tag_95:\n        /* \"#utility.yul\":545:684   */\n      swap3\n      swap2\n      pop\n      pop\n      jump\t// out\n        /* \"#utility.yul\":690:1019   */\n    tag_14:\n        /* \"#utility.yul\":749:755   */\n      0x00\n        /* \"#utility.yul\":798:800   */\n      0x20\n        /* \"#utility.yul\":786:795   */\n      dup3\n        /* \"#utility.yul\":777:784   */\n      dup5\n        /* \"#utility.yul\":773:796   */\n      sub\n        /* \"#utility.yul\":769:801   */\n      slt\n        /* \"#utility.yul\":766:885   */\n      iszero\n      tag_97\n      jumpi\n        /* \"#utility.yul\":804:883   */\n      tag_98\n      tag_59\n      jump\t// in\n    tag_98:\n        /* \"#utility.yul\":766:885   */\n    tag_97:\n        /* \"#utility.yul\":924:925   */\n      0x00\n        /* \"#utility.yul\":949:1002   */\n      tag_99\n        /* \"#utility.yul\":994:1001   */\n      dup5\n        /* \"#utility.yul\":985:991   */\n      dup3\n        /* \"#utility.yul\":974:983   */\n      dup6\n        /* \"#utility.yul\":970:992   */\n      add\n        /* \"#utility.yul\":949:1002   */\n      tag_63\n      jump\t// in\n    tag_99:\n        /* \"#utility.yul\":939:1002   */\n      swap2\n      pop\n        /* \"#utility.yul\":895:1012   */\n      pop\n        /* \"#utility.yul\":690:1019   */\n      swap3\n      swap2\n      pop\n      pop\n      jump\t// out\n        /* \"#utility.yul\":1025:1143   */\n    tag_64:\n        /* \"#utility.yul\":1112:1136   */\n      tag_101\n        /* \"#utility.yul\":1130:1135   */\n      dup2\n        /* \"#utility.yul\":1112:1136   */\n      tag_61\n      jump\t// in\n    tag_101:\n        /* \"#utility.yul\":1107:1110   */\n      dup3\n        /* \"#utility.yul\":1100:1137   */\n      mstore\n        /* \"#utility.yul\":1025:1143   */\n      pop\n      pop\n      jump\t// out\n        /* \"#utility.yul\":1149:1371   */\n    tag_17:\n        /* \"#utility.yul\":1242:1246   */\n      0x00\n        /* \"#utility.yul\":1280:1282   */\n      0x20\n        /* \"#utility.yul\":1269:1278   */\n      dup3\n        /* \"#utility.yul\":1265:1283   */\n      add\n        /* \"#utility.yul\":1257:1283   */\n      swap1\n      pop\n        /* \"#utility.yul\":1293:1364   */\n      tag_103\n        /* \"#utility.yul\":1361:1362   */\n      0x00\n        /* \"#utility.yul\":1350:1359   */\n      dup4\n        /* \"#utility.yul\":1346:1363   */\n      add\n        /* \"#utility.yul\":1337:1343   */\n      dup5\n        /* \"#utility.yul\":1293:1364   */\n      tag_64\n      jump\t// in\n    tag_103:\n        /* \"#utility.yul\":1149:1371   */\n      swap3\n      swap2\n      pop\n      pop\n      jump\t// out\n        /* \"#utility.yul\":1377:1503   */\n    tag_65:\n        /* \"#utility.yul\":1414:1421   */\n      0x00\n        /* \"#utility.yul\":1454:1496   */\n      0xffffffffffffffffffffffffffffffffffffffff\n        /* \"#utility.yul\":1447:1452   */\n      dup3\n        /* \"#utility.yul\":1443:1497   */\n      and\n        /* \"#utility.yul\":1432:1497   */\n      swap1\n      pop\n        /* \"#utility.yul\":1377:1503   */\n      swap2\n      swap1\n      pop\n      jump\t// out\n        /* \"#utility.yul\":1509:1605   */\n    tag_66:\n        /* \"#utility.yul\":1546:1553   */\n      0x00\n        /* \"#utility.yul\":1575:1599   */\n      tag_106\n        /* \"#utility.yul\":1593:1598   */\n      dup3\n        /* \"#utility.yul\":1575:1599   */\n      tag_65\n      jump\t// in\n    tag_106:\n        /* \"#utility.yul\":1564:1599   */\n      swap1\n      pop\n        /* \"#utility.yul\":1509:1605   */\n      swap2\n      swap1\n      pop\n      jump\t// out\n        /* \"#utility.yul\":1611:1733   */\n    tag_67:\n        /* \"#utility.yul\":1684:1708   */\n      tag_108\n        /* \"#utility.yul\":1702:1707   */\n      dup2\n        /* \"#utility.yul\":1684:1708   */\n      tag_66\n      jump\t// in\n    tag_108:\n        /* \"#utility.yul\":1677:1682   */\n      dup2\n        /* \"#utility.yul\":1674:1709   */\n      eq\n        /* \"#utility.yul\":1664:1727   */\n      tag_109\n      jumpi\n        /* \"#utility.yul\":1723:1724   */\n      0x00\n        /* \"#utility.yul\":1720:1721   */\n      dup1\n        /* \"#utility.yul\":1713:1725   */\n      revert\n        /* \"#utility.yul\":1664:1727   */\n    tag_109:\n        /* \"#utility.yul\":1611:1733   */\n      pop\n      jump\t// out\n        /* \"#utility.yul\":1739:1878   */\n    tag_68:\n        /* \"#utility.yul\":1785:1790   */\n      0x00\n        /* \"#utility.yul\":1823:1829   */\n      dup2\n        /* \"#utility.yul\":1810:1830   */\n      calldataload\n        /* \"#utility.yul\":1801:1830   */\n      swap1\n      pop\n        /* \"#utility.yul\":1839:1872   */\n      tag_111\n        /* \"#utility.yul\":1866:1871   */\n      dup2\n        /* \"#utility.yul\":1839:1872   */\n      tag_67\n      jump\t// in\n    tag_111:\n        /* \"#utility.yul\":1739:1878   */\n      swap3\n      swap2\n      pop\n      pop\n      jump\t// out\n        /* \"#utility.yul\":1884:2358   */\n    tag_20:\n        /* \"#utility.yul\":1952:1958   */\n      0x00\n        /* \"#utility.yul\":1960:1966   */\n      dup1\n        /* \"#utility.yul\":2009:2011   */\n      0x40\n        /* \"#utility.yul\":1997:2006   */\n      dup4\n        /* \"#utility.yul\":1988:1995   */\n      dup6\n        /* \"#utility.yul\":1984:2007   */\n      sub\n        /* \"#utility.yul\":1980:2012   */\n      slt\n        /* \"#utility.yul\":1977:2096   */\n      iszero\n      tag_113\n      jumpi\n        /* \"#utility.yul\":2015:2094   */\n      tag_114\n      tag_59\n      jump\t// in\n    tag_114:\n        /* \"#utility.yul\":1977:2096   */\n    tag_113:\n        /* \"#utility.yul\":2135:2136   */\n      0x00\n        /* \"#utility.yul\":2160:2213   */\n      tag_115\n        /* \"#utility.yul\":2205:2212   */\n      dup6\n        /* \"#utility.yul\":2196:2202   */\n      dup3\n        /* \"#utility.yul\":2185:2194   */\n      dup7\n        /* \"#utility.yul\":2181:2203   */\n      add\n        /* \"#utility.yul\":2160:2213   */\n      tag_63\n      jump\t// in\n    tag_115:\n        /* \"#utility.yul\":2150:2213   */\n      swap3\n      pop\n        /* \"#utility.yul\":2106:2223   */\n      pop\n        /* \"#utility.yul\":2262:2264   */\n      0x20\n        /* \"#utility.yul\":2288:2341   */\n      tag_116\n        /* \"#utility.yul\":2333:2340   */\n      dup6\n        /* \"#utility.yul\":2324:2330   */\n      dup3\n        /* \"#utility.yul\":2313:2322   */\n      dup7\n        /* \"#utility.yul\":2309:2331   */\n      add\n        /* \"#utility.yul\":2288:2341   */\n      tag_68\n      jump\t// in\n    tag_116:\n        /* \"#utility.yul\":2278:2341   */\n      swap2\n      pop\n        /* \"#utility.yul\":2233:2351   */\n      pop\n        /* \"#utility.yul\":1884:2358   */\n      swap3\n      pop\n      swap3\n      swap1\n      pop\n      jump\t// out\n        /* \"#utility.yul\":2364:2454   */\n    tag_69:\n        /* \"#utility.yul\":2398:2405   */\n      0x00\n        /* \"#utility.yul\":2441:2446   */\n      dup2\n        /* \"#utility.yul\":2434:2447   */\n      iszero\n        /* \"#utility.yul\":2427:2448   */\n      iszero\n        /* \"#utility.yul\":2416:2448   */\n      swap1\n      pop\n        /* \"#utility.yul\":2364:2454   */\n      swap2\n      swap1\n      pop\n      jump\t// out\n        /* \"#utility.yul\":2460:2569   */\n    tag_70:\n        /* \"#utility.yul\":2541:2562   */\n      tag_119\n        /* \"#utility.yul\":2556:2561   */\n      dup2\n        /* \"#utility.yul\":2541:2562   */\n      tag_69\n      jump\t// in\n    tag_119:\n        /* \"#utility.yul\":2536:2539   */\n      dup3\n        /* \"#utility.yul\":2529:2563   */\n      mstore\n        /* \"#utility.yul\":2460:2569   */\n      pop\n      pop\n      jump\t// out\n        /* \"#utility.yul\":2575:2785   */\n    tag_23:\n        /* \"#utility.yul\":2662:2666   */\n      0x00\n        /* \"#utility.yul\":2700:2702   */\n      0x20\n        /* \"#utility.yul\":2689:2698   */\n      dup3\n        /* \"#utility.yul\":2685:2703   */\n      add\n        /* \"#utility.yul\":2677:2703   */\n      swap1\n      pop\n        /* \"#utility.yul\":2713:2778   */\n      tag_121\n        /* \"#utility.yul\":2775:2776   */\n      0x00\n        /* \"#utility.yul\":2764:2773   */\n      dup4\n        /* \"#utility.yul\":2760:2777   */\n      add\n        /* \"#utility.yul\":2751:2757   */\n      dup5\n        /* \"#utility.yul\":2713:2778   */\n      tag_70\n      jump\t// in\n    tag_121:\n        /* \"#utility.yul\":2575:2785   */\n      swap3\n      swap2\n      pop\n      pop\n      jump\t// out\n        /* \"#utility.yul\":2791:2868   */\n    tag_71:\n        /* \"#utility.yul\":2828:2835   */\n      0x00\n        /* \"#utility.yul\":2857:2862   */\n      dup2\n        /* \"#utility.yul\":2846:2862   */\n      swap1\n      pop\n        /* \"#utility.yul\":2791:2868   */\n      swap2\n      swap1\n      pop\n      jump\t// out\n        /* \"#utility.yul\":2874:2996   */\n    tag_72:\n        /* \"#utility.yul\":2947:2971   */\n      tag_124\n        /* \"#utility.yul\":2965:2970   */\n      dup2\n        /* \"#utility.yul\":2947:2971   */\n      tag_71\n      jump\t// in\n    tag_124:\n        /* \"#utility.yul\":2940:2945   */\n      dup2\n        /* \"#utility.yul\":2937:2972   */\n      eq\n        /* \"#utility.yul\":2927:2990   */\n      tag_125\n      jumpi\n        /* \"#utility.yul\":2986:2987   */\n      0x00\n        /* \"#utility.yul\":2983:2984   */\n      dup1\n        /* \"#utility.yul\":2976:2988   */\n      revert\n        /* \"#utility.yul\":2927:2990   */\n    tag_125:\n        /* \"#utility.yul\":2874:2996   */\n      pop\n      jump\t// out\n        /* \"#utility.yul\":3002:3141   */\n    tag_73:\n        /* \"#utility.yul\":3048:3053   */\n      0x00\n        /* \"#utility.yul\":3086:3092   */\n      dup2\n        /* \"#utility.yul\":3073:3093   */\n      calldataload\n        /* \"#utility.yul\":3064:3093   */\n      swap1\n      pop\n        /* \"#utility.yul\":3102:3135   */\n      tag_127\n        /* \"#utility.yul\":3129:3134   */\n      dup2\n        /* \"#utility.yul\":3102:3135   */\n      tag_72\n      jump\t// in\n    tag_127:\n        /* \"#utility.yul\":3002:3141   */\n      swap3\n      swap2\n      pop\n      pop\n      jump\t// out\n        /* \"#utility.yul\":3147:3621   */\n    tag_26:\n        /* \"#utility.yul\":3215:3221   */\n      0x00\n        /* \"#utility.yul\":3223:3229   */\n      dup1\n        /* \"#utility.yul\":3272:3274   */\n      0x40\n        /* \"#utility.yul\":3260:3269   */\n      dup4\n        /* \"#utility.yul\":3251:3258   */\n      dup6\n        /* \"#utility.yul\":3247:3270   */\n      sub\n        /* \"#utility.yul\":3243:3275   */\n      slt\n        /* \"#utility.yul\":3240:3359   */\n      iszero\n      tag_129\n      jumpi\n        /* \"#utility.yul\":3278:3357   */\n      tag_130\n      tag_59\n      jump\t// in\n    tag_130:\n        /* \"#utility.yul\":3240:3359   */\n    tag_129:\n        /* \"#utility.yul\":3398:3399   */\n      0x00\n        /* \"#utility.yul\":3423:3476   */\n      tag_131\n        /* \"#utility.yul\":3468:3475   */\n      dup6\n        /* \"#utility.yul\":3459:3465   */\n      dup3\n        /* \"#utility.yul\":3448:3457   */\n      dup7\n        /* \"#utility.yul\":3444:3466   */\n      add\n        /* \"#utility.yul\":3423:3476   */\n      tag_63\n      jump\t// in\n    tag_131:\n        /* \"#utility.yul\":3413:3476   */\n      swap3\n      pop\n        /* \"#utility.yul\":3369:3486   */\n      pop\n        /* \"#utility.yul\":3525:3527   */\n      0x20\n        /* \"#utility.yul\":3551:3604   */\n      tag_132\n        /* \"#utility.yul\":3596:3603   */\n      dup6\n        /* \"#utility.yul\":3587:3593   */\n      dup3\n        /* \"#utility.yul\":3576:3585   */\n      dup7\n        /* \"#utility.yul\":3572:3594   */\n      add\n        /* \"#utility.yul\":3551:3604   */\n      tag_73\n      jump\t// in\n    tag_132:\n        /* \"#utility.yul\":3541:3604   */\n      swap2\n      pop\n        /* \"#utility.yul\":3496:3614   */\n      pop\n        /* \"#utility.yul\":3147:3621   */\n      swap3\n      pop\n      swap3\n      swap1\n      pop\n      jump\t// out\n        /* \"#utility.yul\":3627:3745   */\n    tag_74:\n        /* \"#utility.yul\":3714:3738   */\n      tag_134\n        /* \"#utility.yul\":3732:3737   */\n      dup2\n        /* \"#utility.yul\":3714:3738   */\n      tag_66\n      jump\t// in\n    tag_134:\n        /* \"#utility.yul\":3709:3712   */\n      dup3\n        /* \"#utility.yul\":3702:3739   */\n      mstore\n        /* \"#utility.yul\":3627:3745   */\n      pop\n      pop\n      jump\t// out\n        /* \"#utility.yul\":3751:3973   */\n    tag_31:\n        /* \"#utility.yul\":3844:3848   */\n      0x00\n        /* \"#utility.yul\":3882:3884   */\n      0x20\n        /* \"#utility.yul\":3871:3880   */\n      dup3\n        /* \"#utility.yul\":3867:3885   */\n      add\n        /* \"#utility.yul\":3859:3885   */\n      swap1\n      pop\n        /* \"#utility.yul\":3895:3966   */\n      tag_136\n        /* \"#utility.yul\":3963:3964   */\n      0x00\n        /* \"#utility.yul\":3952:3961   */\n      dup4\n        /* \"#utility.yul\":3948:3965   */\n      add\n        /* \"#utility.yul\":3939:3945   */\n      dup5\n        /* \"#utility.yul\":3895:3966   */\n      tag_74\n      jump\t// in\n    tag_136:\n        /* \"#utility.yul\":3751:3973   */\n      swap3\n      swap2\n      pop\n      pop\n      jump\t// out\n        /* \"#utility.yul\":3979:4598   */\n    tag_34:\n        /* \"#utility.yul\":4056:4062   */\n      0x00\n        /* \"#utility.yul\":4064:4070   */\n      dup1\n        /* \"#utility.yul\":4072:4078   */\n      0x00\n        /* \"#utility.yul\":4121:4123   */\n      0x60\n        /* \"#utility.yul\":4109:4118   */\n      dup5\n        /* \"#utility.yul\":4100:4107   */\n      dup7\n        /* \"#utility.yul\":4096:4119   */\n      sub\n        /* \"#utility.yul\":4092:4124   */\n      slt\n        /* \"#utility.yul\":4089:4208   */\n      iszero\n      tag_138\n      jumpi\n        /* \"#utility.yul\":4127:4206   */\n      tag_139\n      tag_59\n      jump\t// in\n    tag_139:\n        /* \"#utility.yul\":4089:4208   */\n    tag_138:\n        /* \"#utility.yul\":4247:4248   */\n      0x00\n        /* \"#utility.yul\":4272:4325   */\n      tag_140\n        /* \"#utility.yul\":4317:4324   */\n      dup7\n        /* \"#utility.yul\":4308:4314   */\n      dup3\n        /* \"#utility.yul\":4297:4306   */\n      dup8\n        /* \"#utility.yul\":4293:4315   */\n      add\n        /* \"#utility.yul\":4272:4325   */\n      tag_63\n      jump\t// in\n    tag_140:\n        /* \"#utility.yul\":4262:4325   */\n      swap4\n      pop\n        /* \"#utility.yul\":4218:4335   */\n      pop\n        /* \"#utility.yul\":4374:4376   */\n      0x20\n        /* \"#utility.yul\":4400:4453   */\n      tag_141\n        /* \"#utility.yul\":4445:4452   */\n      dup7\n        /* \"#utility.yul\":4436:4442   */\n      dup3\n        /* \"#utility.yul\":4425:4434   */\n      dup8\n        /* \"#utility.yul\":4421:4443   */\n      add\n        /* \"#utility.yul\":4400:4453   */\n      tag_68\n      jump\t// in\n    tag_141:\n        /* \"#utility.yul\":4390:4453   */\n      swap3\n      pop\n        /* \"#utility.yul\":4345:4463   */\n      pop\n        /* \"#utility.yul\":4502:4504   */\n      0x40\n        /* \"#utility.yul\":4528:4581   */\n      tag_142\n        /* \"#utility.yul\":4573:4580   */\n      dup7\n        /* \"#utility.yul\":4564:4570   */\n      dup3\n        /* \"#utility.yul\":4553:4562   */\n      dup8\n        /* \"#utility.yul\":4549:4571   */\n      add\n        /* \"#utility.yul\":4528:4581   */\n      tag_68\n      jump\t// in\n    tag_142:\n        /* \"#utility.yul\":4518:4581   */\n      swap2\n      pop\n        /* \"#utility.yul\":4473:4591   */\n      pop\n        /* \"#utility.yul\":3979:4598   */\n      swap3\n      pop\n      swap3\n      pop\n      swap3\n      jump\t// out\n        /* \"#utility.yul\":4604:4708   */\n    tag_75:\n        /* \"#utility.yul\":4669:4675   */\n      0x00\n        /* \"#utility.yul\":4697:4701   */\n      0x02\n        /* \"#utility.yul\":4687:4701   */\n      swap1\n      pop\n        /* \"#utility.yul\":4604:4708   */\n      swap2\n      swap1\n      pop\n      jump\t// out\n        /* \"#utility.yul\":4714:4857   */\n    tag_76:\n        /* \"#utility.yul\":4811:4822   */\n      0x00\n        /* \"#utility.yul\":4848:4851   */\n      dup2\n        /* \"#utility.yul\":4833:4851   */\n      swap1\n      pop\n        /* \"#utility.yul\":4714:4857   */\n      swap3\n      swap2\n      pop\n      pop\n      jump\t// out\n        /* \"#utility.yul\":4863:4961   */\n    tag_77:\n        /* \"#utility.yul\":4928:4932   */\n      0x00\n        /* \"#utility.yul\":4951:4954   */\n      dup2\n        /* \"#utility.yul\":4943:4954   */\n      swap1\n      pop\n        /* \"#utility.yul\":4863:4961   */\n      swap2\n      swap1\n      pop\n      jump\t// out\n        /* \"#utility.yul\":4967:5075   */\n    tag_78:\n        /* \"#utility.yul\":5044:5068   */\n      tag_147\n        /* \"#utility.yul\":5062:5067   */\n      dup2\n        /* \"#utility.yul\":5044:5068   */\n      tag_66\n      jump\t// in\n    tag_147:\n        /* \"#utility.yul\":5039:5042   */\n      dup3\n        /* \"#utility.yul\":5032:5069   */\n      mstore\n        /* \"#utility.yul\":4967:5075   */\n      pop\n      pop\n      jump\t// out\n        /* \"#utility.yul\":5081:5260   */\n    tag_79:\n        /* \"#utility.yul\":5150:5160   */\n      0x00\n        /* \"#utility.yul\":5171:5217   */\n      tag_149\n        /* \"#utility.yul\":5213:5216   */\n      dup4\n        /* \"#utility.yul\":5205:5211   */\n      dup4\n        /* \"#utility.yul\":5171:5217   */\n      tag_78\n      jump\t// in\n    tag_149:\n        /* \"#utility.yul\":5249:5253   */\n      0x20\n        /* \"#utility.yul\":5244:5247   */\n      dup4\n        /* \"#utility.yul\":5240:5254   */\n      add\n        /* \"#utility.yul\":5226:5254   */\n      swap1\n      pop\n        /* \"#utility.yul\":5081:5260   */\n      swap3\n      swap2\n      pop\n      pop\n      jump\t// out\n        /* \"#utility.yul\":5266:5377   */\n    tag_80:\n        /* \"#utility.yul\":5334:5338   */\n      0x00\n        /* \"#utility.yul\":5366:5370   */\n      0x20\n        /* \"#utility.yul\":5361:5364   */\n      dup3\n        /* \"#utility.yul\":5357:5371   */\n      add\n        /* \"#utility.yul\":5349:5371   */\n      swap1\n      pop\n        /* \"#utility.yul\":5266:5377   */\n      swap2\n      swap1\n      pop\n      jump\t// out\n        /* \"#utility.yul\":5415:6109   */\n    tag_81:\n        /* \"#utility.yul\":5551:5603   */\n      tag_152\n        /* \"#utility.yul\":5597:5602   */\n      dup2\n        /* \"#utility.yul\":5551:5603   */\n      tag_75\n      jump\t// in\n    tag_152:\n        /* \"#utility.yul\":5619:5703   */\n      tag_153\n        /* \"#utility.yul\":5696:5702   */\n      dup2\n        /* \"#utility.yul\":5691:5694   */\n      dup5\n        /* \"#utility.yul\":5619:5703   */\n      tag_76\n      jump\t// in\n    tag_153:\n        /* \"#utility.yul\":5612:5703   */\n      swap3\n      pop\n        /* \"#utility.yul\":5727:5781   */\n      tag_154\n        /* \"#utility.yul\":5775:5780   */\n      dup3\n        /* \"#utility.yul\":5727:5781   */\n      tag_77\n      jump\t// in\n    tag_154:\n        /* \"#utility.yul\":5804:5811   */\n      dup1\n        /* \"#utility.yul\":5835:5836   */\n      0x00\n        /* \"#utility.yul\":5820:6102   */\n    tag_155:\n        /* \"#utility.yul\":5845:5851   */\n      dup4\n        /* \"#utility.yul\":5842:5843   */\n      dup2\n        /* \"#utility.yul\":5839:5852   */\n      lt\n        /* \"#utility.yul\":5820:6102   */\n      iszero\n      tag_157\n      jumpi\n        /* \"#utility.yul\":5921:5927   */\n      dup2\n        /* \"#utility.yul\":5915:5928   */\n      mload\n        /* \"#utility.yul\":5948:6011   */\n      tag_158\n        /* \"#utility.yul\":6007:6010   */\n      dup8\n        /* \"#utility.yul\":5992:6005   */\n      dup3\n        /* \"#utility.yul\":5948:6011   */\n      tag_79\n      jump\t// in\n    tag_158:\n        /* \"#utility.yul\":5941:6011   */\n      swap7\n      pop\n        /* \"#utility.yul\":6034:6092   */\n      tag_159\n        /* \"#utility.yul\":6085:6091   */\n      dup4\n        /* \"#utility.yul\":6034:6092   */\n      tag_80\n      jump\t// in\n    tag_159:\n        /* \"#utility.yul\":6024:6092   */\n      swap3\n      pop\n        /* \"#utility.yul\":5880:6102   */\n      pop\n        /* \"#utility.yul\":5867:5868   */\n      0x01\n        /* \"#utility.yul\":5864:5865   */\n      dup2\n        /* \"#utility.yul\":5860:5869   */\n      add\n        /* \"#utility.yul\":5855:5869   */\n      swap1\n      pop\n        /* \"#utility.yul\":5820:6102   */\n      jump(tag_155)\n    tag_157:\n        /* \"#utility.yul\":5824:5838   */\n      pop\n        /* \"#utility.yul\":5527:6109   */\n      pop\n      pop\n      pop\n        /* \"#utility.yul\":5415:6109   */\n      pop\n      pop\n      jump\t// out\n        /* \"#utility.yul\":6115:6429   */\n    tag_40:\n        /* \"#utility.yul\":6254:6258   */\n      0x00\n        /* \"#utility.yul\":6292:6294   */\n      0x40\n        /* \"#utility.yul\":6281:6290   */\n      dup3\n        /* \"#utility.yul\":6277:6295   */\n      add\n        /* \"#utility.yul\":6269:6295   */\n      swap1\n      pop\n        /* \"#utility.yul\":6305:6422   */\n      tag_161\n        /* \"#utility.yul\":6419:6420   */\n      0x00\n        /* \"#utility.yul\":6408:6417   */\n      dup4\n        /* \"#utility.yul\":6404:6421   */\n      add\n        /* \"#utility.yul\":6395:6401   */\n      dup5\n        /* \"#utility.yul\":6305:6422   */\n      tag_81\n      jump\t// in\n    tag_161:\n        /* \"#utility.yul\":6115:6429   */\n      swap3\n      swap2\n      pop\n      pop\n      jump\t// out\n        /* \"#utility.yul\":6435:6552   */\n    tag_82:\n        /* \"#utility.yul\":6544:6545   */\n      0x00\n        /* \"#utility.yul\":6541:6542   */\n      dup1\n        /* \"#utility.yul\":6534:6546   */\n      revert\n        /* \"#utility.yul\":6558:6675   */\n    tag_83:\n        /* \"#utility.yul\":6667:6668   */\n      0x00\n        /* \"#utility.yul\":6664:6665   */\n      dup1\n        /* \"#utility.yul\":6657:6669   */\n      revert\n        /* \"#utility.yul\":6681:6798   */\n    tag_84:\n        /* \"#utility.yul\":6790:6791   */\n      0x00\n        /* \"#utility.yul\":6787:6788   */\n      dup1\n        /* \"#utility.yul\":6780:6792   */\n      revert\n        /* \"#utility.yul\":6818:7371   */\n    tag_85:\n        /* \"#utility.yul\":6876:6884   */\n      0x00\n        /* \"#utility.yul\":6886:6892   */\n      dup1\n        /* \"#utility.yul\":6936:6939   */\n      dup4\n        /* \"#utility.yul\":6929:6933   */\n      0x1f\n        /* \"#utility.yul\":6921:6927   */\n      dup5\n        /* \"#utility.yul\":6917:6934   */\n      add\n        /* \"#utility.yul\":6913:6940   */\n      slt\n        /* \"#utility.yul\":6903:7025   */\n      tag_166\n      jumpi\n        /* \"#utility.yul\":6944:7023   */\n      tag_167\n      tag_82\n      jump\t// in\n    tag_167:\n        /* \"#utility.yul\":6903:7025   */\n    tag_166:\n        /* \"#utility.yul\":7057:7063   */\n      dup3\n        /* \"#utility.yul\":7044:7064   */\n      calldataload\n        /* \"#utility.yul\":7034:7064   */\n      swap1\n      pop\n        /* \"#utility.yul\":7087:7105   */\n      0xffffffffffffffff\n        /* \"#utility.yul\":7079:7085   */\n      dup2\n        /* \"#utility.yul\":7076:7106   */\n      gt\n        /* \"#utility.yul\":7073:7190   */\n      iszero\n      tag_168\n      jumpi\n        /* \"#utility.yul\":7109:7188   */\n      tag_169\n      tag_83\n      jump\t// in\n    tag_169:\n        /* \"#utility.yul\":7073:7190   */\n    tag_168:\n        /* \"#utility.yul\":7223:7227   */\n      0x20\n        /* \"#utility.yul\":7215:7221   */\n      dup4\n        /* \"#utility.yul\":7211:7228   */\n      add\n        /* \"#utility.yul\":7199:7228   */\n      swap2\n      pop\n        /* \"#utility.yul\":7277:7280   */\n      dup4\n        /* \"#utility.yul\":7269:7273   */\n      0x01\n        /* \"#utility.yul\":7261:7267   */\n      dup3\n        /* \"#utility.yul\":7257:7274   */\n      mul\n        /* \"#utility.yul\":7247:7255   */\n      dup4\n        /* \"#utility.yul\":7243:7275   */\n      add\n        /* \"#utility.yul\":7240:7281   */\n      gt\n        /* \"#utility.yul\":7237:7365   */\n      iszero\n      tag_170\n      jumpi\n        /* \"#utility.yul\":7284:7363   */\n      tag_171\n      tag_84\n      jump\t// in\n    tag_171:\n        /* \"#utility.yul\":7237:7365   */\n    tag_170:\n        /* \"#utility.yul\":6818:7371   */\n      swap3\n      pop\n      swap3\n      swap1\n      pop\n      jump\t// out\n        /* \"#utility.yul\":7377:8396   */\n    tag_43:\n        /* \"#utility.yul\":7478:7484   */\n      0x00\n        /* \"#utility.yul\":7486:7492   */\n      dup1\n        /* \"#utility.yul\":7494:7500   */\n      0x00\n        /* \"#utility.yul\":7502:7508   */\n      dup1\n        /* \"#utility.yul\":7510:7516   */\n      0x00\n        /* \"#utility.yul\":7559:7561   */\n      0x60\n        /* \"#utility.yul\":7547:7556   */\n      dup7\n        /* \"#utility.yul\":7538:7545   */\n      dup9\n        /* \"#utility.yul\":7534:7557   */\n      sub\n        /* \"#utility.yul\":7530:7562   */\n      slt\n        /* \"#utility.yul\":7527:7646   */\n      iszero\n      tag_173\n      jumpi\n        /* \"#utility.yul\":7565:7644   */\n      tag_174\n      tag_59\n      jump\t// in\n    tag_174:\n        /* \"#utility.yul\":7527:7646   */\n    tag_173:\n        /* \"#utility.yul\":7685:7686   */\n      0x00\n        /* \"#utility.yul\":7710:7763   */\n      tag_175\n        /* \"#utility.yul\":7755:7762   */\n      dup9\n        /* \"#utility.yul\":7746:7752   */\n      dup3\n        /* \"#utility.yul\":7735:7744   */\n      dup10\n        /* \"#utility.yul\":7731:7753   */\n      add\n        /* \"#utility.yul\":7710:7763   */\n      tag_63\n      jump\t// in\n    tag_175:\n        /* \"#utility.yul\":7700:7763   */\n      swap6\n      pop\n        /* \"#utility.yul\":7656:7773   */\n      pop\n        /* \"#utility.yul\":7840:7842   */\n      0x20\n        /* \"#utility.yul\":7829:7838   */\n      dup7\n        /* \"#utility.yul\":7825:7843   */\n      add\n        /* \"#utility.yul\":7812:7844   */\n      calldataload\n        /* \"#utility.yul\":7871:7889   */\n      0xffffffffffffffff\n        /* \"#utility.yul\":7863:7869   */\n      dup2\n        /* \"#utility.yul\":7860:7890   */\n      gt\n        /* \"#utility.yul\":7857:7974   */\n      iszero\n      tag_176\n      jumpi\n        /* \"#utility.yul\":7893:7972   */\n      tag_177\n      tag_60\n      jump\t// in\n    tag_177:\n        /* \"#utility.yul\":7857:7974   */\n    tag_176:\n        /* \"#utility.yul\":8006:8071   */\n      tag_178\n        /* \"#utility.yul\":8063:8070   */\n      dup9\n        /* \"#utility.yul\":8054:8060   */\n      dup3\n        /* \"#utility.yul\":8043:8052   */\n      dup10\n        /* \"#utility.yul\":8039:8061   */\n      add\n        /* \"#utility.yul\":8006:8071   */\n      tag_85\n      jump\t// in\n    tag_178:\n        /* \"#utility.yul\":7988:8071   */\n      swap5\n      pop\n      swap5\n      pop\n        /* \"#utility.yul\":7783:8081   */\n      pop\n        /* \"#utility.yul\":8148:8150   */\n      0x40\n        /* \"#utility.yul\":8137:8146   */\n      dup7\n        /* \"#utility.yul\":8133:8151   */\n      add\n        /* \"#utility.yul\":8120:8152   */\n      calldataload\n        /* \"#utility.yul\":8179:8197   */\n      0xffffffffffffffff\n        /* \"#utility.yul\":8171:8177   */\n      dup2\n        /* \"#utility.yul\":8168:8198   */\n      gt\n        /* \"#utility.yul\":8165:8282   */\n      iszero\n      tag_179\n      jumpi\n        /* \"#utility.yul\":8201:8280   */\n      tag_180\n      tag_60\n      jump\t// in\n    tag_180:\n        /* \"#utility.yul\":8165:8282   */\n    tag_179:\n        /* \"#utility.yul\":8314:8379   */\n      tag_181\n        /* \"#utility.yul\":8371:8378   */\n      dup9\n        /* \"#utility.yul\":8362:8368   */\n      dup3\n        /* \"#utility.yul\":8351:8360   */\n      dup10\n        /* \"#utility.yul\":8347:8369   */\n      add\n        /* \"#utility.yul\":8314:8379   */\n      tag_85\n      jump\t// in\n    tag_181:\n        /* \"#utility.yul\":8296:8379   */\n      swap3\n      pop\n      swap3\n      pop\n        /* \"#utility.yul\":8091:8389   */\n      pop\n        /* \"#utility.yul\":7377:8396   */\n      swap3\n      swap6\n      pop\n      swap3\n      swap6\n      swap1\n      swap4\n      pop\n      jump\t// out\n\n    auxdata: 0xa2646970667358221220e19acf288e0229c969b3ca5f8201510f6e0ea5910869ab4d919417cb3fced86064736f6c63430008180033\n}\n",
				"bytecode": {
					"linkReferences": {},
					"object": "608060405234801561000f575f80fd5b5060405161081d38038061081d833981810160405281019061003191906100d4565b805f806101000a81548173ffffffffffffffffffffffffffffffffffffffff021916908373ffffffffffffffffffffffffffffffffffffffff160217905550506100ff565b5f80fd5b5f73ffffffffffffffffffffffffffffffffffffffff82169050919050565b5f6100a38261007a565b9050919050565b6100b381610099565b81146100bd575f80fd5b50565b5f815190506100ce816100aa565b92915050565b5f602082840312156100e9576100e8610076565b5b5f6100f6848285016100c0565b91505092915050565b6107118061010c5f395ff3fe608060405234801561000f575f80fd5b5060043610610086575f3560e01c80634400e01c116100595780634400e01c14610124578063460e204914610140578063526999d014610170578063cdd69a121461018c57610086565b80630907af751461008a57806316b5551d146100ba57806326826f62146100ea5780633ef17ee614610106575b5f80fd5b6100a4600480360381019061009f9190610324565b6101bc565b6040516100b1919061035e565b60405180910390f35b6100d460048036038101906100cf91906103d1565b6101c5565b6040516100e19190610429565b60405180910390f35b61010460048036038101906100ff9190610475565b6101d0565b005b61010e6101d4565b60405161011b91906104c2565b60405180910390f35b61013e600480360381019061013991906104db565b6101f7565b005b61015a60048036038101906101559190610324565b6101fc565b60405161016791906105d0565b60405180910390f35b61018a6004803603810190610185919061064a565b610297565b005b6101a660048036038101906101a19190610324565b61029e565b6040516101b391906104c2565b60405180910390f35b5f429050919050565b5f6001905092915050565b5050565b5f8054906101000a900473ffffffffffffffffffffffffffffffffffffffff1681565b505050565b6102046102c7565b60405180604001604052805f8054906101000a900473ffffffffffffffffffffffffffffffffffffffff1673ffffffffffffffffffffffffffffffffffffffff1673ffffffffffffffffffffffffffffffffffffffff1681526020015f73ffffffffffffffffffffffffffffffffffffffff1673ffffffffffffffffffffffffffffffffffffffff168152509050919050565b5050505050565b5f805f9054906101000a900473ffffffffffffffffffffffffffffffffffffffff169050919050565b6040518060400160405280600290602082028036833780820191505090505090565b5f80fd5b5f80fd5b5f819050919050565b610303816102f1565b811461030d575f80fd5b50565b5f8135905061031e816102fa565b92915050565b5f60208284031215610339576103386102e9565b5b5f61034684828501610310565b91505092915050565b610358816102f1565b82525050565b5f6020820190506103715f83018461034f565b92915050565b5f73ffffffffffffffffffffffffffffffffffffffff82169050919050565b5f6103a082610377565b9050919050565b6103b081610396565b81146103ba575f80fd5b50565b5f813590506103cb816103a7565b92915050565b5f80604083850312156103e7576103e66102e9565b5b5f6103f485828601610310565b9250506020610405858286016103bd565b9150509250929050565b5f8115159050919050565b6104238161040f565b82525050565b5f60208201905061043c5f83018461041a565b92915050565b5f819050919050565b61045481610442565b811461045e575f80fd5b50565b5f8135905061046f8161044b565b92915050565b5f806040838503121561048b5761048a6102e9565b5b5f61049885828601610310565b92505060206104a985828601610461565b9150509250929050565b6104bc81610396565b82525050565b5f6020820190506104d55f8301846104b3565b92915050565b5f805f606084860312156104f2576104f16102e9565b5b5f6104ff86828701610310565b9350506020610510868287016103bd565b9250506040610521868287016103bd565b9150509250925092565b5f60029050919050565b5f81905092915050565b5f819050919050565b61055181610396565b82525050565b5f6105628383610548565b60208301905092915050565b5f602082019050919050565b6105838161052b565b61058d8184610535565b92506105988261053f565b805f5b838110156105c85781516105af8782610557565b96506105ba8361056e565b92505060018101905061059b565b505050505050565b5f6040820190506105e35f83018461057a565b92915050565b5f80fd5b5f80fd5b5f80fd5b5f8083601f84011261060a576106096105e9565b5b8235905067ffffffffffffffff811115610627576106266105ed565b5b602083019150836001820283011115610643576106426105f1565b5b9250929050565b5f805f805f60608688031215610663576106626102e9565b5b5f61067088828901610310565b955050602086013567ffffffffffffffff811115610691576106906102ed565b5b61069d888289016105f5565b9450945050604086013567ffffffffffffffff8111156106c0576106bf6102ed565b5b6106cc888289016105f5565b9250925050929550929590935056fea2646970667358221220e19acf288e0229c969b3ca5f8201510f6e0ea5910869ab4d919417cb3fced86064736f6c63430008180033",
					"opcodes": "PUSH1 0x80 PUSH1 0x40 MSTORE CALLVALUE DUP1 ISZERO PUSH2 0xF JUMPI PUSH0 DUP1 REVERT JUMPDEST POP PUSH1 0x40 MLOAD PUSH2 0x81D CODESIZE SUB DUP1 PUSH2 0x81D DUP4 CODECOPY DUP2 DUP2 ADD PUSH1 0x40 MSTORE DUP2 ADD SWAP1 PUSH2 0x31 SWAP2 SWAP1 PUSH2 0xD4 JUMP JUMPDEST DUP1 PUSH0 DUP1 PUSH2 0x100 EXP DUP2 SLOAD DUP2 PUSH20 0xFFFFFFFFFFFFFFFFFFFFFFFFFFFFFFFFFFFFFFFF MUL NOT AND SWAP1 DUP4 PUSH20 0xFFFFFFFFFFFFFFFFFFFFFFFFFFFFFFFFFFFFFFFF AND MUL OR SWAP1 SSTORE POP POP PUSH2 0xFF JUMP JUMPDEST PUSH0 DUP1 REVERT JUMPDEST PUSH0 PUSH20 0xFFFFFFFFFFFFFFFFFFFFFFFFFFFFFFFFFFFFFFFF DUP3 AND SWAP1 POP SWAP2 SWAP1 POP JUMP JUMPDEST PUSH0 PUSH2 0xA3 DUP3 PUSH2 0x7A JUMP JUMPDEST SWAP1 POP SWAP2 SWAP1 POP JUMP JUMPDEST PUSH2 0xB3 DUP2 PUSH2 0x99 JUMP JUMPDEST DUP2 EQ PUSH2 0xBD JUMPI PUSH0 DUP1 REVERT JUMPDEST POP JUMP JUMPDEST PUSH0 DUP2 MLOAD SWAP1 POP PUSH2 0xCE DUP2 PUSH2 0xAA JUMP JUMPDEST SWAP3 SWAP2 POP POP JUMP JUMPDEST PUSH0 PUSH1 0x20 DUP3 DUP5 SUB SLT ISZERO PUSH2 0xE9 JUMPI PUSH2 0xE8 PUSH2 0x76 JUMP JUMPDEST JUMPDEST PUSH0 PUSH2 0xF6 DUP5 DUP3 DUP6 ADD PUSH2 0xC0 JUMP JUMPDEST SWAP2 POP POP SWAP3 SWAP2 POP POP JUMP JUMPDEST PUSH2 0x711 DUP1 PUSH2 0x10C PUSH0 CODECOPY PUSH0 RETURN INVALID PUSH1 0x80 PUSH1 0x40 MSTORE CALLVALUE DUP1 ISZERO PUSH2 0xF JUMPI PUSH0 DUP1 REVERT JUMPDEST POP PUSH1 0x4 CALLDATASIZE LT PUSH2 0x86 JUMPI PUSH0 CALLDATALOAD PUSH1 0xE0 SHR DUP1 PUSH4 0x4400E01C GT PUSH2 0x59 JUMPI DUP1 PUSH4 0x4400E01C EQ PUSH2 0x124 JUMPI DUP1 PUSH4 0x460E2049 EQ PUSH2 0x140 JUMPI DUP1 PUSH4 0x526999D0 EQ PUSH2 0x170 JUMPI DUP1 PUSH4 0xCDD69A12 EQ PUSH2 0x18C JUMPI PUSH2 0x86 JUMP JUMPDEST DUP1 PUSH4 0x907AF75 EQ PUSH2 0x8A JUMPI DUP1 PUSH4 0x16B5551D EQ PUSH2 0xBA JUMPI DUP1 PUSH4 0x26826F62 EQ PUSH2 0xEA JUMPI DUP1 PUSH4 0x3EF17EE6 EQ PUSH2 0x106 JUMPI JUMPDEST PUSH0 DUP1 REVERT JUMPDEST PUSH2 0xA4 PUSH1 0x4 DUP1 CALLDATASIZE SUB DUP2 ADD SWAP1 PUSH2 0x9F SWAP2 SWAP1 PUSH2 0x324 JUMP JUMPDEST PUSH2 0x1BC JUMP JUMPDEST PUSH1 0x40 MLOAD PUSH2 0xB1 SWAP2 SWAP1 PUSH2 0x35E JUMP JUMPDEST PUSH1 0x40 MLOAD DUP1 SWAP2 SUB SWAP1 RETURN JUMPDEST PUSH2 0xD4 PUSH1 0x4 DUP1 CALLDATASIZE SUB DUP2 ADD SWAP1 PUSH2 0xCF SWAP2 SWAP1 PUSH2 0x3D1 JUMP JUMPDEST PUSH2 0x1C5 JUMP JUMPDEST PUSH1 0x40 MLOAD PUSH2 0xE1 SWAP2 SWAP1 PUSH2 0x429 JUMP JUMPDEST PUSH1 0x40 MLOAD DUP1 SWAP2 SUB SWAP1 RETURN JUMPDEST PUSH2 0x104 PUSH1 0x4 DUP1 CALLDATASIZE SUB DUP2 ADD SWAP1 PUSH2 0xFF SWAP2 SWAP1 PUSH2 0x475 JUMP JUMPDEST PUSH2 0x1D0 JUMP JUMPDEST STOP JUMPDEST PUSH2 0x10E PUSH2 0x1D4 JUMP JUMPDEST PUSH1 0x40 MLOAD PUSH2 0x11B SWAP2 SWAP1 PUSH2 0x4C2 JUMP JUMPDEST PUSH1 0x40 MLOAD DUP1 SWAP2 SUB SWAP1 RETURN JUMPDEST PUSH2 0x13E PUSH1 0x4 DUP1 CALLDATASIZE SUB DUP2 ADD SWAP1 PUSH2 0x139 SWAP2 SWAP1 PUSH2 0x4DB JUMP JUMPDEST PUSH2 0x1F7 JUMP JUMPDEST STOP JUMPDEST PUSH2 0x15A PUSH1 0x4 DUP1 CALLDATASIZE SUB DUP2 ADD SWAP1 PUSH2 0x155 SWAP2 SWAP1 PUSH2 0x324 JUMP JUMPDEST PUSH2 0x1FC JUMP JUMPDEST PUSH1 0x40 MLOAD PUSH2 0x167 SWAP2 SWAP1 PUSH2 0x5D0 JUMP JUMPDEST PUSH1 0x40 MLOAD DUP1 SWAP2 SUB SWAP1 RETURN JUMPDEST PUSH2 0x18A PUSH1 0x4 DUP1 CALLDATASIZE SUB DUP2 ADD SWAP1 PUSH2 0x185 SWAP2 SWAP1 PUSH2 0x64A JUMP JUMPDEST PUSH2 0x297 JUMP JUMPDEST STOP JUMPDEST PUSH2 0x1A6 PUSH1 0x4 DUP1 CALLDATASIZE SUB DUP2 ADD SWAP1 PUSH2 0x1A1 SWAP2 SWAP1 PUSH2 0x324 JUMP JUMPDEST PUSH2 0x29E JUMP JUMPDEST PUSH1 0x40 MLOAD PUSH2 0x1B3 SWAP2 SWAP1 PUSH2 0x4C2 JUMP JUMPDEST PUSH1 0x40 MLOAD DUP1 SWAP2 SUB SWAP1 RETURN JUMPDEST PUSH0 TIMESTAMP SWAP1 POP SWAP2 SWAP1 POP JUMP JUMPDEST PUSH0 PUSH1 0x1 SWAP1 POP SWAP3 SWAP2 POP POP JUMP JUMPDEST POP POP JUMP JUMPDEST PUSH0 DUP1 SLOAD SWAP1 PUSH2 0x100 EXP SWAP1 DIV PUSH20 0xFFFFFFFFFFFFFFFFFFFFFFFFFFFFFFFFFFFFFFFF AND DUP2 JUMP JUMPDEST POP POP POP JUMP JUMPDEST PUSH2 0x204 PUSH2 0x2C7 JUMP JUMPDEST PUSH1 0x40 MLOAD DUP1 PUSH1 0x40 ADD PUSH1 0x40 MSTORE DUP1 PUSH0 DUP1 SLOAD SWAP1 PUSH2 0x100 EXP SWAP1 DIV PUSH20 0xFFFFFFFFFFFFFFFFFFFFFFFFFFFFFFFFFFFFFFFF AND PUSH20 0xFFFFFFFFFFFFFFFFFFFFFFFFFFFFFFFFFFFFFFFF AND PUSH20 0xFFFFFFFFFFFFFFFFFFFFFFFFFFFFFFFFFFFFFFFF AND DUP2 MSTORE PUSH1 0x20 ADD PUSH0 PUSH20 0xFFFFFFFFFFFFFFFFFFFFFFFFFFFFFFFFFFFFFFFF AND PUSH20 0xFFFFFFFFFFFFFFFFFFFFFFFFFFFFFFFFFFFFFFFF AND DUP2 MSTORE POP SWAP1 POP SWAP2 SWAP1 POP JUMP JUMPDEST POP POP POP POP POP JUMP JUMPDEST PUSH0 DUP1 PUSH0 SWAP1 SLOAD SWAP1 PUSH2 0x100 EXP SWAP1 DIV PUSH20 0xFFFFFFFFFFFFFFFFFFFFFFFFFFFFFFFFFFFFFFFF AND SWAP1 POP SWAP2 SWAP1 POP JUMP JUMPDEST PUSH1 0x40 MLOAD DUP1 PUSH1 0x40 ADD PUSH1 0x40 MSTORE DUP1 PUSH1 0x2 SWAP1 PUSH1 0x20 DUP3 MUL DUP1 CALLDATASIZE DUP4 CALLDATACOPY DUP1 DUP3 ADD SWAP2 POP POP SWAP1 POP POP SWAP1 JUMP JUMPDEST PUSH0 DUP1 REVERT JUMPDEST PUSH0 DUP1 REVERT JUMPDEST PUSH0 DUP2 SWAP1 POP SWAP2 SWAP1 POP JUMP JUMPDEST PUSH2 0x303 DUP2 PUSH2 0x2F1 JUMP JUMPDEST DUP2 EQ PUSH2 0x30D JUMPI PUSH0 DUP1 REVERT JUMPDEST POP JUMP JUMPDEST PUSH0 DUP2 CALLDATALOAD SWAP1 POP PUSH2 0x31E DUP2 PUSH2 0x2FA JUMP JUMPDEST SWAP3 SWAP2 POP POP JUMP JUMPDEST PUSH0 PUSH1 0x20 DUP3 DUP5 SUB SLT ISZERO PUSH2 0x339 JUMPI PUSH2 0x338 PUSH2 0x2E9 JUMP JUMPDEST JUMPDEST PUSH0 PUSH2 0x346 DUP5 DUP3 DUP6 ADD PUSH2 0x310 JUMP JUMPDEST SWAP2 POP POP SWAP3 SWAP2 POP POP JUMP JUMPDEST PUSH2 0x358 DUP2 PUSH2 0x2F1 JUMP JUMPDEST DUP3 MSTORE POP POP JUMP JUMPDEST PUSH0 PUSH1 0x20 DUP3 ADD SWAP1 POP PUSH2 0x371 PUSH0 DUP4 ADD DUP5 PUSH2 0x34F JUMP JUMPDEST SWAP3 SWAP2 POP POP JUMP JUMPDEST PUSH0 PUSH20 0xFFFFFFFFFFFFFFFFFFFFFFFFFFFFFFFFFFFFFFFF DUP3 AND SWAP1 POP SWAP2 SWAP1 POP JUMP JUMPDEST PUSH0 PUSH2 0x3A0 DUP3 PUSH2 0x377 JUMP JUMPDEST SWAP1 POP SWAP2 SWAP1 POP JUMP JUMPDEST PUSH2 0x3B0 DUP2 PUSH2 0x396 JUMP JUMPDEST DUP2 EQ PUSH2 0x3BA JUMPI PUSH0 DUP1 REVERT JUMPDEST POP JUMP JUMPDEST PUSH0 DUP2 CALLDATALOAD SWAP1 POP PUSH2 0x3CB DUP2 PUSH2 0x3A7 JUMP JUMPDEST SWAP3 SWAP2 POP POP JUMP JUMPDEST PUSH0 DUP1 PUSH1 0x40 DUP4 DUP6 SUB SLT ISZERO PUSH2 0x3E7 JUMPI PUSH2 0x3E6 PUSH2 0x2E9 JUMP JUMPDEST JUMPDEST PUSH0 PUSH2 0x3F4 DUP6 DUP3 DUP7 ADD PUSH2 0x310 JUMP JUMPDEST SWAP3 POP POP PUSH1 0x20 PUSH2 0x405 DUP6 DUP3 DUP7 ADD PUSH2 0x3BD JUMP JUMPDEST SWAP2 POP POP SWAP3 POP SWAP3 SWAP1 POP JUMP JUMPDEST PUSH0 DUP2 ISZERO ISZERO SWAP1 POP SWAP2 SWAP1 POP JUMP JUMPDEST PUSH2 0x423 DUP2 PUSH2 0x40F JUMP JUMPDEST DUP3 MSTORE POP POP JUMP JUMPDEST PUSH0 PUSH1 0x20 DUP3 ADD SWAP1 POP PUSH2 0x43C PUSH0 DUP4 ADD DUP5 PUSH2 0x41A JUMP JUMPDEST SWAP3 SWAP2 POP POP JUMP JUMPDEST PUSH0 DUP2 SWAP1 POP SWAP2 SWAP1 POP JUMP JUMPDEST PUSH2 0x454 DUP2 PUSH2 0x442 JUMP JUMPDEST DUP2 EQ PUSH2 0x45E JUMPI PUSH0 DUP1 REVERT JUMPDEST POP JUMP JUMPDEST PUSH0 DUP2 CALLDATALOAD SWAP1 POP PUSH2 0x46F DUP2 PUSH2 0x44B JUMP JUMPDEST SWAP3 SWAP2 POP POP JUMP JUMPDEST PUSH0 DUP1 PUSH1 0x40 DUP4 DUP6 SUB SLT ISZERO PUSH2 0x48B JUMPI PUSH2 0x48A PUSH2 0x2E9 JUMP JUMPDEST JUMPDEST PUSH0 PUSH2 0x498 DUP6 DUP3 DUP7 ADD PUSH2 0x310 JUMP JUMPDEST SWAP3 POP POP PUSH1 0x20 PUSH2 0x4A9 DUP6 DUP3 DUP7 ADD PUSH2 0x461 JUMP JUMPDEST SWAP2 POP POP SWAP3 POP SWAP3 SWAP1 POP JUMP JUMPDEST PUSH2 0x4BC DUP2 PUSH2 0x396 JUMP JUMPDEST DUP3 MSTORE POP POP JUMP JUMPDEST PUSH0 PUSH1 0x20 DUP3 ADD SWAP1 POP PUSH2 0x4D5 PUSH0 DUP4 ADD DUP5 PUSH2 0x4B3 JUMP JUMPDEST SWAP3 SWAP2 POP POP JUMP JUMPDEST PUSH0 DUP1 PUSH0 PUSH1 0x60 DUP5 DUP7 SUB SLT ISZERO PUSH2 0x4F2 JUMPI PUSH2 0x4F1 PUSH2 0x2E9 JUMP JUMPDEST JUMPDEST PUSH0 PUSH2 0x4FF DUP7 DUP3 DUP8 ADD PUSH2 0x310 JUMP JUMPDEST SWAP4 POP POP PUSH1 0x20 PUSH2 0x510 DUP7 DUP3 DUP8 ADD PUSH2 0x3BD JUMP JUMPDEST SWAP3 POP POP PUSH1 0x40 PUSH2 0x521 DUP7 DUP3 DUP8 ADD PUSH2 0x3BD JUMP JUMPDEST SWAP2 POP POP SWAP3 POP SWAP3 POP SWAP3 JUMP JUMPDEST PUSH0 PUSH1 0x2 SWAP1 POP SWAP2 SWAP1 POP JUMP JUMPDEST PUSH0 DUP2 SWAP1 POP SWAP3 SWAP2 POP POP JUMP JUMPDEST PUSH0 DUP2 SWAP1 POP SWAP2 SWAP1 POP JUMP JUMPDEST PUSH2 0x551 DUP2 PUSH2 0x396 JUMP JUMPDEST DUP3 MSTORE POP POP JUMP JUMPDEST PUSH0 PUSH2 0x562 DUP4 DUP4 PUSH2 0x548 JUMP JUMPDEST PUSH1 0x20 DUP4 ADD SWAP1 POP SWAP3 SWAP2 POP POP JUMP JUMPDEST PUSH0 PUSH1 0x20 DUP3 ADD SWAP1 POP SWAP2 SWAP1 POP JUMP JUMPDEST PUSH2 0x583 DUP2 PUSH2 0x52B JUMP JUMPDEST PUSH2 0x58D DUP2 DUP5 PUSH2 0x535 JUMP JUMPDEST SWAP3 POP PUSH2 0x598 DUP3 PUSH2 0x53F JUMP JUMPDEST DUP1 PUSH0 JUMPDEST DUP4 DUP2 LT ISZERO PUSH2 0x5C8 JUMPI DUP2 MLOAD PUSH2 0x5AF DUP8 DUP3 PUSH2 0x557 JUMP JUMPDEST SWAP7 POP PUSH2 0x5BA DUP4 PUSH2 0x56E JUMP JUMPDEST SWAP3 POP POP PUSH1 0x1 DUP2 ADD SWAP1 POP PUSH2 0x59B JUMP JUMPDEST POP POP POP POP POP POP JUMP JUMPDEST PUSH0 PUSH1 0x40 DUP3 ADD SWAP1 POP PUSH2 0x5E3 PUSH0 DUP4 ADD DUP5 PUSH2 0x57A JUMP JUMPDEST SWAP3 SWAP2 POP POP JUMP JUMPDEST PUSH0 DUP1 REVERT JUMPDEST PUSH0 DUP1 REVERT JUMPDEST PUSH0 DUP1 REVERT JUMPDEST PUSH0 DUP1 DUP4 PUSH1 0x1F DUP5 ADD SLT PUSH2 0x60A JUMPI PUSH2 0x609 PUSH2 0x5E9 JUMP JUMPDEST JUMPDEST DUP3 CALLDATALOAD SWAP1 POP PUSH8 0xFFFFFFFFFFFFFFFF DUP2 GT ISZERO PUSH2 0x627 JUMPI PUSH2 0x626 PUSH2 0x5ED JUMP JUMPDEST JUMPDEST PUSH1 0x20 DUP4 ADD SWAP2 POP DUP4 PUSH1 0x1 DUP3 MUL DUP4 ADD GT ISZERO PUSH2 0x643 JUMPI PUSH2 0x642 PUSH2 0x5F1 JUMP JUMPDEST JUMPDEST SWAP3 POP SWAP3 SWAP1 POP JUMP JUMPDEST PUSH0 DUP1 PUSH0 DUP1 PUSH0 PUSH1 0x60 DUP7 DUP9 SUB SLT ISZERO PUSH2 0x663 JUMPI PUSH2 0x662 PUSH2 0x2E9 JUMP JUMPDEST JUMPDEST PUSH0 PUSH2 0x670 DUP9 DUP3 DUP10 ADD PUSH2 0x310 JUMP JUMPDEST SWAP6 POP POP PUSH1 0x20 DUP7 ADD CALLDATALOAD PUSH8 0xFFFFFFFFFFFFFFFF DUP2 GT ISZERO PUSH2 0x691 JUMPI PUSH2 0x690 PUSH2 0x2ED JUMP JUMPDEST JUMPDEST PUSH2 0x69D DUP9 DUP3 DUP10 ADD PUSH2 0x5F5 JUMP JUMPDEST SWAP5 POP SWAP5 POP POP PUSH1 0x40 DUP7 ADD CALLDATALOAD PUSH8 0xFFFFFFFFFFFFFFFF DUP2 GT ISZERO PUSH2 0x6C0 JUMPI PUSH2 0x6BF PUSH2 0x2ED JUMP JUMPDEST JUMPDEST PUSH2 0x6CC DUP9 DUP3 DUP10 ADD PUSH2 0x5F5 JUMP JUMPDEST SWAP3 POP SWAP3 POP POP SWAP3 SWAP6 POP SWAP3 SWAP6 SWAP1 SWAP4 POP JUMP INVALID LOG2 PUSH5 0x6970667358 0x22 SLT KECCAK256 0xE1 SWAP11 0xCF 0x28 DUP15 MUL 0x29 0xC9 PUSH10 0xB3CA5F8201510F6E0EA5 SWAP2 ADDMOD PUSH10 0xAB4D919417CB3FCED860 PUSH5 0x736F6C6343 STOP ADDMOD XOR STOP CALLER "
				},
				"gasEstimates": {
					"creation": {
						"codeDepositCost": "361800",
						"executionCost": "infinite",
						"totalCost": "infinite"
					},
					"external": {
						"commitMove(uint256,bytes32)": "617",
						"firstRevealTimestamp(uint256)": "infinite",
						"fixedWinner()": "2572",
						"getPlayers(uint256)": "infinite",
						"hasRevealed(uint256,address)": "841",
						"registerPlayers(uint256,address,address)": "infinite",
						"resolveDuel(uint256)": "2842",
						"revealMove(uint256,string,string)": "infinite"
					}
				},
				"methodIdentifiers": {
					"commitMove(uint256,bytes32)": "26826f62",
					"firstRevealTimestamp(uint256)": "0907af75",
					"fixedWinner()": "3ef17ee6",
					"getPlayers(uint256)": "460e2049",
					"hasRevealed(uint256,address)": "16b5551d",
					"registerPlayers(uint256,address,address)": "4400e01c",
					"resolveDuel(uint256)": "cdd69a12",
					"revealMove(uint256,string,string)": "526999d0"
				}
			},
			"storageLayout": {
				"storage": [
					{
						"astId": 67,
						"contract": "contracts/mocks/MockResolverAlwaysWin.sol:MockResolverAlwaysWin",
						"label": "fixedWinner",
						"offset": 0,
						"slot": "0",
						"type": "t_address"
					}
				],
				"types": {
					"t_address": {
						"encoding": "inplace",
						"label": "address",
						"numberOfBytes": "20"
					}
				}
			},
			"userdoc": {
				"kind": "user",
				"methods": {},
				"version": 1
			}
		}
	}
}