{
	"contracts/DuelResolver.sol": {
		"DuelResolver": {
			"abi": [
				{
					"inputs": [
						{
							"internalType": "address",
							"name": "manager_",
							"type": "address"
						}
					],
					"stateMutability": "nonpayable",
					"type": "constructor"
				},
				{
					"inputs": [],
					"name": "AlreadyCommitted",
					"type": "error"
				},
				{
					"inputs": [],
					"name": "AlreadyRegistered",
					"type": "error"
				},
				{
					"inputs": [],
					"name": "AlreadyRevealed",
					"type": "error"
				},
				{
					"inputs": [],
					"name": "InvalidCommit",
					"type": "error"
				},
				{
					"inputs": [],
					"name": "InvalidMove",
					"type": "error"
				},
				{
					"inputs": [],
					"name": "NotBothRevealed",
					"type": "error"
				},
				{
					"inputs": [],
					"name": "NotRegisteredPlayer",
					"type": "error"
				},
				{
					"anonymous": false,
					"inputs": [
						{
							"indexed": true,
							"internalType": "uint256",
							"name": "duelId",
							"type": "uint256"
						},
						{
							"indexed": true,
							"internalType": "address",
							"name": "player",
							"type": "address"
						}
					],
					"name": "MoveCommitted",
					"type": "event"
				},
				{
					"anonymous": false,
					"inputs": [
						{
							"indexed": true,
							"internalType": "uint256",
							"name": "duelId",
							"type": "uint256"
						},
						{
							"indexed": true,
							"internalType": "address",
							"name": "player",
							"type": "address"
						},
						{
							"indexed": false,
							"internalType": "enum DuelResolver.Move",
							"name": "move",
							"type": "uint8"
						}
					],
					"name": "MoveRevealed",
					"type": "event"
				},
				{
					"inputs": [
						{
							"internalType": "uint256",
							"name": "duelId",
							"type": "uint256"
						},
						{
							"internalType": "bytes32",
							"name": "hash",
							"type": "bytes32"
						}
					],
					"name": "commitMove",
					"outputs": [],
					"stateMutability": "nonpayable",
					"type": "function"
				},
				{
					"inputs": [
						{
							"internalType": "uint256",
							"name": "",
							"type": "uint256"
						},
						{
							"internalType": "address",
							"name": "",
							"type": "address"
						}
					],
					"name": "duelCommits",
					"outputs": [
						{
							"internalType": "bytes32",
							"name": "hash",
							"type": "bytes32"
						},
						{
							"internalType": "bool",
							"name": "revealed",
							"type": "bool"
						},
						{
							"internalType": "enum DuelResolver.Move",
							"name": "move",
							"type": "uint8"
						}
					],
					"stateMutability": "view",
					"type": "function"
				},
				{
					"inputs": [
						{
							"internalType": "uint256",
							"name": "",
							"type": "uint256"
						},
						{
							"internalType": "uint256",
							"name": "",
							"type": "uint256"
						}
					],
					"name": "duelPlayers",
					"outputs": [
						{
							"internalType": "address",
							"name": "",
							"type": "address"
						}
					],
					"stateMutability": "view",
					"type": "function"
				},
				{
					"inputs": [
						{
							"internalType": "uint256",
							"name": "",
							"type": "uint256"
						}
					],
					"name": "firstRevealTimestamp",
					"outputs": [
						{
							"internalType": "uint256",
							"name": "",
							"type": "uint256"
						}
					],
					"stateMutability": "view",
					"type": "function"
				},
				{
					"inputs": [
						{
							"internalType": "uint256",
							"name": "duelId",
							"type": "uint256"
						}
					],
					"name": "getPlayers",
					"outputs": [
						{
							"internalType": "address[2]",
							"name": "",
							"type": "address[2]"
						}
					],
					"stateMutability": "view",
					"type": "function"
				},
				{
					"inputs": [
						{
							"internalType": "uint256",
							"name": "duelId",
							"type": "uint256"
						},
						{
							"internalType": "address",
							"name": "player",
							"type": "address"
						}
					],
					"name": "hasRevealed",
					"outputs": [
						{
							"internalType": "bool",
							"name": "",
							"type": "bool"
						}
					],
					"stateMutability": "view",
					"type": "function"
				},
				{
					"inputs": [],
					"name": "manager",
					"outputs": [
						{
							"internalType": "address",
							"name": "",
							"type": "address"
						}
					],
					"stateMutability": "view",
					"type": "function"
				},
				{
					"inputs": [
						{
							"internalType": "uint256",
							"name": "duelId",
							"type": "uint256"
						},
						{
							"internalType": "address",
							"name": "p1",
							"type": "address"
						},
						{
							"internalType": "address",
							"name": "p2",
							"type": "address"
						}
					],
					"name": "registerPlayers",
					"outputs": [],
					"stateMutability": "nonpayable",
					"type": "function"
				},
				{
					"inputs": [
						{
							"internalType": "uint256",
							"name": "duelId",
							"type": "uint256"
						}
					],
					"name": "resolveDuel",
					"outputs": [
						{
							"internalType": "address",
							"name": "winner",
							"type": "address"
						}
					],
					"stateMutability": "view",
					"type": "function"
				},
				{
					"inputs": [
						{
							"internalType": "uint256",
							"name": "duelId",
							"type": "uint256"
						},
						{
							"internalType": "string",
							"name": "move",
							"type": "string"
						},
						{
							"internalType": "string",
							"name": "salt",
							"type": "string"
						}
					],
					"name": "revealMove",
					"outputs": [],
					"stateMutability": "nonpayable",
					"type": "function"
				}
			],
			"devdoc": {
				"kind": "dev",
				"methods": {},
				"version": 1
			},
			"evm": {
				"assembly": "    /* \"contracts/DuelResolver.sol\":64:3919  contract DuelResolver{... */\n  mstore(0x40, 0xa0)\n    /* \"contracts/DuelResolver.sol\":967:1034  constructor(address manager_) {... */\n  callvalue\n  dup1\n  iszero\n  tag_1\n  jumpi\n  0x00\n  dup1\n  revert\ntag_1:\n  pop\n  mload(0x40)\n  sub(codesize, bytecodeSize)\n  dup1\n  bytecodeSize\n  dup4\n  codecopy\n  dup2\n  dup2\n  add\n  0x40\n  mstore\n  dup2\n  add\n  swap1\n  tag_2\n  swap2\n  swap1\n  tag_3\n  jump\t// in\ntag_2:\n    /* \"contracts/DuelResolver.sol\":1018:1026  manager_ */\n  dup1\n    /* \"contracts/DuelResolver.sol\":1008:1026  manager = manager_ */\n  0xffffffffffffffffffffffffffffffffffffffff\n  and\n  0x80\n  dup2\n  0xffffffffffffffffffffffffffffffffffffffff\n  and\n  dup2\n  mstore\n  pop\n  pop\n    /* \"contracts/DuelResolver.sol\":967:1034  constructor(address manager_) {... */\n  pop\n    /* \"contracts/DuelResolver.sol\":64:3919  contract DuelResolver{... */\n  jump(tag_6)\n    /* \"#utility.yul\":88:205   */\ntag_8:\n    /* \"#utility.yul\":197:198   */\n  0x00\n    /* \"#utility.yul\":194:195   */\n  dup1\n    /* \"#utility.yul\":187:199   */\n  revert\n    /* \"#utility.yul\":334:460   */\ntag_10:\n    /* \"#utility.yul\":371:378   */\n  0x00\n    /* \"#utility.yul\":411:453   */\n  0xffffffffffffffffffffffffffffffffffffffff\n    /* \"#utility.yul\":404:409   */\n  dup3\n    /* \"#utility.yul\":400:454   */\n  and\n    /* \"#utility.yul\":389:454   */\n  swap1\n  pop\n    /* \"#utility.yul\":334:460   */\n  swap2\n  swap1\n  pop\n  jump\t// out\n    /* \"#utility.yul\":466:562   */\ntag_11:\n    /* \"#utility.yul\":503:510   */\n  0x00\n    /* \"#utility.yul\":532:556   */\n  tag_20\n    /* \"#utility.yul\":550:555   */\n  dup3\n    /* \"#utility.yul\":532:556   */\n  tag_10\n  jump\t// in\ntag_20:\n    /* \"#utility.yul\":521:556   */\n  swap1\n  pop\n    /* \"#utility.yul\":466:562   */\n  swap2\n  swap1\n  pop\n  jump\t// out\n    /* \"#utility.yul\":568:690   */\ntag_12:\n    /* \"#utility.yul\":641:665   */\n  tag_22\n    /* \"#utility.yul\":659:664   */\n  dup2\n    /* \"#utility.yul\":641:665   */\n  tag_11\n  jump\t// in\ntag_22:\n    /* \"#utility.yul\":634:639   */\n  dup2\n    /* \"#utility.yul\":631:666   */\n  eq\n    /* \"#utility.yul\":621:684   */\n  tag_23\n  jumpi\n    /* \"#utility.yul\":680:681   */\n  0x00\n    /* \"#utility.yul\":677:678   */\n  dup1\n    /* \"#utility.yul\":670:682   */\n  revert\n    /* \"#utility.yul\":621:684   */\ntag_23:\n    /* \"#utility.yul\":568:690   */\n  pop\n  jump\t// out\n    /* \"#utility.yul\":696:839   */\ntag_13:\n    /* \"#utility.yul\":753:758   */\n  0x00\n    /* \"#utility.yul\":784:790   */\n  dup2\n    /* \"#utility.yul\":778:791   */\n  mload\n    /* \"#utility.yul\":769:791   */\n  swap1\n  pop\n    /* \"#utility.yul\":800:833   */\n  tag_25\n    /* \"#utility.yul\":827:832   */\n  dup2\n    /* \"#utility.yul\":800:833   */\n  tag_12\n  jump\t// in\ntag_25:\n    /* \"#utility.yul\":696:839   */\n  swap3\n  swap2\n  pop\n  pop\n  jump\t// out\n    /* \"#utility.yul\":845:1196   */\ntag_3:\n    /* \"#utility.yul\":915:921   */\n  0x00\n    /* \"#utility.yul\":964:966   */\n  0x20\n    /* \"#utility.yul\":952:961   */\n  dup3\n    /* \"#utility.yul\":943:950   */\n  dup5\n    /* \"#utility.yul\":939:962   */\n  sub\n    /* \"#utility.yul\":935:967   */\n  slt\n    /* \"#utility.yul\":932:1051   */\n  iszero\n  tag_27\n  jumpi\n    /* \"#utility.yul\":970:1049   */\n  tag_28\n  tag_8\n  jump\t// in\ntag_28:\n    /* \"#utility.yul\":932:1051   */\ntag_27:\n    /* \"#utility.yul\":1090:1091   */\n  0x00\n    /* \"#utility.yul\":1115:1179   */\n  tag_29\n    /* \"#utility.yul\":1171:1178   */\n  dup5\n    /* \"#utility.yul\":1162:1168   */\n  dup3\n    /* \"#utility.yul\":1151:1160   */\n  dup6\n    /* \"#utility.yul\":1147:1169   */\n  add\n    /* \"#utility.yul\":1115:1179   */\n  tag_13\n  jump\t// in\ntag_29:\n    /* \"#utility.yul\":1105:1179   */\n  swap2\n  pop\n    /* \"#utility.yul\":1061:1189   */\n  pop\n    /* \"#utility.yul\":845:1196   */\n  swap3\n  swap2\n  pop\n  pop\n  jump\t// out\n    /* \"contracts/DuelResolver.sol\":64:3919  contract DuelResolver{... */\ntag_6:\n  mload(0x80)\n  codecopy(0x00, dataOffset(sub_0), dataSize(sub_0))\n  0x00\n  assignImmutable(\"0x277ab82e5a4641341820a4a2933a62c1de997e42e92548657ae21b3728d580fe\")\n  return(0x00, dataSize(sub_0))\nstop\n\nsub_0: assembly {\n        /* \"contracts/DuelResolver.sol\":64:3919  contract DuelResolver{... */\n      mstore(0x40, 0x80)\n      callvalue\n      dup1\n      iszero\n      tag_1\n      jumpi\n      0x00\n      dup1\n      revert\n    tag_1:\n      pop\n      jumpi(tag_2, lt(calldatasize, 0x04))\n      shr(0xe0, calldataload(0x00))\n      dup1\n      0x481c6a75\n      gt\n      tag_13\n      jumpi\n      dup1\n      0x481c6a75\n      eq\n      tag_8\n      jumpi\n      dup1\n      0x48ceec53\n      eq\n      tag_9\n      jumpi\n      dup1\n      0x526999d0\n      eq\n      tag_10\n      jumpi\n      dup1\n      0x7f58d660\n      eq\n      tag_11\n      jumpi\n      dup1\n      0xcdd69a12\n      eq\n      tag_12\n      jumpi\n      jump(tag_2)\n    tag_13:\n      dup1\n      0x0907af75\n      eq\n      tag_3\n      jumpi\n      dup1\n      0x16b5551d\n      eq\n      tag_4\n      jumpi\n      dup1\n      0x26826f62\n      eq\n      tag_5\n      jumpi\n      dup1\n      0x4400e01c\n      eq\n      tag_6\n      jumpi\n      dup1\n      0x460e2049\n      eq\n      tag_7\n      jumpi\n    tag_2:\n      0x00\n      dup1\n      revert\n        /* \"contracts/DuelResolver.sol\":413:468  mapping(uint256 => uint256) public firstRevealTimestamp */\n    tag_3:\n      tag_14\n      0x04\n      dup1\n      calldatasize\n      sub\n      dup2\n      add\n      swap1\n      tag_15\n      swap2\n      swap1\n      tag_16\n      jump\t// in\n    tag_15:\n      tag_17\n      jump\t// in\n    tag_14:\n      mload(0x40)\n      tag_18\n      swap2\n      swap1\n      tag_19\n      jump\t// in\n    tag_18:\n      mload(0x40)\n      dup1\n      swap2\n      sub\n      swap1\n      return\n        /* \"contracts/DuelResolver.sol\":3290:3434  function hasRevealed(uint256 duelId, address player) external view returns (bool) {... */\n    tag_4:\n      tag_20\n      0x04\n      dup1\n      calldatasize\n      sub\n      dup2\n      add\n      swap1\n      tag_21\n      swap2\n      swap1\n      tag_22\n      jump\t// in\n    tag_21:\n      tag_23\n      jump\t// in\n    tag_20:\n      mload(0x40)\n      tag_24\n      swap2\n      swap1\n      tag_25\n      jump\t// in\n    tag_24:\n      mload(0x40)\n      dup1\n      swap2\n      sub\n      swap1\n      return\n        /* \"contracts/DuelResolver.sol\":1264:1771  function commitMove(uint256 duelId, bytes32 hash) external {... */\n    tag_5:\n      tag_26\n      0x04\n      dup1\n      calldatasize\n      sub\n      dup2\n      add\n      swap1\n      tag_27\n      swap2\n      swap1\n      tag_28\n      jump\t// in\n    tag_27:\n      tag_29\n      jump\t// in\n    tag_26:\n      stop\n        /* \"contracts/DuelResolver.sol\":1042:1256  function registerPlayers(uint256 duelId, address p1, address p2) external onlyManager {... */\n    tag_6:\n      tag_30\n      0x04\n      dup1\n      calldatasize\n      sub\n      dup2\n      add\n      swap1\n      tag_31\n      swap2\n      swap1\n      tag_32\n      jump\t// in\n    tag_31:\n      tag_33\n      jump\t// in\n    tag_30:\n      stop\n        /* \"contracts/DuelResolver.sol\":3442:3565  function getPlayers(uint256 duelId) external view returns (address[2] memory) {... */\n    tag_7:\n      tag_34\n      0x04\n      dup1\n      calldatasize\n      sub\n      dup2\n      add\n      swap1\n      tag_35\n      swap2\n      swap1\n      tag_16\n      jump\t// in\n    tag_35:\n      tag_36\n      jump\t// in\n    tag_34:\n      mload(0x40)\n      tag_37\n      swap2\n      swap1\n      tag_38\n      jump\t// in\n    tag_37:\n      mload(0x40)\n      dup1\n      swap2\n      sub\n      swap1\n      return\n        /* \"contracts/DuelResolver.sol\":244:276  address public immutable manager */\n    tag_8:\n      tag_39\n      tag_40\n      jump\t// in\n    tag_39:\n      mload(0x40)\n      tag_41\n      swap2\n      swap1\n      tag_42\n      jump\t// in\n    tag_41:\n      mload(0x40)\n      dup1\n      swap2\n      sub\n      swap1\n      return\n        /* \"contracts/DuelResolver.sol\":341:406  mapping(uint256 => mapping(address => Commit)) public duelCommits */\n    tag_9:\n      tag_43\n      0x04\n      dup1\n      calldatasize\n      sub\n      dup2\n      add\n      swap1\n      tag_44\n      swap2\n      swap1\n      tag_22\n      jump\t// in\n    tag_44:\n      tag_45\n      jump\t// in\n    tag_43:\n      mload(0x40)\n      tag_46\n      swap4\n      swap3\n      swap2\n      swap1\n      tag_47\n      jump\t// in\n    tag_46:\n      mload(0x40)\n      dup1\n      swap2\n      sub\n      swap1\n      return\n        /* \"contracts/DuelResolver.sol\":1779:2585  function revealMove(uint256 duelId, string calldata move, string calldata salt) external {... */\n    tag_10:\n      tag_48\n      0x04\n      dup1\n      calldatasize\n      sub\n      dup2\n      add\n      swap1\n      tag_49\n      swap2\n      swap1\n      tag_50\n      jump\t// in\n    tag_49:\n      tag_51\n      jump\t// in\n    tag_48:\n      stop\n        /* \"contracts/DuelResolver.sol\":285:334  mapping(uint256 => address[2]) public duelPlayers */\n    tag_11:\n      tag_52\n      0x04\n      dup1\n      calldatasize\n      sub\n      dup2\n      add\n      swap1\n      tag_53\n      swap2\n      swap1\n      tag_54\n      jump\t// in\n    tag_53:\n      tag_55\n      jump\t// in\n    tag_52:\n      mload(0x40)\n      tag_56\n      swap2\n      swap1\n      tag_42\n      jump\t// in\n    tag_56:\n      mload(0x40)\n      dup1\n      swap2\n      sub\n      swap1\n      return\n        /* \"contracts/DuelResolver.sol\":2593:3282  function resolveDuel(uint256 duelId) external view returns (address winner) {... */\n    tag_12:\n      tag_57\n      0x04\n      dup1\n      calldatasize\n      sub\n      dup2\n      add\n      swap1\n      tag_58\n      swap2\n      swap1\n      tag_16\n      jump\t// in\n    tag_58:\n      tag_59\n      jump\t// in\n    tag_57:\n      mload(0x40)\n      tag_60\n      swap2\n      swap1\n      tag_42\n      jump\t// in\n    tag_60:\n      mload(0x40)\n      dup1\n      swap2\n      sub\n      swap1\n      return\n        /* \"contracts/DuelResolver.sol\":413:468  mapping(uint256 => uint256) public firstRevealTimestamp */\n    tag_17:\n      mstore(0x20, 0x02)\n      dup1\n      0x00\n      mstore\n      keccak256(0x00, 0x40)\n      0x00\n      swap2\n      pop\n      swap1\n      pop\n      sload\n      dup2\n      jump\t// out\n        /* \"contracts/DuelResolver.sol\":3290:3434  function hasRevealed(uint256 duelId, address player) external view returns (bool) {... */\n    tag_23:\n        /* \"contracts/DuelResolver.sol\":3366:3370  bool */\n      0x00\n        /* \"contracts/DuelResolver.sol\":3390:3401  duelCommits */\n      0x01\n        /* \"contracts/DuelResolver.sol\":3390:3409  duelCommits[duelId] */\n      0x00\n        /* \"contracts/DuelResolver.sol\":3402:3408  duelId */\n      dup5\n        /* \"contracts/DuelResolver.sol\":3390:3409  duelCommits[duelId] */\n      dup2\n      mstore\n      0x20\n      add\n      swap1\n      dup2\n      mstore\n      0x20\n      add\n      0x00\n      keccak256\n        /* \"contracts/DuelResolver.sol\":3390:3417  duelCommits[duelId][player] */\n      0x00\n        /* \"contracts/DuelResolver.sol\":3410:3416  player */\n      dup4\n        /* \"contracts/DuelResolver.sol\":3390:3417  duelCommits[duelId][player] */\n      0xffffffffffffffffffffffffffffffffffffffff\n      and\n      0xffffffffffffffffffffffffffffffffffffffff\n      and\n      dup2\n      mstore\n      0x20\n      add\n      swap1\n      dup2\n      mstore\n      0x20\n      add\n      0x00\n      keccak256\n        /* \"contracts/DuelResolver.sol\":3390:3426  duelCommits[duelId][player].revealed */\n      0x01\n      add\n      0x00\n      swap1\n      sload\n      swap1\n      0x0100\n      exp\n      swap1\n      div\n      0xff\n      and\n        /* \"contracts/DuelResolver.sol\":3383:3426  return duelCommits[duelId][player].revealed */\n      swap1\n      pop\n        /* \"contracts/DuelResolver.sol\":3290:3434  function hasRevealed(uint256 duelId, address player) external view returns (bool) {... */\n      swap3\n      swap2\n      pop\n      pop\n      jump\t// out\n        /* \"contracts/DuelResolver.sol\":1264:1771  function commitMove(uint256 duelId, bytes32 hash) external {... */\n    tag_29:\n        /* \"contracts/DuelResolver.sol\":1334:1359  address[2] memory players */\n      0x00\n        /* \"contracts/DuelResolver.sol\":1362:1373  duelPlayers */\n      dup1\n        /* \"contracts/DuelResolver.sol\":1362:1381  duelPlayers[duelId] */\n      0x00\n        /* \"contracts/DuelResolver.sol\":1374:1380  duelId */\n      dup5\n        /* \"contracts/DuelResolver.sol\":1362:1381  duelPlayers[duelId] */\n      dup2\n      mstore\n      0x20\n      add\n      swap1\n      dup2\n      mstore\n      0x20\n      add\n      0x00\n      keccak256\n        /* \"contracts/DuelResolver.sol\":1334:1381  address[2] memory players = duelPlayers[duelId] */\n      0x02\n      dup1\n      0x20\n      mul\n      mload(0x40)\n      swap1\n      dup2\n      add\n      0x40\n      mstore\n      dup1\n      swap3\n      swap2\n      swap1\n      dup3\n      0x02\n      dup1\n      iszero\n      tag_63\n      jumpi\n      0x20\n      mul\n      dup3\n      add\n      swap2\n    tag_64:\n      dup2\n      0x00\n      swap1\n      sload\n      swap1\n      0x0100\n      exp\n      swap1\n      div\n      0xffffffffffffffffffffffffffffffffffffffff\n      and\n      0xffffffffffffffffffffffffffffffffffffffff\n      and\n      dup2\n      mstore\n      0x20\n      add\n      swap1\n      0x01\n      add\n      swap1\n      dup1\n      dup4\n      gt\n      tag_64\n      jumpi\n    tag_63:\n      pop\n      pop\n      pop\n      pop\n      pop\n      swap1\n      pop\n        /* \"contracts/DuelResolver.sol\":1410:1417  players */\n      dup1\n        /* \"contracts/DuelResolver.sol\":1418:1419  0 */\n      0x00\n        /* \"contracts/DuelResolver.sol\":1410:1420  players[0] */\n      0x02\n      dup2\n      lt\n      tag_65\n      jumpi\n      tag_66\n      tag_67\n      jump\t// in\n    tag_66:\n    tag_65:\n      0x20\n      mul\n      add\n      mload\n        /* \"contracts/DuelResolver.sol\":1396:1420  msg.sender != players[0] */\n      0xffffffffffffffffffffffffffffffffffffffff\n      and\n        /* \"contracts/DuelResolver.sol\":1396:1406  msg.sender */\n      caller\n        /* \"contracts/DuelResolver.sol\":1396:1420  msg.sender != players[0] */\n      0xffffffffffffffffffffffffffffffffffffffff\n      and\n      eq\n      iszero\n        /* \"contracts/DuelResolver.sol\":1396:1448  msg.sender != players[0] && msg.sender != players[1] */\n      dup1\n      iszero\n      tag_68\n      jumpi\n      pop\n        /* \"contracts/DuelResolver.sol\":1438:1445  players */\n      dup1\n        /* \"contracts/DuelResolver.sol\":1446:1447  1 */\n      0x01\n        /* \"contracts/DuelResolver.sol\":1438:1448  players[1] */\n      0x02\n      dup2\n      lt\n      tag_69\n      jumpi\n      tag_70\n      tag_67\n      jump\t// in\n    tag_70:\n    tag_69:\n      0x20\n      mul\n      add\n      mload\n        /* \"contracts/DuelResolver.sol\":1424:1448  msg.sender != players[1] */\n      0xffffffffffffffffffffffffffffffffffffffff\n      and\n        /* \"contracts/DuelResolver.sol\":1424:1434  msg.sender */\n      caller\n        /* \"contracts/DuelResolver.sol\":1424:1448  msg.sender != players[1] */\n      0xffffffffffffffffffffffffffffffffffffffff\n      and\n      eq\n      iszero\n        /* \"contracts/DuelResolver.sol\":1396:1448  msg.sender != players[0] && msg.sender != players[1] */\n    tag_68:\n        /* \"contracts/DuelResolver.sol\":1392:1478  if (msg.sender != players[0] && msg.sender != players[1]) revert NotRegisteredPlayer() */\n      iszero\n      tag_71\n      jumpi\n        /* \"contracts/DuelResolver.sol\":1457:1478  NotRegisteredPlayer() */\n      mload(0x40)\n      0x938f051800000000000000000000000000000000000000000000000000000000\n      dup2\n      mstore\n      0x04\n      add\n      mload(0x40)\n      dup1\n      swap2\n      sub\n      swap1\n      revert\n        /* \"contracts/DuelResolver.sol\":1392:1478  if (msg.sender != players[0] && msg.sender != players[1]) revert NotRegisteredPlayer() */\n    tag_71:\n        /* \"contracts/DuelResolver.sol\":1533:1534  0 */\n      0x00\n        /* \"contracts/DuelResolver.sol\":1493:1534  duelCommits[duelId][msg.sender].hash != 0 */\n      dup1\n      shl\n        /* \"contracts/DuelResolver.sol\":1493:1504  duelCommits */\n      0x01\n        /* \"contracts/DuelResolver.sol\":1493:1512  duelCommits[duelId] */\n      0x00\n        /* \"contracts/DuelResolver.sol\":1505:1511  duelId */\n      dup6\n        /* \"contracts/DuelResolver.sol\":1493:1512  duelCommits[duelId] */\n      dup2\n      mstore\n      0x20\n      add\n      swap1\n      dup2\n      mstore\n      0x20\n      add\n      0x00\n      keccak256\n        /* \"contracts/DuelResolver.sol\":1493:1524  duelCommits[duelId][msg.sender] */\n      0x00\n        /* \"contracts/DuelResolver.sol\":1513:1523  msg.sender */\n      caller\n        /* \"contracts/DuelResolver.sol\":1493:1524  duelCommits[duelId][msg.sender] */\n      0xffffffffffffffffffffffffffffffffffffffff\n      and\n      0xffffffffffffffffffffffffffffffffffffffff\n      and\n      dup2\n      mstore\n      0x20\n      add\n      swap1\n      dup2\n      mstore\n      0x20\n      add\n      0x00\n      keccak256\n        /* \"contracts/DuelResolver.sol\":1493:1529  duelCommits[duelId][msg.sender].hash */\n      0x00\n      add\n      sload\n        /* \"contracts/DuelResolver.sol\":1493:1534  duelCommits[duelId][msg.sender].hash != 0 */\n      eq\n        /* \"contracts/DuelResolver.sol\":1489:1561  if (duelCommits[duelId][msg.sender].hash != 0) revert AlreadyCommitted() */\n      tag_72\n      jumpi\n        /* \"contracts/DuelResolver.sol\":1543:1561  AlreadyCommitted() */\n      mload(0x40)\n      0xbfec555800000000000000000000000000000000000000000000000000000000\n      dup2\n      mstore\n      0x04\n      add\n      mload(0x40)\n      dup1\n      swap2\n      sub\n      swap1\n      revert\n        /* \"contracts/DuelResolver.sol\":1489:1561  if (duelCommits[duelId][msg.sender].hash != 0) revert AlreadyCommitted() */\n    tag_72:\n        /* \"contracts/DuelResolver.sol\":1608:1712  Commit({... */\n      mload(0x40)\n      dup1\n      0x60\n      add\n      0x40\n      mstore\n      dup1\n        /* \"contracts/DuelResolver.sol\":1636:1640  hash */\n      dup4\n        /* \"contracts/DuelResolver.sol\":1608:1712  Commit({... */\n      dup2\n      mstore\n      0x20\n      add\n        /* \"contracts/DuelResolver.sol\":1665:1670  false */\n      0x00\n        /* \"contracts/DuelResolver.sol\":1608:1712  Commit({... */\n      iszero\n      iszero\n      dup2\n      mstore\n      0x20\n      add\n        /* \"contracts/DuelResolver.sol\":1691:1700  Move.None */\n      0x00\n        /* \"contracts/DuelResolver.sol\":1608:1712  Commit({... */\n      0x03\n      dup2\n      gt\n      iszero\n      tag_73\n      jumpi\n      tag_74\n      tag_75\n      jump\t// in\n    tag_74:\n    tag_73:\n      dup2\n      mstore\n      pop\n        /* \"contracts/DuelResolver.sol\":1574:1585  duelCommits */\n      0x01\n        /* \"contracts/DuelResolver.sol\":1574:1593  duelCommits[duelId] */\n      0x00\n        /* \"contracts/DuelResolver.sol\":1586:1592  duelId */\n      dup6\n        /* \"contracts/DuelResolver.sol\":1574:1593  duelCommits[duelId] */\n      dup2\n      mstore\n      0x20\n      add\n      swap1\n      dup2\n      mstore\n      0x20\n      add\n      0x00\n      keccak256\n        /* \"contracts/DuelResolver.sol\":1574:1605  duelCommits[duelId][msg.sender] */\n      0x00\n        /* \"contracts/DuelResolver.sol\":1594:1604  msg.sender */\n      caller\n        /* \"contracts/DuelResolver.sol\":1574:1605  duelCommits[duelId][msg.sender] */\n      0xffffffffffffffffffffffffffffffffffffffff\n      and\n      0xffffffffffffffffffffffffffffffffffffffff\n      and\n      dup2\n      mstore\n      0x20\n      add\n      swap1\n      dup2\n      mstore\n      0x20\n      add\n      0x00\n      keccak256\n        /* \"contracts/DuelResolver.sol\":1574:1712  duelCommits[duelId][msg.sender] = Commit({... */\n      0x00\n      dup3\n      add\n      mload\n      dup2\n      0x00\n      add\n      sstore\n      0x20\n      dup3\n      add\n      mload\n      dup2\n      0x01\n      add\n      exp(0x0100, 0x00)\n      dup2\n      sload\n      dup2\n      0xff\n      mul\n      not\n      and\n      swap1\n      dup4\n      iszero\n      iszero\n      mul\n      or\n      swap1\n      sstore\n      pop\n      0x40\n      dup3\n      add\n      mload\n      dup2\n      0x01\n      add\n      exp(0x0100, 0x01)\n      dup2\n      sload\n      dup2\n      0xff\n      mul\n      not\n      and\n      swap1\n      dup4\n      0x03\n      dup2\n      gt\n      iszero\n      tag_76\n      jumpi\n      tag_77\n      tag_75\n      jump\t// in\n    tag_77:\n    tag_76:\n      mul\n      or\n      swap1\n      sstore\n      pop\n      swap1\n      pop\n      pop\n        /* \"contracts/DuelResolver.sol\":1752:1762  msg.sender */\n      caller\n        /* \"contracts/DuelResolver.sol\":1730:1763  MoveCommitted(duelId, msg.sender) */\n      0xffffffffffffffffffffffffffffffffffffffff\n      and\n        /* \"contracts/DuelResolver.sol\":1744:1750  duelId */\n      dup4\n        /* \"contracts/DuelResolver.sol\":1730:1763  MoveCommitted(duelId, msg.sender) */\n      0x1d3cf81927da212fdd71794079b5b6a4915c8e82ae6486396a4a635d7b641d72\n      mload(0x40)\n      mload(0x40)\n      dup1\n      swap2\n      sub\n      swap1\n      log3\n        /* \"contracts/DuelResolver.sol\":1323:1771  {... */\n      pop\n        /* \"contracts/DuelResolver.sol\":1264:1771  function commitMove(uint256 duelId, bytes32 hash) external {... */\n      pop\n      pop\n      jump\t// out\n        /* \"contracts/DuelResolver.sol\":1042:1256  function registerPlayers(uint256 duelId, address p1, address p2) external onlyManager {... */\n    tag_33:\n        /* \"contracts/DuelResolver.sol\":742:749  manager */\n      immutable(\"0x277ab82e5a4641341820a4a2933a62c1de997e42e92548657ae21b3728d580fe\")\n        /* \"contracts/DuelResolver.sol\":728:749  msg.sender != manager */\n      0xffffffffffffffffffffffffffffffffffffffff\n      and\n        /* \"contracts/DuelResolver.sol\":728:738  msg.sender */\n      caller\n        /* \"contracts/DuelResolver.sol\":728:749  msg.sender != manager */\n      0xffffffffffffffffffffffffffffffffffffffff\n      and\n      eq\n        /* \"contracts/DuelResolver.sol\":724:779  if (msg.sender != manager) revert NotRegisteredPlayer() */\n      tag_79\n      jumpi\n        /* \"contracts/DuelResolver.sol\":758:779  NotRegisteredPlayer() */\n      mload(0x40)\n      0x938f051800000000000000000000000000000000000000000000000000000000\n      dup2\n      mstore\n      0x04\n      add\n      mload(0x40)\n      dup1\n      swap2\n      sub\n      swap1\n      revert\n        /* \"contracts/DuelResolver.sol\":724:779  if (msg.sender != manager) revert NotRegisteredPlayer() */\n    tag_79:\n        /* \"contracts/DuelResolver.sol\":1177:1178  0 */\n      0x00\n        /* \"contracts/DuelResolver.sol\":1143:1179  duelPlayers[duelId][0] != address(0) */\n      0xffffffffffffffffffffffffffffffffffffffff\n      and\n        /* \"contracts/DuelResolver.sol\":1143:1154  duelPlayers */\n      0x00\n        /* \"contracts/DuelResolver.sol\":1143:1162  duelPlayers[duelId] */\n      dup1\n        /* \"contracts/DuelResolver.sol\":1155:1161  duelId */\n      dup6\n        /* \"contracts/DuelResolver.sol\":1143:1162  duelPlayers[duelId] */\n      dup2\n      mstore\n      0x20\n      add\n      swap1\n      dup2\n      mstore\n      0x20\n      add\n      0x00\n      keccak256\n        /* \"contracts/DuelResolver.sol\":1163:1164  0 */\n      0x00\n        /* \"contracts/DuelResolver.sol\":1143:1165  duelPlayers[duelId][0] */\n      0x02\n      dup2\n      lt\n      tag_81\n      jumpi\n      tag_82\n      tag_67\n      jump\t// in\n    tag_82:\n    tag_81:\n      add\n      0x00\n      swap1\n      sload\n      swap1\n      0x0100\n      exp\n      swap1\n      div\n      0xffffffffffffffffffffffffffffffffffffffff\n      and\n        /* \"contracts/DuelResolver.sol\":1143:1179  duelPlayers[duelId][0] != address(0) */\n      0xffffffffffffffffffffffffffffffffffffffff\n      and\n      eq\n        /* \"contracts/DuelResolver.sol\":1139:1207  if (duelPlayers[duelId][0] != address(0)) revert AlreadyRegistered() */\n      tag_84\n      jumpi\n        /* \"contracts/DuelResolver.sol\":1188:1207  AlreadyRegistered() */\n      mload(0x40)\n      0x3a81d6fc00000000000000000000000000000000000000000000000000000000\n      dup2\n      mstore\n      0x04\n      add\n      mload(0x40)\n      dup1\n      swap2\n      sub\n      swap1\n      revert\n        /* \"contracts/DuelResolver.sol\":1139:1207  if (duelPlayers[duelId][0] != address(0)) revert AlreadyRegistered() */\n    tag_84:\n        /* \"contracts/DuelResolver.sol\":1218:1248  duelPlayers[duelId] = [p1, p2] */\n      mload(0x40)\n      dup1\n      0x40\n      add\n      0x40\n      mstore\n      dup1\n        /* \"contracts/DuelResolver.sol\":1241:1243  p1 */\n      dup4\n        /* \"contracts/DuelResolver.sol\":1218:1248  duelPlayers[duelId] = [p1, p2] */\n      0xffffffffffffffffffffffffffffffffffffffff\n      and\n      0xffffffffffffffffffffffffffffffffffffffff\n      and\n      dup2\n      mstore\n      0x20\n      add\n        /* \"contracts/DuelResolver.sol\":1245:1247  p2 */\n      dup3\n        /* \"contracts/DuelResolver.sol\":1218:1248  duelPlayers[duelId] = [p1, p2] */\n      0xffffffffffffffffffffffffffffffffffffffff\n      and\n      0xffffffffffffffffffffffffffffffffffffffff\n      and\n      dup2\n      mstore\n      pop\n        /* \"contracts/DuelResolver.sol\":1218:1229  duelPlayers */\n      0x00\n        /* \"contracts/DuelResolver.sol\":1218:1237  duelPlayers[duelId] */\n      dup1\n        /* \"contracts/DuelResolver.sol\":1230:1236  duelId */\n      dup6\n        /* \"contracts/DuelResolver.sol\":1218:1237  duelPlayers[duelId] */\n      dup2\n      mstore\n      0x20\n      add\n      swap1\n      dup2\n      mstore\n      0x20\n      add\n      0x00\n      keccak256\n        /* \"contracts/DuelResolver.sol\":1218:1248  duelPlayers[duelId] = [p1, p2] */\n      swap1\n      0x02\n      tag_85\n      swap3\n      swap2\n      swap1\n      tag_86\n      jump\t// in\n    tag_85:\n      pop\n        /* \"contracts/DuelResolver.sol\":1042:1256  function registerPlayers(uint256 duelId, address p1, address p2) external onlyManager {... */\n      pop\n      pop\n      pop\n      jump\t// out\n        /* \"contracts/DuelResolver.sol\":3442:3565  function getPlayers(uint256 duelId) external view returns (address[2] memory) {... */\n    tag_36:\n        /* \"contracts/DuelResolver.sol\":3501:3518  address[2] memory */\n      tag_87\n      tag_88\n      jump\t// in\n    tag_87:\n        /* \"contracts/DuelResolver.sol\":3538:3549  duelPlayers */\n      0x00\n        /* \"contracts/DuelResolver.sol\":3538:3557  duelPlayers[duelId] */\n      dup1\n        /* \"contracts/DuelResolver.sol\":3550:3556  duelId */\n      dup4\n        /* \"contracts/DuelResolver.sol\":3538:3557  duelPlayers[duelId] */\n      dup2\n      mstore\n      0x20\n      add\n      swap1\n      dup2\n      mstore\n      0x20\n      add\n      0x00\n      keccak256\n        /* \"contracts/DuelResolver.sol\":3531:3557  return duelPlayers[duelId] */\n      0x02\n      dup1\n      0x20\n      mul\n      mload(0x40)\n      swap1\n      dup2\n      add\n      0x40\n      mstore\n      dup1\n      swap3\n      swap2\n      swap1\n      dup3\n      0x02\n      dup1\n      iszero\n      tag_90\n      jumpi\n      0x20\n      mul\n      dup3\n      add\n      swap2\n    tag_91:\n      dup2\n      0x00\n      swap1\n      sload\n      swap1\n      0x0100\n      exp\n      swap1\n      div\n      0xffffffffffffffffffffffffffffffffffffffff\n      and\n      0xffffffffffffffffffffffffffffffffffffffff\n      and\n      dup2\n      mstore\n      0x20\n      add\n      swap1\n      0x01\n      add\n      swap1\n      dup1\n      dup4\n      gt\n      tag_91\n      jumpi\n    tag_90:\n      pop\n      pop\n      pop\n      pop\n      pop\n      swap1\n      pop\n        /* \"contracts/DuelResolver.sol\":3442:3565  function getPlayers(uint256 duelId) external view returns (address[2] memory) {... */\n      swap2\n      swap1\n      pop\n      jump\t// out\n        /* \"contracts/DuelResolver.sol\":244:276  address public immutable manager */\n    tag_40:\n      immutable(\"0x277ab82e5a4641341820a4a2933a62c1de997e42e92548657ae21b3728d580fe\")\n      dup2\n      jump\t// out\n        /* \"contracts/DuelResolver.sol\":341:406  mapping(uint256 => mapping(address => Commit)) public duelCommits */\n    tag_45:\n      mstore(0x20, 0x01)\n      dup2\n      0x00\n      mstore\n      mstore(0x20, keccak256(0x00, 0x40))\n      dup1\n      0x00\n      mstore\n      keccak256(0x00, 0x40)\n      0x00\n      swap2\n      pop\n      swap2\n      pop\n      pop\n      dup1\n      0x00\n      add\n      sload\n      swap1\n      dup1\n      0x01\n      add\n      0x00\n      swap1\n      sload\n      swap1\n      0x0100\n      exp\n      swap1\n      div\n      0xff\n      and\n      swap1\n      dup1\n      0x01\n      add\n      0x01\n      swap1\n      sload\n      swap1\n      0x0100\n      exp\n      swap1\n      div\n      0xff\n      and\n      swap1\n      pop\n      dup4\n      jump\t// out\n        /* \"contracts/DuelResolver.sol\":1779:2585  function revealMove(uint256 duelId, string calldata move, string calldata salt) external {... */\n    tag_51:\n        /* \"contracts/DuelResolver.sol\":1879:1904  address[2] memory players */\n      0x00\n        /* \"contracts/DuelResolver.sol\":1907:1918  duelPlayers */\n      dup1\n        /* \"contracts/DuelResolver.sol\":1907:1926  duelPlayers[duelId] */\n      0x00\n        /* \"contracts/DuelResolver.sol\":1919:1925  duelId */\n      dup8\n        /* \"contracts/DuelResolver.sol\":1907:1926  duelPlayers[duelId] */\n      dup2\n      mstore\n      0x20\n      add\n      swap1\n      dup2\n      mstore\n      0x20\n      add\n      0x00\n      keccak256\n        /* \"contracts/DuelResolver.sol\":1879:1926  address[2] memory players = duelPlayers[duelId] */\n      0x02\n      dup1\n      0x20\n      mul\n      mload(0x40)\n      swap1\n      dup2\n      add\n      0x40\n      mstore\n      dup1\n      swap3\n      swap2\n      swap1\n      dup3\n      0x02\n      dup1\n      iszero\n      tag_93\n      jumpi\n      0x20\n      mul\n      dup3\n      add\n      swap2\n    tag_94:\n      dup2\n      0x00\n      swap1\n      sload\n      swap1\n      0x0100\n      exp\n      swap1\n      div\n      0xffffffffffffffffffffffffffffffffffffffff\n      and\n      0xffffffffffffffffffffffffffffffffffffffff\n      and\n      dup2\n      mstore\n      0x20\n      add\n      swap1\n      0x01\n      add\n      swap1\n      dup1\n      dup4\n      gt\n      tag_94\n      jumpi\n    tag_93:\n      pop\n      pop\n      pop\n      pop\n      pop\n      swap1\n      pop\n        /* \"contracts/DuelResolver.sol\":1955:1962  players */\n      dup1\n        /* \"contracts/DuelResolver.sol\":1963:1964  0 */\n      0x00\n        /* \"contracts/DuelResolver.sol\":1955:1965  players[0] */\n      0x02\n      dup2\n      lt\n      tag_95\n      jumpi\n      tag_96\n      tag_67\n      jump\t// in\n    tag_96:\n    tag_95:\n      0x20\n      mul\n      add\n      mload\n        /* \"contracts/DuelResolver.sol\":1941:1965  msg.sender != players[0] */\n      0xffffffffffffffffffffffffffffffffffffffff\n      and\n        /* \"contracts/DuelResolver.sol\":1941:1951  msg.sender */\n      caller\n        /* \"contracts/DuelResolver.sol\":1941:1965  msg.sender != players[0] */\n      0xffffffffffffffffffffffffffffffffffffffff\n      and\n      eq\n      iszero\n        /* \"contracts/DuelResolver.sol\":1941:1993  msg.sender != players[0] && msg.sender != players[1] */\n      dup1\n      iszero\n      tag_97\n      jumpi\n      pop\n        /* \"contracts/DuelResolver.sol\":1983:1990  players */\n      dup1\n        /* \"contracts/DuelResolver.sol\":1991:1992  1 */\n      0x01\n        /* \"contracts/DuelResolver.sol\":1983:1993  players[1] */\n      0x02\n      dup2\n      lt\n      tag_98\n      jumpi\n      tag_99\n      tag_67\n      jump\t// in\n    tag_99:\n    tag_98:\n      0x20\n      mul\n      add\n      mload\n        /* \"contracts/DuelResolver.sol\":1969:1993  msg.sender != players[1] */\n      0xffffffffffffffffffffffffffffffffffffffff\n      and\n        /* \"contracts/DuelResolver.sol\":1969:1979  msg.sender */\n      caller\n        /* \"contracts/DuelResolver.sol\":1969:1993  msg.sender != players[1] */\n      0xffffffffffffffffffffffffffffffffffffffff\n      and\n      eq\n      iszero\n        /* \"contracts/DuelResolver.sol\":1941:1993  msg.sender != players[0] && msg.sender != players[1] */\n    tag_97:\n        /* \"contracts/DuelResolver.sol\":1937:2023  if (msg.sender != players[0] && msg.sender != players[1]) revert NotRegisteredPlayer() */\n      iszero\n      tag_100\n      jumpi\n        /* \"contracts/DuelResolver.sol\":2002:2023  NotRegisteredPlayer() */\n      mload(0x40)\n      0x938f051800000000000000000000000000000000000000000000000000000000\n      dup2\n      mstore\n      0x04\n      add\n      mload(0x40)\n      dup1\n      swap2\n      sub\n      swap1\n      revert\n        /* \"contracts/DuelResolver.sol\":1937:2023  if (msg.sender != players[0] && msg.sender != players[1]) revert NotRegisteredPlayer() */\n    tag_100:\n        /* \"contracts/DuelResolver.sol\":2036:2057  Commit storage commit */\n      0x00\n        /* \"contracts/DuelResolver.sol\":2060:2071  duelCommits */\n      0x01\n        /* \"contracts/DuelResolver.sol\":2060:2079  duelCommits[duelId] */\n      0x00\n        /* \"contracts/DuelResolver.sol\":2072:2078  duelId */\n      dup9\n        /* \"contracts/DuelResolver.sol\":2060:2079  duelCommits[duelId] */\n      dup2\n      mstore\n      0x20\n      add\n      swap1\n      dup2\n      mstore\n      0x20\n      add\n      0x00\n      keccak256\n        /* \"contracts/DuelResolver.sol\":2060:2091  duelCommits[duelId][msg.sender] */\n      0x00\n        /* \"contracts/DuelResolver.sol\":2080:2090  msg.sender */\n      caller\n        /* \"contracts/DuelResolver.sol\":2060:2091  duelCommits[duelId][msg.sender] */\n      0xffffffffffffffffffffffffffffffffffffffff\n      and\n      0xffffffffffffffffffffffffffffffffffffffff\n      and\n      dup2\n      mstore\n      0x20\n      add\n      swap1\n      dup2\n      mstore\n      0x20\n      add\n      0x00\n      keccak256\n        /* \"contracts/DuelResolver.sol\":2036:2091  Commit storage commit = duelCommits[duelId][msg.sender] */\n      swap1\n      pop\n        /* \"contracts/DuelResolver.sol\":2106:2112  commit */\n      dup1\n        /* \"contracts/DuelResolver.sol\":2106:2121  commit.revealed */\n      0x01\n      add\n      0x00\n      swap1\n      sload\n      swap1\n      0x0100\n      exp\n      swap1\n      div\n      0xff\n      and\n        /* \"contracts/DuelResolver.sol\":2102:2147  if (commit.revealed) revert AlreadyRevealed() */\n      iszero\n      tag_101\n      jumpi\n        /* \"contracts/DuelResolver.sol\":2130:2147  AlreadyRevealed() */\n      mload(0x40)\n      0xa89ac15100000000000000000000000000000000000000000000000000000000\n      dup2\n      mstore\n      0x04\n      add\n      mload(0x40)\n      dup1\n      swap2\n      sub\n      swap1\n      revert\n        /* \"contracts/DuelResolver.sol\":2102:2147  if (commit.revealed) revert AlreadyRevealed() */\n    tag_101:\n        /* \"contracts/DuelResolver.sol\":2160:2178  bytes32 recomputed */\n      0x00\n        /* \"contracts/DuelResolver.sol\":2208:2212  move */\n      dup7\n      dup7\n        /* \"contracts/DuelResolver.sol\":2214:2218  salt */\n      dup7\n      dup7\n        /* \"contracts/DuelResolver.sol\":2191:2219  abi.encodePacked(move, salt) */\n      add(0x20, mload(0x40))\n      tag_102\n      swap5\n      swap4\n      swap3\n      swap2\n      swap1\n      tag_103\n      jump\t// in\n    tag_102:\n      mload(0x40)\n      0x20\n      dup2\n      dup4\n      sub\n      sub\n      dup2\n      mstore\n      swap1\n      0x40\n      mstore\n        /* \"contracts/DuelResolver.sol\":2181:2220  keccak256(abi.encodePacked(move, salt)) */\n      dup1\n      mload\n      swap1\n      0x20\n      add\n      keccak256\n        /* \"contracts/DuelResolver.sol\":2160:2220  bytes32 recomputed = keccak256(abi.encodePacked(move, salt)) */\n      swap1\n      pop\n        /* \"contracts/DuelResolver.sol\":2249:2255  commit */\n      dup2\n        /* \"contracts/DuelResolver.sol\":2249:2260  commit.hash */\n      0x00\n      add\n      sload\n        /* \"contracts/DuelResolver.sol\":2235:2245  recomputed */\n      dup2\n        /* \"contracts/DuelResolver.sol\":2235:2260  recomputed != commit.hash */\n      eq\n        /* \"contracts/DuelResolver.sol\":2231:2284  if (recomputed != commit.hash) revert InvalidCommit() */\n      tag_104\n      jumpi\n        /* \"contracts/DuelResolver.sol\":2269:2284  InvalidCommit() */\n      mload(0x40)\n      0xb7b3378700000000000000000000000000000000000000000000000000000000\n      dup2\n      mstore\n      0x04\n      add\n      mload(0x40)\n      dup1\n      swap2\n      sub\n      swap1\n      revert\n        /* \"contracts/DuelResolver.sol\":2231:2284  if (recomputed != commit.hash) revert InvalidCommit() */\n    tag_104:\n        /* \"contracts/DuelResolver.sol\":2297:2308  Move parsed */\n      0x00\n        /* \"contracts/DuelResolver.sol\":2311:2327  _parseMove(move) */\n      tag_105\n        /* \"contracts/DuelResolver.sol\":2322:2326  move */\n      dup9\n      dup9\n        /* \"contracts/DuelResolver.sol\":2311:2327  _parseMove(move) */\n      dup1\n      dup1\n      0x1f\n      add\n      0x20\n      dup1\n      swap2\n      div\n      mul\n      0x20\n      add\n      mload(0x40)\n      swap1\n      dup2\n      add\n      0x40\n      mstore\n      dup1\n      swap4\n      swap3\n      swap2\n      swap1\n      dup2\n      dup2\n      mstore\n      0x20\n      add\n      dup4\n      dup4\n      dup1\n      dup3\n      dup5\n      calldatacopy\n      0x00\n      dup2\n      dup5\n      add\n      mstore\n      not(0x1f)\n      0x1f\n      dup3\n      add\n      and\n      swap1\n      pop\n      dup1\n      dup4\n      add\n      swap3\n      pop\n      pop\n      pop\n      pop\n      pop\n      pop\n      pop\n        /* \"contracts/DuelResolver.sol\":2311:2321  _parseMove */\n      tag_106\n        /* \"contracts/DuelResolver.sol\":2311:2327  _parseMove(move) */\n      jump\t// in\n    tag_105:\n        /* \"contracts/DuelResolver.sol\":2297:2327  Move parsed = _parseMove(move) */\n      swap1\n      pop\n        /* \"contracts/DuelResolver.sol\":2358:2362  true */\n      0x01\n        /* \"contracts/DuelResolver.sol\":2340:2346  commit */\n      dup4\n        /* \"contracts/DuelResolver.sol\":2340:2355  commit.revealed */\n      0x01\n      add\n      0x00\n        /* \"contracts/DuelResolver.sol\":2340:2362  commit.revealed = true */\n      0x0100\n      exp\n      dup2\n      sload\n      dup2\n      0xff\n      mul\n      not\n      and\n      swap1\n      dup4\n      iszero\n      iszero\n      mul\n      or\n      swap1\n      sstore\n      pop\n        /* \"contracts/DuelResolver.sol\":2387:2393  parsed */\n      dup1\n        /* \"contracts/DuelResolver.sol\":2373:2379  commit */\n      dup4\n        /* \"contracts/DuelResolver.sol\":2373:2384  commit.move */\n      0x01\n      add\n      0x01\n        /* \"contracts/DuelResolver.sol\":2373:2393  commit.move = parsed */\n      0x0100\n      exp\n      dup2\n      sload\n      dup2\n      0xff\n      mul\n      not\n      and\n      swap1\n      dup4\n      0x03\n      dup2\n      gt\n      iszero\n      tag_107\n      jumpi\n      tag_108\n      tag_75\n      jump\t// in\n    tag_108:\n    tag_107:\n      mul\n      or\n      swap1\n      sstore\n      pop\n        /* \"contracts/DuelResolver.sol\":2442:2443  0 */\n      0x00\n        /* \"contracts/DuelResolver.sol\":2410:2430  firstRevealTimestamp */\n      0x02\n        /* \"contracts/DuelResolver.sol\":2410:2438  firstRevealTimestamp[duelId] */\n      0x00\n        /* \"contracts/DuelResolver.sol\":2431:2437  duelId */\n      dup12\n        /* \"contracts/DuelResolver.sol\":2410:2438  firstRevealTimestamp[duelId] */\n      dup2\n      mstore\n      0x20\n      add\n      swap1\n      dup2\n      mstore\n      0x20\n      add\n      0x00\n      keccak256\n      sload\n        /* \"contracts/DuelResolver.sol\":2410:2443  firstRevealTimestamp[duelId] == 0 */\n      sub\n        /* \"contracts/DuelResolver.sol\":2406:2518  if (firstRevealTimestamp[duelId] == 0) {... */\n      tag_109\n      jumpi\n        /* \"contracts/DuelResolver.sol\":2491:2506  block.timestamp */\n      timestamp\n        /* \"contracts/DuelResolver.sol\":2460:2480  firstRevealTimestamp */\n      0x02\n        /* \"contracts/DuelResolver.sol\":2460:2488  firstRevealTimestamp[duelId] */\n      0x00\n        /* \"contracts/DuelResolver.sol\":2481:2487  duelId */\n      dup12\n        /* \"contracts/DuelResolver.sol\":2460:2488  firstRevealTimestamp[duelId] */\n      dup2\n      mstore\n      0x20\n      add\n      swap1\n      dup2\n      mstore\n      0x20\n      add\n      0x00\n      keccak256\n        /* \"contracts/DuelResolver.sol\":2460:2506  firstRevealTimestamp[duelId] = block.timestamp */\n      dup2\n      swap1\n      sstore\n      pop\n        /* \"contracts/DuelResolver.sol\":2406:2518  if (firstRevealTimestamp[duelId] == 0) {... */\n    tag_109:\n        /* \"contracts/DuelResolver.sol\":2558:2568  msg.sender */\n      caller\n        /* \"contracts/DuelResolver.sol\":2537:2577  MoveRevealed(duelId, msg.sender, parsed) */\n      0xffffffffffffffffffffffffffffffffffffffff\n      and\n        /* \"contracts/DuelResolver.sol\":2550:2556  duelId */\n      dup10\n        /* \"contracts/DuelResolver.sol\":2537:2577  MoveRevealed(duelId, msg.sender, parsed) */\n      0xdd17665bf97c2a169e97f4f62f36023bf40807eb797a922864394a910d5c37c8\n        /* \"contracts/DuelResolver.sol\":2570:2576  parsed */\n      dup4\n        /* \"contracts/DuelResolver.sol\":2537:2577  MoveRevealed(duelId, msg.sender, parsed) */\n      mload(0x40)\n      tag_110\n      swap2\n      swap1\n      tag_111\n      jump\t// in\n    tag_110:\n      mload(0x40)\n      dup1\n      swap2\n      sub\n      swap1\n      log3\n        /* \"contracts/DuelResolver.sol\":1868:2585  {... */\n      pop\n      pop\n      pop\n      pop\n        /* \"contracts/DuelResolver.sol\":1779:2585  function revealMove(uint256 duelId, string calldata move, string calldata salt) external {... */\n      pop\n      pop\n      pop\n      pop\n      pop\n      jump\t// out\n        /* \"contracts/DuelResolver.sol\":285:334  mapping(uint256 => address[2]) public duelPlayers */\n    tag_55:\n      mstore(0x20, 0x00)\n      dup2\n      0x00\n      mstore\n      keccak256(0x00, 0x40)\n      dup2\n      0x02\n      dup2\n      lt\n      tag_112\n      jumpi\n      0x00\n      dup1\n      revert\n    tag_112:\n      add\n      0x00\n      swap2\n      pop\n      swap2\n      pop\n      swap1\n      sload\n      swap1\n      0x0100\n      exp\n      swap1\n      div\n      0xffffffffffffffffffffffffffffffffffffffff\n      and\n      dup2\n      jump\t// out\n        /* \"contracts/DuelResolver.sol\":2593:3282  function resolveDuel(uint256 duelId) external view returns (address winner) {... */\n    tag_59:\n        /* \"contracts/DuelResolver.sol\":2653:2667  address winner */\n      0x00\n        /* \"contracts/DuelResolver.sol\":2680:2705  address[2] memory players */\n      dup1\n        /* \"contracts/DuelResolver.sol\":2708:2719  duelPlayers */\n      0x00\n        /* \"contracts/DuelResolver.sol\":2708:2727  duelPlayers[duelId] */\n      dup1\n        /* \"contracts/DuelResolver.sol\":2720:2726  duelId */\n      dup5\n        /* \"contracts/DuelResolver.sol\":2708:2727  duelPlayers[duelId] */\n      dup2\n      mstore\n      0x20\n      add\n      swap1\n      dup2\n      mstore\n      0x20\n      add\n      0x00\n      keccak256\n        /* \"contracts/DuelResolver.sol\":2680:2727  address[2] memory players = duelPlayers[duelId] */\n      0x02\n      dup1\n      0x20\n      mul\n      mload(0x40)\n      swap1\n      dup2\n      add\n      0x40\n      mstore\n      dup1\n      swap3\n      swap2\n      swap1\n      dup3\n      0x02\n      dup1\n      iszero\n      tag_115\n      jumpi\n      0x20\n      mul\n      dup3\n      add\n      swap2\n    tag_116:\n      dup2\n      0x00\n      swap1\n      sload\n      swap1\n      0x0100\n      exp\n      swap1\n      div\n      0xffffffffffffffffffffffffffffffffffffffff\n      and\n      0xffffffffffffffffffffffffffffffffffffffff\n      and\n      dup2\n      mstore\n      0x20\n      add\n      swap1\n      0x01\n      add\n      swap1\n      dup1\n      dup4\n      gt\n      tag_116\n      jumpi\n    tag_115:\n      pop\n      pop\n      pop\n      pop\n      pop\n      swap1\n      pop\n        /* \"contracts/DuelResolver.sol\":2738:2754  Commit memory c1 */\n      0x00\n        /* \"contracts/DuelResolver.sol\":2757:2768  duelCommits */\n      0x01\n        /* \"contracts/DuelResolver.sol\":2757:2776  duelCommits[duelId] */\n      0x00\n        /* \"contracts/DuelResolver.sol\":2769:2775  duelId */\n      dup6\n        /* \"contracts/DuelResolver.sol\":2757:2776  duelCommits[duelId] */\n      dup2\n      mstore\n      0x20\n      add\n      swap1\n      dup2\n      mstore\n      0x20\n      add\n      0x00\n      keccak256\n        /* \"contracts/DuelResolver.sol\":2757:2788  duelCommits[duelId][players[0]] */\n      0x00\n        /* \"contracts/DuelResolver.sol\":2777:2784  players */\n      dup4\n        /* \"contracts/DuelResolver.sol\":2785:2786  0 */\n      0x00\n        /* \"contracts/DuelResolver.sol\":2777:2787  players[0] */\n      0x02\n      dup2\n      lt\n      tag_117\n      jumpi\n      tag_118\n      tag_67\n      jump\t// in\n    tag_118:\n    tag_117:\n      0x20\n      mul\n      add\n      mload\n        /* \"contracts/DuelResolver.sol\":2757:2788  duelCommits[duelId][players[0]] */\n      0xffffffffffffffffffffffffffffffffffffffff\n      and\n      0xffffffffffffffffffffffffffffffffffffffff\n      and\n      dup2\n      mstore\n      0x20\n      add\n      swap1\n      dup2\n      mstore\n      0x20\n      add\n      0x00\n      keccak256\n        /* \"contracts/DuelResolver.sol\":2738:2788  Commit memory c1 = duelCommits[duelId][players[0]] */\n      mload(0x40)\n      dup1\n      0x60\n      add\n      0x40\n      mstore\n      swap1\n      dup2\n      0x00\n      dup3\n      add\n      sload\n      dup2\n      mstore\n      0x20\n      add\n      0x01\n      dup3\n      add\n      0x00\n      swap1\n      sload\n      swap1\n      0x0100\n      exp\n      swap1\n      div\n      0xff\n      and\n      iszero\n      iszero\n      iszero\n      iszero\n      dup2\n      mstore\n      0x20\n      add\n      0x01\n      dup3\n      add\n      0x01\n      swap1\n      sload\n      swap1\n      0x0100\n      exp\n      swap1\n      div\n      0xff\n      and\n      0x03\n      dup2\n      gt\n      iszero\n      tag_119\n      jumpi\n      tag_120\n      tag_75\n      jump\t// in\n    tag_120:\n    tag_119:\n      0x03\n      dup2\n      gt\n      iszero\n      tag_121\n      jumpi\n      tag_122\n      tag_75\n      jump\t// in\n    tag_122:\n    tag_121:\n      dup2\n      mstore\n      pop\n      pop\n      swap1\n      pop\n        /* \"contracts/DuelResolver.sol\":2799:2815  Commit memory c2 */\n      0x00\n        /* \"contracts/DuelResolver.sol\":2818:2829  duelCommits */\n      0x01\n        /* \"contracts/DuelResolver.sol\":2818:2837  duelCommits[duelId] */\n      0x00\n        /* \"contracts/DuelResolver.sol\":2830:2836  duelId */\n      dup7\n        /* \"contracts/DuelResolver.sol\":2818:2837  duelCommits[duelId] */\n      dup2\n      mstore\n      0x20\n      add\n      swap1\n      dup2\n      mstore\n      0x20\n      add\n      0x00\n      keccak256\n        /* \"contracts/DuelResolver.sol\":2818:2849  duelCommits[duelId][players[1]] */\n      0x00\n        /* \"contracts/DuelResolver.sol\":2838:2845  players */\n      dup5\n        /* \"contracts/DuelResolver.sol\":2846:2847  1 */\n      0x01\n        /* \"contracts/DuelResolver.sol\":2838:2848  players[1] */\n      0x02\n      dup2\n      lt\n      tag_123\n      jumpi\n      tag_124\n      tag_67\n      jump\t// in\n    tag_124:\n    tag_123:\n      0x20\n      mul\n      add\n      mload\n        /* \"contracts/DuelResolver.sol\":2818:2849  duelCommits[duelId][players[1]] */\n      0xffffffffffffffffffffffffffffffffffffffff\n      and\n      0xffffffffffffffffffffffffffffffffffffffff\n      and\n      dup2\n      mstore\n      0x20\n      add\n      swap1\n      dup2\n      mstore\n      0x20\n      add\n      0x00\n      keccak256\n        /* \"contracts/DuelResolver.sol\":2799:2849  Commit memory c2 = duelCommits[duelId][players[1]] */\n      mload(0x40)\n      dup1\n      0x60\n      add\n      0x40\n      mstore\n      swap1\n      dup2\n      0x00\n      dup3\n      add\n      sload\n      dup2\n      mstore\n      0x20\n      add\n      0x01\n      dup3\n      add\n      0x00\n      swap1\n      sload\n      swap1\n      0x0100\n      exp\n      swap1\n      div\n      0xff\n      and\n      iszero\n      iszero\n      iszero\n      iszero\n      dup2\n      mstore\n      0x20\n      add\n      0x01\n      dup3\n      add\n      0x01\n      swap1\n      sload\n      swap1\n      0x0100\n      exp\n      swap1\n      div\n      0xff\n      and\n      0x03\n      dup2\n      gt\n      iszero\n      tag_125\n      jumpi\n      tag_126\n      tag_75\n      jump\t// in\n    tag_126:\n    tag_125:\n      0x03\n      dup2\n      gt\n      iszero\n      tag_127\n      jumpi\n      tag_128\n      tag_75\n      jump\t// in\n    tag_128:\n    tag_127:\n      dup2\n      mstore\n      pop\n      pop\n      swap1\n      pop\n        /* \"contracts/DuelResolver.sol\":2866:2868  c1 */\n      dup2\n        /* \"contracts/DuelResolver.sol\":2866:2877  c1.revealed */\n      0x20\n      add\n      mload\n        /* \"contracts/DuelResolver.sol\":2865:2877  !c1.revealed */\n      iszero\n        /* \"contracts/DuelResolver.sol\":2865:2893  !c1.revealed || !c2.revealed */\n      dup1\n      tag_129\n      jumpi\n      pop\n        /* \"contracts/DuelResolver.sol\":2882:2884  c2 */\n      dup1\n        /* \"contracts/DuelResolver.sol\":2882:2893  c2.revealed */\n      0x20\n      add\n      mload\n        /* \"contracts/DuelResolver.sol\":2881:2893  !c2.revealed */\n      iszero\n        /* \"contracts/DuelResolver.sol\":2865:2893  !c1.revealed || !c2.revealed */\n    tag_129:\n        /* \"contracts/DuelResolver.sol\":2862:2919  if(!c1.revealed || !c2.revealed) revert NotBothRevealed() */\n      iszero\n      tag_130\n      jumpi\n        /* \"contracts/DuelResolver.sol\":2902:2919  NotBothRevealed() */\n      mload(0x40)\n      0xf6f2d7dd00000000000000000000000000000000000000000000000000000000\n      dup2\n      mstore\n      0x04\n      add\n      mload(0x40)\n      dup1\n      swap2\n      sub\n      swap1\n      revert\n        /* \"contracts/DuelResolver.sol\":2862:2919  if(!c1.revealed || !c2.revealed) revert NotBothRevealed() */\n    tag_130:\n        /* \"contracts/DuelResolver.sol\":2932:2939  Move m1 */\n      0x00\n        /* \"contracts/DuelResolver.sol\":2942:2944  c1 */\n      dup3\n        /* \"contracts/DuelResolver.sol\":2942:2949  c1.move */\n      0x40\n      add\n      mload\n        /* \"contracts/DuelResolver.sol\":2932:2949  Move m1 = c1.move */\n      swap1\n      pop\n        /* \"contracts/DuelResolver.sol\":2960:2967  Move m2 */\n      0x00\n        /* \"contracts/DuelResolver.sol\":2970:2972  c2 */\n      dup3\n        /* \"contracts/DuelResolver.sol\":2970:2977  c2.move */\n      0x40\n      add\n      mload\n        /* \"contracts/DuelResolver.sol\":2960:2977  Move m2 = c2.move */\n      swap1\n      pop\n        /* \"contracts/DuelResolver.sol\":3000:3002  m2 */\n      dup1\n        /* \"contracts/DuelResolver.sol\":2994:3002  m1 == m2 */\n      0x03\n      dup2\n      gt\n      iszero\n      tag_131\n      jumpi\n      tag_132\n      tag_75\n      jump\t// in\n    tag_132:\n    tag_131:\n        /* \"contracts/DuelResolver.sol\":2994:2996  m1 */\n      dup3\n        /* \"contracts/DuelResolver.sol\":2994:3002  m1 == m2 */\n      0x03\n      dup2\n      gt\n      iszero\n      tag_133\n      jumpi\n      tag_134\n      tag_75\n      jump\t// in\n    tag_134:\n    tag_133:\n      sub\n        /* \"contracts/DuelResolver.sol\":2990:3021  if (m1 == m2) return address(0) */\n      tag_135\n      jumpi\n        /* \"contracts/DuelResolver.sol\":3019:3020  0 */\n      0x00\n        /* \"contracts/DuelResolver.sol\":3004:3021  return address(0) */\n      swap6\n      pop\n      pop\n      pop\n      pop\n      pop\n      pop\n      jump(tag_114)\n        /* \"contracts/DuelResolver.sol\":2990:3021  if (m1 == m2) return address(0) */\n    tag_135:\n        /* \"contracts/DuelResolver.sol\":3067:3076  Move.Rock */\n      0x01\n        /* \"contracts/DuelResolver.sol\":3061:3076  m1 == Move.Rock */\n      0x03\n      dup2\n      gt\n      iszero\n      tag_136\n      jumpi\n      tag_137\n      tag_75\n      jump\t// in\n    tag_137:\n    tag_136:\n        /* \"contracts/DuelResolver.sol\":3061:3063  m1 */\n      dup3\n        /* \"contracts/DuelResolver.sol\":3061:3076  m1 == Move.Rock */\n      0x03\n      dup2\n      gt\n      iszero\n      tag_138\n      jumpi\n      tag_139\n      tag_75\n      jump\t// in\n    tag_139:\n    tag_138:\n      eq\n        /* \"contracts/DuelResolver.sol\":3061:3099  m1 == Move.Rock && m2 == Move.Scissors */\n      dup1\n      iszero\n      tag_140\n      jumpi\n      pop\n        /* \"contracts/DuelResolver.sol\":3086:3099  Move.Scissors */\n      0x03\n        /* \"contracts/DuelResolver.sol\":3080:3099  m2 == Move.Scissors */\n      dup1\n      dup2\n      gt\n      iszero\n      tag_141\n      jumpi\n      tag_142\n      tag_75\n      jump\t// in\n    tag_142:\n    tag_141:\n        /* \"contracts/DuelResolver.sol\":3080:3082  m2 */\n      dup2\n        /* \"contracts/DuelResolver.sol\":3080:3099  m2 == Move.Scissors */\n      0x03\n      dup2\n      gt\n      iszero\n      tag_143\n      jumpi\n      tag_144\n      tag_75\n      jump\t// in\n    tag_144:\n    tag_143:\n      eq\n        /* \"contracts/DuelResolver.sol\":3061:3099  m1 == Move.Rock && m2 == Move.Scissors */\n    tag_140:\n        /* \"contracts/DuelResolver.sol\":3060:3154  (m1 == Move.Rock && m2 == Move.Scissors) ||... */\n      dup1\n      tag_145\n      jumpi\n      pop\n        /* \"contracts/DuelResolver.sol\":3124:3134  Move.Paper */\n      0x02\n        /* \"contracts/DuelResolver.sol\":3118:3134  m1 == Move.Paper */\n      0x03\n      dup2\n      gt\n      iszero\n      tag_146\n      jumpi\n      tag_147\n      tag_75\n      jump\t// in\n    tag_147:\n    tag_146:\n        /* \"contracts/DuelResolver.sol\":3118:3120  m1 */\n      dup3\n        /* \"contracts/DuelResolver.sol\":3118:3134  m1 == Move.Paper */\n      0x03\n      dup2\n      gt\n      iszero\n      tag_148\n      jumpi\n      tag_149\n      tag_75\n      jump\t// in\n    tag_149:\n    tag_148:\n      eq\n        /* \"contracts/DuelResolver.sol\":3118:3153  m1 == Move.Paper && m2 == Move.Rock */\n      dup1\n      iszero\n      tag_150\n      jumpi\n      pop\n        /* \"contracts/DuelResolver.sol\":3144:3153  Move.Rock */\n      0x01\n        /* \"contracts/DuelResolver.sol\":3138:3153  m2 == Move.Rock */\n      0x03\n      dup2\n      gt\n      iszero\n      tag_151\n      jumpi\n      tag_152\n      tag_75\n      jump\t// in\n    tag_152:\n    tag_151:\n        /* \"contracts/DuelResolver.sol\":3138:3140  m2 */\n      dup2\n        /* \"contracts/DuelResolver.sol\":3138:3153  m2 == Move.Rock */\n      0x03\n      dup2\n      gt\n      iszero\n      tag_153\n      jumpi\n      tag_154\n      tag_75\n      jump\t// in\n    tag_154:\n    tag_153:\n      eq\n        /* \"contracts/DuelResolver.sol\":3118:3153  m1 == Move.Paper && m2 == Move.Rock */\n    tag_150:\n        /* \"contracts/DuelResolver.sol\":3060:3154  (m1 == Move.Rock && m2 == Move.Scissors) ||... */\n    tag_145:\n        /* \"contracts/DuelResolver.sol\":3060:3212  (m1 == Move.Rock && m2 == Move.Scissors) ||... */\n      dup1\n      tag_155\n      jumpi\n      pop\n        /* \"contracts/DuelResolver.sol\":3178:3191  Move.Scissors */\n      0x03\n        /* \"contracts/DuelResolver.sol\":3172:3191  m1 == Move.Scissors */\n      dup1\n      dup2\n      gt\n      iszero\n      tag_156\n      jumpi\n      tag_157\n      tag_75\n      jump\t// in\n    tag_157:\n    tag_156:\n        /* \"contracts/DuelResolver.sol\":3172:3174  m1 */\n      dup3\n        /* \"contracts/DuelResolver.sol\":3172:3191  m1 == Move.Scissors */\n      0x03\n      dup2\n      gt\n      iszero\n      tag_158\n      jumpi\n      tag_159\n      tag_75\n      jump\t// in\n    tag_159:\n    tag_158:\n      eq\n        /* \"contracts/DuelResolver.sol\":3172:3211  m1 == Move.Scissors && m2 == Move.Paper */\n      dup1\n      iszero\n      tag_160\n      jumpi\n      pop\n        /* \"contracts/DuelResolver.sol\":3201:3211  Move.Paper */\n      0x02\n        /* \"contracts/DuelResolver.sol\":3195:3211  m2 == Move.Paper */\n      0x03\n      dup2\n      gt\n      iszero\n      tag_161\n      jumpi\n      tag_162\n      tag_75\n      jump\t// in\n    tag_162:\n    tag_161:\n        /* \"contracts/DuelResolver.sol\":3195:3197  m2 */\n      dup2\n        /* \"contracts/DuelResolver.sol\":3195:3211  m2 == Move.Paper */\n      0x03\n      dup2\n      gt\n      iszero\n      tag_163\n      jumpi\n      tag_164\n      tag_75\n      jump\t// in\n    tag_164:\n    tag_163:\n      eq\n        /* \"contracts/DuelResolver.sol\":3172:3211  m1 == Move.Scissors && m2 == Move.Paper */\n    tag_160:\n        /* \"contracts/DuelResolver.sol\":3060:3212  (m1 == Move.Rock && m2 == Move.Scissors) ||... */\n    tag_155:\n        /* \"contracts/DuelResolver.sol\":3042:3274  if (... */\n      iszero\n      tag_165\n      jumpi\n        /* \"contracts/DuelResolver.sol\":3231:3238  players */\n      dup5\n        /* \"contracts/DuelResolver.sol\":3239:3240  0 */\n      0x00\n        /* \"contracts/DuelResolver.sol\":3231:3241  players[0] */\n      0x02\n      dup2\n      lt\n      tag_166\n      jumpi\n      tag_167\n      tag_67\n      jump\t// in\n    tag_167:\n    tag_166:\n      0x20\n      mul\n      add\n      mload\n        /* \"contracts/DuelResolver.sol\":3224:3241  return players[0] */\n      swap6\n      pop\n      pop\n      pop\n      pop\n      pop\n      pop\n      jump(tag_114)\n        /* \"contracts/DuelResolver.sol\":3042:3274  if (... */\n    tag_165:\n        /* \"contracts/DuelResolver.sol\":3264:3271  players */\n      dup5\n        /* \"contracts/DuelResolver.sol\":3272:3273  1 */\n      0x01\n        /* \"contracts/DuelResolver.sol\":3264:3274  players[1] */\n      0x02\n      dup2\n      lt\n      tag_169\n      jumpi\n      tag_170\n      tag_67\n      jump\t// in\n    tag_170:\n    tag_169:\n      0x20\n      mul\n      add\n      mload\n        /* \"contracts/DuelResolver.sol\":3257:3274  return players[1] */\n      swap6\n      pop\n      pop\n      pop\n      pop\n      pop\n      pop\n        /* \"contracts/DuelResolver.sol\":2593:3282  function resolveDuel(uint256 duelId) external view returns (address winner) {... */\n    tag_114:\n      swap2\n      swap1\n      pop\n      jump\t// out\n        /* \"contracts/DuelResolver.sol\":3575:3910  function _parseMove(string memory str) internal pure returns (Move m) {... */\n    tag_106:\n        /* \"contracts/DuelResolver.sol\":3637:3643  Move m */\n      0x00\n        /* \"contracts/DuelResolver.sol\":3656:3665  bytes32 h */\n      dup1\n        /* \"contracts/DuelResolver.sol\":3684:3687  str */\n      dup3\n        /* \"contracts/DuelResolver.sol\":3668:3689  keccak256(bytes(str)) */\n      dup1\n      mload\n      swap1\n      0x20\n      add\n      keccak256\n        /* \"contracts/DuelResolver.sol\":3656:3689  bytes32 h = keccak256(bytes(str)) */\n      swap1\n      pop\n        /* \"contracts/DuelResolver.sol\":3709:3726  keccak256(\"rock\") */\n      0x10977e4d68108d418408bc9310b60fc6d0a750c63ccef42cfb0ead23ab73d102\n        /* \"contracts/DuelResolver.sol\":3704:3705  h */\n      dup2\n        /* \"contracts/DuelResolver.sol\":3704:3726  h == keccak256(\"rock\") */\n      sub\n        /* \"contracts/DuelResolver.sol\":3700:3748  if (h == keccak256(\"rock\"))     return Move.Rock */\n      tag_172\n      jumpi\n        /* \"contracts/DuelResolver.sol\":3739:3748  Move.Rock */\n      0x01\n        /* \"contracts/DuelResolver.sol\":3732:3748  return Move.Rock */\n      swap2\n      pop\n      pop\n      jump(tag_171)\n        /* \"contracts/DuelResolver.sol\":3700:3748  if (h == keccak256(\"rock\"))     return Move.Rock */\n    tag_172:\n        /* \"contracts/DuelResolver.sol\":3768:3786  keccak256(\"paper\") */\n      0xea923ca2cdda6b54f4fb2bf6a063e5a59a6369ca4c4ae2c4ce02a147b3036a21\n        /* \"contracts/DuelResolver.sol\":3763:3764  h */\n      dup2\n        /* \"contracts/DuelResolver.sol\":3763:3786  h == keccak256(\"paper\") */\n      sub\n        /* \"contracts/DuelResolver.sol\":3759:3808  if (h == keccak256(\"paper\"))    return Move.Paper */\n      tag_173\n      jumpi\n        /* \"contracts/DuelResolver.sol\":3798:3808  Move.Paper */\n      0x02\n        /* \"contracts/DuelResolver.sol\":3791:3808  return Move.Paper */\n      swap2\n      pop\n      pop\n      jump(tag_171)\n        /* \"contracts/DuelResolver.sol\":3759:3808  if (h == keccak256(\"paper\"))    return Move.Paper */\n    tag_173:\n        /* \"contracts/DuelResolver.sol\":3828:3849  keccak256(\"scissors\") */\n      0x389a2d4e358d901bfdf22245f32b4b0a401cc16a4b92155a2ee5da98273dad9a\n        /* \"contracts/DuelResolver.sol\":3823:3824  h */\n      dup2\n        /* \"contracts/DuelResolver.sol\":3823:3849  h == keccak256(\"scissors\") */\n      sub\n        /* \"contracts/DuelResolver.sol\":3819:3871  if (h == keccak256(\"scissors\")) return Move.Scissors */\n      tag_174\n      jumpi\n        /* \"contracts/DuelResolver.sol\":3858:3871  Move.Scissors */\n      0x03\n        /* \"contracts/DuelResolver.sol\":3851:3871  return Move.Scissors */\n      swap2\n      pop\n      pop\n      jump(tag_171)\n        /* \"contracts/DuelResolver.sol\":3819:3871  if (h == keccak256(\"scissors\")) return Move.Scissors */\n    tag_174:\n        /* \"contracts/DuelResolver.sol\":3889:3902  InvalidMove() */\n      mload(0x40)\n      0x87822d3400000000000000000000000000000000000000000000000000000000\n      dup2\n      mstore\n      0x04\n      add\n      mload(0x40)\n      dup1\n      swap2\n      sub\n      swap1\n      revert\n        /* \"contracts/DuelResolver.sol\":3575:3910  function _parseMove(string memory str) internal pure returns (Move m) {... */\n    tag_171:\n      swap2\n      swap1\n      pop\n      jump\t// out\n    tag_86:\n      dup3\n      0x02\n      dup2\n      add\n      swap3\n      dup3\n      iszero\n      tag_175\n      jumpi\n      swap2\n      0x20\n      mul\n      dup3\n      add\n    tag_176:\n      dup3\n      dup2\n      gt\n      iszero\n      tag_177\n      jumpi\n      dup3\n      mload\n      dup3\n      exp(0x0100, 0x00)\n      dup2\n      sload\n      dup2\n      0xffffffffffffffffffffffffffffffffffffffff\n      mul\n      not\n      and\n      swap1\n      dup4\n      0xffffffffffffffffffffffffffffffffffffffff\n      and\n      mul\n      or\n      swap1\n      sstore\n      pop\n      swap2\n      0x20\n      add\n      swap2\n      swap1\n      0x01\n      add\n      swap1\n      jump(tag_176)\n    tag_177:\n    tag_175:\n      pop\n      swap1\n      pop\n      tag_178\n      swap2\n      swap1\n      tag_179\n      jump\t// in\n    tag_178:\n      pop\n      swap1\n      jump\t// out\n    tag_88:\n      mload(0x40)\n      dup1\n      0x40\n      add\n      0x40\n      mstore\n      dup1\n      0x02\n      swap1\n      0x20\n      dup3\n      mul\n      dup1\n      calldatasize\n      dup4\n      calldatacopy\n      dup1\n      dup3\n      add\n      swap2\n      pop\n      pop\n      swap1\n      pop\n      pop\n      swap1\n      jump\t// out\n    tag_179:\n    tag_180:\n      dup1\n      dup3\n      gt\n      iszero\n      tag_181\n      jumpi\n      0x00\n      dup2\n      0x00\n      swap1\n      sstore\n      pop\n      0x01\n      add\n      jump(tag_180)\n    tag_181:\n      pop\n      swap1\n      jump\t// out\n        /* \"#utility.yul\":88:205   */\n    tag_183:\n        /* \"#utility.yul\":197:198   */\n      0x00\n        /* \"#utility.yul\":194:195   */\n      dup1\n        /* \"#utility.yul\":187:199   */\n      revert\n        /* \"#utility.yul\":211:328   */\n    tag_184:\n        /* \"#utility.yul\":320:321   */\n      0x00\n        /* \"#utility.yul\":317:318   */\n      dup1\n        /* \"#utility.yul\":310:322   */\n      revert\n        /* \"#utility.yul\":334:411   */\n    tag_185:\n        /* \"#utility.yul\":371:378   */\n      0x00\n        /* \"#utility.yul\":400:405   */\n      dup2\n        /* \"#utility.yul\":389:405   */\n      swap1\n      pop\n        /* \"#utility.yul\":334:411   */\n      swap2\n      swap1\n      pop\n      jump\t// out\n        /* \"#utility.yul\":417:539   */\n    tag_186:\n        /* \"#utility.yul\":490:514   */\n      tag_224\n        /* \"#utility.yul\":508:513   */\n      dup2\n        /* \"#utility.yul\":490:514   */\n      tag_185\n      jump\t// in\n    tag_224:\n        /* \"#utility.yul\":483:488   */\n      dup2\n        /* \"#utility.yul\":480:515   */\n      eq\n        /* \"#utility.yul\":470:533   */\n      tag_225\n      jumpi\n        /* \"#utility.yul\":529:530   */\n      0x00\n        /* \"#utility.yul\":526:527   */\n      dup1\n        /* \"#utility.yul\":519:531   */\n      revert\n        /* \"#utility.yul\":470:533   */\n    tag_225:\n        /* \"#utility.yul\":417:539   */\n      pop\n      jump\t// out\n        /* \"#utility.yul\":545:684   */\n    tag_187:\n        /* \"#utility.yul\":591:596   */\n      0x00\n        /* \"#utility.yul\":629:635   */\n      dup2\n        /* \"#utility.yul\":616:636   */\n      calldataload\n        /* \"#utility.yul\":607:636   */\n      swap1\n      pop\n        /* \"#utility.yul\":645:678   */\n      tag_227\n        /* \"#utility.yul\":672:677   */\n      dup2\n        /* \"#utility.yul\":645:678   */\n      tag_186\n      jump\t// in\n    tag_227:\n        /* \"#utility.yul\":545:684   */\n      swap3\n      swap2\n      pop\n      pop\n      jump\t// out\n        /* \"#utility.yul\":690:1019   */\n    tag_16:\n        /* \"#utility.yul\":749:755   */\n      0x00\n        /* \"#utility.yul\":798:800   */\n      0x20\n        /* \"#utility.yul\":786:795   */\n      dup3\n        /* \"#utility.yul\":777:784   */\n      dup5\n        /* \"#utility.yul\":773:796   */\n      sub\n        /* \"#utility.yul\":769:801   */\n      slt\n        /* \"#utility.yul\":766:885   */\n      iszero\n      tag_229\n      jumpi\n        /* \"#utility.yul\":804:883   */\n      tag_230\n      tag_183\n      jump\t// in\n    tag_230:\n        /* \"#utility.yul\":766:885   */\n    tag_229:\n        /* \"#utility.yul\":924:925   */\n      0x00\n        /* \"#utility.yul\":949:1002   */\n      tag_231\n        /* \"#utility.yul\":994:1001   */\n      dup5\n        /* \"#utility.yul\":985:991   */\n      dup3\n        /* \"#utility.yul\":974:983   */\n      dup6\n        /* \"#utility.yul\":970:992   */\n      add\n        /* \"#utility.yul\":949:1002   */\n      tag_187\n      jump\t// in\n    tag_231:\n        /* \"#utility.yul\":939:1002   */\n      swap2\n      pop\n        /* \"#utility.yul\":895:1012   */\n      pop\n        /* \"#utility.yul\":690:1019   */\n      swap3\n      swap2\n      pop\n      pop\n      jump\t// out\n        /* \"#utility.yul\":1025:1143   */\n    tag_188:\n        /* \"#utility.yul\":1112:1136   */\n      tag_233\n        /* \"#utility.yul\":1130:1135   */\n      dup2\n        /* \"#utility.yul\":1112:1136   */\n      tag_185\n      jump\t// in\n    tag_233:\n        /* \"#utility.yul\":1107:1110   */\n      dup3\n        /* \"#utility.yul\":1100:1137   */\n      mstore\n        /* \"#utility.yul\":1025:1143   */\n      pop\n      pop\n      jump\t// out\n        /* \"#utility.yul\":1149:1371   */\n    tag_19:\n        /* \"#utility.yul\":1242:1246   */\n      0x00\n        /* \"#utility.yul\":1280:1282   */\n      0x20\n        /* \"#utility.yul\":1269:1278   */\n      dup3\n        /* \"#utility.yul\":1265:1283   */\n      add\n        /* \"#utility.yul\":1257:1283   */\n      swap1\n      pop\n        /* \"#utility.yul\":1293:1364   */\n      tag_235\n        /* \"#utility.yul\":1361:1362   */\n      0x00\n        /* \"#utility.yul\":1350:1359   */\n      dup4\n        /* \"#utility.yul\":1346:1363   */\n      add\n        /* \"#utility.yul\":1337:1343   */\n      dup5\n        /* \"#utility.yul\":1293:1364   */\n      tag_188\n      jump\t// in\n    tag_235:\n        /* \"#utility.yul\":1149:1371   */\n      swap3\n      swap2\n      pop\n      pop\n      jump\t// out\n        /* \"#utility.yul\":1377:1503   */\n    tag_189:\n        /* \"#utility.yul\":1414:1421   */\n      0x00\n        /* \"#utility.yul\":1454:1496   */\n      0xffffffffffffffffffffffffffffffffffffffff\n        /* \"#utility.yul\":1447:1452   */\n      dup3\n        /* \"#utility.yul\":1443:1497   */\n      and\n        /* \"#utility.yul\":1432:1497   */\n      swap1\n      pop\n        /* \"#utility.yul\":1377:1503   */\n      swap2\n      swap1\n      pop\n      jump\t// out\n        /* \"#utility.yul\":1509:1605   */\n    tag_190:\n        /* \"#utility.yul\":1546:1553   */\n      0x00\n        /* \"#utility.yul\":1575:1599   */\n      tag_238\n        /* \"#utility.yul\":1593:1598   */\n      dup3\n        /* \"#utility.yul\":1575:1599   */\n      tag_189\n      jump\t// in\n    tag_238:\n        /* \"#utility.yul\":1564:1599   */\n      swap1\n      pop\n        /* \"#utility.yul\":1509:1605   */\n      swap2\n      swap1\n      pop\n      jump\t// out\n        /* \"#utility.yul\":1611:1733   */\n    tag_191:\n        /* \"#utility.yul\":1684:1708   */\n      tag_240\n        /* \"#utility.yul\":1702:1707   */\n      dup2\n        /* \"#utility.yul\":1684:1708   */\n      tag_190\n      jump\t// in\n    tag_240:\n        /* \"#utility.yul\":1677:1682   */\n      dup2\n        /* \"#utility.yul\":1674:1709   */\n      eq\n        /* \"#utility.yul\":1664:1727   */\n      tag_241\n      jumpi\n        /* \"#utility.yul\":1723:1724   */\n      0x00\n        /* \"#utility.yul\":1720:1721   */\n      dup1\n        /* \"#utility.yul\":1713:1725   */\n      revert\n        /* \"#utility.yul\":1664:1727   */\n    tag_241:\n        /* \"#utility.yul\":1611:1733   */\n      pop\n      jump\t// out\n        /* \"#utility.yul\":1739:1878   */\n    tag_192:\n        /* \"#utility.yul\":1785:1790   */\n      0x00\n        /* \"#utility.yul\":1823:1829   */\n      dup2\n        /* \"#utility.yul\":1810:1830   */\n      calldataload\n        /* \"#utility.yul\":1801:1830   */\n      swap1\n      pop\n        /* \"#utility.yul\":1839:1872   */\n      tag_243\n        /* \"#utility.yul\":1866:1871   */\n      dup2\n        /* \"#utility.yul\":1839:1872   */\n      tag_191\n      jump\t// in\n    tag_243:\n        /* \"#utility.yul\":1739:1878   */\n      swap3\n      swap2\n      pop\n      pop\n      jump\t// out\n        /* \"#utility.yul\":1884:2358   */\n    tag_22:\n        /* \"#utility.yul\":1952:1958   */\n      0x00\n        /* \"#utility.yul\":1960:1966   */\n      dup1\n        /* \"#utility.yul\":2009:2011   */\n      0x40\n        /* \"#utility.yul\":1997:2006   */\n      dup4\n        /* \"#utility.yul\":1988:1995   */\n      dup6\n        /* \"#utility.yul\":1984:2007   */\n      sub\n        /* \"#utility.yul\":1980:2012   */\n      slt\n        /* \"#utility.yul\":1977:2096   */\n      iszero\n      tag_245\n      jumpi\n        /* \"#utility.yul\":2015:2094   */\n      tag_246\n      tag_183\n      jump\t// in\n    tag_246:\n        /* \"#utility.yul\":1977:2096   */\n    tag_245:\n        /* \"#utility.yul\":2135:2136   */\n      0x00\n        /* \"#utility.yul\":2160:2213   */\n      tag_247\n        /* \"#utility.yul\":2205:2212   */\n      dup6\n        /* \"#utility.yul\":2196:2202   */\n      dup3\n        /* \"#utility.yul\":2185:2194   */\n      dup7\n        /* \"#utility.yul\":2181:2203   */\n      add\n        /* \"#utility.yul\":2160:2213   */\n      tag_187\n      jump\t// in\n    tag_247:\n        /* \"#utility.yul\":2150:2213   */\n      swap3\n      pop\n        /* \"#utility.yul\":2106:2223   */\n      pop\n        /* \"#utility.yul\":2262:2264   */\n      0x20\n        /* \"#utility.yul\":2288:2341   */\n      tag_248\n        /* \"#utility.yul\":2333:2340   */\n      dup6\n        /* \"#utility.yul\":2324:2330   */\n      dup3\n        /* \"#utility.yul\":2313:2322   */\n      dup7\n        /* \"#utility.yul\":2309:2331   */\n      add\n        /* \"#utility.yul\":2288:2341   */\n      tag_192\n      jump\t// in\n    tag_248:\n        /* \"#utility.yul\":2278:2341   */\n      swap2\n      pop\n        /* \"#utility.yul\":2233:2351   */\n      pop\n        /* \"#utility.yul\":1884:2358   */\n      swap3\n      pop\n      swap3\n      swap1\n      pop\n      jump\t// out\n        /* \"#utility.yul\":2364:2454   */\n    tag_193:\n        /* \"#utility.yul\":2398:2405   */\n      0x00\n        /* \"#utility.yul\":2441:2446   */\n      dup2\n        /* \"#utility.yul\":2434:2447   */\n      iszero\n        /* \"#utility.yul\":2427:2448   */\n      iszero\n        /* \"#utility.yul\":2416:2448   */\n      swap1\n      pop\n        /* \"#utility.yul\":2364:2454   */\n      swap2\n      swap1\n      pop\n      jump\t// out\n        /* \"#utility.yul\":2460:2569   */\n    tag_194:\n        /* \"#utility.yul\":2541:2562   */\n      tag_251\n        /* \"#utility.yul\":2556:2561   */\n      dup2\n        /* \"#utility.yul\":2541:2562   */\n      tag_193\n      jump\t// in\n    tag_251:\n        /* \"#utility.yul\":2536:2539   */\n      dup3\n        /* \"#utility.yul\":2529:2563   */\n      mstore\n        /* \"#utility.yul\":2460:2569   */\n      pop\n      pop\n      jump\t// out\n        /* \"#utility.yul\":2575:2785   */\n    tag_25:\n        /* \"#utility.yul\":2662:2666   */\n      0x00\n        /* \"#utility.yul\":2700:2702   */\n      0x20\n        /* \"#utility.yul\":2689:2698   */\n      dup3\n        /* \"#utility.yul\":2685:2703   */\n      add\n        /* \"#utility.yul\":2677:2703   */\n      swap1\n      pop\n        /* \"#utility.yul\":2713:2778   */\n      tag_253\n        /* \"#utility.yul\":2775:2776   */\n      0x00\n        /* \"#utility.yul\":2764:2773   */\n      dup4\n        /* \"#utility.yul\":2760:2777   */\n      add\n        /* \"#utility.yul\":2751:2757   */\n      dup5\n        /* \"#utility.yul\":2713:2778   */\n      tag_194\n      jump\t// in\n    tag_253:\n        /* \"#utility.yul\":2575:2785   */\n      swap3\n      swap2\n      pop\n      pop\n      jump\t// out\n        /* \"#utility.yul\":2791:2868   */\n    tag_195:\n        /* \"#utility.yul\":2828:2835   */\n      0x00\n        /* \"#utility.yul\":2857:2862   */\n      dup2\n        /* \"#utility.yul\":2846:2862   */\n      swap1\n      pop\n        /* \"#utility.yul\":2791:2868   */\n      swap2\n      swap1\n      pop\n      jump\t// out\n        /* \"#utility.yul\":2874:2996   */\n    tag_196:\n        /* \"#utility.yul\":2947:2971   */\n      tag_256\n        /* \"#utility.yul\":2965:2970   */\n      dup2\n        /* \"#utility.yul\":2947:2971   */\n      tag_195\n      jump\t// in\n    tag_256:\n        /* \"#utility.yul\":2940:2945   */\n      dup2\n        /* \"#utility.yul\":2937:2972   */\n      eq\n        /* \"#utility.yul\":2927:2990   */\n      tag_257\n      jumpi\n        /* \"#utility.yul\":2986:2987   */\n      0x00\n        /* \"#utility.yul\":2983:2984   */\n      dup1\n        /* \"#utility.yul\":2976:2988   */\n      revert\n        /* \"#utility.yul\":2927:2990   */\n    tag_257:\n        /* \"#utility.yul\":2874:2996   */\n      pop\n      jump\t// out\n        /* \"#utility.yul\":3002:3141   */\n    tag_197:\n        /* \"#utility.yul\":3048:3053   */\n      0x00\n        /* \"#utility.yul\":3086:3092   */\n      dup2\n        /* \"#utility.yul\":3073:3093   */\n      calldataload\n        /* \"#utility.yul\":3064:3093   */\n      swap1\n      pop\n        /* \"#utility.yul\":3102:3135   */\n      tag_259\n        /* \"#utility.yul\":3129:3134   */\n      dup2\n        /* \"#utility.yul\":3102:3135   */\n      tag_196\n      jump\t// in\n    tag_259:\n        /* \"#utility.yul\":3002:3141   */\n      swap3\n      swap2\n      pop\n      pop\n      jump\t// out\n        /* \"#utility.yul\":3147:3621   */\n    tag_28:\n        /* \"#utility.yul\":3215:3221   */\n      0x00\n        /* \"#utility.yul\":3223:3229   */\n      dup1\n        /* \"#utility.yul\":3272:3274   */\n      0x40\n        /* \"#utility.yul\":3260:3269   */\n      dup4\n        /* \"#utility.yul\":3251:3258   */\n      dup6\n        /* \"#utility.yul\":3247:3270   */\n      sub\n        /* \"#utility.yul\":3243:3275   */\n      slt\n        /* \"#utility.yul\":3240:3359   */\n      iszero\n      tag_261\n      jumpi\n        /* \"#utility.yul\":3278:3357   */\n      tag_262\n      tag_183\n      jump\t// in\n    tag_262:\n        /* \"#utility.yul\":3240:3359   */\n    tag_261:\n        /* \"#utility.yul\":3398:3399   */\n      0x00\n        /* \"#utility.yul\":3423:3476   */\n      tag_263\n        /* \"#utility.yul\":3468:3475   */\n      dup6\n        /* \"#utility.yul\":3459:3465   */\n      dup3\n        /* \"#utility.yul\":3448:3457   */\n      dup7\n        /* \"#utility.yul\":3444:3466   */\n      add\n        /* \"#utility.yul\":3423:3476   */\n      tag_187\n      jump\t// in\n    tag_263:\n        /* \"#utility.yul\":3413:3476   */\n      swap3\n      pop\n        /* \"#utility.yul\":3369:3486   */\n      pop\n        /* \"#utility.yul\":3525:3527   */\n      0x20\n        /* \"#utility.yul\":3551:3604   */\n      tag_264\n        /* \"#utility.yul\":3596:3603   */\n      dup6\n        /* \"#utility.yul\":3587:3593   */\n      dup3\n        /* \"#utility.yul\":3576:3585   */\n      dup7\n        /* \"#utility.yul\":3572:3594   */\n      add\n        /* \"#utility.yul\":3551:3604   */\n      tag_197\n      jump\t// in\n    tag_264:\n        /* \"#utility.yul\":3541:3604   */\n      swap2\n      pop\n        /* \"#utility.yul\":3496:3614   */\n      pop\n        /* \"#utility.yul\":3147:3621   */\n      swap3\n      pop\n      swap3\n      swap1\n      pop\n      jump\t// out\n        /* \"#utility.yul\":3627:4246   */\n    tag_32:\n        /* \"#utility.yul\":3704:3710   */\n      0x00\n        /* \"#utility.yul\":3712:3718   */\n      dup1\n        /* \"#utility.yul\":3720:3726   */\n      0x00\n        /* \"#utility.yul\":3769:3771   */\n      0x60\n        /* \"#utility.yul\":3757:3766   */\n      dup5\n        /* \"#utility.yul\":3748:3755   */\n      dup7\n        /* \"#utility.yul\":3744:3767   */\n      sub\n        /* \"#utility.yul\":3740:3772   */\n      slt\n        /* \"#utility.yul\":3737:3856   */\n      iszero\n      tag_266\n      jumpi\n        /* \"#utility.yul\":3775:3854   */\n      tag_267\n      tag_183\n      jump\t// in\n    tag_267:\n        /* \"#utility.yul\":3737:3856   */\n    tag_266:\n        /* \"#utility.yul\":3895:3896   */\n      0x00\n        /* \"#utility.yul\":3920:3973   */\n      tag_268\n        /* \"#utility.yul\":3965:3972   */\n      dup7\n        /* \"#utility.yul\":3956:3962   */\n      dup3\n        /* \"#utility.yul\":3945:3954   */\n      dup8\n        /* \"#utility.yul\":3941:3963   */\n      add\n        /* \"#utility.yul\":3920:3973   */\n      tag_187\n      jump\t// in\n    tag_268:\n        /* \"#utility.yul\":3910:3973   */\n      swap4\n      pop\n        /* \"#utility.yul\":3866:3983   */\n      pop\n        /* \"#utility.yul\":4022:4024   */\n      0x20\n        /* \"#utility.yul\":4048:4101   */\n      tag_269\n        /* \"#utility.yul\":4093:4100   */\n      dup7\n        /* \"#utility.yul\":4084:4090   */\n      dup3\n        /* \"#utility.yul\":4073:4082   */\n      dup8\n        /* \"#utility.yul\":4069:4091   */\n      add\n        /* \"#utility.yul\":4048:4101   */\n      tag_192\n      jump\t// in\n    tag_269:\n        /* \"#utility.yul\":4038:4101   */\n      swap3\n      pop\n        /* \"#utility.yul\":3993:4111   */\n      pop\n        /* \"#utility.yul\":4150:4152   */\n      0x40\n        /* \"#utility.yul\":4176:4229   */\n      tag_270\n        /* \"#utility.yul\":4221:4228   */\n      dup7\n        /* \"#utility.yul\":4212:4218   */\n      dup3\n        /* \"#utility.yul\":4201:4210   */\n      dup8\n        /* \"#utility.yul\":4197:4219   */\n      add\n        /* \"#utility.yul\":4176:4229   */\n      tag_192\n      jump\t// in\n    tag_270:\n        /* \"#utility.yul\":4166:4229   */\n      swap2\n      pop\n        /* \"#utility.yul\":4121:4239   */\n      pop\n        /* \"#utility.yul\":3627:4246   */\n      swap3\n      pop\n      swap3\n      pop\n      swap3\n      jump\t// out\n        /* \"#utility.yul\":4252:4356   */\n    tag_198:\n        /* \"#utility.yul\":4317:4323   */\n      0x00\n        /* \"#utility.yul\":4345:4349   */\n      0x02\n        /* \"#utility.yul\":4335:4349   */\n      swap1\n      pop\n        /* \"#utility.yul\":4252:4356   */\n      swap2\n      swap1\n      pop\n      jump\t// out\n        /* \"#utility.yul\":4362:4505   */\n    tag_199:\n        /* \"#utility.yul\":4459:4470   */\n      0x00\n        /* \"#utility.yul\":4496:4499   */\n      dup2\n        /* \"#utility.yul\":4481:4499   */\n      swap1\n      pop\n        /* \"#utility.yul\":4362:4505   */\n      swap3\n      swap2\n      pop\n      pop\n      jump\t// out\n        /* \"#utility.yul\":4511:4609   */\n    tag_200:\n        /* \"#utility.yul\":4576:4580   */\n      0x00\n        /* \"#utility.yul\":4599:4602   */\n      dup2\n        /* \"#utility.yul\":4591:4602   */\n      swap1\n      pop\n        /* \"#utility.yul\":4511:4609   */\n      swap2\n      swap1\n      pop\n      jump\t// out\n        /* \"#utility.yul\":4615:4723   */\n    tag_201:\n        /* \"#utility.yul\":4692:4716   */\n      tag_275\n        /* \"#utility.yul\":4710:4715   */\n      dup2\n        /* \"#utility.yul\":4692:4716   */\n      tag_190\n      jump\t// in\n    tag_275:\n        /* \"#utility.yul\":4687:4690   */\n      dup3\n        /* \"#utility.yul\":4680:4717   */\n      mstore\n        /* \"#utility.yul\":4615:4723   */\n      pop\n      pop\n      jump\t// out\n        /* \"#utility.yul\":4729:4908   */\n    tag_202:\n        /* \"#utility.yul\":4798:4808   */\n      0x00\n        /* \"#utility.yul\":4819:4865   */\n      tag_277\n        /* \"#utility.yul\":4861:4864   */\n      dup4\n        /* \"#utility.yul\":4853:4859   */\n      dup4\n        /* \"#utility.yul\":4819:4865   */\n      tag_201\n      jump\t// in\n    tag_277:\n        /* \"#utility.yul\":4897:4901   */\n      0x20\n        /* \"#utility.yul\":4892:4895   */\n      dup4\n        /* \"#utility.yul\":4888:4902   */\n      add\n        /* \"#utility.yul\":4874:4902   */\n      swap1\n      pop\n        /* \"#utility.yul\":4729:4908   */\n      swap3\n      swap2\n      pop\n      pop\n      jump\t// out\n        /* \"#utility.yul\":4914:5025   */\n    tag_203:\n        /* \"#utility.yul\":4982:4986   */\n      0x00\n        /* \"#utility.yul\":5014:5018   */\n      0x20\n        /* \"#utility.yul\":5009:5012   */\n      dup3\n        /* \"#utility.yul\":5005:5019   */\n      add\n        /* \"#utility.yul\":4997:5019   */\n      swap1\n      pop\n        /* \"#utility.yul\":4914:5025   */\n      swap2\n      swap1\n      pop\n      jump\t// out\n        /* \"#utility.yul\":5063:5757   */\n    tag_204:\n        /* \"#utility.yul\":5199:5251   */\n      tag_280\n        /* \"#utility.yul\":5245:5250   */\n      dup2\n        /* \"#utility.yul\":5199:5251   */\n      tag_198\n      jump\t// in\n    tag_280:\n        /* \"#utility.yul\":5267:5351   */\n      tag_281\n        /* \"#utility.yul\":5344:5350   */\n      dup2\n        /* \"#utility.yul\":5339:5342   */\n      dup5\n        /* \"#utility.yul\":5267:5351   */\n      tag_199\n      jump\t// in\n    tag_281:\n        /* \"#utility.yul\":5260:5351   */\n      swap3\n      pop\n        /* \"#utility.yul\":5375:5429   */\n      tag_282\n        /* \"#utility.yul\":5423:5428   */\n      dup3\n        /* \"#utility.yul\":5375:5429   */\n      tag_200\n      jump\t// in\n    tag_282:\n        /* \"#utility.yul\":5452:5459   */\n      dup1\n        /* \"#utility.yul\":5483:5484   */\n      0x00\n        /* \"#utility.yul\":5468:5750   */\n    tag_283:\n        /* \"#utility.yul\":5493:5499   */\n      dup4\n        /* \"#utility.yul\":5490:5491   */\n      dup2\n        /* \"#utility.yul\":5487:5500   */\n      lt\n        /* \"#utility.yul\":5468:5750   */\n      iszero\n      tag_285\n      jumpi\n        /* \"#utility.yul\":5569:5575   */\n      dup2\n        /* \"#utility.yul\":5563:5576   */\n      mload\n        /* \"#utility.yul\":5596:5659   */\n      tag_286\n        /* \"#utility.yul\":5655:5658   */\n      dup8\n        /* \"#utility.yul\":5640:5653   */\n      dup3\n        /* \"#utility.yul\":5596:5659   */\n      tag_202\n      jump\t// in\n    tag_286:\n        /* \"#utility.yul\":5589:5659   */\n      swap7\n      pop\n        /* \"#utility.yul\":5682:5740   */\n      tag_287\n        /* \"#utility.yul\":5733:5739   */\n      dup4\n        /* \"#utility.yul\":5682:5740   */\n      tag_203\n      jump\t// in\n    tag_287:\n        /* \"#utility.yul\":5672:5740   */\n      swap3\n      pop\n        /* \"#utility.yul\":5528:5750   */\n      pop\n        /* \"#utility.yul\":5515:5516   */\n      0x01\n        /* \"#utility.yul\":5512:5513   */\n      dup2\n        /* \"#utility.yul\":5508:5517   */\n      add\n        /* \"#utility.yul\":5503:5517   */\n      swap1\n      pop\n        /* \"#utility.yul\":5468:5750   */\n      jump(tag_283)\n    tag_285:\n        /* \"#utility.yul\":5472:5486   */\n      pop\n        /* \"#utility.yul\":5175:5757   */\n      pop\n      pop\n      pop\n        /* \"#utility.yul\":5063:5757   */\n      pop\n      pop\n      jump\t// out\n        /* \"#utility.yul\":5763:6077   */\n    tag_38:\n        /* \"#utility.yul\":5902:5906   */\n      0x00\n        /* \"#utility.yul\":5940:5942   */\n      0x40\n        /* \"#utility.yul\":5929:5938   */\n      dup3\n        /* \"#utility.yul\":5925:5943   */\n      add\n        /* \"#utility.yul\":5917:5943   */\n      swap1\n      pop\n        /* \"#utility.yul\":5953:6070   */\n      tag_289\n        /* \"#utility.yul\":6067:6068   */\n      0x00\n        /* \"#utility.yul\":6056:6065   */\n      dup4\n        /* \"#utility.yul\":6052:6069   */\n      add\n        /* \"#utility.yul\":6043:6049   */\n      dup5\n        /* \"#utility.yul\":5953:6070   */\n      tag_204\n      jump\t// in\n    tag_289:\n        /* \"#utility.yul\":5763:6077   */\n      swap3\n      swap2\n      pop\n      pop\n      jump\t// out\n        /* \"#utility.yul\":6083:6201   */\n    tag_205:\n        /* \"#utility.yul\":6170:6194   */\n      tag_291\n        /* \"#utility.yul\":6188:6193   */\n      dup2\n        /* \"#utility.yul\":6170:6194   */\n      tag_190\n      jump\t// in\n    tag_291:\n        /* \"#utility.yul\":6165:6168   */\n      dup3\n        /* \"#utility.yul\":6158:6195   */\n      mstore\n        /* \"#utility.yul\":6083:6201   */\n      pop\n      pop\n      jump\t// out\n        /* \"#utility.yul\":6207:6429   */\n    tag_42:\n        /* \"#utility.yul\":6300:6304   */\n      0x00\n        /* \"#utility.yul\":6338:6340   */\n      0x20\n        /* \"#utility.yul\":6327:6336   */\n      dup3\n        /* \"#utility.yul\":6323:6341   */\n      add\n        /* \"#utility.yul\":6315:6341   */\n      swap1\n      pop\n        /* \"#utility.yul\":6351:6422   */\n      tag_293\n        /* \"#utility.yul\":6419:6420   */\n      0x00\n        /* \"#utility.yul\":6408:6417   */\n      dup4\n        /* \"#utility.yul\":6404:6421   */\n      add\n        /* \"#utility.yul\":6395:6401   */\n      dup5\n        /* \"#utility.yul\":6351:6422   */\n      tag_205\n      jump\t// in\n    tag_293:\n        /* \"#utility.yul\":6207:6429   */\n      swap3\n      swap2\n      pop\n      pop\n      jump\t// out\n        /* \"#utility.yul\":6435:6553   */\n    tag_206:\n        /* \"#utility.yul\":6522:6546   */\n      tag_295\n        /* \"#utility.yul\":6540:6545   */\n      dup2\n        /* \"#utility.yul\":6522:6546   */\n      tag_195\n      jump\t// in\n    tag_295:\n        /* \"#utility.yul\":6517:6520   */\n      dup3\n        /* \"#utility.yul\":6510:6547   */\n      mstore\n        /* \"#utility.yul\":6435:6553   */\n      pop\n      pop\n      jump\t// out\n        /* \"#utility.yul\":6559:6739   */\n    tag_75:\n        /* \"#utility.yul\":6607:6684   */\n      0x4e487b7100000000000000000000000000000000000000000000000000000000\n        /* \"#utility.yul\":6604:6605   */\n      0x00\n        /* \"#utility.yul\":6597:6685   */\n      mstore\n        /* \"#utility.yul\":6704:6708   */\n      0x21\n        /* \"#utility.yul\":6701:6702   */\n      0x04\n        /* \"#utility.yul\":6694:6709   */\n      mstore\n        /* \"#utility.yul\":6728:6732   */\n      0x24\n        /* \"#utility.yul\":6725:6726   */\n      0x00\n        /* \"#utility.yul\":6718:6733   */\n      revert\n        /* \"#utility.yul\":6745:6856   */\n    tag_207:\n        /* \"#utility.yul\":6824:6825   */\n      0x04\n        /* \"#utility.yul\":6817:6822   */\n      dup2\n        /* \"#utility.yul\":6814:6826   */\n      lt\n        /* \"#utility.yul\":6804:6850   */\n      tag_298\n      jumpi\n        /* \"#utility.yul\":6830:6848   */\n      tag_299\n      tag_75\n      jump\t// in\n    tag_299:\n        /* \"#utility.yul\":6804:6850   */\n    tag_298:\n        /* \"#utility.yul\":6745:6856   */\n      pop\n      jump\t// out\n        /* \"#utility.yul\":6862:6985   */\n    tag_208:\n        /* \"#utility.yul\":6905:6912   */\n      0x00\n        /* \"#utility.yul\":6934:6939   */\n      dup2\n        /* \"#utility.yul\":6923:6939   */\n      swap1\n      pop\n        /* \"#utility.yul\":6940:6979   */\n      tag_301\n        /* \"#utility.yul\":6973:6978   */\n      dup3\n        /* \"#utility.yul\":6940:6979   */\n      tag_207\n      jump\t// in\n    tag_301:\n        /* \"#utility.yul\":6862:6985   */\n      swap2\n      swap1\n      pop\n      jump\t// out\n        /* \"#utility.yul\":6991:7114   */\n    tag_209:\n        /* \"#utility.yul\":7045:7054   */\n      0x00\n        /* \"#utility.yul\":7078:7108   */\n      tag_303\n        /* \"#utility.yul\":7102:7107   */\n      dup3\n        /* \"#utility.yul\":7078:7108   */\n      tag_208\n      jump\t// in\n    tag_303:\n        /* \"#utility.yul\":7065:7108   */\n      swap1\n      pop\n        /* \"#utility.yul\":6991:7114   */\n      swap2\n      swap1\n      pop\n      jump\t// out\n        /* \"#utility.yul\":7120:7259   */\n    tag_210:\n        /* \"#utility.yul\":7211:7252   */\n      tag_305\n        /* \"#utility.yul\":7246:7251   */\n      dup2\n        /* \"#utility.yul\":7211:7252   */\n      tag_209\n      jump\t// in\n    tag_305:\n        /* \"#utility.yul\":7206:7209   */\n      dup3\n        /* \"#utility.yul\":7199:7253   */\n      mstore\n        /* \"#utility.yul\":7120:7259   */\n      pop\n      pop\n      jump\t// out\n        /* \"#utility.yul\":7265:7703   */\n    tag_47:\n        /* \"#utility.yul\":7412:7416   */\n      0x00\n        /* \"#utility.yul\":7450:7452   */\n      0x60\n        /* \"#utility.yul\":7439:7448   */\n      dup3\n        /* \"#utility.yul\":7435:7453   */\n      add\n        /* \"#utility.yul\":7427:7453   */\n      swap1\n      pop\n        /* \"#utility.yul\":7463:7534   */\n      tag_307\n        /* \"#utility.yul\":7531:7532   */\n      0x00\n        /* \"#utility.yul\":7520:7529   */\n      dup4\n        /* \"#utility.yul\":7516:7533   */\n      add\n        /* \"#utility.yul\":7507:7513   */\n      dup7\n        /* \"#utility.yul\":7463:7534   */\n      tag_206\n      jump\t// in\n    tag_307:\n        /* \"#utility.yul\":7544:7610   */\n      tag_308\n        /* \"#utility.yul\":7606:7608   */\n      0x20\n        /* \"#utility.yul\":7595:7604   */\n      dup4\n        /* \"#utility.yul\":7591:7609   */\n      add\n        /* \"#utility.yul\":7582:7588   */\n      dup6\n        /* \"#utility.yul\":7544:7610   */\n      tag_194\n      jump\t// in\n    tag_308:\n        /* \"#utility.yul\":7620:7696   */\n      tag_309\n        /* \"#utility.yul\":7692:7694   */\n      0x40\n        /* \"#utility.yul\":7681:7690   */\n      dup4\n        /* \"#utility.yul\":7677:7695   */\n      add\n        /* \"#utility.yul\":7668:7674   */\n      dup5\n        /* \"#utility.yul\":7620:7696   */\n      tag_210\n      jump\t// in\n    tag_309:\n        /* \"#utility.yul\":7265:7703   */\n      swap5\n      swap4\n      pop\n      pop\n      pop\n      pop\n      jump\t// out\n        /* \"#utility.yul\":7709:7826   */\n    tag_211:\n        /* \"#utility.yul\":7818:7819   */\n      0x00\n        /* \"#utility.yul\":7815:7816   */\n      dup1\n        /* \"#utility.yul\":7808:7820   */\n      revert\n        /* \"#utility.yul\":7832:7949   */\n    tag_212:\n        /* \"#utility.yul\":7941:7942   */\n      0x00\n        /* \"#utility.yul\":7938:7939   */\n      dup1\n        /* \"#utility.yul\":7931:7943   */\n      revert\n        /* \"#utility.yul\":7955:8072   */\n    tag_213:\n        /* \"#utility.yul\":8064:8065   */\n      0x00\n        /* \"#utility.yul\":8061:8062   */\n      dup1\n        /* \"#utility.yul\":8054:8066   */\n      revert\n        /* \"#utility.yul\":8092:8645   */\n    tag_214:\n        /* \"#utility.yul\":8150:8158   */\n      0x00\n        /* \"#utility.yul\":8160:8166   */\n      dup1\n        /* \"#utility.yul\":8210:8213   */\n      dup4\n        /* \"#utility.yul\":8203:8207   */\n      0x1f\n        /* \"#utility.yul\":8195:8201   */\n      dup5\n        /* \"#utility.yul\":8191:8208   */\n      add\n        /* \"#utility.yul\":8187:8214   */\n      slt\n        /* \"#utility.yul\":8177:8299   */\n      tag_314\n      jumpi\n        /* \"#utility.yul\":8218:8297   */\n      tag_315\n      tag_211\n      jump\t// in\n    tag_315:\n        /* \"#utility.yul\":8177:8299   */\n    tag_314:\n        /* \"#utility.yul\":8331:8337   */\n      dup3\n        /* \"#utility.yul\":8318:8338   */\n      calldataload\n        /* \"#utility.yul\":8308:8338   */\n      swap1\n      pop\n        /* \"#utility.yul\":8361:8379   */\n      0xffffffffffffffff\n        /* \"#utility.yul\":8353:8359   */\n      dup2\n        /* \"#utility.yul\":8350:8380   */\n      gt\n        /* \"#utility.yul\":8347:8464   */\n      iszero\n      tag_316\n      jumpi\n        /* \"#utility.yul\":8383:8462   */\n      tag_317\n      tag_212\n      jump\t// in\n    tag_317:\n        /* \"#utility.yul\":8347:8464   */\n    tag_316:\n        /* \"#utility.yul\":8497:8501   */\n      0x20\n        /* \"#utility.yul\":8489:8495   */\n      dup4\n        /* \"#utility.yul\":8485:8502   */\n      add\n        /* \"#utility.yul\":8473:8502   */\n      swap2\n      pop\n        /* \"#utility.yul\":8551:8554   */\n      dup4\n        /* \"#utility.yul\":8543:8547   */\n      0x01\n        /* \"#utility.yul\":8535:8541   */\n      dup3\n        /* \"#utility.yul\":8531:8548   */\n      mul\n        /* \"#utility.yul\":8521:8529   */\n      dup4\n        /* \"#utility.yul\":8517:8549   */\n      add\n        /* \"#utility.yul\":8514:8555   */\n      gt\n        /* \"#utility.yul\":8511:8639   */\n      iszero\n      tag_318\n      jumpi\n        /* \"#utility.yul\":8558:8637   */\n      tag_319\n      tag_213\n      jump\t// in\n    tag_319:\n        /* \"#utility.yul\":8511:8639   */\n    tag_318:\n        /* \"#utility.yul\":8092:8645   */\n      swap3\n      pop\n      swap3\n      swap1\n      pop\n      jump\t// out\n        /* \"#utility.yul\":8651:9670   */\n    tag_50:\n        /* \"#utility.yul\":8752:8758   */\n      0x00\n        /* \"#utility.yul\":8760:8766   */\n      dup1\n        /* \"#utility.yul\":8768:8774   */\n      0x00\n        /* \"#utility.yul\":8776:8782   */\n      dup1\n        /* \"#utility.yul\":8784:8790   */\n      0x00\n        /* \"#utility.yul\":8833:8835   */\n      0x60\n        /* \"#utility.yul\":8821:8830   */\n      dup7\n        /* \"#utility.yul\":8812:8819   */\n      dup9\n        /* \"#utility.yul\":8808:8831   */\n      sub\n        /* \"#utility.yul\":8804:8836   */\n      slt\n        /* \"#utility.yul\":8801:8920   */\n      iszero\n      tag_321\n      jumpi\n        /* \"#utility.yul\":8839:8918   */\n      tag_322\n      tag_183\n      jump\t// in\n    tag_322:\n        /* \"#utility.yul\":8801:8920   */\n    tag_321:\n        /* \"#utility.yul\":8959:8960   */\n      0x00\n        /* \"#utility.yul\":8984:9037   */\n      tag_323\n        /* \"#utility.yul\":9029:9036   */\n      dup9\n        /* \"#utility.yul\":9020:9026   */\n      dup3\n        /* \"#utility.yul\":9009:9018   */\n      dup10\n        /* \"#utility.yul\":9005:9027   */\n      add\n        /* \"#utility.yul\":8984:9037   */\n      tag_187\n      jump\t// in\n    tag_323:\n        /* \"#utility.yul\":8974:9037   */\n      swap6\n      pop\n        /* \"#utility.yul\":8930:9047   */\n      pop\n        /* \"#utility.yul\":9114:9116   */\n      0x20\n        /* \"#utility.yul\":9103:9112   */\n      dup7\n        /* \"#utility.yul\":9099:9117   */\n      add\n        /* \"#utility.yul\":9086:9118   */\n      calldataload\n        /* \"#utility.yul\":9145:9163   */\n      0xffffffffffffffff\n        /* \"#utility.yul\":9137:9143   */\n      dup2\n        /* \"#utility.yul\":9134:9164   */\n      gt\n        /* \"#utility.yul\":9131:9248   */\n      iszero\n      tag_324\n      jumpi\n        /* \"#utility.yul\":9167:9246   */\n      tag_325\n      tag_184\n      jump\t// in\n    tag_325:\n        /* \"#utility.yul\":9131:9248   */\n    tag_324:\n        /* \"#utility.yul\":9280:9345   */\n      tag_326\n        /* \"#utility.yul\":9337:9344   */\n      dup9\n        /* \"#utility.yul\":9328:9334   */\n      dup3\n        /* \"#utility.yul\":9317:9326   */\n      dup10\n        /* \"#utility.yul\":9313:9335   */\n      add\n        /* \"#utility.yul\":9280:9345   */\n      tag_214\n      jump\t// in\n    tag_326:\n        /* \"#utility.yul\":9262:9345   */\n      swap5\n      pop\n      swap5\n      pop\n        /* \"#utility.yul\":9057:9355   */\n      pop\n        /* \"#utility.yul\":9422:9424   */\n      0x40\n        /* \"#utility.yul\":9411:9420   */\n      dup7\n        /* \"#utility.yul\":9407:9425   */\n      add\n        /* \"#utility.yul\":9394:9426   */\n      calldataload\n        /* \"#utility.yul\":9453:9471   */\n      0xffffffffffffffff\n        /* \"#utility.yul\":9445:9451   */\n      dup2\n        /* \"#utility.yul\":9442:9472   */\n      gt\n        /* \"#utility.yul\":9439:9556   */\n      iszero\n      tag_327\n      jumpi\n        /* \"#utility.yul\":9475:9554   */\n      tag_328\n      tag_184\n      jump\t// in\n    tag_328:\n        /* \"#utility.yul\":9439:9556   */\n    tag_327:\n        /* \"#utility.yul\":9588:9653   */\n      tag_329\n        /* \"#utility.yul\":9645:9652   */\n      dup9\n        /* \"#utility.yul\":9636:9642   */\n      dup3\n        /* \"#utility.yul\":9625:9634   */\n      dup10\n        /* \"#utility.yul\":9621:9643   */\n      add\n        /* \"#utility.yul\":9588:9653   */\n      tag_214\n      jump\t// in\n    tag_329:\n        /* \"#utility.yul\":9570:9653   */\n      swap3\n      pop\n      swap3\n      pop\n        /* \"#utility.yul\":9365:9663   */\n      pop\n        /* \"#utility.yul\":8651:9670   */\n      swap3\n      swap6\n      pop\n      swap3\n      swap6\n      swap1\n      swap4\n      pop\n      jump\t// out\n        /* \"#utility.yul\":9676:10150   */\n    tag_54:\n        /* \"#utility.yul\":9744:9750   */\n      0x00\n        /* \"#utility.yul\":9752:9758   */\n      dup1\n        /* \"#utility.yul\":9801:9803   */\n      0x40\n        /* \"#utility.yul\":9789:9798   */\n      dup4\n        /* \"#utility.yul\":9780:9787   */\n      dup6\n        /* \"#utility.yul\":9776:9799   */\n      sub\n        /* \"#utility.yul\":9772:9804   */\n      slt\n        /* \"#utility.yul\":9769:9888   */\n      iszero\n      tag_331\n      jumpi\n        /* \"#utility.yul\":9807:9886   */\n      tag_332\n      tag_183\n      jump\t// in\n    tag_332:\n        /* \"#utility.yul\":9769:9888   */\n    tag_331:\n        /* \"#utility.yul\":9927:9928   */\n      0x00\n        /* \"#utility.yul\":9952:10005   */\n      tag_333\n        /* \"#utility.yul\":9997:10004   */\n      dup6\n        /* \"#utility.yul\":9988:9994   */\n      dup3\n        /* \"#utility.yul\":9977:9986   */\n      dup7\n        /* \"#utility.yul\":9973:9995   */\n      add\n        /* \"#utility.yul\":9952:10005   */\n      tag_187\n      jump\t// in\n    tag_333:\n        /* \"#utility.yul\":9942:10005   */\n      swap3\n      pop\n        /* \"#utility.yul\":9898:10015   */\n      pop\n        /* \"#utility.yul\":10054:10056   */\n      0x20\n        /* \"#utility.yul\":10080:10133   */\n      tag_334\n        /* \"#utility.yul\":10125:10132   */\n      dup6\n        /* \"#utility.yul\":10116:10122   */\n      dup3\n        /* \"#utility.yul\":10105:10114   */\n      dup7\n        /* \"#utility.yul\":10101:10123   */\n      add\n        /* \"#utility.yul\":10080:10133   */\n      tag_187\n      jump\t// in\n    tag_334:\n        /* \"#utility.yul\":10070:10133   */\n      swap2\n      pop\n        /* \"#utility.yul\":10025:10143   */\n      pop\n        /* \"#utility.yul\":9676:10150   */\n      swap3\n      pop\n      swap3\n      swap1\n      pop\n      jump\t// out\n        /* \"#utility.yul\":10156:10336   */\n    tag_67:\n        /* \"#utility.yul\":10204:10281   */\n      0x4e487b7100000000000000000000000000000000000000000000000000000000\n        /* \"#utility.yul\":10201:10202   */\n      0x00\n        /* \"#utility.yul\":10194:10282   */\n      mstore\n        /* \"#utility.yul\":10301:10305   */\n      0x32\n        /* \"#utility.yul\":10298:10299   */\n      0x04\n        /* \"#utility.yul\":10291:10306   */\n      mstore\n        /* \"#utility.yul\":10325:10329   */\n      0x24\n        /* \"#utility.yul\":10322:10323   */\n      0x00\n        /* \"#utility.yul\":10315:10330   */\n      revert\n        /* \"#utility.yul\":10342:10490   */\n    tag_215:\n        /* \"#utility.yul\":10444:10455   */\n      0x00\n        /* \"#utility.yul\":10481:10484   */\n      dup2\n        /* \"#utility.yul\":10466:10484   */\n      swap1\n      pop\n        /* \"#utility.yul\":10342:10490   */\n      swap3\n      swap2\n      pop\n      pop\n      jump\t// out\n        /* \"#utility.yul\":10496:10642   */\n    tag_216:\n        /* \"#utility.yul\":10593:10599   */\n      dup3\n        /* \"#utility.yul\":10588:10591   */\n      dup2\n        /* \"#utility.yul\":10583:10586   */\n      dup4\n        /* \"#utility.yul\":10570:10600   */\n      calldatacopy\n        /* \"#utility.yul\":10634:10635   */\n      0x00\n        /* \"#utility.yul\":10625:10631   */\n      dup4\n        /* \"#utility.yul\":10620:10623   */\n      dup4\n        /* \"#utility.yul\":10616:10632   */\n      add\n        /* \"#utility.yul\":10609:10636   */\n      mstore\n        /* \"#utility.yul\":10496:10642   */\n      pop\n      pop\n      pop\n      jump\t// out\n        /* \"#utility.yul\":10672:11002   */\n    tag_217:\n        /* \"#utility.yul\":10788:10791   */\n      0x00\n        /* \"#utility.yul\":10809:10898   */\n      tag_339\n        /* \"#utility.yul\":10891:10897   */\n      dup4\n        /* \"#utility.yul\":10886:10889   */\n      dup6\n        /* \"#utility.yul\":10809:10898   */\n      tag_215\n      jump\t// in\n    tag_339:\n        /* \"#utility.yul\":10802:10898   */\n      swap4\n      pop\n        /* \"#utility.yul\":10908:10964   */\n      tag_340\n        /* \"#utility.yul\":10957:10963   */\n      dup4\n        /* \"#utility.yul\":10952:10955   */\n      dup6\n        /* \"#utility.yul\":10945:10950   */\n      dup5\n        /* \"#utility.yul\":10908:10964   */\n      tag_216\n      jump\t// in\n    tag_340:\n        /* \"#utility.yul\":10989:10995   */\n      dup3\n        /* \"#utility.yul\":10984:10987   */\n      dup5\n        /* \"#utility.yul\":10980:10996   */\n      add\n        /* \"#utility.yul\":10973:10996   */\n      swap1\n      pop\n        /* \"#utility.yul\":10672:11002   */\n      swap4\n      swap3\n      pop\n      pop\n      pop\n      jump\t// out\n        /* \"#utility.yul\":11008:11483   */\n    tag_103:\n        /* \"#utility.yul\":11208:11211   */\n      0x00\n        /* \"#utility.yul\":11230:11335   */\n      tag_342\n        /* \"#utility.yul\":11331:11334   */\n      dup3\n        /* \"#utility.yul\":11322:11328   */\n      dup7\n        /* \"#utility.yul\":11314:11320   */\n      dup9\n        /* \"#utility.yul\":11230:11335   */\n      tag_217\n      jump\t// in\n    tag_342:\n        /* \"#utility.yul\":11223:11335   */\n      swap2\n      pop\n        /* \"#utility.yul\":11352:11457   */\n      tag_343\n        /* \"#utility.yul\":11453:11456   */\n      dup3\n        /* \"#utility.yul\":11444:11450   */\n      dup5\n        /* \"#utility.yul\":11436:11442   */\n      dup7\n        /* \"#utility.yul\":11352:11457   */\n      tag_217\n      jump\t// in\n    tag_343:\n        /* \"#utility.yul\":11345:11457   */\n      swap2\n      pop\n        /* \"#utility.yul\":11474:11477   */\n      dup2\n        /* \"#utility.yul\":11467:11477   */\n      swap1\n      pop\n        /* \"#utility.yul\":11008:11483   */\n      swap6\n      swap5\n      pop\n      pop\n      pop\n      pop\n      pop\n      jump\t// out\n        /* \"#utility.yul\":11489:11719   */\n    tag_111:\n        /* \"#utility.yul\":11586:11590   */\n      0x00\n        /* \"#utility.yul\":11624:11626   */\n      0x20\n        /* \"#utility.yul\":11613:11622   */\n      dup3\n        /* \"#utility.yul\":11609:11627   */\n      add\n        /* \"#utility.yul\":11601:11627   */\n      swap1\n      pop\n        /* \"#utility.yul\":11637:11712   */\n      tag_345\n        /* \"#utility.yul\":11709:11710   */\n      0x00\n        /* \"#utility.yul\":11698:11707   */\n      dup4\n        /* \"#utility.yul\":11694:11711   */\n      add\n        /* \"#utility.yul\":11685:11691   */\n      dup5\n        /* \"#utility.yul\":11637:11712   */\n      tag_210\n      jump\t// in\n    tag_345:\n        /* \"#utility.yul\":11489:11719   */\n      swap3\n      swap2\n      pop\n      pop\n      jump\t// out\n\n    auxdata: 0xa2646970667358221220f18b3f989adf381f3881e4844c40df869e07069c259c44d37299cf743695082264736f6c63430008180033\n}\n",
				"bytecode": {
					"linkReferences": {},
					"object": "60a060405234801562000010575f80fd5b50604051620018ab380380620018ab8339818101604052810190620000369190620000d6565b8073ffffffffffffffffffffffffffffffffffffffff1660808173ffffffffffffffffffffffffffffffffffffffff16815250505062000106565b5f80fd5b5f73ffffffffffffffffffffffffffffffffffffffff82169050919050565b5f620000a08262000075565b9050919050565b620000b28162000094565b8114620000bd575f80fd5b50565b5f81519050620000d081620000a7565b92915050565b5f60208284031215620000ee57620000ed62000071565b5b5f620000fd84828501620000c0565b91505092915050565b608051611785620001265f395f81816105a901526107f601526117855ff3fe608060405234801561000f575f80fd5b506004361061009c575f3560e01c8063481c6a7511610064578063481c6a751461016857806348ceec5314610186578063526999d0146101b85780637f58d660146101d4578063cdd69a12146102045761009c565b80630907af75146100a057806316b5551d146100d057806326826f62146101005780634400e01c1461011c578063460e204914610138575b5f80fd5b6100ba60048036038101906100b591906111fa565b610234565b6040516100c79190611234565b60405180910390f35b6100ea60048036038101906100e591906112a7565b610249565b6040516100f791906112ff565b60405180910390f35b61011a6004803603810190610115919061134b565b6102ae565b005b61013660048036038101906101319190611389565b6105a7565b005b610152600480360381019061014d91906111fa565b610764565b60405161015f919061147e565b60405180910390f35b6101706107f4565b60405161017d91906114a6565b60405180910390f35b6101a0600480360381019061019b91906112a7565b610818565b6040516101af93929190611541565b60405180910390f35b6101d260048036038101906101cd91906115d7565b610862565b005b6101ee60048036038101906101e99190611668565b610bd7565b6040516101fb91906114a6565b60405180910390f35b61021e600480360381019061021991906111fa565b610c17565b60405161022b91906114a6565b60405180910390f35b6002602052805f5260405f205f915090505481565b5f60015f8481526020019081526020015f205f8373ffffffffffffffffffffffffffffffffffffffff1673ffffffffffffffffffffffffffffffffffffffff1681526020019081526020015f206001015f9054906101000a900460ff16905092915050565b5f805f8481526020019081526020015f2060028060200260405190810160405280929190826002801561032b576020028201915b815f9054906101000a900473ffffffffffffffffffffffffffffffffffffffff1673ffffffffffffffffffffffffffffffffffffffff16815260200190600101908083116102e2575b50505050509050805f60028110610345576103446116a6565b5b602002015173ffffffffffffffffffffffffffffffffffffffff163373ffffffffffffffffffffffffffffffffffffffff16141580156103c9575080600160028110610394576103936116a6565b5b602002015173ffffffffffffffffffffffffffffffffffffffff163373ffffffffffffffffffffffffffffffffffffffff1614155b15610400576040517f938f051800000000000000000000000000000000000000000000000000000000815260040160405180910390fd5b5f801b60015f8581526020019081526020015f205f3373ffffffffffffffffffffffffffffffffffffffff1673ffffffffffffffffffffffffffffffffffffffff1681526020019081526020015f205f015414610489576040517fbfec555800000000000000000000000000000000000000000000000000000000815260040160405180910390fd5b60405180606001604052808381526020015f151581526020015f60038111156104b5576104b46114ce565b5b81525060015f8581526020019081526020015f205f3373ffffffffffffffffffffffffffffffffffffffff1673ffffffffffffffffffffffffffffffffffffffff1681526020019081526020015f205f820151815f01556020820151816001015f6101000a81548160ff02191690831515021790555060408201518160010160016101000a81548160ff02191690836003811115610556576105556114ce565b5b02179055509050503373ffffffffffffffffffffffffffffffffffffffff16837f1d3cf81927da212fdd71794079b5b6a4915c8e82ae6486396a4a635d7b641d7260405160405180910390a3505050565b7f000000000000000000000000000000000000000000000000000000000000000073ffffffffffffffffffffffffffffffffffffffff163373ffffffffffffffffffffffffffffffffffffffff161461062c576040517f938f051800000000000000000000000000000000000000000000000000000000815260040160405180910390fd5b5f73ffffffffffffffffffffffffffffffffffffffff165f808581526020019081526020015f205f60028110610665576106646116a6565b5b015f9054906101000a900473ffffffffffffffffffffffffffffffffffffffff1673ffffffffffffffffffffffffffffffffffffffff16146106d3576040517f3a81d6fc00000000000000000000000000000000000000000000000000000000815260040160405180910390fd5b60405180604001604052808373ffffffffffffffffffffffffffffffffffffffff1673ffffffffffffffffffffffffffffffffffffffff1681526020018273ffffffffffffffffffffffffffffffffffffffff1673ffffffffffffffffffffffffffffffffffffffff168152505f808581526020019081526020015f2090600261075e929190611106565b50505050565b61076c611182565b5f808381526020019081526020015f206002806020026040519081016040528092919082600280156107e8576020028201915b815f9054906101000a900473ffffffffffffffffffffffffffffffffffffffff1673ffffffffffffffffffffffffffffffffffffffff168152602001906001019080831161079f575b50505050509050919050565b7f000000000000000000000000000000000000000000000000000000000000000081565b6001602052815f5260405f20602052805f5260405f205f9150915050805f015490806001015f9054906101000a900460ff16908060010160019054906101000a900460ff16905083565b5f805f8781526020019081526020015f206002806020026040519081016040528092919082600280156108df576020028201915b815f9054906101000a900473ffffffffffffffffffffffffffffffffffffffff1673ffffffffffffffffffffffffffffffffffffffff1681526020019060010190808311610896575b50505050509050805f600281106108f9576108f86116a6565b5b602002015173ffffffffffffffffffffffffffffffffffffffff163373ffffffffffffffffffffffffffffffffffffffff161415801561097d575080600160028110610948576109476116a6565b5b602002015173ffffffffffffffffffffffffffffffffffffffff163373ffffffffffffffffffffffffffffffffffffffff1614155b156109b4576040517f938f051800000000000000000000000000000000000000000000000000000000815260040160405180910390fd5b5f60015f8881526020019081526020015f205f3373ffffffffffffffffffffffffffffffffffffffff1673ffffffffffffffffffffffffffffffffffffffff1681526020019081526020015f209050806001015f9054906101000a900460ff1615610a4b576040517fa89ac15100000000000000000000000000000000000000000000000000000000815260040160405180910390fd5b5f86868686604051602001610a63949392919061170f565b604051602081830303815290604052805190602001209050815f01548114610ab7576040517fb7b3378700000000000000000000000000000000000000000000000000000000815260040160405180910390fd5b5f610b0488888080601f0160208091040260200160405190810160405280939291908181526020018383808284375f81840152601f19601f82011690508083019250505050505050611030565b90506001836001015f6101000a81548160ff021916908315150217905550808360010160016101000a81548160ff02191690836003811115610b4957610b486114ce565b5b02179055505f60025f8b81526020019081526020015f205403610b7d574260025f8b81526020019081526020015f20819055505b3373ffffffffffffffffffffffffffffffffffffffff16897fdd17665bf97c2a169e97f4f62f36023bf40807eb797a922864394a910d5c37c883604051610bc49190611736565b60405180910390a3505050505050505050565b5f602052815f5260405f208160028110610bef575f80fd5b015f915091509054906101000a900473ffffffffffffffffffffffffffffffffffffffff1681565b5f805f808481526020019081526020015f20600280602002604051908101604052809291908260028015610c95576020028201915b815f9054906101000a900473ffffffffffffffffffffffffffffffffffffffff1673ffffffffffffffffffffffffffffffffffffffff1681526020019060010190808311610c4c575b505050505090505f60015f8581526020019081526020015f205f835f60028110610cc257610cc16116a6565b5b602002015173ffffffffffffffffffffffffffffffffffffffff1673ffffffffffffffffffffffffffffffffffffffff1681526020019081526020015f206040518060600160405290815f8201548152602001600182015f9054906101000a900460ff161515151581526020016001820160019054906101000a900460ff166003811115610d5357610d526114ce565b5b6003811115610d6557610d646114ce565b5b8152505090505f60015f8681526020019081526020015f205f84600160028110610d9257610d916116a6565b5b602002015173ffffffffffffffffffffffffffffffffffffffff1673ffffffffffffffffffffffffffffffffffffffff1681526020019081526020015f206040518060600160405290815f8201548152602001600182015f9054906101000a900460ff161515151581526020016001820160019054906101000a900460ff166003811115610e2357610e226114ce565b5b6003811115610e3557610e346114ce565b5b81525050905081602001511580610e4e57508060200151155b15610e85576040517ff6f2d7dd00000000000000000000000000000000000000000000000000000000815260040160405180910390fd5b5f826040015190505f82604001519050806003811115610ea857610ea76114ce565b5b826003811115610ebb57610eba6114ce565b5b03610ecd575f9550505050505061102b565b60016003811115610ee157610ee06114ce565b5b826003811115610ef457610ef36114ce565b5b148015610f245750600380811115610f0f57610f0e6114ce565b5b816003811115610f2257610f216114ce565b5b145b80610f83575060026003811115610f3e57610f3d6114ce565b5b826003811115610f5157610f506114ce565b5b148015610f82575060016003811115610f6d57610f6c6114ce565b5b816003811115610f8057610f7f6114ce565b5b145b5b80610fe15750600380811115610f9c57610f9b6114ce565b5b826003811115610faf57610fae6114ce565b5b148015610fe0575060026003811115610fcb57610fca6114ce565b5b816003811115610fde57610fdd6114ce565b5b145b5b1561100a57845f60028110610ff957610ff86116a6565b5b60200201519550505050505061102b565b8460016002811061101e5761101d6116a6565b5b6020020151955050505050505b919050565b5f80828051906020012090507f10977e4d68108d418408bc9310b60fc6d0a750c63ccef42cfb0ead23ab73d102810361106d576001915050611101565b7fea923ca2cdda6b54f4fb2bf6a063e5a59a6369ca4c4ae2c4ce02a147b3036a21810361109e576002915050611101565b7f389a2d4e358d901bfdf22245f32b4b0a401cc16a4b92155a2ee5da98273dad9a81036110cf576003915050611101565b6040517f87822d3400000000000000000000000000000000000000000000000000000000815260040160405180910390fd5b919050565b8260028101928215611171579160200282015b82811115611170578251825f6101000a81548173ffffffffffffffffffffffffffffffffffffffff021916908373ffffffffffffffffffffffffffffffffffffffff16021790555091602001919060010190611119565b5b50905061117e91906111a4565b5090565b6040518060400160405280600290602082028036833780820191505090505090565b5b808211156111bb575f815f9055506001016111a5565b5090565b5f80fd5b5f80fd5b5f819050919050565b6111d9816111c7565b81146111e3575f80fd5b50565b5f813590506111f4816111d0565b92915050565b5f6020828403121561120f5761120e6111bf565b5b5f61121c848285016111e6565b91505092915050565b61122e816111c7565b82525050565b5f6020820190506112475f830184611225565b92915050565b5f73ffffffffffffffffffffffffffffffffffffffff82169050919050565b5f6112768261124d565b9050919050565b6112868161126c565b8114611290575f80fd5b50565b5f813590506112a18161127d565b92915050565b5f80604083850312156112bd576112bc6111bf565b5b5f6112ca858286016111e6565b92505060206112db85828601611293565b9150509250929050565b5f8115159050919050565b6112f9816112e5565b82525050565b5f6020820190506113125f8301846112f0565b92915050565b5f819050919050565b61132a81611318565b8114611334575f80fd5b50565b5f8135905061134581611321565b92915050565b5f8060408385031215611361576113606111bf565b5b5f61136e858286016111e6565b925050602061137f85828601611337565b9150509250929050565b5f805f606084860312156113a05761139f6111bf565b5b5f6113ad868287016111e6565b93505060206113be86828701611293565b92505060406113cf86828701611293565b9150509250925092565b5f60029050919050565b5f81905092915050565b5f819050919050565b6113ff8161126c565b82525050565b5f61141083836113f6565b60208301905092915050565b5f602082019050919050565b611431816113d9565b61143b81846113e3565b9250611446826113ed565b805f5b8381101561147657815161145d8782611405565b96506114688361141c565b925050600181019050611449565b505050505050565b5f6040820190506114915f830184611428565b92915050565b6114a08161126c565b82525050565b5f6020820190506114b95f830184611497565b92915050565b6114c881611318565b82525050565b7f4e487b71000000000000000000000000000000000000000000000000000000005f52602160045260245ffd5b6004811061150c5761150b6114ce565b5b50565b5f81905061151c826114fb565b919050565b5f61152b8261150f565b9050919050565b61153b81611521565b82525050565b5f6060820190506115545f8301866114bf565b61156160208301856112f0565b61156e6040830184611532565b949350505050565b5f80fd5b5f80fd5b5f80fd5b5f8083601f84011261159757611596611576565b5b8235905067ffffffffffffffff8111156115b4576115b361157a565b5b6020830191508360018202830111156115d0576115cf61157e565b5b9250929050565b5f805f805f606086880312156115f0576115ef6111bf565b5b5f6115fd888289016111e6565b955050602086013567ffffffffffffffff81111561161e5761161d6111c3565b5b61162a88828901611582565b9450945050604086013567ffffffffffffffff81111561164d5761164c6111c3565b5b61165988828901611582565b92509250509295509295909350565b5f806040838503121561167e5761167d6111bf565b5b5f61168b858286016111e6565b925050602061169c858286016111e6565b9150509250929050565b7f4e487b71000000000000000000000000000000000000000000000000000000005f52603260045260245ffd5b5f81905092915050565b828183375f83830152505050565b5f6116f683856116d3565b93506117038385846116dd565b82840190509392505050565b5f61171b8286886116eb565b91506117288284866116eb565b915081905095945050505050565b5f6020820190506117495f830184611532565b9291505056fea2646970667358221220f18b3f989adf381f3881e4844c40df869e07069c259c44d37299cf743695082264736f6c63430008180033",
					"opcodes": "PUSH1 0xA0 PUSH1 0x40 MSTORE CALLVALUE DUP1 ISZERO PUSH3 0x10 JUMPI PUSH0 DUP1 REVERT JUMPDEST POP PUSH1 0x40 MLOAD PUSH3 0x18AB CODESIZE SUB DUP1 PUSH3 0x18AB DUP4 CODECOPY DUP2 DUP2 ADD PUSH1 0x40 MSTORE DUP2 ADD SWAP1 PUSH3 0x36 SWAP2 SWAP1 PUSH3 0xD6 JUMP JUMPDEST DUP1 PUSH20 0xFFFFFFFFFFFFFFFFFFFFFFFFFFFFFFFFFFFFFFFF AND PUSH1 0x80 DUP2 PUSH20 0xFFFFFFFFFFFFFFFFFFFFFFFFFFFFFFFFFFFFFFFF AND DUP2 MSTORE POP POP POP PUSH3 0x106 JUMP JUMPDEST PUSH0 DUP1 REVERT JUMPDEST PUSH0 PUSH20 0xFFFFFFFFFFFFFFFFFFFFFFFFFFFFFFFFFFFFFFFF DUP3 AND SWAP1 POP SWAP2 SWAP1 POP JUMP JUMPDEST PUSH0 PUSH3 0xA0 DUP3 PUSH3 0x75 JUMP JUMPDEST SWAP1 POP SWAP2 SWAP1 POP JUMP JUMPDEST PUSH3 0xB2 DUP2 PUSH3 0x94 JUMP JUMPDEST DUP2 EQ PUSH3 0xBD JUMPI PUSH0 DUP1 REVERT JUMPDEST POP JUMP JUMPDEST PUSH0 DUP2 MLOAD SWAP1 POP PUSH3 0xD0 DUP2 PUSH3 0xA7 JUMP JUMPDEST SWAP3 SWAP2 POP POP JUMP JUMPDEST PUSH0 PUSH1 0x20 DUP3 DUP5 SUB SLT ISZERO PUSH3 0xEE JUMPI PUSH3 0xED PUSH3 0x71 JUMP JUMPDEST JUMPDEST PUSH0 PUSH3 0xFD DUP5 DUP3 DUP6 ADD PUSH3 0xC0 JUMP JUMPDEST SWAP2 POP POP SWAP3 SWAP2 POP POP JUMP JUMPDEST PUSH1 0x80 MLOAD PUSH2 0x1785 PUSH3 0x126 PUSH0 CODECOPY PUSH0 DUP2 DUP2 PUSH2 0x5A9 ADD MSTORE PUSH2 0x7F6 ADD MSTORE PUSH2 0x1785 PUSH0 RETURN INVALID PUSH1 0x80 PUSH1 0x40 MSTORE CALLVALUE DUP1 ISZERO PUSH2 0xF JUMPI PUSH0 DUP1 REVERT JUMPDEST POP PUSH1 0x4 CALLDATASIZE LT PUSH2 0x9C JUMPI PUSH0 CALLDATALOAD PUSH1 0xE0 SHR DUP1 PUSH4 0x481C6A75 GT PUSH2 0x64 JUMPI DUP1 PUSH4 0x481C6A75 EQ PUSH2 0x168 JUMPI DUP1 PUSH4 0x48CEEC53 EQ PUSH2 0x186 JUMPI DUP1 PUSH4 0x526999D0 EQ PUSH2 0x1B8 JUMPI DUP1 PUSH4 0x7F58D660 EQ PUSH2 0x1D4 JUMPI DUP1 PUSH4 0xCDD69A12 EQ PUSH2 0x204 JUMPI PUSH2 0x9C JUMP JUMPDEST DUP1 PUSH4 0x907AF75 EQ PUSH2 0xA0 JUMPI DUP1 PUSH4 0x16B5551D EQ PUSH2 0xD0 JUMPI DUP1 PUSH4 0x26826F62 EQ PUSH2 0x100 JUMPI DUP1 PUSH4 0x4400E01C EQ PUSH2 0x11C JUMPI DUP1 PUSH4 0x460E2049 EQ PUSH2 0x138 JUMPI JUMPDEST PUSH0 DUP1 REVERT JUMPDEST PUSH2 0xBA PUSH1 0x4 DUP1 CALLDATASIZE SUB DUP2 ADD SWAP1 PUSH2 0xB5 SWAP2 SWAP1 PUSH2 0x11FA JUMP JUMPDEST PUSH2 0x234 JUMP JUMPDEST PUSH1 0x40 MLOAD PUSH2 0xC7 SWAP2 SWAP1 PUSH2 0x1234 JUMP JUMPDEST PUSH1 0x40 MLOAD DUP1 SWAP2 SUB SWAP1 RETURN JUMPDEST PUSH2 0xEA PUSH1 0x4 DUP1 CALLDATASIZE SUB DUP2 ADD SWAP1 PUSH2 0xE5 SWAP2 SWAP1 PUSH2 0x12A7 JUMP JUMPDEST PUSH2 0x249 JUMP JUMPDEST PUSH1 0x40 MLOAD PUSH2 0xF7 SWAP2 SWAP1 PUSH2 0x12FF JUMP JUMPDEST PUSH1 0x40 MLOAD DUP1 SWAP2 SUB SWAP1 RETURN JUMPDEST PUSH2 0x11A PUSH1 0x4 DUP1 CALLDATASIZE SUB DUP2 ADD SWAP1 PUSH2 0x115 SWAP2 SWAP1 PUSH2 0x134B JUMP JUMPDEST PUSH2 0x2AE JUMP JUMPDEST STOP JUMPDEST PUSH2 0x136 PUSH1 0x4 DUP1 CALLDATASIZE SUB DUP2 ADD SWAP1 PUSH2 0x131 SWAP2 SWAP1 PUSH2 0x1389 JUMP JUMPDEST PUSH2 0x5A7 JUMP JUMPDEST STOP JUMPDEST PUSH2 0x152 PUSH1 0x4 DUP1 CALLDATASIZE SUB DUP2 ADD SWAP1 PUSH2 0x14D SWAP2 SWAP1 PUSH2 0x11FA JUMP JUMPDEST PUSH2 0x764 JUMP JUMPDEST PUSH1 0x40 MLOAD PUSH2 0x15F SWAP2 SWAP1 PUSH2 0x147E JUMP JUMPDEST PUSH1 0x40 MLOAD DUP1 SWAP2 SUB SWAP1 RETURN JUMPDEST PUSH2 0x170 PUSH2 0x7F4 JUMP JUMPDEST PUSH1 0x40 MLOAD PUSH2 0x17D SWAP2 SWAP1 PUSH2 0x14A6 JUMP JUMPDEST PUSH1 0x40 MLOAD DUP1 SWAP2 SUB SWAP1 RETURN JUMPDEST PUSH2 0x1A0 PUSH1 0x4 DUP1 CALLDATASIZE SUB DUP2 ADD SWAP1 PUSH2 0x19B SWAP2 SWAP1 PUSH2 0x12A7 JUMP JUMPDEST PUSH2 0x818 JUMP JUMPDEST PUSH1 0x40 MLOAD PUSH2 0x1AF SWAP4 SWAP3 SWAP2 SWAP1 PUSH2 0x1541 JUMP JUMPDEST PUSH1 0x40 MLOAD DUP1 SWAP2 SUB SWAP1 RETURN JUMPDEST PUSH2 0x1D2 PUSH1 0x4 DUP1 CALLDATASIZE SUB DUP2 ADD SWAP1 PUSH2 0x1CD SWAP2 SWAP1 PUSH2 0x15D7 JUMP JUMPDEST PUSH2 0x862 JUMP JUMPDEST STOP JUMPDEST PUSH2 0x1EE PUSH1 0x4 DUP1 CALLDATASIZE SUB DUP2 ADD SWAP1 PUSH2 0x1E9 SWAP2 SWAP1 PUSH2 0x1668 JUMP JUMPDEST PUSH2 0xBD7 JUMP JUMPDEST PUSH1 0x40 MLOAD PUSH2 0x1FB SWAP2 SWAP1 PUSH2 0x14A6 JUMP JUMPDEST PUSH1 0x40 MLOAD DUP1 SWAP2 SUB SWAP1 RETURN JUMPDEST PUSH2 0x21E PUSH1 0x4 DUP1 CALLDATASIZE SUB DUP2 ADD SWAP1 PUSH2 0x219 SWAP2 SWAP1 PUSH2 0x11FA JUMP JUMPDEST PUSH2 0xC17 JUMP JUMPDEST PUSH1 0x40 MLOAD PUSH2 0x22B SWAP2 SWAP1 PUSH2 0x14A6 JUMP JUMPDEST PUSH1 0x40 MLOAD DUP1 SWAP2 SUB SWAP1 RETURN JUMPDEST PUSH1 0x2 PUSH1 0x20 MSTORE DUP1 PUSH0 MSTORE PUSH1 0x40 PUSH0 KECCAK256 PUSH0 SWAP2 POP SWAP1 POP SLOAD DUP2 JUMP JUMPDEST PUSH0 PUSH1 0x1 PUSH0 DUP5 DUP2 MSTORE PUSH1 0x20 ADD SWAP1 DUP2 MSTORE PUSH1 0x20 ADD PUSH0 KECCAK256 PUSH0 DUP4 PUSH20 0xFFFFFFFFFFFFFFFFFFFFFFFFFFFFFFFFFFFFFFFF AND PUSH20 0xFFFFFFFFFFFFFFFFFFFFFFFFFFFFFFFFFFFFFFFF AND DUP2 MSTORE PUSH1 0x20 ADD SWAP1 DUP2 MSTORE PUSH1 0x20 ADD PUSH0 KECCAK256 PUSH1 0x1 ADD PUSH0 SWAP1 SLOAD SWAP1 PUSH2 0x100 EXP SWAP1 DIV PUSH1 0xFF AND SWAP1 POP SWAP3 SWAP2 POP POP JUMP JUMPDEST PUSH0 DUP1 PUSH0 DUP5 DUP2 MSTORE PUSH1 0x20 ADD SWAP1 DUP2 MSTORE PUSH1 0x20 ADD PUSH0 KECCAK256 PUSH1 0x2 DUP1 PUSH1 0x20 MUL PUSH1 0x40 MLOAD SWAP1 DUP2 ADD PUSH1 0x40 MSTORE DUP1 SWAP3 SWAP2 SWAP1 DUP3 PUSH1 0x2 DUP1 ISZERO PUSH2 0x32B JUMPI PUSH1 0x20 MUL DUP3 ADD SWAP2 JUMPDEST DUP2 PUSH0 SWAP1 SLOAD SWAP1 PUSH2 0x100 EXP SWAP1 DIV PUSH20 0xFFFFFFFFFFFFFFFFFFFFFFFFFFFFFFFFFFFFFFFF AND PUSH20 0xFFFFFFFFFFFFFFFFFFFFFFFFFFFFFFFFFFFFFFFF AND DUP2 MSTORE PUSH1 0x20 ADD SWAP1 PUSH1 0x1 ADD SWAP1 DUP1 DUP4 GT PUSH2 0x2E2 JUMPI JUMPDEST POP POP POP POP POP SWAP1 POP DUP1 PUSH0 PUSH1 0x2 DUP2 LT PUSH2 0x345 JUMPI PUSH2 0x344 PUSH2 0x16A6 JUMP JUMPDEST JUMPDEST PUSH1 0x20 MUL ADD MLOAD PUSH20 0xFFFFFFFFFFFFFFFFFFFFFFFFFFFFFFFFFFFFFFFF AND CALLER PUSH20 0xFFFFFFFFFFFFFFFFFFFFFFFFFFFFFFFFFFFFFFFF AND EQ ISZERO DUP1 ISZERO PUSH2 0x3C9 JUMPI POP DUP1 PUSH1 0x1 PUSH1 0x2 DUP2 LT PUSH2 0x394 JUMPI PUSH2 0x393 PUSH2 0x16A6 JUMP JUMPDEST JUMPDEST PUSH1 0x20 MUL ADD MLOAD PUSH20 0xFFFFFFFFFFFFFFFFFFFFFFFFFFFFFFFFFFFFFFFF AND CALLER PUSH20 0xFFFFFFFFFFFFFFFFFFFFFFFFFFFFFFFFFFFFFFFF AND EQ ISZERO JUMPDEST ISZERO PUSH2 0x400 JUMPI PUSH1 0x40 MLOAD PUSH32 0x938F051800000000000000000000000000000000000000000000000000000000 DUP2 MSTORE PUSH1 0x4 ADD PUSH1 0x40 MLOAD DUP1 SWAP2 SUB SWAP1 REVERT JUMPDEST PUSH0 DUP1 SHL PUSH1 0x1 PUSH0 DUP6 DUP2 MSTORE PUSH1 0x20 ADD SWAP1 DUP2 MSTORE PUSH1 0x20 ADD PUSH0 KECCAK256 PUSH0 CALLER PUSH20 0xFFFFFFFFFFFFFFFFFFFFFFFFFFFFFFFFFFFFFFFF AND PUSH20 0xFFFFFFFFFFFFFFFFFFFFFFFFFFFFFFFFFFFFFFFF AND DUP2 MSTORE PUSH1 0x20 ADD SWAP1 DUP2 MSTORE PUSH1 0x20 ADD PUSH0 KECCAK256 PUSH0 ADD SLOAD EQ PUSH2 0x489 JUMPI PUSH1 0x40 MLOAD PUSH32 0xBFEC555800000000000000000000000000000000000000000000000000000000 DUP2 MSTORE PUSH1 0x4 ADD PUSH1 0x40 MLOAD DUP1 SWAP2 SUB SWAP1 REVERT JUMPDEST PUSH1 0x40 MLOAD DUP1 PUSH1 0x60 ADD PUSH1 0x40 MSTORE DUP1 DUP4 DUP2 MSTORE PUSH1 0x20 ADD PUSH0 ISZERO ISZERO DUP2 MSTORE PUSH1 0x20 ADD PUSH0 PUSH1 0x3 DUP2 GT ISZERO PUSH2 0x4B5 JUMPI PUSH2 0x4B4 PUSH2 0x14CE JUMP JUMPDEST JUMPDEST DUP2 MSTORE POP PUSH1 0x1 PUSH0 DUP6 DUP2 MSTORE PUSH1 0x20 ADD SWAP1 DUP2 MSTORE PUSH1 0x20 ADD PUSH0 KECCAK256 PUSH0 CALLER PUSH20 0xFFFFFFFFFFFFFFFFFFFFFFFFFFFFFFFFFFFFFFFF AND PUSH20 0xFFFFFFFFFFFFFFFFFFFFFFFFFFFFFFFFFFFFFFFF AND DUP2 MSTORE PUSH1 0x20 ADD SWAP1 DUP2 MSTORE PUSH1 0x20 ADD PUSH0 KECCAK256 PUSH0 DUP3 ADD MLOAD DUP2 PUSH0 ADD SSTORE PUSH1 0x20 DUP3 ADD MLOAD DUP2 PUSH1 0x1 ADD PUSH0 PUSH2 0x100 EXP DUP2 SLOAD DUP2 PUSH1 0xFF MUL NOT AND SWAP1 DUP4 ISZERO ISZERO MUL OR SWAP1 SSTORE POP PUSH1 0x40 DUP3 ADD MLOAD DUP2 PUSH1 0x1 ADD PUSH1 0x1 PUSH2 0x100 EXP DUP2 SLOAD DUP2 PUSH1 0xFF MUL NOT AND SWAP1 DUP4 PUSH1 0x3 DUP2 GT ISZERO PUSH2 0x556 JUMPI PUSH2 0x555 PUSH2 0x14CE JUMP JUMPDEST JUMPDEST MUL OR SWAP1 SSTORE POP SWAP1 POP POP CALLER PUSH20 0xFFFFFFFFFFFFFFFFFFFFFFFFFFFFFFFFFFFFFFFF AND DUP4 PUSH32 0x1D3CF81927DA212FDD71794079B5B6A4915C8E82AE6486396A4A635D7B641D72 PUSH1 0x40 MLOAD PUSH1 0x40 MLOAD DUP1 SWAP2 SUB SWAP1 LOG3 POP POP POP JUMP JUMPDEST PUSH32 0x0 PUSH20 0xFFFFFFFFFFFFFFFFFFFFFFFFFFFFFFFFFFFFFFFF AND CALLER PUSH20 0xFFFFFFFFFFFFFFFFFFFFFFFFFFFFFFFFFFFFFFFF AND EQ PUSH2 0x62C JUMPI PUSH1 0x40 MLOAD PUSH32 0x938F051800000000000000000000000000000000000000000000000000000000 DUP2 MSTORE PUSH1 0x4 ADD PUSH1 0x40 MLOAD DUP1 SWAP2 SUB SWAP1 REVERT JUMPDEST PUSH0 PUSH20 0xFFFFFFFFFFFFFFFFFFFFFFFFFFFFFFFFFFFFFFFF AND PUSH0 DUP1 DUP6 DUP2 MSTORE PUSH1 0x20 ADD SWAP1 DUP2 MSTORE PUSH1 0x20 ADD PUSH0 KECCAK256 PUSH0 PUSH1 0x2 DUP2 LT PUSH2 0x665 JUMPI PUSH2 0x664 PUSH2 0x16A6 JUMP JUMPDEST JUMPDEST ADD PUSH0 SWAP1 SLOAD SWAP1 PUSH2 0x100 EXP SWAP1 DIV PUSH20 0xFFFFFFFFFFFFFFFFFFFFFFFFFFFFFFFFFFFFFFFF AND PUSH20 0xFFFFFFFFFFFFFFFFFFFFFFFFFFFFFFFFFFFFFFFF AND EQ PUSH2 0x6D3 JUMPI PUSH1 0x40 MLOAD PUSH32 0x3A81D6FC00000000000000000000000000000000000000000000000000000000 DUP2 MSTORE PUSH1 0x4 ADD PUSH1 0x40 MLOAD DUP1 SWAP2 SUB SWAP1 REVERT JUMPDEST PUSH1 0x40 MLOAD DUP1 PUSH1 0x40 ADD PUSH1 0x40 MSTORE DUP1 DUP4 PUSH20 0xFFFFFFFFFFFFFFFFFFFFFFFFFFFFFFFFFFFFFFFF AND PUSH20 0xFFFFFFFFFFFFFFFFFFFFFFFFFFFFFFFFFFFFFFFF AND DUP2 MSTORE PUSH1 0x20 ADD DUP3 PUSH20 0xFFFFFFFFFFFFFFFFFFFFFFFFFFFFFFFFFFFFFFFF AND PUSH20 0xFFFFFFFFFFFFFFFFFFFFFFFFFFFFFFFFFFFFFFFF AND DUP2 MSTORE POP PUSH0 DUP1 DUP6 DUP2 MSTORE PUSH1 0x20 ADD SWAP1 DUP2 MSTORE PUSH1 0x20 ADD PUSH0 KECCAK256 SWAP1 PUSH1 0x2 PUSH2 0x75E SWAP3 SWAP2 SWAP1 PUSH2 0x1106 JUMP JUMPDEST POP POP POP POP JUMP JUMPDEST PUSH2 0x76C PUSH2 0x1182 JUMP JUMPDEST PUSH0 DUP1 DUP4 DUP2 MSTORE PUSH1 0x20 ADD SWAP1 DUP2 MSTORE PUSH1 0x20 ADD PUSH0 KECCAK256 PUSH1 0x2 DUP1 PUSH1 0x20 MUL PUSH1 0x40 MLOAD SWAP1 DUP2 ADD PUSH1 0x40 MSTORE DUP1 SWAP3 SWAP2 SWAP1 DUP3 PUSH1 0x2 DUP1 ISZERO PUSH2 0x7E8 JUMPI PUSH1 0x20 MUL DUP3 ADD SWAP2 JUMPDEST DUP2 PUSH0 SWAP1 SLOAD SWAP1 PUSH2 0x100 EXP SWAP1 DIV PUSH20 0xFFFFFFFFFFFFFFFFFFFFFFFFFFFFFFFFFFFFFFFF AND PUSH20 0xFFFFFFFFFFFFFFFFFFFFFFFFFFFFFFFFFFFFFFFF AND DUP2 MSTORE PUSH1 0x20 ADD SWAP1 PUSH1 0x1 ADD SWAP1 DUP1 DUP4 GT PUSH2 0x79F JUMPI JUMPDEST POP POP POP POP POP SWAP1 POP SWAP2 SWAP1 POP JUMP JUMPDEST PUSH32 0x0 DUP2 JUMP JUMPDEST PUSH1 0x1 PUSH1 0x20 MSTORE DUP2 PUSH0 MSTORE PUSH1 0x40 PUSH0 KECCAK256 PUSH1 0x20 MSTORE DUP1 PUSH0 MSTORE PUSH1 0x40 PUSH0 KECCAK256 PUSH0 SWAP2 POP SWAP2 POP POP DUP1 PUSH0 ADD SLOAD SWAP1 DUP1 PUSH1 0x1 ADD PUSH0 SWAP1 SLOAD SWAP1 PUSH2 0x100 EXP SWAP1 DIV PUSH1 0xFF AND SWAP1 DUP1 PUSH1 0x1 ADD PUSH1 0x1 SWAP1 SLOAD SWAP1 PUSH2 0x100 EXP SWAP1 DIV PUSH1 0xFF AND SWAP1 POP DUP4 JUMP JUMPDEST PUSH0 DUP1 PUSH0 DUP8 DUP2 MSTORE PUSH1 0x20 ADD SWAP1 DUP2 MSTORE PUSH1 0x20 ADD PUSH0 KECCAK256 PUSH1 0x2 DUP1 PUSH1 0x20 MUL PUSH1 0x40 MLOAD SWAP1 DUP2 ADD PUSH1 0x40 MSTORE DUP1 SWAP3 SWAP2 SWAP1 DUP3 PUSH1 0x2 DUP1 ISZERO PUSH2 0x8DF JUMPI PUSH1 0x20 MUL DUP3 ADD SWAP2 JUMPDEST DUP2 PUSH0 SWAP1 SLOAD SWAP1 PUSH2 0x100 EXP SWAP1 DIV PUSH20 0xFFFFFFFFFFFFFFFFFFFFFFFFFFFFFFFFFFFFFFFF AND PUSH20 0xFFFFFFFFFFFFFFFFFFFFFFFFFFFFFFFFFFFFFFFF AND DUP2 MSTORE PUSH1 0x20 ADD SWAP1 PUSH1 0x1 ADD SWAP1 DUP1 DUP4 GT PUSH2 0x896 JUMPI JUMPDEST POP POP POP POP POP SWAP1 POP DUP1 PUSH0 PUSH1 0x2 DUP2 LT PUSH2 0x8F9 JUMPI PUSH2 0x8F8 PUSH2 0x16A6 JUMP JUMPDEST JUMPDEST PUSH1 0x20 MUL ADD MLOAD PUSH20 0xFFFFFFFFFFFFFFFFFFFFFFFFFFFFFFFFFFFFFFFF AND CALLER PUSH20 0xFFFFFFFFFFFFFFFFFFFFFFFFFFFFFFFFFFFFFFFF AND EQ ISZERO DUP1 ISZERO PUSH2 0x97D JUMPI POP DUP1 PUSH1 0x1 PUSH1 0x2 DUP2 LT PUSH2 0x948 JUMPI PUSH2 0x947 PUSH2 0x16A6 JUMP JUMPDEST JUMPDEST PUSH1 0x20 MUL ADD MLOAD PUSH20 0xFFFFFFFFFFFFFFFFFFFFFFFFFFFFFFFFFFFFFFFF AND CALLER PUSH20 0xFFFFFFFFFFFFFFFFFFFFFFFFFFFFFFFFFFFFFFFF AND EQ ISZERO JUMPDEST ISZERO PUSH2 0x9B4 JUMPI PUSH1 0x40 MLOAD PUSH32 0x938F051800000000000000000000000000000000000000000000000000000000 DUP2 MSTORE PUSH1 0x4 ADD PUSH1 0x40 MLOAD DUP1 SWAP2 SUB SWAP1 REVERT JUMPDEST PUSH0 PUSH1 0x1 PUSH0 DUP9 DUP2 MSTORE PUSH1 0x20 ADD SWAP1 DUP2 MSTORE PUSH1 0x20 ADD PUSH0 KECCAK256 PUSH0 CALLER PUSH20 0xFFFFFFFFFFFFFFFFFFFFFFFFFFFFFFFFFFFFFFFF AND PUSH20 0xFFFFFFFFFFFFFFFFFFFFFFFFFFFFFFFFFFFFFFFF AND DUP2 MSTORE PUSH1 0x20 ADD SWAP1 DUP2 MSTORE PUSH1 0x20 ADD PUSH0 KECCAK256 SWAP1 POP DUP1 PUSH1 0x1 ADD PUSH0 SWAP1 SLOAD SWAP1 PUSH2 0x100 EXP SWAP1 DIV PUSH1 0xFF AND ISZERO PUSH2 0xA4B JUMPI PUSH1 0x40 MLOAD PUSH32 0xA89AC15100000000000000000000000000000000000000000000000000000000 DUP2 MSTORE PUSH1 0x4 ADD PUSH1 0x40 MLOAD DUP1 SWAP2 SUB SWAP1 REVERT JUMPDEST PUSH0 DUP7 DUP7 DUP7 DUP7 PUSH1 0x40 MLOAD PUSH1 0x20 ADD PUSH2 0xA63 SWAP5 SWAP4 SWAP3 SWAP2 SWAP1 PUSH2 0x170F JUMP JUMPDEST PUSH1 0x40 MLOAD PUSH1 0x20 DUP2 DUP4 SUB SUB DUP2 MSTORE SWAP1 PUSH1 0x40 MSTORE DUP1 MLOAD SWAP1 PUSH1 0x20 ADD KECCAK256 SWAP1 POP DUP2 PUSH0 ADD SLOAD DUP2 EQ PUSH2 0xAB7 JUMPI PUSH1 0x40 MLOAD PUSH32 0xB7B3378700000000000000000000000000000000000000000000000000000000 DUP2 MSTORE PUSH1 0x4 ADD PUSH1 0x40 MLOAD DUP1 SWAP2 SUB SWAP1 REVERT JUMPDEST PUSH0 PUSH2 0xB04 DUP9 DUP9 DUP1 DUP1 PUSH1 0x1F ADD PUSH1 0x20 DUP1 SWAP2 DIV MUL PUSH1 0x20 ADD PUSH1 0x40 MLOAD SWAP1 DUP2 ADD PUSH1 0x40 MSTORE DUP1 SWAP4 SWAP3 SWAP2 SWAP1 DUP2 DUP2 MSTORE PUSH1 0x20 ADD DUP4 DUP4 DUP1 DUP3 DUP5 CALLDATACOPY PUSH0 DUP2 DUP5 ADD MSTORE PUSH1 0x1F NOT PUSH1 0x1F DUP3 ADD AND SWAP1 POP DUP1 DUP4 ADD SWAP3 POP POP POP POP POP POP POP PUSH2 0x1030 JUMP JUMPDEST SWAP1 POP PUSH1 0x1 DUP4 PUSH1 0x1 ADD PUSH0 PUSH2 0x100 EXP DUP2 SLOAD DUP2 PUSH1 0xFF MUL NOT AND SWAP1 DUP4 ISZERO ISZERO MUL OR SWAP1 SSTORE POP DUP1 DUP4 PUSH1 0x1 ADD PUSH1 0x1 PUSH2 0x100 EXP DUP2 SLOAD DUP2 PUSH1 0xFF MUL NOT AND SWAP1 DUP4 PUSH1 0x3 DUP2 GT ISZERO PUSH2 0xB49 JUMPI PUSH2 0xB48 PUSH2 0x14CE JUMP JUMPDEST JUMPDEST MUL OR SWAP1 SSTORE POP PUSH0 PUSH1 0x2 PUSH0 DUP12 DUP2 MSTORE PUSH1 0x20 ADD SWAP1 DUP2 MSTORE PUSH1 0x20 ADD PUSH0 KECCAK256 SLOAD SUB PUSH2 0xB7D JUMPI TIMESTAMP PUSH1 0x2 PUSH0 DUP12 DUP2 MSTORE PUSH1 0x20 ADD SWAP1 DUP2 MSTORE PUSH1 0x20 ADD PUSH0 KECCAK256 DUP2 SWAP1 SSTORE POP JUMPDEST CALLER PUSH20 0xFFFFFFFFFFFFFFFFFFFFFFFFFFFFFFFFFFFFFFFF AND DUP10 PUSH32 0xDD17665BF97C2A169E97F4F62F36023BF40807EB797A922864394A910D5C37C8 DUP4 PUSH1 0x40 MLOAD PUSH2 0xBC4 SWAP2 SWAP1 PUSH2 0x1736 JUMP JUMPDEST PUSH1 0x40 MLOAD DUP1 SWAP2 SUB SWAP1 LOG3 POP POP POP POP POP POP POP POP POP JUMP JUMPDEST PUSH0 PUSH1 0x20 MSTORE DUP2 PUSH0 MSTORE PUSH1 0x40 PUSH0 KECCAK256 DUP2 PUSH1 0x2 DUP2 LT PUSH2 0xBEF JUMPI PUSH0 DUP1 REVERT JUMPDEST ADD PUSH0 SWAP2 POP SWAP2 POP SWAP1 SLOAD SWAP1 PUSH2 0x100 EXP SWAP1 DIV PUSH20 0xFFFFFFFFFFFFFFFFFFFFFFFFFFFFFFFFFFFFFFFF AND DUP2 JUMP JUMPDEST PUSH0 DUP1 PUSH0 DUP1 DUP5 DUP2 MSTORE PUSH1 0x20 ADD SWAP1 DUP2 MSTORE PUSH1 0x20 ADD PUSH0 KECCAK256 PUSH1 0x2 DUP1 PUSH1 0x20 MUL PUSH1 0x40 MLOAD SWAP1 DUP2 ADD PUSH1 0x40 MSTORE DUP1 SWAP3 SWAP2 SWAP1 DUP3 PUSH1 0x2 DUP1 ISZERO PUSH2 0xC95 JUMPI PUSH1 0x20 MUL DUP3 ADD SWAP2 JUMPDEST DUP2 PUSH0 SWAP1 SLOAD SWAP1 PUSH2 0x100 EXP SWAP1 DIV PUSH20 0xFFFFFFFFFFFFFFFFFFFFFFFFFFFFFFFFFFFFFFFF AND PUSH20 0xFFFFFFFFFFFFFFFFFFFFFFFFFFFFFFFFFFFFFFFF AND DUP2 MSTORE PUSH1 0x20 ADD SWAP1 PUSH1 0x1 ADD SWAP1 DUP1 DUP4 GT PUSH2 0xC4C JUMPI JUMPDEST POP POP POP POP POP SWAP1 POP PUSH0 PUSH1 0x1 PUSH0 DUP6 DUP2 MSTORE PUSH1 0x20 ADD SWAP1 DUP2 MSTORE PUSH1 0x20 ADD PUSH0 KECCAK256 PUSH0 DUP4 PUSH0 PUSH1 0x2 DUP2 LT PUSH2 0xCC2 JUMPI PUSH2 0xCC1 PUSH2 0x16A6 JUMP JUMPDEST JUMPDEST PUSH1 0x20 MUL ADD MLOAD PUSH20 0xFFFFFFFFFFFFFFFFFFFFFFFFFFFFFFFFFFFFFFFF AND PUSH20 0xFFFFFFFFFFFFFFFFFFFFFFFFFFFFFFFFFFFFFFFF AND DUP2 MSTORE PUSH1 0x20 ADD SWAP1 DUP2 MSTORE PUSH1 0x20 ADD PUSH0 KECCAK256 PUSH1 0x40 MLOAD DUP1 PUSH1 0x60 ADD PUSH1 0x40 MSTORE SWAP1 DUP2 PUSH0 DUP3 ADD SLOAD DUP2 MSTORE PUSH1 0x20 ADD PUSH1 0x1 DUP3 ADD PUSH0 SWAP1 SLOAD SWAP1 PUSH2 0x100 EXP SWAP1 DIV PUSH1 0xFF AND ISZERO ISZERO ISZERO ISZERO DUP2 MSTORE PUSH1 0x20 ADD PUSH1 0x1 DUP3 ADD PUSH1 0x1 SWAP1 SLOAD SWAP1 PUSH2 0x100 EXP SWAP1 DIV PUSH1 0xFF AND PUSH1 0x3 DUP2 GT ISZERO PUSH2 0xD53 JUMPI PUSH2 0xD52 PUSH2 0x14CE JUMP JUMPDEST JUMPDEST PUSH1 0x3 DUP2 GT ISZERO PUSH2 0xD65 JUMPI PUSH2 0xD64 PUSH2 0x14CE JUMP JUMPDEST JUMPDEST DUP2 MSTORE POP POP SWAP1 POP PUSH0 PUSH1 0x1 PUSH0 DUP7 DUP2 MSTORE PUSH1 0x20 ADD SWAP1 DUP2 MSTORE PUSH1 0x20 ADD PUSH0 KECCAK256 PUSH0 DUP5 PUSH1 0x1 PUSH1 0x2 DUP2 LT PUSH2 0xD92 JUMPI PUSH2 0xD91 PUSH2 0x16A6 JUMP JUMPDEST JUMPDEST PUSH1 0x20 MUL ADD MLOAD PUSH20 0xFFFFFFFFFFFFFFFFFFFFFFFFFFFFFFFFFFFFFFFF AND PUSH20 0xFFFFFFFFFFFFFFFFFFFFFFFFFFFFFFFFFFFFFFFF AND DUP2 MSTORE PUSH1 0x20 ADD SWAP1 DUP2 MSTORE PUSH1 0x20 ADD PUSH0 KECCAK256 PUSH1 0x40 MLOAD DUP1 PUSH1 0x60 ADD PUSH1 0x40 MSTORE SWAP1 DUP2 PUSH0 DUP3 ADD SLOAD DUP2 MSTORE PUSH1 0x20 ADD PUSH1 0x1 DUP3 ADD PUSH0 SWAP1 SLOAD SWAP1 PUSH2 0x100 EXP SWAP1 DIV PUSH1 0xFF AND ISZERO ISZERO ISZERO ISZERO DUP2 MSTORE PUSH1 0x20 ADD PUSH1 0x1 DUP3 ADD PUSH1 0x1 SWAP1 SLOAD SWAP1 PUSH2 0x100 EXP SWAP1 DIV PUSH1 0xFF AND PUSH1 0x3 DUP2 GT ISZERO PUSH2 0xE23 JUMPI PUSH2 0xE22 PUSH2 0x14CE JUMP JUMPDEST JUMPDEST PUSH1 0x3 DUP2 GT ISZERO PUSH2 0xE35 JUMPI PUSH2 0xE34 PUSH2 0x14CE JUMP JUMPDEST JUMPDEST DUP2 MSTORE POP POP SWAP1 POP DUP2 PUSH1 0x20 ADD MLOAD ISZERO DUP1 PUSH2 0xE4E JUMPI POP DUP1 PUSH1 0x20 ADD MLOAD ISZERO JUMPDEST ISZERO PUSH2 0xE85 JUMPI PUSH1 0x40 MLOAD PUSH32 0xF6F2D7DD00000000000000000000000000000000000000000000000000000000 DUP2 MSTORE PUSH1 0x4 ADD PUSH1 0x40 MLOAD DUP1 SWAP2 SUB SWAP1 REVERT JUMPDEST PUSH0 DUP3 PUSH1 0x40 ADD MLOAD SWAP1 POP PUSH0 DUP3 PUSH1 0x40 ADD MLOAD SWAP1 POP DUP1 PUSH1 0x3 DUP2 GT ISZERO PUSH2 0xEA8 JUMPI PUSH2 0xEA7 PUSH2 0x14CE JUMP JUMPDEST JUMPDEST DUP3 PUSH1 0x3 DUP2 GT ISZERO PUSH2 0xEBB JUMPI PUSH2 0xEBA PUSH2 0x14CE JUMP JUMPDEST JUMPDEST SUB PUSH2 0xECD JUMPI PUSH0 SWAP6 POP POP POP POP POP POP PUSH2 0x102B JUMP JUMPDEST PUSH1 0x1 PUSH1 0x3 DUP2 GT ISZERO PUSH2 0xEE1 JUMPI PUSH2 0xEE0 PUSH2 0x14CE JUMP JUMPDEST JUMPDEST DUP3 PUSH1 0x3 DUP2 GT ISZERO PUSH2 0xEF4 JUMPI PUSH2 0xEF3 PUSH2 0x14CE JUMP JUMPDEST JUMPDEST EQ DUP1 ISZERO PUSH2 0xF24 JUMPI POP PUSH1 0x3 DUP1 DUP2 GT ISZERO PUSH2 0xF0F JUMPI PUSH2 0xF0E PUSH2 0x14CE JUMP JUMPDEST JUMPDEST DUP2 PUSH1 0x3 DUP2 GT ISZERO PUSH2 0xF22 JUMPI PUSH2 0xF21 PUSH2 0x14CE JUMP JUMPDEST JUMPDEST EQ JUMPDEST DUP1 PUSH2 0xF83 JUMPI POP PUSH1 0x2 PUSH1 0x3 DUP2 GT ISZERO PUSH2 0xF3E JUMPI PUSH2 0xF3D PUSH2 0x14CE JUMP JUMPDEST JUMPDEST DUP3 PUSH1 0x3 DUP2 GT ISZERO PUSH2 0xF51 JUMPI PUSH2 0xF50 PUSH2 0x14CE JUMP JUMPDEST JUMPDEST EQ DUP1 ISZERO PUSH2 0xF82 JUMPI POP PUSH1 0x1 PUSH1 0x3 DUP2 GT ISZERO PUSH2 0xF6D JUMPI PUSH2 0xF6C PUSH2 0x14CE JUMP JUMPDEST JUMPDEST DUP2 PUSH1 0x3 DUP2 GT ISZERO PUSH2 0xF80 JUMPI PUSH2 0xF7F PUSH2 0x14CE JUMP JUMPDEST JUMPDEST EQ JUMPDEST JUMPDEST DUP1 PUSH2 0xFE1 JUMPI POP PUSH1 0x3 DUP1 DUP2 GT ISZERO PUSH2 0xF9C JUMPI PUSH2 0xF9B PUSH2 0x14CE JUMP JUMPDEST JUMPDEST DUP3 PUSH1 0x3 DUP2 GT ISZERO PUSH2 0xFAF JUMPI PUSH2 0xFAE PUSH2 0x14CE JUMP JUMPDEST JUMPDEST EQ DUP1 ISZERO PUSH2 0xFE0 JUMPI POP PUSH1 0x2 PUSH1 0x3 DUP2 GT ISZERO PUSH2 0xFCB JUMPI PUSH2 0xFCA PUSH2 0x14CE JUMP JUMPDEST JUMPDEST DUP2 PUSH1 0x3 DUP2 GT ISZERO PUSH2 0xFDE JUMPI PUSH2 0xFDD PUSH2 0x14CE JUMP JUMPDEST JUMPDEST EQ JUMPDEST JUMPDEST ISZERO PUSH2 0x100A JUMPI DUP5 PUSH0 PUSH1 0x2 DUP2 LT PUSH2 0xFF9 JUMPI PUSH2 0xFF8 PUSH2 0x16A6 JUMP JUMPDEST JUMPDEST PUSH1 0x20 MUL ADD MLOAD SWAP6 POP POP POP POP POP POP PUSH2 0x102B JUMP JUMPDEST DUP5 PUSH1 0x1 PUSH1 0x2 DUP2 LT PUSH2 0x101E JUMPI PUSH2 0x101D PUSH2 0x16A6 JUMP JUMPDEST JUMPDEST PUSH1 0x20 MUL ADD MLOAD SWAP6 POP POP POP POP POP POP JUMPDEST SWAP2 SWAP1 POP JUMP JUMPDEST PUSH0 DUP1 DUP3 DUP1 MLOAD SWAP1 PUSH1 0x20 ADD KECCAK256 SWAP1 POP PUSH32 0x10977E4D68108D418408BC9310B60FC6D0A750C63CCEF42CFB0EAD23AB73D102 DUP2 SUB PUSH2 0x106D JUMPI PUSH1 0x1 SWAP2 POP POP PUSH2 0x1101 JUMP JUMPDEST PUSH32 0xEA923CA2CDDA6B54F4FB2BF6A063E5A59A6369CA4C4AE2C4CE02A147B3036A21 DUP2 SUB PUSH2 0x109E JUMPI PUSH1 0x2 SWAP2 POP POP PUSH2 0x1101 JUMP JUMPDEST PUSH32 0x389A2D4E358D901BFDF22245F32B4B0A401CC16A4B92155A2EE5DA98273DAD9A DUP2 SUB PUSH2 0x10CF JUMPI PUSH1 0x3 SWAP2 POP POP PUSH2 0x1101 JUMP JUMPDEST PUSH1 0x40 MLOAD PUSH32 0x87822D3400000000000000000000000000000000000000000000000000000000 DUP2 MSTORE PUSH1 0x4 ADD PUSH1 0x40 MLOAD DUP1 SWAP2 SUB SWAP1 REVERT JUMPDEST SWAP2 SWAP1 POP JUMP JUMPDEST DUP3 PUSH1 0x2 DUP2 ADD SWAP3 DUP3 ISZERO PUSH2 0x1171 JUMPI SWAP2 PUSH1 0x20 MUL DUP3 ADD JUMPDEST DUP3 DUP2 GT ISZERO PUSH2 0x1170 JUMPI DUP3 MLOAD DUP3 PUSH0 PUSH2 0x100 EXP DUP2 SLOAD DUP2 PUSH20 0xFFFFFFFFFFFFFFFFFFFFFFFFFFFFFFFFFFFFFFFF MUL NOT AND SWAP1 DUP4 PUSH20 0xFFFFFFFFFFFFFFFFFFFFFFFFFFFFFFFFFFFFFFFF AND MUL OR SWAP1 SSTORE POP SWAP2 PUSH1 0x20 ADD SWAP2 SWAP1 PUSH1 0x1 ADD SWAP1 PUSH2 0x1119 JUMP JUMPDEST JUMPDEST POP SWAP1 POP PUSH2 0x117E SWAP2 SWAP1 PUSH2 0x11A4 JUMP JUMPDEST POP SWAP1 JUMP JUMPDEST PUSH1 0x40 MLOAD DUP1 PUSH1 0x40 ADD PUSH1 0x40 MSTORE DUP1 PUSH1 0x2 SWAP1 PUSH1 0x20 DUP3 MUL DUP1 CALLDATASIZE DUP4 CALLDATACOPY DUP1 DUP3 ADD SWAP2 POP POP SWAP1 POP POP SWAP1 JUMP JUMPDEST JUMPDEST DUP1 DUP3 GT ISZERO PUSH2 0x11BB JUMPI PUSH0 DUP2 PUSH0 SWAP1 SSTORE POP PUSH1 0x1 ADD PUSH2 0x11A5 JUMP JUMPDEST POP SWAP1 JUMP JUMPDEST PUSH0 DUP1 REVERT JUMPDEST PUSH0 DUP1 REVERT JUMPDEST PUSH0 DUP2 SWAP1 POP SWAP2 SWAP1 POP JUMP JUMPDEST PUSH2 0x11D9 DUP2 PUSH2 0x11C7 JUMP JUMPDEST DUP2 EQ PUSH2 0x11E3 JUMPI PUSH0 DUP1 REVERT JUMPDEST POP JUMP JUMPDEST PUSH0 DUP2 CALLDATALOAD SWAP1 POP PUSH2 0x11F4 DUP2 PUSH2 0x11D0 JUMP JUMPDEST SWAP3 SWAP2 POP POP JUMP JUMPDEST PUSH0 PUSH1 0x20 DUP3 DUP5 SUB SLT ISZERO PUSH2 0x120F JUMPI PUSH2 0x120E PUSH2 0x11BF JUMP JUMPDEST JUMPDEST PUSH0 PUSH2 0x121C DUP5 DUP3 DUP6 ADD PUSH2 0x11E6 JUMP JUMPDEST SWAP2 POP POP SWAP3 SWAP2 POP POP JUMP JUMPDEST PUSH2 0x122E DUP2 PUSH2 0x11C7 JUMP JUMPDEST DUP3 MSTORE POP POP JUMP JUMPDEST PUSH0 PUSH1 0x20 DUP3 ADD SWAP1 POP PUSH2 0x1247 PUSH0 DUP4 ADD DUP5 PUSH2 0x1225 JUMP JUMPDEST SWAP3 SWAP2 POP POP JUMP JUMPDEST PUSH0 PUSH20 0xFFFFFFFFFFFFFFFFFFFFFFFFFFFFFFFFFFFFFFFF DUP3 AND SWAP1 POP SWAP2 SWAP1 POP JUMP JUMPDEST PUSH0 PUSH2 0x1276 DUP3 PUSH2 0x124D JUMP JUMPDEST SWAP1 POP SWAP2 SWAP1 POP JUMP JUMPDEST PUSH2 0x1286 DUP2 PUSH2 0x126C JUMP JUMPDEST DUP2 EQ PUSH2 0x1290 JUMPI PUSH0 DUP1 REVERT JUMPDEST POP JUMP JUMPDEST PUSH0 DUP2 CALLDATALOAD SWAP1 POP PUSH2 0x12A1 DUP2 PUSH2 0x127D JUMP JUMPDEST SWAP3 SWAP2 POP POP JUMP JUMPDEST PUSH0 DUP1 PUSH1 0x40 DUP4 DUP6 SUB SLT ISZERO PUSH2 0x12BD JUMPI PUSH2 0x12BC PUSH2 0x11BF JUMP JUMPDEST JUMPDEST PUSH0 PUSH2 0x12CA DUP6 DUP3 DUP7 ADD PUSH2 0x11E6 JUMP JUMPDEST SWAP3 POP POP PUSH1 0x20 PUSH2 0x12DB DUP6 DUP3 DUP7 ADD PUSH2 0x1293 JUMP JUMPDEST SWAP2 POP POP SWAP3 POP SWAP3 SWAP1 POP JUMP JUMPDEST PUSH0 DUP2 ISZERO ISZERO SWAP1 POP SWAP2 SWAP1 POP JUMP JUMPDEST PUSH2 0x12F9 DUP2 PUSH2 0x12E5 JUMP JUMPDEST DUP3 MSTORE POP POP JUMP JUMPDEST PUSH0 PUSH1 0x20 DUP3 ADD SWAP1 POP PUSH2 0x1312 PUSH0 DUP4 ADD DUP5 PUSH2 0x12F0 JUMP JUMPDEST SWAP3 SWAP2 POP POP JUMP JUMPDEST PUSH0 DUP2 SWAP1 POP SWAP2 SWAP1 POP JUMP JUMPDEST PUSH2 0x132A DUP2 PUSH2 0x1318 JUMP JUMPDEST DUP2 EQ PUSH2 0x1334 JUMPI PUSH0 DUP1 REVERT JUMPDEST POP JUMP JUMPDEST PUSH0 DUP2 CALLDATALOAD SWAP1 POP PUSH2 0x1345 DUP2 PUSH2 0x1321 JUMP JUMPDEST SWAP3 SWAP2 POP POP JUMP JUMPDEST PUSH0 DUP1 PUSH1 0x40 DUP4 DUP6 SUB SLT ISZERO PUSH2 0x1361 JUMPI PUSH2 0x1360 PUSH2 0x11BF JUMP JUMPDEST JUMPDEST PUSH0 PUSH2 0x136E DUP6 DUP3 DUP7 ADD PUSH2 0x11E6 JUMP JUMPDEST SWAP3 POP POP PUSH1 0x20 PUSH2 0x137F DUP6 DUP3 DUP7 ADD PUSH2 0x1337 JUMP JUMPDEST SWAP2 POP POP SWAP3 POP SWAP3 SWAP1 POP JUMP JUMPDEST PUSH0 DUP1 PUSH0 PUSH1 0x60 DUP5 DUP7 SUB SLT ISZERO PUSH2 0x13A0 JUMPI PUSH2 0x139F PUSH2 0x11BF JUMP JUMPDEST JUMPDEST PUSH0 PUSH2 0x13AD DUP7 DUP3 DUP8 ADD PUSH2 0x11E6 JUMP JUMPDEST SWAP4 POP POP PUSH1 0x20 PUSH2 0x13BE DUP7 DUP3 DUP8 ADD PUSH2 0x1293 JUMP JUMPDEST SWAP3 POP POP PUSH1 0x40 PUSH2 0x13CF DUP7 DUP3 DUP8 ADD PUSH2 0x1293 JUMP JUMPDEST SWAP2 POP POP SWAP3 POP SWAP3 POP SWAP3 JUMP JUMPDEST PUSH0 PUSH1 0x2 SWAP1 POP SWAP2 SWAP1 POP JUMP JUMPDEST PUSH0 DUP2 SWAP1 POP SWAP3 SWAP2 POP POP JUMP JUMPDEST PUSH0 DUP2 SWAP1 POP SWAP2 SWAP1 POP JUMP JUMPDEST PUSH2 0x13FF DUP2 PUSH2 0x126C JUMP JUMPDEST DUP3 MSTORE POP POP JUMP JUMPDEST PUSH0 PUSH2 0x1410 DUP4 DUP4 PUSH2 0x13F6 JUMP JUMPDEST PUSH1 0x20 DUP4 ADD SWAP1 POP SWAP3 SWAP2 POP POP JUMP JUMPDEST PUSH0 PUSH1 0x20 DUP3 ADD SWAP1 POP SWAP2 SWAP1 POP JUMP JUMPDEST PUSH2 0x1431 DUP2 PUSH2 0x13D9 JUMP JUMPDEST PUSH2 0x143B DUP2 DUP5 PUSH2 0x13E3 JUMP JUMPDEST SWAP3 POP PUSH2 0x1446 DUP3 PUSH2 0x13ED JUMP JUMPDEST DUP1 PUSH0 JUMPDEST DUP4 DUP2 LT ISZERO PUSH2 0x1476 JUMPI DUP2 MLOAD PUSH2 0x145D DUP8 DUP3 PUSH2 0x1405 JUMP JUMPDEST SWAP7 POP PUSH2 0x1468 DUP4 PUSH2 0x141C JUMP JUMPDEST SWAP3 POP POP PUSH1 0x1 DUP2 ADD SWAP1 POP PUSH2 0x1449 JUMP JUMPDEST POP POP POP POP POP POP JUMP JUMPDEST PUSH0 PUSH1 0x40 DUP3 ADD SWAP1 POP PUSH2 0x1491 PUSH0 DUP4 ADD DUP5 PUSH2 0x1428 JUMP JUMPDEST SWAP3 SWAP2 POP POP JUMP JUMPDEST PUSH2 0x14A0 DUP2 PUSH2 0x126C JUMP JUMPDEST DUP3 MSTORE POP POP JUMP JUMPDEST PUSH0 PUSH1 0x20 DUP3 ADD SWAP1 POP PUSH2 0x14B9 PUSH0 DUP4 ADD DUP5 PUSH2 0x1497 JUMP JUMPDEST SWAP3 SWAP2 POP POP JUMP JUMPDEST PUSH2 0x14C8 DUP2 PUSH2 0x1318 JUMP JUMPDEST DUP3 MSTORE POP POP JUMP JUMPDEST PUSH32 0x4E487B7100000000000000000000000000000000000000000000000000000000 PUSH0 MSTORE PUSH1 0x21 PUSH1 0x4 MSTORE PUSH1 0x24 PUSH0 REVERT JUMPDEST PUSH1 0x4 DUP2 LT PUSH2 0x150C JUMPI PUSH2 0x150B PUSH2 0x14CE JUMP JUMPDEST JUMPDEST POP JUMP JUMPDEST PUSH0 DUP2 SWAP1 POP PUSH2 0x151C DUP3 PUSH2 0x14FB JUMP JUMPDEST SWAP2 SWAP1 POP JUMP JUMPDEST PUSH0 PUSH2 0x152B DUP3 PUSH2 0x150F JUMP JUMPDEST SWAP1 POP SWAP2 SWAP1 POP JUMP JUMPDEST PUSH2 0x153B DUP2 PUSH2 0x1521 JUMP JUMPDEST DUP3 MSTORE POP POP JUMP JUMPDEST PUSH0 PUSH1 0x60 DUP3 ADD SWAP1 POP PUSH2 0x1554 PUSH0 DUP4 ADD DUP7 PUSH2 0x14BF JUMP JUMPDEST PUSH2 0x1561 PUSH1 0x20 DUP4 ADD DUP6 PUSH2 0x12F0 JUMP JUMPDEST PUSH2 0x156E PUSH1 0x40 DUP4 ADD DUP5 PUSH2 0x1532 JUMP JUMPDEST SWAP5 SWAP4 POP POP POP POP JUMP JUMPDEST PUSH0 DUP1 REVERT JUMPDEST PUSH0 DUP1 REVERT JUMPDEST PUSH0 DUP1 REVERT JUMPDEST PUSH0 DUP1 DUP4 PUSH1 0x1F DUP5 ADD SLT PUSH2 0x1597 JUMPI PUSH2 0x1596 PUSH2 0x1576 JUMP JUMPDEST JUMPDEST DUP3 CALLDATALOAD SWAP1 POP PUSH8 0xFFFFFFFFFFFFFFFF DUP2 GT ISZERO PUSH2 0x15B4 JUMPI PUSH2 0x15B3 PUSH2 0x157A JUMP JUMPDEST JUMPDEST PUSH1 0x20 DUP4 ADD SWAP2 POP DUP4 PUSH1 0x1 DUP3 MUL DUP4 ADD GT ISZERO PUSH2 0x15D0 JUMPI PUSH2 0x15CF PUSH2 0x157E JUMP JUMPDEST JUMPDEST SWAP3 POP SWAP3 SWAP1 POP JUMP JUMPDEST PUSH0 DUP1 PUSH0 DUP1 PUSH0 PUSH1 0x60 DUP7 DUP9 SUB SLT ISZERO PUSH2 0x15F0 JUMPI PUSH2 0x15EF PUSH2 0x11BF JUMP JUMPDEST JUMPDEST PUSH0 PUSH2 0x15FD DUP9 DUP3 DUP10 ADD PUSH2 0x11E6 JUMP JUMPDEST SWAP6 POP POP PUSH1 0x20 DUP7 ADD CALLDATALOAD PUSH8 0xFFFFFFFFFFFFFFFF DUP2 GT ISZERO PUSH2 0x161E JUMPI PUSH2 0x161D PUSH2 0x11C3 JUMP JUMPDEST JUMPDEST PUSH2 0x162A DUP9 DUP3 DUP10 ADD PUSH2 0x1582 JUMP JUMPDEST SWAP5 POP SWAP5 POP POP PUSH1 0x40 DUP7 ADD CALLDATALOAD PUSH8 0xFFFFFFFFFFFFFFFF DUP2 GT ISZERO PUSH2 0x164D JUMPI PUSH2 0x164C PUSH2 0x11C3 JUMP JUMPDEST JUMPDEST PUSH2 0x1659 DUP9 DUP3 DUP10 ADD PUSH2 0x1582 JUMP JUMPDEST SWAP3 POP SWAP3 POP POP SWAP3 SWAP6 POP SWAP3 SWAP6 SWAP1 SWAP4 POP JUMP JUMPDEST PUSH0 DUP1 PUSH1 0x40 DUP4 DUP6 SUB SLT ISZERO PUSH2 0x167E JUMPI PUSH2 0x167D PUSH2 0x11BF JUMP JUMPDEST JUMPDEST PUSH0 PUSH2 0x168B DUP6 DUP3 DUP7 ADD PUSH2 0x11E6 JUMP JUMPDEST SWAP3 POP POP PUSH1 0x20 PUSH2 0x169C DUP6 DUP3 DUP7 ADD PUSH2 0x11E6 JUMP JUMPDEST SWAP2 POP POP SWAP3 POP SWAP3 SWAP1 POP JUMP JUMPDEST PUSH32 0x4E487B7100000000000000000000000000000000000000000000000000000000 PUSH0 MSTORE PUSH1 0x32 PUSH1 0x4 MSTORE PUSH1 0x24 PUSH0 REVERT JUMPDEST PUSH0 DUP2 SWAP1 POP SWAP3 SWAP2 POP POP JUMP JUMPDEST DUP3 DUP2 DUP4 CALLDATACOPY PUSH0 DUP4 DUP4 ADD MSTORE POP POP POP JUMP JUMPDEST PUSH0 PUSH2 0x16F6 DUP4 DUP6 PUSH2 0x16D3 JUMP JUMPDEST SWAP4 POP PUSH2 0x1703 DUP4 DUP6 DUP5 PUSH2 0x16DD JUMP JUMPDEST DUP3 DUP5 ADD SWAP1 POP SWAP4 SWAP3 POP POP POP JUMP JUMPDEST PUSH0 PUSH2 0x171B DUP3 DUP7 DUP9 PUSH2 0x16EB JUMP JUMPDEST SWAP2 POP PUSH2 0x1728 DUP3 DUP5 DUP7 PUSH2 0x16EB JUMP JUMPDEST SWAP2 POP DUP2 SWAP1 POP SWAP6 SWAP5 POP POP POP POP POP JUMP JUMPDEST PUSH0 PUSH1 0x20 DUP3 ADD SWAP1 POP PUSH2 0x1749 PUSH0 DUP4 ADD DUP5 PUSH2 0x1532 JUMP JUMPDEST SWAP3 SWAP2 POP POP JUMP INVALID LOG2 PUSH5 0x6970667358 0x22 SLT KECCAK256 CALL DUP12 EXTCODEHASH SWAP9 SWAP11 0xDF CODESIZE 0x1F CODESIZE DUP2 0xE4 DUP5 0x4C BLOCKHASH 0xDF DUP7 SWAP15 SMOD MOD SWAP13 0x25 SWAP13 PREVRANDAO 0xD3 PUSH19 0x99CF743695082264736F6C6343000818003300 "
				},
				"gasEstimates": {
					"creation": {
						"codeDepositCost": "1204200",
						"executionCost": "infinite",
						"totalCost": "infinite"
					},
					"external": {
						"commitMove(uint256,bytes32)": "infinite",
						"duelCommits(uint256,address)": "7712",
						"duelPlayers(uint256,uint256)": "infinite",
						"firstRevealTimestamp(uint256)": "infinite",
						"getPlayers(uint256)": "infinite",
						"hasRevealed(uint256,address)": "3146",
						"manager()": "infinite",
						"registerPlayers(uint256,address,address)": "infinite",
						"resolveDuel(uint256)": "infinite",
						"revealMove(uint256,string,string)": "infinite"
					},
					"internal": {
						"_parseMove(string memory)": "infinite"
					}
				},
				"methodIdentifiers": {
					"commitMove(uint256,bytes32)": "26826f62",
					"duelCommits(uint256,address)": "48ceec53",
					"duelPlayers(uint256,uint256)": "7f58d660",
					"firstRevealTimestamp(uint256)": "0907af75",
					"getPlayers(uint256)": "460e2049",
					"hasRevealed(uint256,address)": "16b5551d",
					"manager()": "481c6a75",
					"registerPlayers(uint256,address,address)": "4400e01c",
					"resolveDuel(uint256)": "cdd69a12",
					"revealMove(uint256,string,string)": "526999d0"
				}
			},
			"storageLayout": {
				"storage": [
					{
						"astId": 22,
						"contract": "contracts/DuelResolver.sol:DuelResolver",
						"label": "duelPlayers",
						"offset": 0,
						"slot": "0",
						"type": "t_mapping(t_uint256,t_array(t_address)2_storage)"
					},
					{
						"astId": 29,
						"contract": "contracts/DuelResolver.sol:DuelResolver",
						"label": "duelCommits",
						"offset": 0,
						"slot": "1",
						"type": "t_mapping(t_uint256,t_mapping(t_address,t_struct(Commit)14_storage))"
					},
					{
						"astId": 33,
						"contract": "contracts/DuelResolver.sol:DuelResolver",
						"label": "firstRevealTimestamp",
						"offset": 0,
						"slot": "2",
						"type": "t_mapping(t_uint256,t_uint256)"
					}
				],
				"types": {
					"t_address": {
						"encoding": "inplace",
						"label": "address",
						"numberOfBytes": "20"
					},
					"t_array(t_address)2_storage": {
						"base": "t_address",
						"encoding": "inplace",
						"label": "address[2]",
						"numberOfBytes": "64"
					},
					"t_bool": {
						"encoding": "inplace",
						"label": "bool",
						"numberOfBytes": "1"
					},
					"t_bytes32": {
						"encoding": "inplace",
						"label": "bytes32",
						"numberOfBytes": "32"
					},
					"t_enum(Move)6": {
						"encoding": "inplace",
						"label": "enum DuelResolver.Move",
						"numberOfBytes": "1"
					},
					"t_mapping(t_address,t_struct(Commit)14_storage)": {
						"encoding": "mapping",
						"key": "t_address",
						"label": "mapping(address => struct DuelResolver.Commit)",
						"numberOfBytes": "32",
						"value": "t_struct(Commit)14_storage"
					},
					"t_mapping(t_uint256,t_array(t_address)2_storage)": {
						"encoding": "mapping",
						"key": "t_uint256",
						"label": "mapping(uint256 => address[2])",
						"numberOfBytes": "32",
						"value": "t_array(t_address)2_storage"
					},
					"t_mapping(t_uint256,t_mapping(t_address,t_struct(Commit)14_storage))": {
						"encoding": "mapping",
						"key": "t_uint256",
						"label": "mapping(uint256 => mapping(address => struct DuelResolver.Commit))",
						"numberOfBytes": "32",
						"value": "t_mapping(t_address,t_struct(Commit)14_storage)"
					},
					"t_mapping(t_uint256,t_uint256)": {
						"encoding": "mapping",
						"key": "t_uint256",
						"label": "mapping(uint256 => uint256)",
						"numberOfBytes": "32",
						"value": "t_uint256"
					},
					"t_struct(Commit)14_storage": {
						"encoding": "inplace",
						"label": "struct DuelResolver.Commit",
						"members": [
							{
								"astId": 8,
								"contract": "contracts/DuelResolver.sol:DuelResolver",
								"label": "hash",
								"offset": 0,
								"slot": "0",
								"type": "t_bytes32"
							},
							{
								"astId": 10,
								"contract": "contracts/DuelResolver.sol:DuelResolver",
								"label": "revealed",
								"offset": 0,
								"slot": "1",
								"type": "t_bool"
							},
							{
								"astId": 13,
								"contract": "contracts/DuelResolver.sol:DuelResolver",
								"label": "move",
								"offset": 1,
								"slot": "1",
								"type": "t_enum(Move)6"
							}
						],
						"numberOfBytes": "64"
					},
					"t_uint256": {
						"encoding": "inplace",
						"label": "uint256",
						"numberOfBytes": "32"
					}
				}
			},
			"userdoc": {
				"kind": "user",
				"methods": {},
				"version": 1
			}
		}
	}
}