{
	"contracts/DuelManager.sol": {
		"DuelManager": {
			"abi": [
				{
					"inputs": [
						{
							"internalType": "address",
							"name": "arbiter_",
							"type": "address"
						},
						{
							"internalType": "address",
							"name": "resolver_",
							"type": "address"
						}
					],
					"stateMutability": "nonpayable",
					"type": "constructor"
				},
				{
					"inputs": [],
					"name": "DuelAlreadyResolved",
					"type": "error"
				},
				{
					"inputs": [],
					"name": "InvalidPlayer",
					"type": "error"
				},
				{
					"inputs": [],
					"name": "NotEnoughETH",
					"type": "error"
				},
				{
					"anonymous": false,
					"inputs": [
						{
							"indexed": true,
							"internalType": "uint256",
							"name": "duelId",
							"type": "uint256"
						},
						{
							"indexed": true,
							"internalType": "address",
							"name": "player2",
							"type": "address"
						}
					],
					"name": "DuelAccepted",
					"type": "event"
				},
				{
					"anonymous": false,
					"inputs": [
						{
							"indexed": true,
							"internalType": "uint256",
							"name": "duelId",
							"type": "uint256"
						},
						{
							"indexed": true,
							"internalType": "address",
							"name": "player1",
							"type": "address"
						},
						{
							"indexed": true,
							"internalType": "address",
							"name": "player2",
							"type": "address"
						},
						{
							"indexed": false,
							"internalType": "uint256",
							"name": "betAmount",
							"type": "uint256"
						}
					],
					"name": "DuelCreated",
					"type": "event"
				},
				{
					"anonymous": false,
					"inputs": [
						{
							"indexed": true,
							"internalType": "uint256",
							"name": "duelId",
							"type": "uint256"
						},
						{
							"indexed": true,
							"internalType": "address",
							"name": "winner",
							"type": "address"
						},
						{
							"indexed": false,
							"internalType": "uint256",
							"name": "prize",
							"type": "uint256"
						}
					],
					"name": "DuelResolved",
					"type": "event"
				},
				{
					"stateMutability": "payable",
					"type": "fallback"
				},
				{
					"inputs": [],
					"name": "REVEAL_TIMEOUT",
					"outputs": [
						{
							"internalType": "uint256",
							"name": "",
							"type": "uint256"
						}
					],
					"stateMutability": "view",
					"type": "function"
				},
				{
					"inputs": [
						{
							"internalType": "uint256",
							"name": "duelId",
							"type": "uint256"
						}
					],
					"name": "acceptDuel",
					"outputs": [],
					"stateMutability": "payable",
					"type": "function"
				},
				{
					"inputs": [],
					"name": "arbiter",
					"outputs": [
						{
							"internalType": "address",
							"name": "",
							"type": "address"
						}
					],
					"stateMutability": "view",
					"type": "function"
				},
				{
					"inputs": [
						{
							"internalType": "uint256",
							"name": "duelId",
							"type": "uint256"
						}
					],
					"name": "claimVictoryIfTimeout",
					"outputs": [],
					"stateMutability": "nonpayable",
					"type": "function"
				},
				{
					"inputs": [
						{
							"internalType": "address",
							"name": "opponent",
							"type": "address"
						}
					],
					"name": "createDuel",
					"outputs": [
						{
							"internalType": "uint256",
							"name": "duelId",
							"type": "uint256"
						}
					],
					"stateMutability": "payable",
					"type": "function"
				},
				{
					"inputs": [
						{
							"internalType": "uint256",
							"name": "duelId",
							"type": "uint256"
						}
					],
					"name": "declareWinner",
					"outputs": [],
					"stateMutability": "nonpayable",
					"type": "function"
				},
				{
					"inputs": [],
					"name": "duelCounter",
					"outputs": [
						{
							"internalType": "uint256",
							"name": "",
							"type": "uint256"
						}
					],
					"stateMutability": "view",
					"type": "function"
				},
				{
					"inputs": [
						{
							"internalType": "uint256",
							"name": "",
							"type": "uint256"
						}
					],
					"name": "duels",
					"outputs": [
						{
							"internalType": "address",
							"name": "player1",
							"type": "address"
						},
						{
							"internalType": "address",
							"name": "player2",
							"type": "address"
						},
						{
							"internalType": "uint256",
							"name": "betAmount",
							"type": "uint256"
						},
						{
							"internalType": "bool",
							"name": "player1Paid",
							"type": "bool"
						},
						{
							"internalType": "bool",
							"name": "player2Paid",
							"type": "bool"
						},
						{
							"internalType": "bool",
							"name": "completed",
							"type": "bool"
						},
						{
							"internalType": "address",
							"name": "winner",
							"type": "address"
						}
					],
					"stateMutability": "view",
					"type": "function"
				},
				{
					"inputs": [],
					"name": "resolver",
					"outputs": [
						{
							"internalType": "contract IDuelResolver",
							"name": "",
							"type": "address"
						}
					],
					"stateMutability": "view",
					"type": "function"
				},
				{
					"inputs": [
						{
							"internalType": "address",
							"name": "newResolver",
							"type": "address"
						}
					],
					"name": "setResolver",
					"outputs": [],
					"stateMutability": "nonpayable",
					"type": "function"
				},
				{
					"stateMutability": "payable",
					"type": "receive"
				}
			],
			"devdoc": {
				"kind": "dev",
				"methods": {},
				"version": 1
			},
			"evm": {
				"assembly": "    /* \"contracts/DuelManager.sol\":138:4269  contract DuelManager {... */\n  mstore(0x40, 0xa0)\n    /* \"contracts/DuelManager.sol\":593:725  constructor(address arbiter_, address resolver_) {... */\n  callvalue\n  dup1\n  iszero\n  tag_1\n  jumpi\n  0x00\n  dup1\n  revert\ntag_1:\n  pop\n  mload(0x40)\n  sub(codesize, bytecodeSize)\n  dup1\n  bytecodeSize\n  dup4\n  codecopy\n  dup2\n  dup2\n  add\n  0x40\n  mstore\n  dup2\n  add\n  swap1\n  tag_2\n  swap2\n  swap1\n  tag_3\n  jump\t// in\ntag_2:\n    /* \"contracts/DuelManager.sol\":663:671  arbiter_ */\n  dup2\n    /* \"contracts/DuelManager.sol\":653:671  arbiter = arbiter_ */\n  0xffffffffffffffffffffffffffffffffffffffff\n  and\n  0x80\n  dup2\n  0xffffffffffffffffffffffffffffffffffffffff\n  and\n  dup2\n  mstore\n  pop\n  pop\n    /* \"contracts/DuelManager.sol\":707:716  resolver_ */\n  dup1\n    /* \"contracts/DuelManager.sol\":682:690  resolver */\n  0x02\n  0x00\n    /* \"contracts/DuelManager.sol\":682:717  resolver = IDuelResolver(resolver_) */\n  0x0100\n  exp\n  dup2\n  sload\n  dup2\n  0xffffffffffffffffffffffffffffffffffffffff\n  mul\n  not\n  and\n  swap1\n  dup4\n  0xffffffffffffffffffffffffffffffffffffffff\n  and\n  mul\n  or\n  swap1\n  sstore\n  pop\n    /* \"contracts/DuelManager.sol\":593:725  constructor(address arbiter_, address resolver_) {... */\n  pop\n  pop\n    /* \"contracts/DuelManager.sol\":138:4269  contract DuelManager {... */\n  jump(tag_6)\n    /* \"#utility.yul\":88:205   */\ntag_8:\n    /* \"#utility.yul\":197:198   */\n  0x00\n    /* \"#utility.yul\":194:195   */\n  dup1\n    /* \"#utility.yul\":187:199   */\n  revert\n    /* \"#utility.yul\":334:460   */\ntag_10:\n    /* \"#utility.yul\":371:378   */\n  0x00\n    /* \"#utility.yul\":411:453   */\n  0xffffffffffffffffffffffffffffffffffffffff\n    /* \"#utility.yul\":404:409   */\n  dup3\n    /* \"#utility.yul\":400:454   */\n  and\n    /* \"#utility.yul\":389:454   */\n  swap1\n  pop\n    /* \"#utility.yul\":334:460   */\n  swap2\n  swap1\n  pop\n  jump\t// out\n    /* \"#utility.yul\":466:562   */\ntag_11:\n    /* \"#utility.yul\":503:510   */\n  0x00\n    /* \"#utility.yul\":532:556   */\n  tag_20\n    /* \"#utility.yul\":550:555   */\n  dup3\n    /* \"#utility.yul\":532:556   */\n  tag_10\n  jump\t// in\ntag_20:\n    /* \"#utility.yul\":521:556   */\n  swap1\n  pop\n    /* \"#utility.yul\":466:562   */\n  swap2\n  swap1\n  pop\n  jump\t// out\n    /* \"#utility.yul\":568:690   */\ntag_12:\n    /* \"#utility.yul\":641:665   */\n  tag_22\n    /* \"#utility.yul\":659:664   */\n  dup2\n    /* \"#utility.yul\":641:665   */\n  tag_11\n  jump\t// in\ntag_22:\n    /* \"#utility.yul\":634:639   */\n  dup2\n    /* \"#utility.yul\":631:666   */\n  eq\n    /* \"#utility.yul\":621:684   */\n  tag_23\n  jumpi\n    /* \"#utility.yul\":680:681   */\n  0x00\n    /* \"#utility.yul\":677:678   */\n  dup1\n    /* \"#utility.yul\":670:682   */\n  revert\n    /* \"#utility.yul\":621:684   */\ntag_23:\n    /* \"#utility.yul\":568:690   */\n  pop\n  jump\t// out\n    /* \"#utility.yul\":696:839   */\ntag_13:\n    /* \"#utility.yul\":753:758   */\n  0x00\n    /* \"#utility.yul\":784:790   */\n  dup2\n    /* \"#utility.yul\":778:791   */\n  mload\n    /* \"#utility.yul\":769:791   */\n  swap1\n  pop\n    /* \"#utility.yul\":800:833   */\n  tag_25\n    /* \"#utility.yul\":827:832   */\n  dup2\n    /* \"#utility.yul\":800:833   */\n  tag_12\n  jump\t// in\ntag_25:\n    /* \"#utility.yul\":696:839   */\n  swap3\n  swap2\n  pop\n  pop\n  jump\t// out\n    /* \"#utility.yul\":845:1352   */\ntag_3:\n    /* \"#utility.yul\":924:930   */\n  0x00\n    /* \"#utility.yul\":932:938   */\n  dup1\n    /* \"#utility.yul\":981:983   */\n  0x40\n    /* \"#utility.yul\":969:978   */\n  dup4\n    /* \"#utility.yul\":960:967   */\n  dup6\n    /* \"#utility.yul\":956:979   */\n  sub\n    /* \"#utility.yul\":952:984   */\n  slt\n    /* \"#utility.yul\":949:1068   */\n  iszero\n  tag_27\n  jumpi\n    /* \"#utility.yul\":987:1066   */\n  tag_28\n  tag_8\n  jump\t// in\ntag_28:\n    /* \"#utility.yul\":949:1068   */\ntag_27:\n    /* \"#utility.yul\":1107:1108   */\n  0x00\n    /* \"#utility.yul\":1132:1196   */\n  tag_29\n    /* \"#utility.yul\":1188:1195   */\n  dup6\n    /* \"#utility.yul\":1179:1185   */\n  dup3\n    /* \"#utility.yul\":1168:1177   */\n  dup7\n    /* \"#utility.yul\":1164:1186   */\n  add\n    /* \"#utility.yul\":1132:1196   */\n  tag_13\n  jump\t// in\ntag_29:\n    /* \"#utility.yul\":1122:1196   */\n  swap3\n  pop\n    /* \"#utility.yul\":1078:1206   */\n  pop\n    /* \"#utility.yul\":1245:1247   */\n  0x20\n    /* \"#utility.yul\":1271:1335   */\n  tag_30\n    /* \"#utility.yul\":1327:1334   */\n  dup6\n    /* \"#utility.yul\":1318:1324   */\n  dup3\n    /* \"#utility.yul\":1307:1316   */\n  dup7\n    /* \"#utility.yul\":1303:1325   */\n  add\n    /* \"#utility.yul\":1271:1335   */\n  tag_13\n  jump\t// in\ntag_30:\n    /* \"#utility.yul\":1261:1335   */\n  swap2\n  pop\n    /* \"#utility.yul\":1216:1345   */\n  pop\n    /* \"#utility.yul\":845:1352   */\n  swap3\n  pop\n  swap3\n  swap1\n  pop\n  jump\t// out\n    /* \"contracts/DuelManager.sol\":138:4269  contract DuelManager {... */\ntag_6:\n  mload(0x80)\n  codecopy(0x00, dataOffset(sub_0), dataSize(sub_0))\n  0x00\n  assignImmutable(\"0x58a280f74f57bf051c40f060139dc747e015be52f68c57e2c4ab2e4bd4146f43\")\n  return(0x00, dataSize(sub_0))\nstop\n\nsub_0: assembly {\n        /* \"contracts/DuelManager.sol\":138:4269  contract DuelManager {... */\n      mstore(0x40, 0x80)\n      jumpi(tag_1, lt(calldatasize, 0x04))\n      shr(0xe0, calldataload(0x00))\n      dup1\n      0x3d6ae3a7\n      gt\n      tag_13\n      jumpi\n      dup1\n      0x3d6ae3a7\n      eq\n      tag_8\n      jumpi\n      dup1\n      0x4e543b26\n      eq\n      tag_9\n      jumpi\n      dup1\n      0x859a62d0\n      eq\n      tag_10\n      jumpi\n      dup1\n      0xc874b1c2\n      eq\n      tag_11\n      jumpi\n      dup1\n      0xfe25e00a\n      eq\n      tag_12\n      jumpi\n      jump(tag_2)\n    tag_13:\n      dup1\n      0xc2943c\n      eq\n      tag_3\n      jumpi\n      dup1\n      0x04f3bcec\n      eq\n      tag_4\n      jumpi\n      dup1\n      0x0b8e9246\n      eq\n      tag_5\n      jumpi\n      dup1\n      0x1570376e\n      eq\n      tag_6\n      jumpi\n      dup1\n      0x2c56e030\n      eq\n      tag_7\n      jumpi\n      jump(tag_2)\n    tag_1:\n      jumpi(tag_2, calldatasize)\n        /* \"contracts/DuelManager.sol\":954:992  revert(\"Use createDuel or acceptDuel\") */\n      mload(0x40)\n      0x08c379a000000000000000000000000000000000000000000000000000000000\n      dup2\n      mstore\n      0x04\n      add\n      tag_16\n      swap1\n      tag_17\n      jump\t// in\n    tag_16:\n      mload(0x40)\n      dup1\n      swap2\n      sub\n      swap1\n      revert\n        /* \"contracts/DuelManager.sol\":138:4269  contract DuelManager {... */\n    tag_2:\n        /* \"contracts/DuelManager.sol\":1047:1078  revert(\"Invalid function call\") */\n      mload(0x40)\n      0x08c379a000000000000000000000000000000000000000000000000000000000\n      dup2\n      mstore\n      0x04\n      add\n      tag_20\n      swap1\n      tag_21\n      jump\t// in\n    tag_20:\n      mload(0x40)\n      dup1\n      swap2\n      sub\n      swap1\n      revert\n        /* \"contracts/DuelManager.sol\":2554:3199  function declareWinner(uint256 duelId) external {... */\n    tag_3:\n      callvalue\n      dup1\n      iszero\n      tag_22\n      jumpi\n      0x00\n      dup1\n      revert\n    tag_22:\n      pop\n      tag_23\n      0x04\n      dup1\n      calldatasize\n      sub\n      dup2\n      add\n      swap1\n      tag_24\n      swap2\n      swap1\n      tag_25\n      jump\t// in\n    tag_24:\n      tag_26\n      jump\t// in\n    tag_23:\n      stop\n        /* \"contracts/DuelManager.sol\":555:584  IDuelResolver public resolver */\n    tag_4:\n      callvalue\n      dup1\n      iszero\n      tag_27\n      jumpi\n      0x00\n      dup1\n      revert\n    tag_27:\n      pop\n      tag_28\n      tag_29\n      jump\t// in\n    tag_28:\n      mload(0x40)\n      tag_30\n      swap2\n      swap1\n      tag_31\n      jump\t// in\n    tag_30:\n      mload(0x40)\n      dup1\n      swap2\n      sub\n      swap1\n      return\n        /* \"contracts/DuelManager.sol\":3207:4264  function claimVictoryIfTimeout(uint256 duelId) external {... */\n    tag_5:\n      callvalue\n      dup1\n      iszero\n      tag_32\n      jumpi\n      0x00\n      dup1\n      revert\n    tag_32:\n      pop\n      tag_33\n      0x04\n      dup1\n      calldatasize\n      sub\n      dup2\n      add\n      swap1\n      tag_34\n      swap2\n      swap1\n      tag_25\n      jump\t// in\n    tag_34:\n      tag_35\n      jump\t// in\n    tag_33:\n      stop\n        /* \"contracts/DuelManager.sol\":423:449  uint256 public duelCounter */\n    tag_6:\n      callvalue\n      dup1\n      iszero\n      tag_36\n      jumpi\n      0x00\n      dup1\n      revert\n    tag_36:\n      pop\n      tag_37\n      tag_38\n      jump\t// in\n    tag_37:\n      mload(0x40)\n      tag_39\n      swap2\n      swap1\n      tag_40\n      jump\t// in\n    tag_39:\n      mload(0x40)\n      dup1\n      swap2\n      sub\n      swap1\n      return\n        /* \"contracts/DuelManager.sol\":1501:2084  function createDuel(address opponent) external payable returns (uint256 duelId) {... */\n    tag_7:\n      tag_41\n      0x04\n      dup1\n      calldatasize\n      sub\n      dup2\n      add\n      swap1\n      tag_42\n      swap2\n      swap1\n      tag_43\n      jump\t// in\n    tag_42:\n      tag_44\n      jump\t// in\n    tag_41:\n      mload(0x40)\n      tag_45\n      swap2\n      swap1\n      tag_40\n      jump\t// in\n    tag_45:\n      mload(0x40)\n      dup1\n      swap2\n      sub\n      swap1\n      return\n        /* \"contracts/DuelManager.sol\":495:546  uint256 public constant REVEAL_TIMEOUT = 10 minutes */\n    tag_8:\n      callvalue\n      dup1\n      iszero\n      tag_46\n      jumpi\n      0x00\n      dup1\n      revert\n    tag_46:\n      pop\n      tag_47\n      tag_48\n      jump\t// in\n    tag_47:\n      mload(0x40)\n      tag_49\n      swap2\n      swap1\n      tag_40\n      jump\t// in\n    tag_49:\n      mload(0x40)\n      dup1\n      swap2\n      sub\n      swap1\n      return\n        /* \"contracts/DuelManager.sol\":733:906  function setResolver(address newResolver) external {... */\n    tag_9:\n      callvalue\n      dup1\n      iszero\n      tag_50\n      jumpi\n      0x00\n      dup1\n      revert\n    tag_50:\n      pop\n      tag_51\n      0x04\n      dup1\n      calldatasize\n      sub\n      dup2\n      add\n      swap1\n      tag_52\n      swap2\n      swap1\n      tag_43\n      jump\t// in\n    tag_52:\n      tag_53\n      jump\t// in\n    tag_51:\n      stop\n        /* \"contracts/DuelManager.sol\":378:416  mapping (uint256 => Duel) public duels */\n    tag_10:\n      callvalue\n      dup1\n      iszero\n      tag_54\n      jumpi\n      0x00\n      dup1\n      revert\n    tag_54:\n      pop\n      tag_55\n      0x04\n      dup1\n      calldatasize\n      sub\n      dup2\n      add\n      swap1\n      tag_56\n      swap2\n      swap1\n      tag_25\n      jump\t// in\n    tag_56:\n      tag_57\n      jump\t// in\n    tag_55:\n      mload(0x40)\n      tag_58\n      swap8\n      swap7\n      swap6\n      swap5\n      swap4\n      swap3\n      swap2\n      swap1\n      tag_59\n      jump\t// in\n    tag_58:\n      mload(0x40)\n      dup1\n      swap2\n      sub\n      swap1\n      return\n        /* \"contracts/DuelManager.sol\":2092:2546  function acceptDuel(uint256 duelId) external payable {... */\n    tag_11:\n      tag_60\n      0x04\n      dup1\n      calldatasize\n      sub\n      dup2\n      add\n      swap1\n      tag_61\n      swap2\n      swap1\n      tag_25\n      jump\t// in\n    tag_61:\n      tag_62\n      jump\t// in\n    tag_60:\n      stop\n        /* \"contracts/DuelManager.sol\":456:488  address public immutable arbiter */\n    tag_12:\n      callvalue\n      dup1\n      iszero\n      tag_63\n      jumpi\n      0x00\n      dup1\n      revert\n    tag_63:\n      pop\n      tag_64\n      tag_65\n      jump\t// in\n    tag_64:\n      mload(0x40)\n      tag_66\n      swap2\n      swap1\n      tag_67\n      jump\t// in\n    tag_66:\n      mload(0x40)\n      dup1\n      swap2\n      sub\n      swap1\n      return\n        /* \"contracts/DuelManager.sol\":2554:3199  function declareWinner(uint256 duelId) external {... */\n    tag_26:\n        /* \"contracts/DuelManager.sol\":2635:2642  arbiter */\n      immutable(\"0x58a280f74f57bf051c40f060139dc747e015be52f68c57e2c4ab2e4bd4146f43\")\n        /* \"contracts/DuelManager.sol\":2621:2642  msg.sender == arbiter */\n      0xffffffffffffffffffffffffffffffffffffffff\n      and\n        /* \"contracts/DuelManager.sol\":2621:2631  msg.sender */\n      caller\n        /* \"contracts/DuelManager.sol\":2621:2642  msg.sender == arbiter */\n      0xffffffffffffffffffffffffffffffffffffffff\n      and\n      eq\n        /* \"contracts/DuelManager.sol\":2613:2659  require(msg.sender == arbiter, \"Only arbiter\") */\n      tag_69\n      jumpi\n      mload(0x40)\n      0x08c379a000000000000000000000000000000000000000000000000000000000\n      dup2\n      mstore\n      0x04\n      add\n      tag_70\n      swap1\n      tag_71\n      jump\t// in\n    tag_70:\n      mload(0x40)\n      dup1\n      swap2\n      sub\n      swap1\n      revert\n    tag_69:\n        /* \"contracts/DuelManager.sol\":2670:2687  Duel storage duel */\n      0x00\n        /* \"contracts/DuelManager.sol\":2690:2695  duels */\n      dup1\n        /* \"contracts/DuelManager.sol\":2690:2703  duels[duelId] */\n      0x00\n        /* \"contracts/DuelManager.sol\":2696:2702  duelId */\n      dup4\n        /* \"contracts/DuelManager.sol\":2690:2703  duels[duelId] */\n      dup2\n      mstore\n      0x20\n      add\n      swap1\n      dup2\n      mstore\n      0x20\n      add\n      0x00\n      keccak256\n        /* \"contracts/DuelManager.sol\":2670:2703  Duel storage duel = duels[duelId] */\n      swap1\n      pop\n        /* \"contracts/DuelManager.sol\":2723:2727  duel */\n      dup1\n        /* \"contracts/DuelManager.sol\":2723:2737  duel.completed */\n      0x03\n      add\n      0x02\n      swap1\n      sload\n      swap1\n      0x0100\n      exp\n      swap1\n      div\n      0xff\n      and\n        /* \"contracts/DuelManager.sol\":2722:2737  !duel.completed */\n      iszero\n        /* \"contracts/DuelManager.sol\":2714:2758  require(!duel.completed, \"Already resolved\") */\n      tag_72\n      jumpi\n      mload(0x40)\n      0x08c379a000000000000000000000000000000000000000000000000000000000\n      dup2\n      mstore\n      0x04\n      add\n      tag_73\n      swap1\n      tag_74\n      jump\t// in\n    tag_73:\n      mload(0x40)\n      dup1\n      swap2\n      sub\n      swap1\n      revert\n    tag_72:\n        /* \"contracts/DuelManager.sol\":2777:2781  duel */\n      dup1\n        /* \"contracts/DuelManager.sol\":2777:2793  duel.player1Paid */\n      0x03\n      add\n      0x00\n      swap1\n      sload\n      swap1\n      0x0100\n      exp\n      swap1\n      div\n      0xff\n      and\n        /* \"contracts/DuelManager.sol\":2777:2813  duel.player1Paid && duel.player2Paid */\n      dup1\n      iszero\n      tag_75\n      jumpi\n      pop\n        /* \"contracts/DuelManager.sol\":2797:2801  duel */\n      dup1\n        /* \"contracts/DuelManager.sol\":2797:2813  duel.player2Paid */\n      0x03\n      add\n      0x01\n      swap1\n      sload\n      swap1\n      0x0100\n      exp\n      swap1\n      div\n      0xff\n      and\n        /* \"contracts/DuelManager.sol\":2777:2813  duel.player1Paid && duel.player2Paid */\n    tag_75:\n        /* \"contracts/DuelManager.sol\":2769:2827  require(duel.player1Paid && duel.player2Paid, \"Not ready\") */\n      tag_76\n      jumpi\n      mload(0x40)\n      0x08c379a000000000000000000000000000000000000000000000000000000000\n      dup2\n      mstore\n      0x04\n      add\n      tag_77\n      swap1\n      tag_78\n      jump\t// in\n    tag_77:\n      mload(0x40)\n      dup1\n      swap2\n      sub\n      swap1\n      revert\n    tag_76:\n        /* \"contracts/DuelManager.sol\":2854:2862  resolver */\n      0x02\n      0x00\n      swap1\n      sload\n      swap1\n      0x0100\n      exp\n      swap1\n      div\n      0xffffffffffffffffffffffffffffffffffffffff\n      and\n        /* \"contracts/DuelManager.sol\":2854:2874  resolver.resolveDuel */\n      0xffffffffffffffffffffffffffffffffffffffff\n      and\n      0xcdd69a12\n        /* \"contracts/DuelManager.sol\":2875:2881  duelId */\n      dup4\n        /* \"contracts/DuelManager.sol\":2854:2882  resolver.resolveDuel(duelId) */\n      mload(0x40)\n      dup3\n      0xffffffff\n      and\n      0xe0\n      shl\n      dup2\n      mstore\n      0x04\n      add\n      tag_79\n      swap2\n      swap1\n      tag_40\n      jump\t// in\n    tag_79:\n      0x20\n      mload(0x40)\n      dup1\n      dup4\n      sub\n      dup2\n      dup7\n      gas\n      staticcall\n      iszero\n      dup1\n      iszero\n      tag_81\n      jumpi\n      returndatasize\n      0x00\n      dup1\n      returndatacopy\n      revert(0x00, returndatasize)\n    tag_81:\n      pop\n      pop\n      pop\n      pop\n      mload(0x40)\n      returndatasize\n      not(0x1f)\n      0x1f\n      dup3\n      add\n      and\n      dup3\n      add\n      dup1\n      0x40\n      mstore\n      pop\n      dup2\n      add\n      swap1\n      tag_82\n      swap2\n      swap1\n      tag_83\n      jump\t// in\n    tag_82:\n        /* \"contracts/DuelManager.sol\":2840:2844  duel */\n      dup2\n        /* \"contracts/DuelManager.sol\":2840:2851  duel.winner */\n      0x03\n      add\n      0x03\n        /* \"contracts/DuelManager.sol\":2840:2882  duel.winner = resolver.resolveDuel(duelId) */\n      0x0100\n      exp\n      dup2\n      sload\n      dup2\n      0xffffffffffffffffffffffffffffffffffffffff\n      mul\n      not\n      and\n      swap1\n      dup4\n      0xffffffffffffffffffffffffffffffffffffffff\n      and\n      mul\n      or\n      swap1\n      sstore\n      pop\n        /* \"contracts/DuelManager.sol\":2910:2914  true */\n      0x01\n        /* \"contracts/DuelManager.sol\":2893:2897  duel */\n      dup2\n        /* \"contracts/DuelManager.sol\":2893:2907  duel.completed */\n      0x03\n      add\n      0x02\n        /* \"contracts/DuelManager.sol\":2893:2914  duel.completed = true */\n      0x0100\n      exp\n      dup2\n      sload\n      dup2\n      0xff\n      mul\n      not\n      and\n      swap1\n      dup4\n      iszero\n      iszero\n      mul\n      or\n      swap1\n      sstore\n      pop\n        /* \"contracts/DuelManager.sol\":2954:2955  0 */\n      0x00\n        /* \"contracts/DuelManager.sol\":2931:2956  duel.winner == address(0) */\n      0xffffffffffffffffffffffffffffffffffffffff\n      and\n        /* \"contracts/DuelManager.sol\":2931:2935  duel */\n      dup2\n        /* \"contracts/DuelManager.sol\":2931:2942  duel.winner */\n      0x03\n      add\n      0x03\n      swap1\n      sload\n      swap1\n      0x0100\n      exp\n      swap1\n      div\n      0xffffffffffffffffffffffffffffffffffffffff\n      and\n        /* \"contracts/DuelManager.sol\":2931:2956  duel.winner == address(0) */\n      0xffffffffffffffffffffffffffffffffffffffff\n      and\n      eq\n        /* \"contracts/DuelManager.sol\":2931:2974  duel.winner == address(0) && duel.completed */\n      dup1\n      iszero\n      tag_84\n      jumpi\n      pop\n        /* \"contracts/DuelManager.sol\":2960:2964  duel */\n      dup1\n        /* \"contracts/DuelManager.sol\":2960:2974  duel.completed */\n      0x03\n      add\n      0x02\n      swap1\n      sload\n      swap1\n      0x0100\n      exp\n      swap1\n      div\n      0xff\n      and\n        /* \"contracts/DuelManager.sol\":2931:2974  duel.winner == address(0) && duel.completed */\n    tag_84:\n        /* \"contracts/DuelManager.sol\":2927:3192  if (duel.winner == address(0) && duel.completed) {... */\n      iszero\n      tag_85\n      jumpi\n        /* \"contracts/DuelManager.sol\":2999:3003  duel */\n      dup1\n        /* \"contracts/DuelManager.sol\":2999:3011  duel.player1 */\n      0x00\n      add\n      0x00\n      swap1\n      sload\n      swap1\n      0x0100\n      exp\n      swap1\n      div\n      0xffffffffffffffffffffffffffffffffffffffff\n      and\n        /* \"contracts/DuelManager.sol\":2991:3021  payable(duel.player1).transfer */\n      0xffffffffffffffffffffffffffffffffffffffff\n      and\n        /* \"contracts/DuelManager.sol\":2991:3037  payable(duel.player1).transfer(duel.betAmount) */\n      0x08fc\n        /* \"contracts/DuelManager.sol\":3022:3026  duel */\n      dup3\n        /* \"contracts/DuelManager.sol\":3022:3036  duel.betAmount */\n      0x02\n      add\n      sload\n        /* \"contracts/DuelManager.sol\":2991:3037  payable(duel.player1).transfer(duel.betAmount) */\n      swap1\n      dup2\n      iszero\n      mul\n      swap1\n      mload(0x40)\n      0x00\n      mload(0x40)\n      dup1\n      dup4\n      sub\n      dup2\n      dup6\n      dup9\n      dup9\n      call\n      swap4\n      pop\n      pop\n      pop\n      pop\n      iszero\n      dup1\n      iszero\n      tag_87\n      jumpi\n      returndatasize\n      0x00\n      dup1\n      returndatacopy\n      revert(0x00, returndatasize)\n    tag_87:\n      pop\n        /* \"contracts/DuelManager.sol\":3060:3064  duel */\n      dup1\n        /* \"contracts/DuelManager.sol\":3060:3072  duel.player2 */\n      0x01\n      add\n      0x00\n      swap1\n      sload\n      swap1\n      0x0100\n      exp\n      swap1\n      div\n      0xffffffffffffffffffffffffffffffffffffffff\n      and\n        /* \"contracts/DuelManager.sol\":3052:3082  payable(duel.player2).transfer */\n      0xffffffffffffffffffffffffffffffffffffffff\n      and\n        /* \"contracts/DuelManager.sol\":3052:3098  payable(duel.player2).transfer(duel.betAmount) */\n      0x08fc\n        /* \"contracts/DuelManager.sol\":3083:3087  duel */\n      dup3\n        /* \"contracts/DuelManager.sol\":3083:3097  duel.betAmount */\n      0x02\n      add\n      sload\n        /* \"contracts/DuelManager.sol\":3052:3098  payable(duel.player2).transfer(duel.betAmount) */\n      swap1\n      dup2\n      iszero\n      mul\n      swap1\n      mload(0x40)\n      0x00\n      mload(0x40)\n      dup1\n      dup4\n      sub\n      dup2\n      dup6\n      dup9\n      dup9\n      call\n      swap4\n      pop\n      pop\n      pop\n      pop\n      iszero\n      dup1\n      iszero\n      tag_89\n      jumpi\n      returndatasize\n      0x00\n      dup1\n      returndatacopy\n      revert(0x00, returndatasize)\n    tag_89:\n      pop\n        /* \"contracts/DuelManager.sol\":2927:3192  if (duel.winner == address(0) && duel.completed) {... */\n      jump(tag_90)\n    tag_85:\n        /* \"contracts/DuelManager.sol\":3139:3143  duel */\n      dup1\n        /* \"contracts/DuelManager.sol\":3139:3150  duel.winner */\n      0x03\n      add\n      0x03\n      swap1\n      sload\n      swap1\n      0x0100\n      exp\n      swap1\n      div\n      0xffffffffffffffffffffffffffffffffffffffff\n      and\n        /* \"contracts/DuelManager.sol\":3131:3160  payable(duel.winner).transfer */\n      0xffffffffffffffffffffffffffffffffffffffff\n      and\n        /* \"contracts/DuelManager.sol\":3131:3180  payable(duel.winner).transfer(duel.betAmount * 2) */\n      0x08fc\n        /* \"contracts/DuelManager.sol\":3178:3179  2 */\n      0x02\n        /* \"contracts/DuelManager.sol\":3161:3165  duel */\n      dup4\n        /* \"contracts/DuelManager.sol\":3161:3175  duel.betAmount */\n      0x02\n      add\n      sload\n        /* \"contracts/DuelManager.sol\":3161:3179  duel.betAmount * 2 */\n      tag_91\n      swap2\n      swap1\n      tag_92\n      jump\t// in\n    tag_91:\n        /* \"contracts/DuelManager.sol\":3131:3180  payable(duel.winner).transfer(duel.betAmount * 2) */\n      swap1\n      dup2\n      iszero\n      mul\n      swap1\n      mload(0x40)\n      0x00\n      mload(0x40)\n      dup1\n      dup4\n      sub\n      dup2\n      dup6\n      dup9\n      dup9\n      call\n      swap4\n      pop\n      pop\n      pop\n      pop\n      iszero\n      dup1\n      iszero\n      tag_94\n      jumpi\n      returndatasize\n      0x00\n      dup1\n      returndatacopy\n      revert(0x00, returndatasize)\n    tag_94:\n      pop\n        /* \"contracts/DuelManager.sol\":2927:3192  if (duel.winner == address(0) && duel.completed) {... */\n    tag_90:\n        /* \"contracts/DuelManager.sol\":2602:3199  {... */\n      pop\n        /* \"contracts/DuelManager.sol\":2554:3199  function declareWinner(uint256 duelId) external {... */\n      pop\n      jump\t// out\n        /* \"contracts/DuelManager.sol\":555:584  IDuelResolver public resolver */\n    tag_29:\n      0x02\n      0x00\n      swap1\n      sload\n      swap1\n      0x0100\n      exp\n      swap1\n      div\n      0xffffffffffffffffffffffffffffffffffffffff\n      and\n      dup2\n      jump\t// out\n        /* \"contracts/DuelManager.sol\":3207:4264  function claimVictoryIfTimeout(uint256 duelId) external {... */\n    tag_35:\n        /* \"contracts/DuelManager.sol\":3274:3291  Duel storage duel */\n      0x00\n        /* \"contracts/DuelManager.sol\":3294:3299  duels */\n      dup1\n        /* \"contracts/DuelManager.sol\":3294:3307  duels[duelId] */\n      0x00\n        /* \"contracts/DuelManager.sol\":3300:3306  duelId */\n      dup4\n        /* \"contracts/DuelManager.sol\":3294:3307  duels[duelId] */\n      dup2\n      mstore\n      0x20\n      add\n      swap1\n      dup2\n      mstore\n      0x20\n      add\n      0x00\n      keccak256\n        /* \"contracts/DuelManager.sol\":3274:3307  Duel storage duel = duels[duelId] */\n      swap1\n      pop\n        /* \"contracts/DuelManager.sol\":3322:3326  duel */\n      dup1\n        /* \"contracts/DuelManager.sol\":3322:3336  duel.completed */\n      0x03\n      add\n      0x02\n      swap1\n      sload\n      swap1\n      0x0100\n      exp\n      swap1\n      div\n      0xff\n      and\n        /* \"contracts/DuelManager.sol\":3318:3364  if (duel.completed) revert(\"Already resolved\") */\n      iszero\n      tag_96\n      jumpi\n        /* \"contracts/DuelManager.sol\":3338:3364  revert(\"Already resolved\") */\n      mload(0x40)\n      0x08c379a000000000000000000000000000000000000000000000000000000000\n      dup2\n      mstore\n      0x04\n      add\n      tag_97\n      swap1\n      tag_74\n      jump\t// in\n    tag_97:\n      mload(0x40)\n      dup1\n      swap2\n      sub\n      swap1\n      revert\n        /* \"contracts/DuelManager.sol\":3318:3364  if (duel.completed) revert(\"Already resolved\") */\n    tag_96:\n        /* \"contracts/DuelManager.sol\":3377:3402  address[2] memory players */\n      0x00\n        /* \"contracts/DuelManager.sol\":3405:3413  resolver */\n      0x02\n      0x00\n      swap1\n      sload\n      swap1\n      0x0100\n      exp\n      swap1\n      div\n      0xffffffffffffffffffffffffffffffffffffffff\n      and\n        /* \"contracts/DuelManager.sol\":3405:3424  resolver.getPlayers */\n      0xffffffffffffffffffffffffffffffffffffffff\n      and\n      0x460e2049\n        /* \"contracts/DuelManager.sol\":3425:3431  duelId */\n      dup5\n        /* \"contracts/DuelManager.sol\":3405:3432  resolver.getPlayers(duelId) */\n      mload(0x40)\n      dup3\n      0xffffffff\n      and\n      0xe0\n      shl\n      dup2\n      mstore\n      0x04\n      add\n      tag_98\n      swap2\n      swap1\n      tag_40\n      jump\t// in\n    tag_98:\n      0x40\n      dup1\n      mload\n      dup1\n      dup4\n      sub\n      dup2\n      dup7\n      gas\n      staticcall\n      iszero\n      dup1\n      iszero\n      tag_100\n      jumpi\n      returndatasize\n      0x00\n      dup1\n      returndatacopy\n      revert(0x00, returndatasize)\n    tag_100:\n      pop\n      pop\n      pop\n      pop\n      mload(0x40)\n      returndatasize\n      not(0x1f)\n      0x1f\n      dup3\n      add\n      and\n      dup3\n      add\n      dup1\n      0x40\n      mstore\n      pop\n      dup2\n      add\n      swap1\n      tag_101\n      swap2\n      swap1\n      tag_102\n      jump\t// in\n    tag_101:\n        /* \"contracts/DuelManager.sol\":3377:3432  address[2] memory players = resolver.getPlayers(duelId) */\n      swap1\n      pop\n        /* \"contracts/DuelManager.sol\":3443:3458  bool p1Revealed */\n      0x00\n        /* \"contracts/DuelManager.sol\":3461:3469  resolver */\n      0x02\n      0x00\n      swap1\n      sload\n      swap1\n      0x0100\n      exp\n      swap1\n      div\n      0xffffffffffffffffffffffffffffffffffffffff\n      and\n        /* \"contracts/DuelManager.sol\":3461:3481  resolver.hasRevealed */\n      0xffffffffffffffffffffffffffffffffffffffff\n      and\n      0x16b5551d\n        /* \"contracts/DuelManager.sol\":3482:3488  duelId */\n      dup6\n        /* \"contracts/DuelManager.sol\":3490:3497  players */\n      dup5\n        /* \"contracts/DuelManager.sol\":3498:3499  0 */\n      0x00\n        /* \"contracts/DuelManager.sol\":3490:3500  players[0] */\n      0x02\n      dup2\n      lt\n      tag_103\n      jumpi\n      tag_104\n      tag_105\n      jump\t// in\n    tag_104:\n    tag_103:\n      0x20\n      mul\n      add\n      mload\n        /* \"contracts/DuelManager.sol\":3461:3501  resolver.hasRevealed(duelId, players[0]) */\n      mload(0x40)\n      dup4\n      0xffffffff\n      and\n      0xe0\n      shl\n      dup2\n      mstore\n      0x04\n      add\n      tag_106\n      swap3\n      swap2\n      swap1\n      tag_107\n      jump\t// in\n    tag_106:\n      0x20\n      mload(0x40)\n      dup1\n      dup4\n      sub\n      dup2\n      dup7\n      gas\n      staticcall\n      iszero\n      dup1\n      iszero\n      tag_109\n      jumpi\n      returndatasize\n      0x00\n      dup1\n      returndatacopy\n      revert(0x00, returndatasize)\n    tag_109:\n      pop\n      pop\n      pop\n      pop\n      mload(0x40)\n      returndatasize\n      not(0x1f)\n      0x1f\n      dup3\n      add\n      and\n      dup3\n      add\n      dup1\n      0x40\n      mstore\n      pop\n      dup2\n      add\n      swap1\n      tag_110\n      swap2\n      swap1\n      tag_111\n      jump\t// in\n    tag_110:\n        /* \"contracts/DuelManager.sol\":3443:3501  bool p1Revealed = resolver.hasRevealed(duelId, players[0]) */\n      swap1\n      pop\n        /* \"contracts/DuelManager.sol\":3512:3527  bool p2Revealed */\n      0x00\n        /* \"contracts/DuelManager.sol\":3530:3538  resolver */\n      0x02\n      0x00\n      swap1\n      sload\n      swap1\n      0x0100\n      exp\n      swap1\n      div\n      0xffffffffffffffffffffffffffffffffffffffff\n      and\n        /* \"contracts/DuelManager.sol\":3530:3550  resolver.hasRevealed */\n      0xffffffffffffffffffffffffffffffffffffffff\n      and\n      0x16b5551d\n        /* \"contracts/DuelManager.sol\":3551:3557  duelId */\n      dup7\n        /* \"contracts/DuelManager.sol\":3559:3566  players */\n      dup6\n        /* \"contracts/DuelManager.sol\":3567:3568  1 */\n      0x01\n        /* \"contracts/DuelManager.sol\":3559:3569  players[1] */\n      0x02\n      dup2\n      lt\n      tag_112\n      jumpi\n      tag_113\n      tag_105\n      jump\t// in\n    tag_113:\n    tag_112:\n      0x20\n      mul\n      add\n      mload\n        /* \"contracts/DuelManager.sol\":3530:3570  resolver.hasRevealed(duelId, players[1]) */\n      mload(0x40)\n      dup4\n      0xffffffff\n      and\n      0xe0\n      shl\n      dup2\n      mstore\n      0x04\n      add\n      tag_114\n      swap3\n      swap2\n      swap1\n      tag_107\n      jump\t// in\n    tag_114:\n      0x20\n      mload(0x40)\n      dup1\n      dup4\n      sub\n      dup2\n      dup7\n      gas\n      staticcall\n      iszero\n      dup1\n      iszero\n      tag_116\n      jumpi\n      returndatasize\n      0x00\n      dup1\n      returndatacopy\n      revert(0x00, returndatasize)\n    tag_116:\n      pop\n      pop\n      pop\n      pop\n      mload(0x40)\n      returndatasize\n      not(0x1f)\n      0x1f\n      dup3\n      add\n      and\n      dup3\n      add\n      dup1\n      0x40\n      mstore\n      pop\n      dup2\n      add\n      swap1\n      tag_117\n      swap2\n      swap1\n      tag_111\n      jump\t// in\n    tag_117:\n        /* \"contracts/DuelManager.sol\":3512:3570  bool p2Revealed = resolver.hasRevealed(duelId, players[1]) */\n      swap1\n      pop\n        /* \"contracts/DuelManager.sol\":3583:3592  uint256 t */\n      0x00\n        /* \"contracts/DuelManager.sol\":3595:3603  resolver */\n      0x02\n      0x00\n      swap1\n      sload\n      swap1\n      0x0100\n      exp\n      swap1\n      div\n      0xffffffffffffffffffffffffffffffffffffffff\n      and\n        /* \"contracts/DuelManager.sol\":3595:3624  resolver.firstRevealTimestamp */\n      0xffffffffffffffffffffffffffffffffffffffff\n      and\n      0x0907af75\n        /* \"contracts/DuelManager.sol\":3625:3631  duelId */\n      dup8\n        /* \"contracts/DuelManager.sol\":3595:3632  resolver.firstRevealTimestamp(duelId) */\n      mload(0x40)\n      dup3\n      0xffffffff\n      and\n      0xe0\n      shl\n      dup2\n      mstore\n      0x04\n      add\n      tag_118\n      swap2\n      swap1\n      tag_40\n      jump\t// in\n    tag_118:\n      0x20\n      mload(0x40)\n      dup1\n      dup4\n      sub\n      dup2\n      dup7\n      gas\n      staticcall\n      iszero\n      dup1\n      iszero\n      tag_120\n      jumpi\n      returndatasize\n      0x00\n      dup1\n      returndatacopy\n      revert(0x00, returndatasize)\n    tag_120:\n      pop\n      pop\n      pop\n      pop\n      mload(0x40)\n      returndatasize\n      not(0x1f)\n      0x1f\n      dup3\n      add\n      and\n      dup3\n      add\n      dup1\n      0x40\n      mstore\n      pop\n      dup2\n      add\n      swap1\n      tag_121\n      swap2\n      swap1\n      tag_122\n      jump\t// in\n    tag_121:\n        /* \"contracts/DuelManager.sol\":3583:3632  uint256 t = resolver.firstRevealTimestamp(duelId) */\n      swap1\n      pop\n        /* \"contracts/DuelManager.sol\":3655:3656  0 */\n      0x00\n        /* \"contracts/DuelManager.sol\":3651:3652  t */\n      dup2\n        /* \"contracts/DuelManager.sol\":3651:3656  t > 0 */\n      gt\n        /* \"contracts/DuelManager.sol\":3651:3696  t > 0 && block.timestamp > t + REVEAL_TIMEOUT */\n      dup1\n      iszero\n      tag_123\n      jumpi\n      pop\n        /* \"contracts/DuelManager.sol\":536:546  10 minutes */\n      0x0258\n        /* \"contracts/DuelManager.sol\":3678:3679  t */\n      dup2\n        /* \"contracts/DuelManager.sol\":3678:3696  t + REVEAL_TIMEOUT */\n      tag_124\n      swap2\n      swap1\n      tag_125\n      jump\t// in\n    tag_124:\n        /* \"contracts/DuelManager.sol\":3660:3675  block.timestamp */\n      timestamp\n        /* \"contracts/DuelManager.sol\":3660:3696  block.timestamp > t + REVEAL_TIMEOUT */\n      gt\n        /* \"contracts/DuelManager.sol\":3651:3696  t > 0 && block.timestamp > t + REVEAL_TIMEOUT */\n    tag_123:\n        /* \"contracts/DuelManager.sol\":3643:3720  require(t > 0 && block.timestamp > t + REVEAL_TIMEOUT, \"Timeout not reached\") */\n      tag_126\n      jumpi\n      mload(0x40)\n      0x08c379a000000000000000000000000000000000000000000000000000000000\n      dup2\n      mstore\n      0x04\n      add\n      tag_127\n      swap1\n      tag_128\n      jump\t// in\n    tag_127:\n      mload(0x40)\n      dup1\n      swap2\n      sub\n      swap1\n      revert\n    tag_126:\n        /* \"contracts/DuelManager.sol\":3750:3754  true */\n      0x01\n        /* \"contracts/DuelManager.sol\":3733:3737  duel */\n      dup6\n        /* \"contracts/DuelManager.sol\":3733:3747  duel.completed */\n      0x03\n      add\n      0x02\n        /* \"contracts/DuelManager.sol\":3733:3754  duel.completed = true */\n      0x0100\n      exp\n      dup2\n      sload\n      dup2\n      0xff\n      mul\n      not\n      and\n      swap1\n      dup4\n      iszero\n      iszero\n      mul\n      or\n      swap1\n      sstore\n      pop\n        /* \"contracts/DuelManager.sol\":3771:3781  p1Revealed */\n      dup3\n        /* \"contracts/DuelManager.sol\":3771:3796  p1Revealed && !p2Revealed */\n      dup1\n      iszero\n      tag_129\n      jumpi\n      pop\n        /* \"contracts/DuelManager.sol\":3786:3796  p2Revealed */\n      dup2\n        /* \"contracts/DuelManager.sol\":3785:3796  !p2Revealed */\n      iszero\n        /* \"contracts/DuelManager.sol\":3771:3796  p1Revealed && !p2Revealed */\n    tag_129:\n        /* \"contracts/DuelManager.sol\":3767:4257  if (p1Revealed && !p2Revealed) {... */\n      iszero\n      tag_130\n      jumpi\n        /* \"contracts/DuelManager.sol\":3827:3834  players */\n      dup4\n        /* \"contracts/DuelManager.sol\":3835:3836  0 */\n      0x00\n        /* \"contracts/DuelManager.sol\":3827:3837  players[0] */\n      0x02\n      dup2\n      lt\n      tag_131\n      jumpi\n      tag_132\n      tag_105\n      jump\t// in\n    tag_132:\n    tag_131:\n      0x20\n      mul\n      add\n      mload\n        /* \"contracts/DuelManager.sol\":3813:3817  duel */\n      dup6\n        /* \"contracts/DuelManager.sol\":3813:3824  duel.winner */\n      0x03\n      add\n      0x03\n        /* \"contracts/DuelManager.sol\":3813:3837  duel.winner = players[0] */\n      0x0100\n      exp\n      dup2\n      sload\n      dup2\n      0xffffffffffffffffffffffffffffffffffffffff\n      mul\n      not\n      and\n      swap1\n      dup4\n      0xffffffffffffffffffffffffffffffffffffffff\n      and\n      mul\n      or\n      swap1\n      sstore\n      pop\n        /* \"contracts/DuelManager.sol\":3860:3867  players */\n      dup4\n        /* \"contracts/DuelManager.sol\":3868:3869  0 */\n      0x00\n        /* \"contracts/DuelManager.sol\":3860:3870  players[0] */\n      0x02\n      dup2\n      lt\n      tag_133\n      jumpi\n      tag_134\n      tag_105\n      jump\t// in\n    tag_134:\n    tag_133:\n      0x20\n      mul\n      add\n      mload\n        /* \"contracts/DuelManager.sol\":3852:3880  payable(players[0]).transfer */\n      0xffffffffffffffffffffffffffffffffffffffff\n      and\n        /* \"contracts/DuelManager.sol\":3852:3900  payable(players[0]).transfer(duel.betAmount * 2) */\n      0x08fc\n        /* \"contracts/DuelManager.sol\":3898:3899  2 */\n      0x02\n        /* \"contracts/DuelManager.sol\":3881:3885  duel */\n      dup8\n        /* \"contracts/DuelManager.sol\":3881:3895  duel.betAmount */\n      0x02\n      add\n      sload\n        /* \"contracts/DuelManager.sol\":3881:3899  duel.betAmount * 2 */\n      tag_135\n      swap2\n      swap1\n      tag_92\n      jump\t// in\n    tag_135:\n        /* \"contracts/DuelManager.sol\":3852:3900  payable(players[0]).transfer(duel.betAmount * 2) */\n      swap1\n      dup2\n      iszero\n      mul\n      swap1\n      mload(0x40)\n      0x00\n      mload(0x40)\n      dup1\n      dup4\n      sub\n      dup2\n      dup6\n      dup9\n      dup9\n      call\n      swap4\n      pop\n      pop\n      pop\n      pop\n      iszero\n      dup1\n      iszero\n      tag_137\n      jumpi\n      returndatasize\n      0x00\n      dup1\n      returndatacopy\n      revert(0x00, returndatasize)\n    tag_137:\n      pop\n        /* \"contracts/DuelManager.sol\":3767:4257  if (p1Revealed && !p2Revealed) {... */\n      jump(tag_138)\n    tag_130:\n        /* \"contracts/DuelManager.sol\":3922:3932  p2Revealed */\n      dup2\n        /* \"contracts/DuelManager.sol\":3922:3947  p2Revealed && !p1Revealed */\n      dup1\n      iszero\n      tag_139\n      jumpi\n      pop\n        /* \"contracts/DuelManager.sol\":3937:3947  p1Revealed */\n      dup3\n        /* \"contracts/DuelManager.sol\":3936:3947  !p1Revealed */\n      iszero\n        /* \"contracts/DuelManager.sol\":3922:3947  p2Revealed && !p1Revealed */\n    tag_139:\n        /* \"contracts/DuelManager.sol\":3918:4257  if (p2Revealed && !p1Revealed) {... */\n      iszero\n      tag_140\n      jumpi\n        /* \"contracts/DuelManager.sol\":3978:3985  players */\n      dup4\n        /* \"contracts/DuelManager.sol\":3986:3987  1 */\n      0x01\n        /* \"contracts/DuelManager.sol\":3978:3988  players[1] */\n      0x02\n      dup2\n      lt\n      tag_141\n      jumpi\n      tag_142\n      tag_105\n      jump\t// in\n    tag_142:\n    tag_141:\n      0x20\n      mul\n      add\n      mload\n        /* \"contracts/DuelManager.sol\":3964:3968  duel */\n      dup6\n        /* \"contracts/DuelManager.sol\":3964:3975  duel.winner */\n      0x03\n      add\n      0x03\n        /* \"contracts/DuelManager.sol\":3964:3988  duel.winner = players[1] */\n      0x0100\n      exp\n      dup2\n      sload\n      dup2\n      0xffffffffffffffffffffffffffffffffffffffff\n      mul\n      not\n      and\n      swap1\n      dup4\n      0xffffffffffffffffffffffffffffffffffffffff\n      and\n      mul\n      or\n      swap1\n      sstore\n      pop\n        /* \"contracts/DuelManager.sol\":4011:4018  players */\n      dup4\n        /* \"contracts/DuelManager.sol\":4019:4020  1 */\n      0x01\n        /* \"contracts/DuelManager.sol\":4011:4021  players[1] */\n      0x02\n      dup2\n      lt\n      tag_143\n      jumpi\n      tag_144\n      tag_105\n      jump\t// in\n    tag_144:\n    tag_143:\n      0x20\n      mul\n      add\n      mload\n        /* \"contracts/DuelManager.sol\":4003:4031  payable(players[1]).transfer */\n      0xffffffffffffffffffffffffffffffffffffffff\n      and\n        /* \"contracts/DuelManager.sol\":4003:4051  payable(players[1]).transfer(duel.betAmount * 2) */\n      0x08fc\n        /* \"contracts/DuelManager.sol\":4049:4050  2 */\n      0x02\n        /* \"contracts/DuelManager.sol\":4032:4036  duel */\n      dup8\n        /* \"contracts/DuelManager.sol\":4032:4046  duel.betAmount */\n      0x02\n      add\n      sload\n        /* \"contracts/DuelManager.sol\":4032:4050  duel.betAmount * 2 */\n      tag_145\n      swap2\n      swap1\n      tag_92\n      jump\t// in\n    tag_145:\n        /* \"contracts/DuelManager.sol\":4003:4051  payable(players[1]).transfer(duel.betAmount * 2) */\n      swap1\n      dup2\n      iszero\n      mul\n      swap1\n      mload(0x40)\n      0x00\n      mload(0x40)\n      dup1\n      dup4\n      sub\n      dup2\n      dup6\n      dup9\n      dup9\n      call\n      swap4\n      pop\n      pop\n      pop\n      pop\n      iszero\n      dup1\n      iszero\n      tag_147\n      jumpi\n      returndatasize\n      0x00\n      dup1\n      returndatacopy\n      revert(0x00, returndatasize)\n    tag_147:\n      pop\n        /* \"contracts/DuelManager.sol\":3918:4257  if (p2Revealed && !p1Revealed) {... */\n      jump(tag_148)\n    tag_140:\n        /* \"contracts/DuelManager.sol\":4150:4157  players */\n      dup4\n        /* \"contracts/DuelManager.sol\":4158:4159  0 */\n      0x00\n        /* \"contracts/DuelManager.sol\":4150:4160  players[0] */\n      0x02\n      dup2\n      lt\n      tag_149\n      jumpi\n      tag_150\n      tag_105\n      jump\t// in\n    tag_150:\n    tag_149:\n      0x20\n      mul\n      add\n      mload\n        /* \"contracts/DuelManager.sol\":4142:4170  payable(players[0]).transfer */\n      0xffffffffffffffffffffffffffffffffffffffff\n      and\n        /* \"contracts/DuelManager.sol\":4142:4186  payable(players[0]).transfer(duel.betAmount) */\n      0x08fc\n        /* \"contracts/DuelManager.sol\":4171:4175  duel */\n      dup7\n        /* \"contracts/DuelManager.sol\":4171:4185  duel.betAmount */\n      0x02\n      add\n      sload\n        /* \"contracts/DuelManager.sol\":4142:4186  payable(players[0]).transfer(duel.betAmount) */\n      swap1\n      dup2\n      iszero\n      mul\n      swap1\n      mload(0x40)\n      0x00\n      mload(0x40)\n      dup1\n      dup4\n      sub\n      dup2\n      dup6\n      dup9\n      dup9\n      call\n      swap4\n      pop\n      pop\n      pop\n      pop\n      iszero\n      dup1\n      iszero\n      tag_152\n      jumpi\n      returndatasize\n      0x00\n      dup1\n      returndatacopy\n      revert(0x00, returndatasize)\n    tag_152:\n      pop\n        /* \"contracts/DuelManager.sol\":4209:4216  players */\n      dup4\n        /* \"contracts/DuelManager.sol\":4217:4218  1 */\n      0x01\n        /* \"contracts/DuelManager.sol\":4209:4219  players[1] */\n      0x02\n      dup2\n      lt\n      tag_153\n      jumpi\n      tag_154\n      tag_105\n      jump\t// in\n    tag_154:\n    tag_153:\n      0x20\n      mul\n      add\n      mload\n        /* \"contracts/DuelManager.sol\":4201:4229  payable(players[1]).transfer */\n      0xffffffffffffffffffffffffffffffffffffffff\n      and\n        /* \"contracts/DuelManager.sol\":4201:4245  payable(players[1]).transfer(duel.betAmount) */\n      0x08fc\n        /* \"contracts/DuelManager.sol\":4230:4234  duel */\n      dup7\n        /* \"contracts/DuelManager.sol\":4230:4244  duel.betAmount */\n      0x02\n      add\n      sload\n        /* \"contracts/DuelManager.sol\":4201:4245  payable(players[1]).transfer(duel.betAmount) */\n      swap1\n      dup2\n      iszero\n      mul\n      swap1\n      mload(0x40)\n      0x00\n      mload(0x40)\n      dup1\n      dup4\n      sub\n      dup2\n      dup6\n      dup9\n      dup9\n      call\n      swap4\n      pop\n      pop\n      pop\n      pop\n      iszero\n      dup1\n      iszero\n      tag_156\n      jumpi\n      returndatasize\n      0x00\n      dup1\n      returndatacopy\n      revert(0x00, returndatasize)\n    tag_156:\n      pop\n        /* \"contracts/DuelManager.sol\":3918:4257  if (p2Revealed && !p1Revealed) {... */\n    tag_148:\n        /* \"contracts/DuelManager.sol\":3767:4257  if (p1Revealed && !p2Revealed) {... */\n    tag_138:\n        /* \"contracts/DuelManager.sol\":3263:4264  {... */\n      pop\n      pop\n      pop\n      pop\n      pop\n        /* \"contracts/DuelManager.sol\":3207:4264  function claimVictoryIfTimeout(uint256 duelId) external {... */\n      pop\n      jump\t// out\n        /* \"contracts/DuelManager.sol\":423:449  uint256 public duelCounter */\n    tag_38:\n      sload(0x01)\n      dup2\n      jump\t// out\n        /* \"contracts/DuelManager.sol\":1501:2084  function createDuel(address opponent) external payable returns (uint256 duelId) {... */\n    tag_44:\n        /* \"contracts/DuelManager.sol\":1565:1579  uint256 duelId */\n      0x00\n        /* \"contracts/DuelManager.sol\":1609:1610  0 */\n      dup1\n        /* \"contracts/DuelManager.sol\":1596:1605  msg.value */\n      callvalue\n        /* \"contracts/DuelManager.sol\":1596:1610  msg.value == 0 */\n      sub\n        /* \"contracts/DuelManager.sol\":1592:1633  if (msg.value == 0) revert NotEnoughETH() */\n      tag_158\n      jumpi\n        /* \"contracts/DuelManager.sol\":1619:1633  NotEnoughETH() */\n      mload(0x40)\n      0x583aa02600000000000000000000000000000000000000000000000000000000\n      dup2\n      mstore\n      0x04\n      add\n      mload(0x40)\n      dup1\n      swap2\n      sub\n      swap1\n      revert\n        /* \"contracts/DuelManager.sol\":1592:1633  if (msg.value == 0) revert NotEnoughETH() */\n    tag_158:\n        /* \"contracts/DuelManager.sol\":1662:1670  opponent */\n      dup2\n        /* \"contracts/DuelManager.sol\":1648:1670  msg.sender == opponent */\n      0xffffffffffffffffffffffffffffffffffffffff\n      and\n        /* \"contracts/DuelManager.sol\":1648:1658  msg.sender */\n      caller\n        /* \"contracts/DuelManager.sol\":1648:1670  msg.sender == opponent */\n      0xffffffffffffffffffffffffffffffffffffffff\n      and\n      sub\n        /* \"contracts/DuelManager.sol\":1644:1694  if (msg.sender == opponent) revert InvalidPlayer() */\n      tag_159\n      jumpi\n        /* \"contracts/DuelManager.sol\":1679:1694  InvalidPlayer() */\n      mload(0x40)\n      0x0e8a471c00000000000000000000000000000000000000000000000000000000\n      dup2\n      mstore\n      0x04\n      add\n      mload(0x40)\n      dup1\n      swap2\n      sub\n      swap1\n      revert\n        /* \"contracts/DuelManager.sol\":1644:1694  if (msg.sender == opponent) revert InvalidPlayer() */\n    tag_159:\n        /* \"contracts/DuelManager.sol\":1717:1728  duelCounter */\n      0x01\n      0x00\n        /* \"contracts/DuelManager.sol\":1717:1730  duelCounter++ */\n      dup2\n      sload\n      dup1\n      swap3\n      swap2\n      swap1\n      tag_160\n      swap1\n      tag_161\n      jump\t// in\n    tag_160:\n      swap2\n      swap1\n      pop\n      sstore\n        /* \"contracts/DuelManager.sol\":1707:1730  duelId == duelCounter++ */\n      pop\n        /* \"contracts/DuelManager.sol\":1759:2006  Duel({... */\n      mload(0x40)\n      dup1\n      0xe0\n      add\n      0x40\n      mstore\n      dup1\n        /* \"contracts/DuelManager.sol\":1788:1798  msg.sender */\n      caller\n        /* \"contracts/DuelManager.sol\":1759:2006  Duel({... */\n      0xffffffffffffffffffffffffffffffffffffffff\n      and\n      dup2\n      mstore\n      0x20\n      add\n        /* \"contracts/DuelManager.sol\":1822:1830  opponent */\n      dup4\n        /* \"contracts/DuelManager.sol\":1759:2006  Duel({... */\n      0xffffffffffffffffffffffffffffffffffffffff\n      and\n      dup2\n      mstore\n      0x20\n      add\n        /* \"contracts/DuelManager.sol\":1856:1865  msg.value */\n      callvalue\n        /* \"contracts/DuelManager.sol\":1759:2006  Duel({... */\n      dup2\n      mstore\n      0x20\n      add\n        /* \"contracts/DuelManager.sol\":1893:1897  true */\n      0x01\n        /* \"contracts/DuelManager.sol\":1759:2006  Duel({... */\n      iszero\n      iszero\n      dup2\n      mstore\n      0x20\n      add\n        /* \"contracts/DuelManager.sol\":1925:1930  false */\n      0x00\n        /* \"contracts/DuelManager.sol\":1759:2006  Duel({... */\n      iszero\n      iszero\n      dup2\n      mstore\n      0x20\n      add\n        /* \"contracts/DuelManager.sol\":1956:1961  false */\n      0x00\n        /* \"contracts/DuelManager.sol\":1759:2006  Duel({... */\n      iszero\n      iszero\n      dup2\n      mstore\n      0x20\n      add\n        /* \"contracts/DuelManager.sol\":1992:1993  0 */\n      0x00\n        /* \"contracts/DuelManager.sol\":1759:2006  Duel({... */\n      0xffffffffffffffffffffffffffffffffffffffff\n      and\n      dup2\n      mstore\n      pop\n        /* \"contracts/DuelManager.sol\":1743:1748  duels */\n      0x00\n        /* \"contracts/DuelManager.sol\":1743:1756  duels[duelId] */\n      dup1\n        /* \"contracts/DuelManager.sol\":1749:1755  duelId */\n      dup4\n        /* \"contracts/DuelManager.sol\":1743:1756  duels[duelId] */\n      dup2\n      mstore\n      0x20\n      add\n      swap1\n      dup2\n      mstore\n      0x20\n      add\n      0x00\n      keccak256\n        /* \"contracts/DuelManager.sol\":1743:2006  duels[duelId] = Duel({... */\n      0x00\n      dup3\n      add\n      mload\n      dup2\n      0x00\n      add\n      exp(0x0100, 0x00)\n      dup2\n      sload\n      dup2\n      0xffffffffffffffffffffffffffffffffffffffff\n      mul\n      not\n      and\n      swap1\n      dup4\n      0xffffffffffffffffffffffffffffffffffffffff\n      and\n      mul\n      or\n      swap1\n      sstore\n      pop\n      0x20\n      dup3\n      add\n      mload\n      dup2\n      0x01\n      add\n      exp(0x0100, 0x00)\n      dup2\n      sload\n      dup2\n      0xffffffffffffffffffffffffffffffffffffffff\n      mul\n      not\n      and\n      swap1\n      dup4\n      0xffffffffffffffffffffffffffffffffffffffff\n      and\n      mul\n      or\n      swap1\n      sstore\n      pop\n      0x40\n      dup3\n      add\n      mload\n      dup2\n      0x02\n      add\n      sstore\n      0x60\n      dup3\n      add\n      mload\n      dup2\n      0x03\n      add\n      exp(0x0100, 0x00)\n      dup2\n      sload\n      dup2\n      0xff\n      mul\n      not\n      and\n      swap1\n      dup4\n      iszero\n      iszero\n      mul\n      or\n      swap1\n      sstore\n      pop\n      0x80\n      dup3\n      add\n      mload\n      dup2\n      0x03\n      add\n      exp(0x0100, 0x01)\n      dup2\n      sload\n      dup2\n      0xff\n      mul\n      not\n      and\n      swap1\n      dup4\n      iszero\n      iszero\n      mul\n      or\n      swap1\n      sstore\n      pop\n      0xa0\n      dup3\n      add\n      mload\n      dup2\n      0x03\n      add\n      exp(0x0100, 0x02)\n      dup2\n      sload\n      dup2\n      0xff\n      mul\n      not\n      and\n      swap1\n      dup4\n      iszero\n      iszero\n      mul\n      or\n      swap1\n      sstore\n      pop\n      0xc0\n      dup3\n      add\n      mload\n      dup2\n      0x03\n      add\n      exp(0x0100, 0x03)\n      dup2\n      sload\n      dup2\n      0xffffffffffffffffffffffffffffffffffffffff\n      mul\n      not\n      and\n      swap1\n      dup4\n      0xffffffffffffffffffffffffffffffffffffffff\n      and\n      mul\n      or\n      swap1\n      sstore\n      pop\n      swap1\n      pop\n      pop\n        /* \"contracts/DuelManager.sol\":2056:2064  opponent */\n      dup2\n        /* \"contracts/DuelManager.sol\":2024:2076  DuelCreated(duelId, msg.sender, opponent, msg.value) */\n      0xffffffffffffffffffffffffffffffffffffffff\n      and\n        /* \"contracts/DuelManager.sol\":2044:2054  msg.sender */\n      caller\n        /* \"contracts/DuelManager.sol\":2024:2076  DuelCreated(duelId, msg.sender, opponent, msg.value) */\n      0xffffffffffffffffffffffffffffffffffffffff\n      and\n        /* \"contracts/DuelManager.sol\":2036:2042  duelId */\n      dup3\n        /* \"contracts/DuelManager.sol\":2024:2076  DuelCreated(duelId, msg.sender, opponent, msg.value) */\n      0xacc6a963a1e2d25ae5a02c89235769180842c7b739129172646b06516a75b81a\n        /* \"contracts/DuelManager.sol\":2066:2075  msg.value */\n      callvalue\n        /* \"contracts/DuelManager.sol\":2024:2076  DuelCreated(duelId, msg.sender, opponent, msg.value) */\n      mload(0x40)\n      tag_162\n      swap2\n      swap1\n      tag_40\n      jump\t// in\n    tag_162:\n      mload(0x40)\n      dup1\n      swap2\n      sub\n      swap1\n      log4\n        /* \"contracts/DuelManager.sol\":1501:2084  function createDuel(address opponent) external payable returns (uint256 duelId) {... */\n      swap2\n      swap1\n      pop\n      jump\t// out\n        /* \"contracts/DuelManager.sol\":495:546  uint256 public constant REVEAL_TIMEOUT = 10 minutes */\n    tag_48:\n        /* \"contracts/DuelManager.sol\":536:546  10 minutes */\n      0x0258\n        /* \"contracts/DuelManager.sol\":495:546  uint256 public constant REVEAL_TIMEOUT = 10 minutes */\n      dup2\n      jump\t// out\n        /* \"contracts/DuelManager.sol\":733:906  function setResolver(address newResolver) external {... */\n    tag_53:\n        /* \"contracts/DuelManager.sol\":832:833  0 */\n      0x00\n        /* \"contracts/DuelManager.sol\":803:834  address(resolver) == address(0) */\n      0xffffffffffffffffffffffffffffffffffffffff\n      and\n        /* \"contracts/DuelManager.sol\":811:819  resolver */\n      0x02\n      0x00\n      swap1\n      sload\n      swap1\n      0x0100\n      exp\n      swap1\n      div\n      0xffffffffffffffffffffffffffffffffffffffff\n      and\n        /* \"contracts/DuelManager.sol\":803:834  address(resolver) == address(0) */\n      0xffffffffffffffffffffffffffffffffffffffff\n      and\n      eq\n        /* \"contracts/DuelManager.sol\":795:850  require(address(resolver) == address(0), \"Already set\") */\n      tag_164\n      jumpi\n      mload(0x40)\n      0x08c379a000000000000000000000000000000000000000000000000000000000\n      dup2\n      mstore\n      0x04\n      add\n      tag_165\n      swap1\n      tag_166\n      jump\t// in\n    tag_165:\n      mload(0x40)\n      dup1\n      swap2\n      sub\n      swap1\n      revert\n    tag_164:\n        /* \"contracts/DuelManager.sol\":886:897  newResolver */\n      dup1\n        /* \"contracts/DuelManager.sol\":861:869  resolver */\n      0x02\n      0x00\n        /* \"contracts/DuelManager.sol\":861:898  resolver = IDuelResolver(newResolver) */\n      0x0100\n      exp\n      dup2\n      sload\n      dup2\n      0xffffffffffffffffffffffffffffffffffffffff\n      mul\n      not\n      and\n      swap1\n      dup4\n      0xffffffffffffffffffffffffffffffffffffffff\n      and\n      mul\n      or\n      swap1\n      sstore\n      pop\n        /* \"contracts/DuelManager.sol\":733:906  function setResolver(address newResolver) external {... */\n      pop\n      jump\t// out\n        /* \"contracts/DuelManager.sol\":378:416  mapping (uint256 => Duel) public duels */\n    tag_57:\n      mstore(0x20, 0x00)\n      dup1\n      0x00\n      mstore\n      keccak256(0x00, 0x40)\n      0x00\n      swap2\n      pop\n      swap1\n      pop\n      dup1\n      0x00\n      add\n      0x00\n      swap1\n      sload\n      swap1\n      0x0100\n      exp\n      swap1\n      div\n      0xffffffffffffffffffffffffffffffffffffffff\n      and\n      swap1\n      dup1\n      0x01\n      add\n      0x00\n      swap1\n      sload\n      swap1\n      0x0100\n      exp\n      swap1\n      div\n      0xffffffffffffffffffffffffffffffffffffffff\n      and\n      swap1\n      dup1\n      0x02\n      add\n      sload\n      swap1\n      dup1\n      0x03\n      add\n      0x00\n      swap1\n      sload\n      swap1\n      0x0100\n      exp\n      swap1\n      div\n      0xff\n      and\n      swap1\n      dup1\n      0x03\n      add\n      0x01\n      swap1\n      sload\n      swap1\n      0x0100\n      exp\n      swap1\n      div\n      0xff\n      and\n      swap1\n      dup1\n      0x03\n      add\n      0x02\n      swap1\n      sload\n      swap1\n      0x0100\n      exp\n      swap1\n      div\n      0xff\n      and\n      swap1\n      dup1\n      0x03\n      add\n      0x03\n      swap1\n      sload\n      swap1\n      0x0100\n      exp\n      swap1\n      div\n      0xffffffffffffffffffffffffffffffffffffffff\n      and\n      swap1\n      pop\n      dup8\n      jump\t// out\n        /* \"contracts/DuelManager.sol\":2092:2546  function acceptDuel(uint256 duelId) external payable {... */\n    tag_62:\n        /* \"contracts/DuelManager.sol\":2156:2173  Duel storage duel */\n      0x00\n        /* \"contracts/DuelManager.sol\":2176:2181  duels */\n      dup1\n        /* \"contracts/DuelManager.sol\":2176:2189  duels[duelId] */\n      0x00\n        /* \"contracts/DuelManager.sol\":2182:2188  duelId */\n      dup4\n        /* \"contracts/DuelManager.sol\":2176:2189  duels[duelId] */\n      dup2\n      mstore\n      0x20\n      add\n      swap1\n      dup2\n      mstore\n      0x20\n      add\n      0x00\n      keccak256\n        /* \"contracts/DuelManager.sol\":2156:2189  Duel storage duel = duels[duelId] */\n      swap1\n      pop\n        /* \"contracts/DuelManager.sol\":2219:2223  duel */\n      dup1\n        /* \"contracts/DuelManager.sol\":2219:2231  duel.player2 */\n      0x01\n      add\n      0x00\n      swap1\n      sload\n      swap1\n      0x0100\n      exp\n      swap1\n      div\n      0xffffffffffffffffffffffffffffffffffffffff\n      and\n        /* \"contracts/DuelManager.sol\":2205:2231  msg.sender != duel.player2 */\n      0xffffffffffffffffffffffffffffffffffffffff\n      and\n        /* \"contracts/DuelManager.sol\":2205:2215  msg.sender */\n      caller\n        /* \"contracts/DuelManager.sol\":2205:2231  msg.sender != duel.player2 */\n      0xffffffffffffffffffffffffffffffffffffffff\n      and\n      eq\n        /* \"contracts/DuelManager.sol\":2202:2255  if(msg.sender != duel.player2) revert InvalidPlayer() */\n      tag_168\n      jumpi\n        /* \"contracts/DuelManager.sol\":2240:2255  InvalidPlayer() */\n      mload(0x40)\n      0x0e8a471c00000000000000000000000000000000000000000000000000000000\n      dup2\n      mstore\n      0x04\n      add\n      mload(0x40)\n      dup1\n      swap2\n      sub\n      swap1\n      revert\n        /* \"contracts/DuelManager.sol\":2202:2255  if(msg.sender != duel.player2) revert InvalidPlayer() */\n    tag_168:\n        /* \"contracts/DuelManager.sol\":2269:2273  duel */\n      dup1\n        /* \"contracts/DuelManager.sol\":2269:2285  duel.player2Paid */\n      0x03\n      add\n      0x01\n      swap1\n      sload\n      swap1\n      0x0100\n      exp\n      swap1\n      div\n      0xff\n      and\n        /* \"contracts/DuelManager.sol\":2266:2315  if(duel.player2Paid) revert DuelAlreadyResolved() */\n      iszero\n      tag_169\n      jumpi\n        /* \"contracts/DuelManager.sol\":2294:2315  DuelAlreadyResolved() */\n      mload(0x40)\n      0xbd68b4f400000000000000000000000000000000000000000000000000000000\n      dup2\n      mstore\n      0x04\n      add\n      mload(0x40)\n      dup1\n      swap2\n      sub\n      swap1\n      revert\n        /* \"contracts/DuelManager.sol\":2266:2315  if(duel.player2Paid) revert DuelAlreadyResolved() */\n    tag_169:\n        /* \"contracts/DuelManager.sol\":2342:2346  duel */\n      dup1\n        /* \"contracts/DuelManager.sol\":2342:2356  duel.betAmount */\n      0x02\n      add\n      sload\n        /* \"contracts/DuelManager.sol\":2329:2338  msg.value */\n      callvalue\n        /* \"contracts/DuelManager.sol\":2329:2356  msg.value != duel.betAmount */\n      eq\n        /* \"contracts/DuelManager.sol\":2326:2379  if(msg.value != duel.betAmount) revert NotEnoughETH() */\n      tag_170\n      jumpi\n        /* \"contracts/DuelManager.sol\":2365:2379  NotEnoughETH() */\n      mload(0x40)\n      0x583aa02600000000000000000000000000000000000000000000000000000000\n      dup2\n      mstore\n      0x04\n      add\n      mload(0x40)\n      dup1\n      swap2\n      sub\n      swap1\n      revert\n        /* \"contracts/DuelManager.sol\":2326:2379  if(msg.value != duel.betAmount) revert NotEnoughETH() */\n    tag_170:\n        /* \"contracts/DuelManager.sol\":2411:2415  true */\n      0x01\n        /* \"contracts/DuelManager.sol\":2392:2396  duel */\n      dup2\n        /* \"contracts/DuelManager.sol\":2392:2408  duel.player2Paid */\n      0x03\n      add\n      0x01\n        /* \"contracts/DuelManager.sol\":2392:2415  duel.player2Paid = true */\n      0x0100\n      exp\n      dup2\n      sload\n      dup2\n      0xff\n      mul\n      not\n      and\n      swap1\n      dup4\n      iszero\n      iszero\n      mul\n      or\n      swap1\n      sstore\n      pop\n        /* \"contracts/DuelManager.sol\":2428:2436  resolver */\n      0x02\n      0x00\n      swap1\n      sload\n      swap1\n      0x0100\n      exp\n      swap1\n      div\n      0xffffffffffffffffffffffffffffffffffffffff\n      and\n        /* \"contracts/DuelManager.sol\":2428:2452  resolver.registerPlayers */\n      0xffffffffffffffffffffffffffffffffffffffff\n      and\n      0x4400e01c\n        /* \"contracts/DuelManager.sol\":2453:2459  duelId */\n      dup4\n        /* \"contracts/DuelManager.sol\":2461:2465  duel */\n      dup4\n        /* \"contracts/DuelManager.sol\":2461:2473  duel.player1 */\n      0x00\n      add\n      0x00\n      swap1\n      sload\n      swap1\n      0x0100\n      exp\n      swap1\n      div\n      0xffffffffffffffffffffffffffffffffffffffff\n      and\n        /* \"contracts/DuelManager.sol\":2475:2479  duel */\n      dup5\n        /* \"contracts/DuelManager.sol\":2475:2487  duel.player2 */\n      0x01\n      add\n      0x00\n      swap1\n      sload\n      swap1\n      0x0100\n      exp\n      swap1\n      div\n      0xffffffffffffffffffffffffffffffffffffffff\n      and\n        /* \"contracts/DuelManager.sol\":2428:2488  resolver.registerPlayers(duelId, duel.player1, duel.player2) */\n      mload(0x40)\n      dup5\n      0xffffffff\n      and\n      0xe0\n      shl\n      dup2\n      mstore\n      0x04\n      add\n      tag_171\n      swap4\n      swap3\n      swap2\n      swap1\n      tag_172\n      jump\t// in\n    tag_171:\n      0x00\n      mload(0x40)\n      dup1\n      dup4\n      sub\n      dup2\n      0x00\n      dup8\n      dup1\n      extcodesize\n      iszero\n      dup1\n      iszero\n      tag_173\n      jumpi\n      0x00\n      dup1\n      revert\n    tag_173:\n      pop\n      gas\n      call\n      iszero\n      dup1\n      iszero\n      tag_175\n      jumpi\n      returndatasize\n      0x00\n      dup1\n      returndatacopy\n      revert(0x00, returndatasize)\n    tag_175:\n      pop\n      pop\n      pop\n      pop\n        /* \"contracts/DuelManager.sol\":2527:2537  msg.sender */\n      caller\n        /* \"contracts/DuelManager.sol\":2506:2538  DuelAccepted(duelId, msg.sender) */\n      0xffffffffffffffffffffffffffffffffffffffff\n      and\n        /* \"contracts/DuelManager.sol\":2519:2525  duelId */\n      dup3\n        /* \"contracts/DuelManager.sol\":2506:2538  DuelAccepted(duelId, msg.sender) */\n      0xb90d7860e7ed9f46c97474267293bcb676d538b9e41122e100386f10601a9122\n      mload(0x40)\n      mload(0x40)\n      dup1\n      swap2\n      sub\n      swap1\n      log3\n        /* \"contracts/DuelManager.sol\":2145:2546  {... */\n      pop\n        /* \"contracts/DuelManager.sol\":2092:2546  function acceptDuel(uint256 duelId) external payable {... */\n      pop\n      jump\t// out\n        /* \"contracts/DuelManager.sol\":456:488  address public immutable arbiter */\n    tag_65:\n      immutable(\"0x58a280f74f57bf051c40f060139dc747e015be52f68c57e2c4ab2e4bd4146f43\")\n      dup2\n      jump\t// out\n        /* \"#utility.yul\":7:176   */\n    tag_176:\n        /* \"#utility.yul\":91:102   */\n      0x00\n        /* \"#utility.yul\":125:131   */\n      dup3\n        /* \"#utility.yul\":120:123   */\n      dup3\n        /* \"#utility.yul\":113:132   */\n      mstore\n        /* \"#utility.yul\":165:169   */\n      0x20\n        /* \"#utility.yul\":160:163   */\n      dup3\n        /* \"#utility.yul\":156:170   */\n      add\n        /* \"#utility.yul\":141:170   */\n      swap1\n      pop\n        /* \"#utility.yul\":7:176   */\n      swap3\n      swap2\n      pop\n      pop\n      jump\t// out\n        /* \"#utility.yul\":182:360   */\n    tag_177:\n        /* \"#utility.yul\":322:352   */\n      0x557365206372656174654475656c206f72206163636570744475656c00000000\n        /* \"#utility.yul\":318:319   */\n      0x00\n        /* \"#utility.yul\":310:316   */\n      dup3\n        /* \"#utility.yul\":306:320   */\n      add\n        /* \"#utility.yul\":299:353   */\n      mstore\n        /* \"#utility.yul\":182:360   */\n      pop\n      jump\t// out\n        /* \"#utility.yul\":366:732   */\n    tag_178:\n        /* \"#utility.yul\":508:511   */\n      0x00\n        /* \"#utility.yul\":529:596   */\n      tag_228\n        /* \"#utility.yul\":593:595   */\n      0x1c\n        /* \"#utility.yul\":588:591   */\n      dup4\n        /* \"#utility.yul\":529:596   */\n      tag_176\n      jump\t// in\n    tag_228:\n        /* \"#utility.yul\":522:596   */\n      swap2\n      pop\n        /* \"#utility.yul\":605:698   */\n      tag_229\n        /* \"#utility.yul\":694:697   */\n      dup3\n        /* \"#utility.yul\":605:698   */\n      tag_177\n      jump\t// in\n    tag_229:\n        /* \"#utility.yul\":723:725   */\n      0x20\n        /* \"#utility.yul\":718:721   */\n      dup3\n        /* \"#utility.yul\":714:726   */\n      add\n        /* \"#utility.yul\":707:726   */\n      swap1\n      pop\n        /* \"#utility.yul\":366:732   */\n      swap2\n      swap1\n      pop\n      jump\t// out\n        /* \"#utility.yul\":738:1157   */\n    tag_17:\n        /* \"#utility.yul\":904:908   */\n      0x00\n        /* \"#utility.yul\":942:944   */\n      0x20\n        /* \"#utility.yul\":931:940   */\n      dup3\n        /* \"#utility.yul\":927:945   */\n      add\n        /* \"#utility.yul\":919:945   */\n      swap1\n      pop\n        /* \"#utility.yul\":991:1000   */\n      dup2\n        /* \"#utility.yul\":985:989   */\n      dup2\n        /* \"#utility.yul\":981:1001   */\n      sub\n        /* \"#utility.yul\":977:978   */\n      0x00\n        /* \"#utility.yul\":966:975   */\n      dup4\n        /* \"#utility.yul\":962:979   */\n      add\n        /* \"#utility.yul\":955:1002   */\n      mstore\n        /* \"#utility.yul\":1019:1150   */\n      tag_231\n        /* \"#utility.yul\":1145:1149   */\n      dup2\n        /* \"#utility.yul\":1019:1150   */\n      tag_178\n      jump\t// in\n    tag_231:\n        /* \"#utility.yul\":1011:1150   */\n      swap1\n      pop\n        /* \"#utility.yul\":738:1157   */\n      swap2\n      swap1\n      pop\n      jump\t// out\n        /* \"#utility.yul\":1163:1334   */\n    tag_179:\n        /* \"#utility.yul\":1303:1326   */\n      0x496e76616c69642066756e6374696f6e2063616c6c0000000000000000000000\n        /* \"#utility.yul\":1299:1300   */\n      0x00\n        /* \"#utility.yul\":1291:1297   */\n      dup3\n        /* \"#utility.yul\":1287:1301   */\n      add\n        /* \"#utility.yul\":1280:1327   */\n      mstore\n        /* \"#utility.yul\":1163:1334   */\n      pop\n      jump\t// out\n        /* \"#utility.yul\":1340:1706   */\n    tag_180:\n        /* \"#utility.yul\":1482:1485   */\n      0x00\n        /* \"#utility.yul\":1503:1570   */\n      tag_234\n        /* \"#utility.yul\":1567:1569   */\n      0x15\n        /* \"#utility.yul\":1562:1565   */\n      dup4\n        /* \"#utility.yul\":1503:1570   */\n      tag_176\n      jump\t// in\n    tag_234:\n        /* \"#utility.yul\":1496:1570   */\n      swap2\n      pop\n        /* \"#utility.yul\":1579:1672   */\n      tag_235\n        /* \"#utility.yul\":1668:1671   */\n      dup3\n        /* \"#utility.yul\":1579:1672   */\n      tag_179\n      jump\t// in\n    tag_235:\n        /* \"#utility.yul\":1697:1699   */\n      0x20\n        /* \"#utility.yul\":1692:1695   */\n      dup3\n        /* \"#utility.yul\":1688:1700   */\n      add\n        /* \"#utility.yul\":1681:1700   */\n      swap1\n      pop\n        /* \"#utility.yul\":1340:1706   */\n      swap2\n      swap1\n      pop\n      jump\t// out\n        /* \"#utility.yul\":1712:2131   */\n    tag_21:\n        /* \"#utility.yul\":1878:1882   */\n      0x00\n        /* \"#utility.yul\":1916:1918   */\n      0x20\n        /* \"#utility.yul\":1905:1914   */\n      dup3\n        /* \"#utility.yul\":1901:1919   */\n      add\n        /* \"#utility.yul\":1893:1919   */\n      swap1\n      pop\n        /* \"#utility.yul\":1965:1974   */\n      dup2\n        /* \"#utility.yul\":1959:1963   */\n      dup2\n        /* \"#utility.yul\":1955:1975   */\n      sub\n        /* \"#utility.yul\":1951:1952   */\n      0x00\n        /* \"#utility.yul\":1940:1949   */\n      dup4\n        /* \"#utility.yul\":1936:1953   */\n      add\n        /* \"#utility.yul\":1929:1976   */\n      mstore\n        /* \"#utility.yul\":1993:2124   */\n      tag_237\n        /* \"#utility.yul\":2119:2123   */\n      dup2\n        /* \"#utility.yul\":1993:2124   */\n      tag_180\n      jump\t// in\n    tag_237:\n        /* \"#utility.yul\":1985:2124   */\n      swap1\n      pop\n        /* \"#utility.yul\":1712:2131   */\n      swap2\n      swap1\n      pop\n      jump\t// out\n        /* \"#utility.yul\":2137:2212   */\n    tag_181:\n        /* \"#utility.yul\":2170:2176   */\n      0x00\n        /* \"#utility.yul\":2203:2205   */\n      0x40\n        /* \"#utility.yul\":2197:2206   */\n      mload\n        /* \"#utility.yul\":2187:2206   */\n      swap1\n      pop\n        /* \"#utility.yul\":2137:2212   */\n      swap1\n      jump\t// out\n        /* \"#utility.yul\":2218:2335   */\n    tag_182:\n        /* \"#utility.yul\":2327:2328   */\n      0x00\n        /* \"#utility.yul\":2324:2325   */\n      dup1\n        /* \"#utility.yul\":2317:2329   */\n      revert\n        /* \"#utility.yul\":2464:2541   */\n    tag_184:\n        /* \"#utility.yul\":2501:2508   */\n      0x00\n        /* \"#utility.yul\":2530:2535   */\n      dup2\n        /* \"#utility.yul\":2519:2535   */\n      swap1\n      pop\n        /* \"#utility.yul\":2464:2541   */\n      swap2\n      swap1\n      pop\n      jump\t// out\n        /* \"#utility.yul\":2547:2669   */\n    tag_185:\n        /* \"#utility.yul\":2620:2644   */\n      tag_243\n        /* \"#utility.yul\":2638:2643   */\n      dup2\n        /* \"#utility.yul\":2620:2644   */\n      tag_184\n      jump\t// in\n    tag_243:\n        /* \"#utility.yul\":2613:2618   */\n      dup2\n        /* \"#utility.yul\":2610:2645   */\n      eq\n        /* \"#utility.yul\":2600:2663   */\n      tag_244\n      jumpi\n        /* \"#utility.yul\":2659:2660   */\n      0x00\n        /* \"#utility.yul\":2656:2657   */\n      dup1\n        /* \"#utility.yul\":2649:2661   */\n      revert\n        /* \"#utility.yul\":2600:2663   */\n    tag_244:\n        /* \"#utility.yul\":2547:2669   */\n      pop\n      jump\t// out\n        /* \"#utility.yul\":2675:2814   */\n    tag_186:\n        /* \"#utility.yul\":2721:2726   */\n      0x00\n        /* \"#utility.yul\":2759:2765   */\n      dup2\n        /* \"#utility.yul\":2746:2766   */\n      calldataload\n        /* \"#utility.yul\":2737:2766   */\n      swap1\n      pop\n        /* \"#utility.yul\":2775:2808   */\n      tag_246\n        /* \"#utility.yul\":2802:2807   */\n      dup2\n        /* \"#utility.yul\":2775:2808   */\n      tag_185\n      jump\t// in\n    tag_246:\n        /* \"#utility.yul\":2675:2814   */\n      swap3\n      swap2\n      pop\n      pop\n      jump\t// out\n        /* \"#utility.yul\":2820:3149   */\n    tag_25:\n        /* \"#utility.yul\":2879:2885   */\n      0x00\n        /* \"#utility.yul\":2928:2930   */\n      0x20\n        /* \"#utility.yul\":2916:2925   */\n      dup3\n        /* \"#utility.yul\":2907:2914   */\n      dup5\n        /* \"#utility.yul\":2903:2926   */\n      sub\n        /* \"#utility.yul\":2899:2931   */\n      slt\n        /* \"#utility.yul\":2896:3015   */\n      iszero\n      tag_248\n      jumpi\n        /* \"#utility.yul\":2934:3013   */\n      tag_249\n      tag_182\n      jump\t// in\n    tag_249:\n        /* \"#utility.yul\":2896:3015   */\n    tag_248:\n        /* \"#utility.yul\":3054:3055   */\n      0x00\n        /* \"#utility.yul\":3079:3132   */\n      tag_250\n        /* \"#utility.yul\":3124:3131   */\n      dup5\n        /* \"#utility.yul\":3115:3121   */\n      dup3\n        /* \"#utility.yul\":3104:3113   */\n      dup6\n        /* \"#utility.yul\":3100:3122   */\n      add\n        /* \"#utility.yul\":3079:3132   */\n      tag_186\n      jump\t// in\n    tag_250:\n        /* \"#utility.yul\":3069:3132   */\n      swap2\n      pop\n        /* \"#utility.yul\":3025:3142   */\n      pop\n        /* \"#utility.yul\":2820:3149   */\n      swap3\n      swap2\n      pop\n      pop\n      jump\t// out\n        /* \"#utility.yul\":3155:3281   */\n    tag_187:\n        /* \"#utility.yul\":3192:3199   */\n      0x00\n        /* \"#utility.yul\":3232:3274   */\n      0xffffffffffffffffffffffffffffffffffffffff\n        /* \"#utility.yul\":3225:3230   */\n      dup3\n        /* \"#utility.yul\":3221:3275   */\n      and\n        /* \"#utility.yul\":3210:3275   */\n      swap1\n      pop\n        /* \"#utility.yul\":3155:3281   */\n      swap2\n      swap1\n      pop\n      jump\t// out\n        /* \"#utility.yul\":3287:3347   */\n    tag_188:\n        /* \"#utility.yul\":3315:3318   */\n      0x00\n        /* \"#utility.yul\":3336:3341   */\n      dup2\n        /* \"#utility.yul\":3329:3341   */\n      swap1\n      pop\n        /* \"#utility.yul\":3287:3347   */\n      swap2\n      swap1\n      pop\n      jump\t// out\n        /* \"#utility.yul\":3353:3495   */\n    tag_189:\n        /* \"#utility.yul\":3403:3412   */\n      0x00\n        /* \"#utility.yul\":3436:3489   */\n      tag_254\n        /* \"#utility.yul\":3454:3488   */\n      tag_255\n        /* \"#utility.yul\":3463:3487   */\n      tag_256\n        /* \"#utility.yul\":3481:3486   */\n      dup5\n        /* \"#utility.yul\":3463:3487   */\n      tag_187\n      jump\t// in\n    tag_256:\n        /* \"#utility.yul\":3454:3488   */\n      tag_188\n      jump\t// in\n    tag_255:\n        /* \"#utility.yul\":3436:3489   */\n      tag_187\n      jump\t// in\n    tag_254:\n        /* \"#utility.yul\":3423:3489   */\n      swap1\n      pop\n        /* \"#utility.yul\":3353:3495   */\n      swap2\n      swap1\n      pop\n      jump\t// out\n        /* \"#utility.yul\":3501:3627   */\n    tag_190:\n        /* \"#utility.yul\":3551:3560   */\n      0x00\n        /* \"#utility.yul\":3584:3621   */\n      tag_258\n        /* \"#utility.yul\":3615:3620   */\n      dup3\n        /* \"#utility.yul\":3584:3621   */\n      tag_189\n      jump\t// in\n    tag_258:\n        /* \"#utility.yul\":3571:3621   */\n      swap1\n      pop\n        /* \"#utility.yul\":3501:3627   */\n      swap2\n      swap1\n      pop\n      jump\t// out\n        /* \"#utility.yul\":3633:3780   */\n    tag_191:\n        /* \"#utility.yul\":3704:3713   */\n      0x00\n        /* \"#utility.yul\":3737:3774   */\n      tag_260\n        /* \"#utility.yul\":3768:3773   */\n      dup3\n        /* \"#utility.yul\":3737:3774   */\n      tag_190\n      jump\t// in\n    tag_260:\n        /* \"#utility.yul\":3724:3774   */\n      swap1\n      pop\n        /* \"#utility.yul\":3633:3780   */\n      swap2\n      swap1\n      pop\n      jump\t// out\n        /* \"#utility.yul\":3786:3959   */\n    tag_192:\n        /* \"#utility.yul\":3894:3952   */\n      tag_262\n        /* \"#utility.yul\":3946:3951   */\n      dup2\n        /* \"#utility.yul\":3894:3952   */\n      tag_191\n      jump\t// in\n    tag_262:\n        /* \"#utility.yul\":3889:3892   */\n      dup3\n        /* \"#utility.yul\":3882:3953   */\n      mstore\n        /* \"#utility.yul\":3786:3959   */\n      pop\n      pop\n      jump\t// out\n        /* \"#utility.yul\":3965:4229   */\n    tag_31:\n        /* \"#utility.yul\":4079:4083   */\n      0x00\n        /* \"#utility.yul\":4117:4119   */\n      0x20\n        /* \"#utility.yul\":4106:4115   */\n      dup3\n        /* \"#utility.yul\":4102:4120   */\n      add\n        /* \"#utility.yul\":4094:4120   */\n      swap1\n      pop\n        /* \"#utility.yul\":4130:4222   */\n      tag_264\n        /* \"#utility.yul\":4219:4220   */\n      0x00\n        /* \"#utility.yul\":4208:4217   */\n      dup4\n        /* \"#utility.yul\":4204:4221   */\n      add\n        /* \"#utility.yul\":4195:4201   */\n      dup5\n        /* \"#utility.yul\":4130:4222   */\n      tag_192\n      jump\t// in\n    tag_264:\n        /* \"#utility.yul\":3965:4229   */\n      swap3\n      swap2\n      pop\n      pop\n      jump\t// out\n        /* \"#utility.yul\":4235:4353   */\n    tag_193:\n        /* \"#utility.yul\":4322:4346   */\n      tag_266\n        /* \"#utility.yul\":4340:4345   */\n      dup2\n        /* \"#utility.yul\":4322:4346   */\n      tag_184\n      jump\t// in\n    tag_266:\n        /* \"#utility.yul\":4317:4320   */\n      dup3\n        /* \"#utility.yul\":4310:4347   */\n      mstore\n        /* \"#utility.yul\":4235:4353   */\n      pop\n      pop\n      jump\t// out\n        /* \"#utility.yul\":4359:4581   */\n    tag_40:\n        /* \"#utility.yul\":4452:4456   */\n      0x00\n        /* \"#utility.yul\":4490:4492   */\n      0x20\n        /* \"#utility.yul\":4479:4488   */\n      dup3\n        /* \"#utility.yul\":4475:4493   */\n      add\n        /* \"#utility.yul\":4467:4493   */\n      swap1\n      pop\n        /* \"#utility.yul\":4503:4574   */\n      tag_268\n        /* \"#utility.yul\":4571:4572   */\n      0x00\n        /* \"#utility.yul\":4560:4569   */\n      dup4\n        /* \"#utility.yul\":4556:4573   */\n      add\n        /* \"#utility.yul\":4547:4553   */\n      dup5\n        /* \"#utility.yul\":4503:4574   */\n      tag_193\n      jump\t// in\n    tag_268:\n        /* \"#utility.yul\":4359:4581   */\n      swap3\n      swap2\n      pop\n      pop\n      jump\t// out\n        /* \"#utility.yul\":4587:4683   */\n    tag_194:\n        /* \"#utility.yul\":4624:4631   */\n      0x00\n        /* \"#utility.yul\":4653:4677   */\n      tag_270\n        /* \"#utility.yul\":4671:4676   */\n      dup3\n        /* \"#utility.yul\":4653:4677   */\n      tag_187\n      jump\t// in\n    tag_270:\n        /* \"#utility.yul\":4642:4677   */\n      swap1\n      pop\n        /* \"#utility.yul\":4587:4683   */\n      swap2\n      swap1\n      pop\n      jump\t// out\n        /* \"#utility.yul\":4689:4811   */\n    tag_195:\n        /* \"#utility.yul\":4762:4786   */\n      tag_272\n        /* \"#utility.yul\":4780:4785   */\n      dup2\n        /* \"#utility.yul\":4762:4786   */\n      tag_194\n      jump\t// in\n    tag_272:\n        /* \"#utility.yul\":4755:4760   */\n      dup2\n        /* \"#utility.yul\":4752:4787   */\n      eq\n        /* \"#utility.yul\":4742:4805   */\n      tag_273\n      jumpi\n        /* \"#utility.yul\":4801:4802   */\n      0x00\n        /* \"#utility.yul\":4798:4799   */\n      dup1\n        /* \"#utility.yul\":4791:4803   */\n      revert\n        /* \"#utility.yul\":4742:4805   */\n    tag_273:\n        /* \"#utility.yul\":4689:4811   */\n      pop\n      jump\t// out\n        /* \"#utility.yul\":4817:4956   */\n    tag_196:\n        /* \"#utility.yul\":4863:4868   */\n      0x00\n        /* \"#utility.yul\":4901:4907   */\n      dup2\n        /* \"#utility.yul\":4888:4908   */\n      calldataload\n        /* \"#utility.yul\":4879:4908   */\n      swap1\n      pop\n        /* \"#utility.yul\":4917:4950   */\n      tag_275\n        /* \"#utility.yul\":4944:4949   */\n      dup2\n        /* \"#utility.yul\":4917:4950   */\n      tag_195\n      jump\t// in\n    tag_275:\n        /* \"#utility.yul\":4817:4956   */\n      swap3\n      swap2\n      pop\n      pop\n      jump\t// out\n        /* \"#utility.yul\":4962:5291   */\n    tag_43:\n        /* \"#utility.yul\":5021:5027   */\n      0x00\n        /* \"#utility.yul\":5070:5072   */\n      0x20\n        /* \"#utility.yul\":5058:5067   */\n      dup3\n        /* \"#utility.yul\":5049:5056   */\n      dup5\n        /* \"#utility.yul\":5045:5068   */\n      sub\n        /* \"#utility.yul\":5041:5073   */\n      slt\n        /* \"#utility.yul\":5038:5157   */\n      iszero\n      tag_277\n      jumpi\n        /* \"#utility.yul\":5076:5155   */\n      tag_278\n      tag_182\n      jump\t// in\n    tag_278:\n        /* \"#utility.yul\":5038:5157   */\n    tag_277:\n        /* \"#utility.yul\":5196:5197   */\n      0x00\n        /* \"#utility.yul\":5221:5274   */\n      tag_279\n        /* \"#utility.yul\":5266:5273   */\n      dup5\n        /* \"#utility.yul\":5257:5263   */\n      dup3\n        /* \"#utility.yul\":5246:5255   */\n      dup6\n        /* \"#utility.yul\":5242:5264   */\n      add\n        /* \"#utility.yul\":5221:5274   */\n      tag_196\n      jump\t// in\n    tag_279:\n        /* \"#utility.yul\":5211:5274   */\n      swap2\n      pop\n        /* \"#utility.yul\":5167:5284   */\n      pop\n        /* \"#utility.yul\":4962:5291   */\n      swap3\n      swap2\n      pop\n      pop\n      jump\t// out\n        /* \"#utility.yul\":5297:5415   */\n    tag_197:\n        /* \"#utility.yul\":5384:5408   */\n      tag_281\n        /* \"#utility.yul\":5402:5407   */\n      dup2\n        /* \"#utility.yul\":5384:5408   */\n      tag_194\n      jump\t// in\n    tag_281:\n        /* \"#utility.yul\":5379:5382   */\n      dup3\n        /* \"#utility.yul\":5372:5409   */\n      mstore\n        /* \"#utility.yul\":5297:5415   */\n      pop\n      pop\n      jump\t// out\n        /* \"#utility.yul\":5421:5511   */\n    tag_198:\n        /* \"#utility.yul\":5455:5462   */\n      0x00\n        /* \"#utility.yul\":5498:5503   */\n      dup2\n        /* \"#utility.yul\":5491:5504   */\n      iszero\n        /* \"#utility.yul\":5484:5505   */\n      iszero\n        /* \"#utility.yul\":5473:5505   */\n      swap1\n      pop\n        /* \"#utility.yul\":5421:5511   */\n      swap2\n      swap1\n      pop\n      jump\t// out\n        /* \"#utility.yul\":5517:5626   */\n    tag_199:\n        /* \"#utility.yul\":5598:5619   */\n      tag_284\n        /* \"#utility.yul\":5613:5618   */\n      dup2\n        /* \"#utility.yul\":5598:5619   */\n      tag_198\n      jump\t// in\n    tag_284:\n        /* \"#utility.yul\":5593:5596   */\n      dup3\n        /* \"#utility.yul\":5586:5620   */\n      mstore\n        /* \"#utility.yul\":5517:5626   */\n      pop\n      pop\n      jump\t// out\n        /* \"#utility.yul\":5632:6482   */\n    tag_59:\n        /* \"#utility.yul\":5875:5879   */\n      0x00\n        /* \"#utility.yul\":5913:5916   */\n      0xe0\n        /* \"#utility.yul\":5902:5911   */\n      dup3\n        /* \"#utility.yul\":5898:5917   */\n      add\n        /* \"#utility.yul\":5890:5917   */\n      swap1\n      pop\n        /* \"#utility.yul\":5927:5998   */\n      tag_286\n        /* \"#utility.yul\":5995:5996   */\n      0x00\n        /* \"#utility.yul\":5984:5993   */\n      dup4\n        /* \"#utility.yul\":5980:5997   */\n      add\n        /* \"#utility.yul\":5971:5977   */\n      dup11\n        /* \"#utility.yul\":5927:5998   */\n      tag_197\n      jump\t// in\n    tag_286:\n        /* \"#utility.yul\":6008:6080   */\n      tag_287\n        /* \"#utility.yul\":6076:6078   */\n      0x20\n        /* \"#utility.yul\":6065:6074   */\n      dup4\n        /* \"#utility.yul\":6061:6079   */\n      add\n        /* \"#utility.yul\":6052:6058   */\n      dup10\n        /* \"#utility.yul\":6008:6080   */\n      tag_197\n      jump\t// in\n    tag_287:\n        /* \"#utility.yul\":6090:6162   */\n      tag_288\n        /* \"#utility.yul\":6158:6160   */\n      0x40\n        /* \"#utility.yul\":6147:6156   */\n      dup4\n        /* \"#utility.yul\":6143:6161   */\n      add\n        /* \"#utility.yul\":6134:6140   */\n      dup9\n        /* \"#utility.yul\":6090:6162   */\n      tag_193\n      jump\t// in\n    tag_288:\n        /* \"#utility.yul\":6172:6238   */\n      tag_289\n        /* \"#utility.yul\":6234:6236   */\n      0x60\n        /* \"#utility.yul\":6223:6232   */\n      dup4\n        /* \"#utility.yul\":6219:6237   */\n      add\n        /* \"#utility.yul\":6210:6216   */\n      dup8\n        /* \"#utility.yul\":6172:6238   */\n      tag_199\n      jump\t// in\n    tag_289:\n        /* \"#utility.yul\":6248:6315   */\n      tag_290\n        /* \"#utility.yul\":6310:6313   */\n      0x80\n        /* \"#utility.yul\":6299:6308   */\n      dup4\n        /* \"#utility.yul\":6295:6314   */\n      add\n        /* \"#utility.yul\":6286:6292   */\n      dup7\n        /* \"#utility.yul\":6248:6315   */\n      tag_199\n      jump\t// in\n    tag_290:\n        /* \"#utility.yul\":6325:6392   */\n      tag_291\n        /* \"#utility.yul\":6387:6390   */\n      0xa0\n        /* \"#utility.yul\":6376:6385   */\n      dup4\n        /* \"#utility.yul\":6372:6391   */\n      add\n        /* \"#utility.yul\":6363:6369   */\n      dup6\n        /* \"#utility.yul\":6325:6392   */\n      tag_199\n      jump\t// in\n    tag_291:\n        /* \"#utility.yul\":6402:6475   */\n      tag_292\n        /* \"#utility.yul\":6470:6473   */\n      0xc0\n        /* \"#utility.yul\":6459:6468   */\n      dup4\n        /* \"#utility.yul\":6455:6474   */\n      add\n        /* \"#utility.yul\":6446:6452   */\n      dup5\n        /* \"#utility.yul\":6402:6475   */\n      tag_197\n      jump\t// in\n    tag_292:\n        /* \"#utility.yul\":5632:6482   */\n      swap9\n      swap8\n      pop\n      pop\n      pop\n      pop\n      pop\n      pop\n      pop\n      pop\n      jump\t// out\n        /* \"#utility.yul\":6488:6710   */\n    tag_67:\n        /* \"#utility.yul\":6581:6585   */\n      0x00\n        /* \"#utility.yul\":6619:6621   */\n      0x20\n        /* \"#utility.yul\":6608:6617   */\n      dup3\n        /* \"#utility.yul\":6604:6622   */\n      add\n        /* \"#utility.yul\":6596:6622   */\n      swap1\n      pop\n        /* \"#utility.yul\":6632:6703   */\n      tag_294\n        /* \"#utility.yul\":6700:6701   */\n      0x00\n        /* \"#utility.yul\":6689:6698   */\n      dup4\n        /* \"#utility.yul\":6685:6702   */\n      add\n        /* \"#utility.yul\":6676:6682   */\n      dup5\n        /* \"#utility.yul\":6632:6703   */\n      tag_197\n      jump\t// in\n    tag_294:\n        /* \"#utility.yul\":6488:6710   */\n      swap3\n      swap2\n      pop\n      pop\n      jump\t// out\n        /* \"#utility.yul\":6716:6878   */\n    tag_200:\n        /* \"#utility.yul\":6856:6870   */\n      0x4f6e6c7920617262697465720000000000000000000000000000000000000000\n        /* \"#utility.yul\":6852:6853   */\n      0x00\n        /* \"#utility.yul\":6844:6850   */\n      dup3\n        /* \"#utility.yul\":6840:6854   */\n      add\n        /* \"#utility.yul\":6833:6871   */\n      mstore\n        /* \"#utility.yul\":6716:6878   */\n      pop\n      jump\t// out\n        /* \"#utility.yul\":6884:7250   */\n    tag_201:\n        /* \"#utility.yul\":7026:7029   */\n      0x00\n        /* \"#utility.yul\":7047:7114   */\n      tag_297\n        /* \"#utility.yul\":7111:7113   */\n      0x0c\n        /* \"#utility.yul\":7106:7109   */\n      dup4\n        /* \"#utility.yul\":7047:7114   */\n      tag_176\n      jump\t// in\n    tag_297:\n        /* \"#utility.yul\":7040:7114   */\n      swap2\n      pop\n        /* \"#utility.yul\":7123:7216   */\n      tag_298\n        /* \"#utility.yul\":7212:7215   */\n      dup3\n        /* \"#utility.yul\":7123:7216   */\n      tag_200\n      jump\t// in\n    tag_298:\n        /* \"#utility.yul\":7241:7243   */\n      0x20\n        /* \"#utility.yul\":7236:7239   */\n      dup3\n        /* \"#utility.yul\":7232:7244   */\n      add\n        /* \"#utility.yul\":7225:7244   */\n      swap1\n      pop\n        /* \"#utility.yul\":6884:7250   */\n      swap2\n      swap1\n      pop\n      jump\t// out\n        /* \"#utility.yul\":7256:7675   */\n    tag_71:\n        /* \"#utility.yul\":7422:7426   */\n      0x00\n        /* \"#utility.yul\":7460:7462   */\n      0x20\n        /* \"#utility.yul\":7449:7458   */\n      dup3\n        /* \"#utility.yul\":7445:7463   */\n      add\n        /* \"#utility.yul\":7437:7463   */\n      swap1\n      pop\n        /* \"#utility.yul\":7509:7518   */\n      dup2\n        /* \"#utility.yul\":7503:7507   */\n      dup2\n        /* \"#utility.yul\":7499:7519   */\n      sub\n        /* \"#utility.yul\":7495:7496   */\n      0x00\n        /* \"#utility.yul\":7484:7493   */\n      dup4\n        /* \"#utility.yul\":7480:7497   */\n      add\n        /* \"#utility.yul\":7473:7520   */\n      mstore\n        /* \"#utility.yul\":7537:7668   */\n      tag_300\n        /* \"#utility.yul\":7663:7667   */\n      dup2\n        /* \"#utility.yul\":7537:7668   */\n      tag_201\n      jump\t// in\n    tag_300:\n        /* \"#utility.yul\":7529:7668   */\n      swap1\n      pop\n        /* \"#utility.yul\":7256:7675   */\n      swap2\n      swap1\n      pop\n      jump\t// out\n        /* \"#utility.yul\":7681:7847   */\n    tag_202:\n        /* \"#utility.yul\":7821:7839   */\n      0x416c7265616479207265736f6c76656400000000000000000000000000000000\n        /* \"#utility.yul\":7817:7818   */\n      0x00\n        /* \"#utility.yul\":7809:7815   */\n      dup3\n        /* \"#utility.yul\":7805:7819   */\n      add\n        /* \"#utility.yul\":7798:7840   */\n      mstore\n        /* \"#utility.yul\":7681:7847   */\n      pop\n      jump\t// out\n        /* \"#utility.yul\":7853:8219   */\n    tag_203:\n        /* \"#utility.yul\":7995:7998   */\n      0x00\n        /* \"#utility.yul\":8016:8083   */\n      tag_303\n        /* \"#utility.yul\":8080:8082   */\n      0x10\n        /* \"#utility.yul\":8075:8078   */\n      dup4\n        /* \"#utility.yul\":8016:8083   */\n      tag_176\n      jump\t// in\n    tag_303:\n        /* \"#utility.yul\":8009:8083   */\n      swap2\n      pop\n        /* \"#utility.yul\":8092:8185   */\n      tag_304\n        /* \"#utility.yul\":8181:8184   */\n      dup3\n        /* \"#utility.yul\":8092:8185   */\n      tag_202\n      jump\t// in\n    tag_304:\n        /* \"#utility.yul\":8210:8212   */\n      0x20\n        /* \"#utility.yul\":8205:8208   */\n      dup3\n        /* \"#utility.yul\":8201:8213   */\n      add\n        /* \"#utility.yul\":8194:8213   */\n      swap1\n      pop\n        /* \"#utility.yul\":7853:8219   */\n      swap2\n      swap1\n      pop\n      jump\t// out\n        /* \"#utility.yul\":8225:8644   */\n    tag_74:\n        /* \"#utility.yul\":8391:8395   */\n      0x00\n        /* \"#utility.yul\":8429:8431   */\n      0x20\n        /* \"#utility.yul\":8418:8427   */\n      dup3\n        /* \"#utility.yul\":8414:8432   */\n      add\n        /* \"#utility.yul\":8406:8432   */\n      swap1\n      pop\n        /* \"#utility.yul\":8478:8487   */\n      dup2\n        /* \"#utility.yul\":8472:8476   */\n      dup2\n        /* \"#utility.yul\":8468:8488   */\n      sub\n        /* \"#utility.yul\":8464:8465   */\n      0x00\n        /* \"#utility.yul\":8453:8462   */\n      dup4\n        /* \"#utility.yul\":8449:8466   */\n      add\n        /* \"#utility.yul\":8442:8489   */\n      mstore\n        /* \"#utility.yul\":8506:8637   */\n      tag_306\n        /* \"#utility.yul\":8632:8636   */\n      dup2\n        /* \"#utility.yul\":8506:8637   */\n      tag_203\n      jump\t// in\n    tag_306:\n        /* \"#utility.yul\":8498:8637   */\n      swap1\n      pop\n        /* \"#utility.yul\":8225:8644   */\n      swap2\n      swap1\n      pop\n      jump\t// out\n        /* \"#utility.yul\":8650:8809   */\n    tag_204:\n        /* \"#utility.yul\":8790:8801   */\n      0x4e6f742072656164790000000000000000000000000000000000000000000000\n        /* \"#utility.yul\":8786:8787   */\n      0x00\n        /* \"#utility.yul\":8778:8784   */\n      dup3\n        /* \"#utility.yul\":8774:8788   */\n      add\n        /* \"#utility.yul\":8767:8802   */\n      mstore\n        /* \"#utility.yul\":8650:8809   */\n      pop\n      jump\t// out\n        /* \"#utility.yul\":8815:9180   */\n    tag_205:\n        /* \"#utility.yul\":8957:8960   */\n      0x00\n        /* \"#utility.yul\":8978:9044   */\n      tag_309\n        /* \"#utility.yul\":9042:9043   */\n      0x09\n        /* \"#utility.yul\":9037:9040   */\n      dup4\n        /* \"#utility.yul\":8978:9044   */\n      tag_176\n      jump\t// in\n    tag_309:\n        /* \"#utility.yul\":8971:9044   */\n      swap2\n      pop\n        /* \"#utility.yul\":9053:9146   */\n      tag_310\n        /* \"#utility.yul\":9142:9145   */\n      dup3\n        /* \"#utility.yul\":9053:9146   */\n      tag_204\n      jump\t// in\n    tag_310:\n        /* \"#utility.yul\":9171:9173   */\n      0x20\n        /* \"#utility.yul\":9166:9169   */\n      dup3\n        /* \"#utility.yul\":9162:9174   */\n      add\n        /* \"#utility.yul\":9155:9174   */\n      swap1\n      pop\n        /* \"#utility.yul\":8815:9180   */\n      swap2\n      swap1\n      pop\n      jump\t// out\n        /* \"#utility.yul\":9186:9605   */\n    tag_78:\n        /* \"#utility.yul\":9352:9356   */\n      0x00\n        /* \"#utility.yul\":9390:9392   */\n      0x20\n        /* \"#utility.yul\":9379:9388   */\n      dup3\n        /* \"#utility.yul\":9375:9393   */\n      add\n        /* \"#utility.yul\":9367:9393   */\n      swap1\n      pop\n        /* \"#utility.yul\":9439:9448   */\n      dup2\n        /* \"#utility.yul\":9433:9437   */\n      dup2\n        /* \"#utility.yul\":9429:9449   */\n      sub\n        /* \"#utility.yul\":9425:9426   */\n      0x00\n        /* \"#utility.yul\":9414:9423   */\n      dup4\n        /* \"#utility.yul\":9410:9427   */\n      add\n        /* \"#utility.yul\":9403:9450   */\n      mstore\n        /* \"#utility.yul\":9467:9598   */\n      tag_312\n        /* \"#utility.yul\":9593:9597   */\n      dup2\n        /* \"#utility.yul\":9467:9598   */\n      tag_205\n      jump\t// in\n    tag_312:\n        /* \"#utility.yul\":9459:9598   */\n      swap1\n      pop\n        /* \"#utility.yul\":9186:9605   */\n      swap2\n      swap1\n      pop\n      jump\t// out\n        /* \"#utility.yul\":9611:9754   */\n    tag_206:\n        /* \"#utility.yul\":9668:9673   */\n      0x00\n        /* \"#utility.yul\":9699:9705   */\n      dup2\n        /* \"#utility.yul\":9693:9706   */\n      mload\n        /* \"#utility.yul\":9684:9706   */\n      swap1\n      pop\n        /* \"#utility.yul\":9715:9748   */\n      tag_314\n        /* \"#utility.yul\":9742:9747   */\n      dup2\n        /* \"#utility.yul\":9715:9748   */\n      tag_195\n      jump\t// in\n    tag_314:\n        /* \"#utility.yul\":9611:9754   */\n      swap3\n      swap2\n      pop\n      pop\n      jump\t// out\n        /* \"#utility.yul\":9760:10111   */\n    tag_83:\n        /* \"#utility.yul\":9830:9836   */\n      0x00\n        /* \"#utility.yul\":9879:9881   */\n      0x20\n        /* \"#utility.yul\":9867:9876   */\n      dup3\n        /* \"#utility.yul\":9858:9865   */\n      dup5\n        /* \"#utility.yul\":9854:9877   */\n      sub\n        /* \"#utility.yul\":9850:9882   */\n      slt\n        /* \"#utility.yul\":9847:9966   */\n      iszero\n      tag_316\n      jumpi\n        /* \"#utility.yul\":9885:9964   */\n      tag_317\n      tag_182\n      jump\t// in\n    tag_317:\n        /* \"#utility.yul\":9847:9966   */\n    tag_316:\n        /* \"#utility.yul\":10005:10006   */\n      0x00\n        /* \"#utility.yul\":10030:10094   */\n      tag_318\n        /* \"#utility.yul\":10086:10093   */\n      dup5\n        /* \"#utility.yul\":10077:10083   */\n      dup3\n        /* \"#utility.yul\":10066:10075   */\n      dup6\n        /* \"#utility.yul\":10062:10084   */\n      add\n        /* \"#utility.yul\":10030:10094   */\n      tag_206\n      jump\t// in\n    tag_318:\n        /* \"#utility.yul\":10020:10094   */\n      swap2\n      pop\n        /* \"#utility.yul\":9976:10104   */\n      pop\n        /* \"#utility.yul\":9760:10111   */\n      swap3\n      swap2\n      pop\n      pop\n      jump\t// out\n        /* \"#utility.yul\":10117:10297   */\n    tag_207:\n        /* \"#utility.yul\":10165:10242   */\n      0x4e487b7100000000000000000000000000000000000000000000000000000000\n        /* \"#utility.yul\":10162:10163   */\n      0x00\n        /* \"#utility.yul\":10155:10243   */\n      mstore\n        /* \"#utility.yul\":10262:10266   */\n      0x11\n        /* \"#utility.yul\":10259:10260   */\n      0x04\n        /* \"#utility.yul\":10252:10267   */\n      mstore\n        /* \"#utility.yul\":10286:10290   */\n      0x24\n        /* \"#utility.yul\":10283:10284   */\n      0x00\n        /* \"#utility.yul\":10276:10291   */\n      revert\n        /* \"#utility.yul\":10303:10713   */\n    tag_92:\n        /* \"#utility.yul\":10343:10350   */\n      0x00\n        /* \"#utility.yul\":10366:10386   */\n      tag_321\n        /* \"#utility.yul\":10384:10385   */\n      dup3\n        /* \"#utility.yul\":10366:10386   */\n      tag_184\n      jump\t// in\n    tag_321:\n        /* \"#utility.yul\":10361:10386   */\n      swap2\n      pop\n        /* \"#utility.yul\":10400:10420   */\n      tag_322\n        /* \"#utility.yul\":10418:10419   */\n      dup4\n        /* \"#utility.yul\":10400:10420   */\n      tag_184\n      jump\t// in\n    tag_322:\n        /* \"#utility.yul\":10395:10420   */\n      swap3\n      pop\n        /* \"#utility.yul\":10455:10456   */\n      dup3\n        /* \"#utility.yul\":10452:10453   */\n      dup3\n        /* \"#utility.yul\":10448:10457   */\n      mul\n        /* \"#utility.yul\":10477:10507   */\n      tag_323\n        /* \"#utility.yul\":10495:10506   */\n      dup2\n        /* \"#utility.yul\":10477:10507   */\n      tag_184\n      jump\t// in\n    tag_323:\n        /* \"#utility.yul\":10466:10507   */\n      swap2\n      pop\n        /* \"#utility.yul\":10656:10657   */\n      dup3\n        /* \"#utility.yul\":10647:10654   */\n      dup3\n        /* \"#utility.yul\":10643:10658   */\n      div\n        /* \"#utility.yul\":10640:10641   */\n      dup5\n        /* \"#utility.yul\":10637:10659   */\n      eq\n        /* \"#utility.yul\":10617:10618   */\n      dup4\n        /* \"#utility.yul\":10610:10619   */\n      iszero\n        /* \"#utility.yul\":10590:10673   */\n      or\n        /* \"#utility.yul\":10567:10706   */\n      tag_324\n      jumpi\n        /* \"#utility.yul\":10686:10704   */\n      tag_325\n      tag_207\n      jump\t// in\n    tag_325:\n        /* \"#utility.yul\":10567:10706   */\n    tag_324:\n        /* \"#utility.yul\":10351:10713   */\n      pop\n        /* \"#utility.yul\":10303:10713   */\n      swap3\n      swap2\n      pop\n      pop\n      jump\t// out\n        /* \"#utility.yul\":10719:10836   */\n    tag_208:\n        /* \"#utility.yul\":10828:10829   */\n      0x00\n        /* \"#utility.yul\":10825:10826   */\n      dup1\n        /* \"#utility.yul\":10818:10830   */\n      revert\n        /* \"#utility.yul\":10842:10944   */\n    tag_209:\n        /* \"#utility.yul\":10883:10889   */\n      0x00\n        /* \"#utility.yul\":10934:10936   */\n      0x1f\n        /* \"#utility.yul\":10930:10937   */\n      not\n        /* \"#utility.yul\":10925:10927   */\n      0x1f\n        /* \"#utility.yul\":10918:10923   */\n      dup4\n        /* \"#utility.yul\":10914:10928   */\n      add\n        /* \"#utility.yul\":10910:10938   */\n      and\n        /* \"#utility.yul\":10900:10938   */\n      swap1\n      pop\n        /* \"#utility.yul\":10842:10944   */\n      swap2\n      swap1\n      pop\n      jump\t// out\n        /* \"#utility.yul\":10950:11130   */\n    tag_210:\n        /* \"#utility.yul\":10998:11075   */\n      0x4e487b7100000000000000000000000000000000000000000000000000000000\n        /* \"#utility.yul\":10995:10996   */\n      0x00\n        /* \"#utility.yul\":10988:11076   */\n      mstore\n        /* \"#utility.yul\":11095:11099   */\n      0x41\n        /* \"#utility.yul\":11092:11093   */\n      0x04\n        /* \"#utility.yul\":11085:11100   */\n      mstore\n        /* \"#utility.yul\":11119:11123   */\n      0x24\n        /* \"#utility.yul\":11116:11117   */\n      0x00\n        /* \"#utility.yul\":11109:11124   */\n      revert\n        /* \"#utility.yul\":11136:11417   */\n    tag_211:\n        /* \"#utility.yul\":11219:11246   */\n      tag_330\n        /* \"#utility.yul\":11241:11245   */\n      dup3\n        /* \"#utility.yul\":11219:11246   */\n      tag_209\n      jump\t// in\n    tag_330:\n        /* \"#utility.yul\":11211:11217   */\n      dup2\n        /* \"#utility.yul\":11207:11247   */\n      add\n        /* \"#utility.yul\":11349:11355   */\n      dup2\n        /* \"#utility.yul\":11337:11347   */\n      dup2\n        /* \"#utility.yul\":11334:11356   */\n      lt\n        /* \"#utility.yul\":11313:11331   */\n      0xffffffffffffffff\n        /* \"#utility.yul\":11301:11311   */\n      dup3\n        /* \"#utility.yul\":11298:11332   */\n      gt\n        /* \"#utility.yul\":11295:11357   */\n      or\n        /* \"#utility.yul\":11292:11380   */\n      iszero\n      tag_331\n      jumpi\n        /* \"#utility.yul\":11360:11378   */\n      tag_332\n      tag_210\n      jump\t// in\n    tag_332:\n        /* \"#utility.yul\":11292:11380   */\n    tag_331:\n        /* \"#utility.yul\":11400:11410   */\n      dup1\n        /* \"#utility.yul\":11396:11398   */\n      0x40\n        /* \"#utility.yul\":11389:11411   */\n      mstore\n        /* \"#utility.yul\":11179:11417   */\n      pop\n        /* \"#utility.yul\":11136:11417   */\n      pop\n      pop\n      jump\t// out\n        /* \"#utility.yul\":11423:11552   */\n    tag_212:\n        /* \"#utility.yul\":11457:11463   */\n      0x00\n        /* \"#utility.yul\":11484:11504   */\n      tag_334\n      tag_181\n      jump\t// in\n    tag_334:\n        /* \"#utility.yul\":11474:11504   */\n      swap1\n      pop\n        /* \"#utility.yul\":11513:11546   */\n      tag_335\n        /* \"#utility.yul\":11541:11545   */\n      dup3\n        /* \"#utility.yul\":11533:11539   */\n      dup3\n        /* \"#utility.yul\":11513:11546   */\n      tag_211\n      jump\t// in\n    tag_335:\n        /* \"#utility.yul\":11423:11552   */\n      swap2\n      swap1\n      pop\n      jump\t// out\n        /* \"#utility.yul\":11558:11807   */\n    tag_213:\n        /* \"#utility.yul\":11633:11637   */\n      0x00\n        /* \"#utility.yul\":11723:11741   */\n      0xffffffffffffffff\n        /* \"#utility.yul\":11715:11721   */\n      dup3\n        /* \"#utility.yul\":11712:11742   */\n      gt\n        /* \"#utility.yul\":11709:11765   */\n      iszero\n      tag_337\n      jumpi\n        /* \"#utility.yul\":11745:11763   */\n      tag_338\n      tag_210\n      jump\t// in\n    tag_338:\n        /* \"#utility.yul\":11709:11765   */\n    tag_337:\n        /* \"#utility.yul\":11795:11799   */\n      0x20\n        /* \"#utility.yul\":11787:11793   */\n      dup3\n        /* \"#utility.yul\":11783:11800   */\n      mul\n        /* \"#utility.yul\":11775:11800   */\n      swap1\n      pop\n        /* \"#utility.yul\":11558:11807   */\n      swap2\n      swap1\n      pop\n      jump\t// out\n        /* \"#utility.yul\":11813:11930   */\n    tag_214:\n        /* \"#utility.yul\":11922:11923   */\n      0x00\n        /* \"#utility.yul\":11919:11920   */\n      dup1\n        /* \"#utility.yul\":11912:11924   */\n      revert\n        /* \"#utility.yul\":11954:12619   */\n    tag_215:\n        /* \"#utility.yul\":12059:12064   */\n      0x00\n        /* \"#utility.yul\":12084:12163   */\n      tag_341\n        /* \"#utility.yul\":12100:12162   */\n      tag_342\n        /* \"#utility.yul\":12155:12161   */\n      dup5\n        /* \"#utility.yul\":12100:12162   */\n      tag_213\n      jump\t// in\n    tag_342:\n        /* \"#utility.yul\":12084:12163   */\n      tag_212\n      jump\t// in\n    tag_341:\n        /* \"#utility.yul\":12075:12163   */\n      swap1\n      pop\n        /* \"#utility.yul\":12183:12188   */\n      dup1\n        /* \"#utility.yul\":12236:12240   */\n      0x20\n        /* \"#utility.yul\":12228:12234   */\n      dup5\n        /* \"#utility.yul\":12224:12241   */\n      mul\n        /* \"#utility.yul\":12216:12222   */\n      dup4\n        /* \"#utility.yul\":12212:12242   */\n      add\n        /* \"#utility.yul\":12265:12268   */\n      dup6\n        /* \"#utility.yul\":12257:12263   */\n      dup2\n        /* \"#utility.yul\":12254:12269   */\n      gt\n        /* \"#utility.yul\":12251:12373   */\n      iszero\n      tag_343\n      jumpi\n        /* \"#utility.yul\":12284:12363   */\n      tag_344\n      tag_214\n      jump\t// in\n    tag_344:\n        /* \"#utility.yul\":12251:12373   */\n    tag_343:\n        /* \"#utility.yul\":12399:12405   */\n      dup4\n        /* \"#utility.yul\":12382:12613   */\n    tag_345:\n        /* \"#utility.yul\":12416:12422   */\n      dup2\n        /* \"#utility.yul\":12411:12414   */\n      dup2\n        /* \"#utility.yul\":12408:12423   */\n      lt\n        /* \"#utility.yul\":12382:12613   */\n      iszero\n      tag_347\n      jumpi\n        /* \"#utility.yul\":12491:12494   */\n      dup1\n        /* \"#utility.yul\":12520:12568   */\n      tag_348\n        /* \"#utility.yul\":12564:12567   */\n      dup9\n        /* \"#utility.yul\":12552:12562   */\n      dup3\n        /* \"#utility.yul\":12520:12568   */\n      tag_206\n      jump\t// in\n    tag_348:\n        /* \"#utility.yul\":12515:12518   */\n      dup5\n        /* \"#utility.yul\":12508:12569   */\n      mstore\n        /* \"#utility.yul\":12598:12602   */\n      0x20\n        /* \"#utility.yul\":12593:12596   */\n      dup5\n        /* \"#utility.yul\":12589:12603   */\n      add\n        /* \"#utility.yul\":12582:12603   */\n      swap4\n      pop\n        /* \"#utility.yul\":12458:12613   */\n      pop\n        /* \"#utility.yul\":12442:12446   */\n      0x20\n        /* \"#utility.yul\":12437:12440   */\n      dup2\n        /* \"#utility.yul\":12433:12447   */\n      add\n        /* \"#utility.yul\":12426:12447   */\n      swap1\n      pop\n        /* \"#utility.yul\":12382:12613   */\n      jump(tag_345)\n    tag_347:\n        /* \"#utility.yul\":12386:12407   */\n      pop\n        /* \"#utility.yul\":12065:12619   */\n      pop\n      pop\n        /* \"#utility.yul\":11954:12619   */\n      swap4\n      swap3\n      pop\n      pop\n      pop\n      jump\t// out\n        /* \"#utility.yul\":12643:13004   */\n    tag_216:\n        /* \"#utility.yul\":12723:12728   */\n      0x00\n        /* \"#utility.yul\":12772:12775   */\n      dup3\n        /* \"#utility.yul\":12765:12769   */\n      0x1f\n        /* \"#utility.yul\":12757:12763   */\n      dup4\n        /* \"#utility.yul\":12753:12770   */\n      add\n        /* \"#utility.yul\":12749:12776   */\n      slt\n        /* \"#utility.yul\":12739:12861   */\n      tag_350\n      jumpi\n        /* \"#utility.yul\":12780:12859   */\n      tag_351\n      tag_208\n      jump\t// in\n    tag_351:\n        /* \"#utility.yul\":12739:12861   */\n    tag_350:\n        /* \"#utility.yul\":12884:12888   */\n      0x02\n        /* \"#utility.yul\":12906:12998   */\n      tag_352\n        /* \"#utility.yul\":12994:12997   */\n      dup5\n        /* \"#utility.yul\":12986:12992   */\n      dup3\n        /* \"#utility.yul\":12978:12984   */\n      dup6\n        /* \"#utility.yul\":12906:12998   */\n      tag_215\n      jump\t// in\n    tag_352:\n        /* \"#utility.yul\":12897:12998   */\n      swap2\n      pop\n        /* \"#utility.yul\":12729:13004   */\n      pop\n        /* \"#utility.yul\":12643:13004   */\n      swap3\n      swap2\n      pop\n      pop\n      jump\t// out\n        /* \"#utility.yul\":13010:13407   */\n    tag_102:\n        /* \"#utility.yul\":13103:13109   */\n      0x00\n        /* \"#utility.yul\":13152:13154   */\n      0x40\n        /* \"#utility.yul\":13140:13149   */\n      dup3\n        /* \"#utility.yul\":13131:13138   */\n      dup5\n        /* \"#utility.yul\":13127:13150   */\n      sub\n        /* \"#utility.yul\":13123:13155   */\n      slt\n        /* \"#utility.yul\":13120:13239   */\n      iszero\n      tag_354\n      jumpi\n        /* \"#utility.yul\":13158:13237   */\n      tag_355\n      tag_182\n      jump\t// in\n    tag_355:\n        /* \"#utility.yul\":13120:13239   */\n    tag_354:\n        /* \"#utility.yul\":13278:13279   */\n      0x00\n        /* \"#utility.yul\":13303:13390   */\n      tag_356\n        /* \"#utility.yul\":13382:13389   */\n      dup5\n        /* \"#utility.yul\":13373:13379   */\n      dup3\n        /* \"#utility.yul\":13362:13371   */\n      dup6\n        /* \"#utility.yul\":13358:13380   */\n      add\n        /* \"#utility.yul\":13303:13390   */\n      tag_216\n      jump\t// in\n    tag_356:\n        /* \"#utility.yul\":13293:13390   */\n      swap2\n      pop\n        /* \"#utility.yul\":13249:13400   */\n      pop\n        /* \"#utility.yul\":13010:13407   */\n      swap3\n      swap2\n      pop\n      pop\n      jump\t// out\n        /* \"#utility.yul\":13413:13593   */\n    tag_105:\n        /* \"#utility.yul\":13461:13538   */\n      0x4e487b7100000000000000000000000000000000000000000000000000000000\n        /* \"#utility.yul\":13458:13459   */\n      0x00\n        /* \"#utility.yul\":13451:13539   */\n      mstore\n        /* \"#utility.yul\":13558:13562   */\n      0x32\n        /* \"#utility.yul\":13555:13556   */\n      0x04\n        /* \"#utility.yul\":13548:13563   */\n      mstore\n        /* \"#utility.yul\":13582:13586   */\n      0x24\n        /* \"#utility.yul\":13579:13580   */\n      0x00\n        /* \"#utility.yul\":13572:13587   */\n      revert\n        /* \"#utility.yul\":13599:13931   */\n    tag_107:\n        /* \"#utility.yul\":13720:13724   */\n      0x00\n        /* \"#utility.yul\":13758:13760   */\n      0x40\n        /* \"#utility.yul\":13747:13756   */\n      dup3\n        /* \"#utility.yul\":13743:13761   */\n      add\n        /* \"#utility.yul\":13735:13761   */\n      swap1\n      pop\n        /* \"#utility.yul\":13771:13842   */\n      tag_359\n        /* \"#utility.yul\":13839:13840   */\n      0x00\n        /* \"#utility.yul\":13828:13837   */\n      dup4\n        /* \"#utility.yul\":13824:13841   */\n      add\n        /* \"#utility.yul\":13815:13821   */\n      dup6\n        /* \"#utility.yul\":13771:13842   */\n      tag_193\n      jump\t// in\n    tag_359:\n        /* \"#utility.yul\":13852:13924   */\n      tag_360\n        /* \"#utility.yul\":13920:13922   */\n      0x20\n        /* \"#utility.yul\":13909:13918   */\n      dup4\n        /* \"#utility.yul\":13905:13923   */\n      add\n        /* \"#utility.yul\":13896:13902   */\n      dup5\n        /* \"#utility.yul\":13852:13924   */\n      tag_197\n      jump\t// in\n    tag_360:\n        /* \"#utility.yul\":13599:13931   */\n      swap4\n      swap3\n      pop\n      pop\n      pop\n      jump\t// out\n        /* \"#utility.yul\":13937:14053   */\n    tag_217:\n        /* \"#utility.yul\":14007:14028   */\n      tag_362\n        /* \"#utility.yul\":14022:14027   */\n      dup2\n        /* \"#utility.yul\":14007:14028   */\n      tag_198\n      jump\t// in\n    tag_362:\n        /* \"#utility.yul\":14000:14005   */\n      dup2\n        /* \"#utility.yul\":13997:14029   */\n      eq\n        /* \"#utility.yul\":13987:14047   */\n      tag_363\n      jumpi\n        /* \"#utility.yul\":14043:14044   */\n      0x00\n        /* \"#utility.yul\":14040:14041   */\n      dup1\n        /* \"#utility.yul\":14033:14045   */\n      revert\n        /* \"#utility.yul\":13987:14047   */\n    tag_363:\n        /* \"#utility.yul\":13937:14053   */\n      pop\n      jump\t// out\n        /* \"#utility.yul\":14059:14196   */\n    tag_218:\n        /* \"#utility.yul\":14113:14118   */\n      0x00\n        /* \"#utility.yul\":14144:14150   */\n      dup2\n        /* \"#utility.yul\":14138:14151   */\n      mload\n        /* \"#utility.yul\":14129:14151   */\n      swap1\n      pop\n        /* \"#utility.yul\":14160:14190   */\n      tag_365\n        /* \"#utility.yul\":14184:14189   */\n      dup2\n        /* \"#utility.yul\":14160:14190   */\n      tag_217\n      jump\t// in\n    tag_365:\n        /* \"#utility.yul\":14059:14196   */\n      swap3\n      swap2\n      pop\n      pop\n      jump\t// out\n        /* \"#utility.yul\":14202:14547   */\n    tag_111:\n        /* \"#utility.yul\":14269:14275   */\n      0x00\n        /* \"#utility.yul\":14318:14320   */\n      0x20\n        /* \"#utility.yul\":14306:14315   */\n      dup3\n        /* \"#utility.yul\":14297:14304   */\n      dup5\n        /* \"#utility.yul\":14293:14316   */\n      sub\n        /* \"#utility.yul\":14289:14321   */\n      slt\n        /* \"#utility.yul\":14286:14405   */\n      iszero\n      tag_367\n      jumpi\n        /* \"#utility.yul\":14324:14403   */\n      tag_368\n      tag_182\n      jump\t// in\n    tag_368:\n        /* \"#utility.yul\":14286:14405   */\n    tag_367:\n        /* \"#utility.yul\":14444:14445   */\n      0x00\n        /* \"#utility.yul\":14469:14530   */\n      tag_369\n        /* \"#utility.yul\":14522:14529   */\n      dup5\n        /* \"#utility.yul\":14513:14519   */\n      dup3\n        /* \"#utility.yul\":14502:14511   */\n      dup6\n        /* \"#utility.yul\":14498:14520   */\n      add\n        /* \"#utility.yul\":14469:14530   */\n      tag_218\n      jump\t// in\n    tag_369:\n        /* \"#utility.yul\":14459:14530   */\n      swap2\n      pop\n        /* \"#utility.yul\":14415:14540   */\n      pop\n        /* \"#utility.yul\":14202:14547   */\n      swap3\n      swap2\n      pop\n      pop\n      jump\t// out\n        /* \"#utility.yul\":14553:14696   */\n    tag_219:\n        /* \"#utility.yul\":14610:14615   */\n      0x00\n        /* \"#utility.yul\":14641:14647   */\n      dup2\n        /* \"#utility.yul\":14635:14648   */\n      mload\n        /* \"#utility.yul\":14626:14648   */\n      swap1\n      pop\n        /* \"#utility.yul\":14657:14690   */\n      tag_371\n        /* \"#utility.yul\":14684:14689   */\n      dup2\n        /* \"#utility.yul\":14657:14690   */\n      tag_185\n      jump\t// in\n    tag_371:\n        /* \"#utility.yul\":14553:14696   */\n      swap3\n      swap2\n      pop\n      pop\n      jump\t// out\n        /* \"#utility.yul\":14702:15053   */\n    tag_122:\n        /* \"#utility.yul\":14772:14778   */\n      0x00\n        /* \"#utility.yul\":14821:14823   */\n      0x20\n        /* \"#utility.yul\":14809:14818   */\n      dup3\n        /* \"#utility.yul\":14800:14807   */\n      dup5\n        /* \"#utility.yul\":14796:14819   */\n      sub\n        /* \"#utility.yul\":14792:14824   */\n      slt\n        /* \"#utility.yul\":14789:14908   */\n      iszero\n      tag_373\n      jumpi\n        /* \"#utility.yul\":14827:14906   */\n      tag_374\n      tag_182\n      jump\t// in\n    tag_374:\n        /* \"#utility.yul\":14789:14908   */\n    tag_373:\n        /* \"#utility.yul\":14947:14948   */\n      0x00\n        /* \"#utility.yul\":14972:15036   */\n      tag_375\n        /* \"#utility.yul\":15028:15035   */\n      dup5\n        /* \"#utility.yul\":15019:15025   */\n      dup3\n        /* \"#utility.yul\":15008:15017   */\n      dup6\n        /* \"#utility.yul\":15004:15026   */\n      add\n        /* \"#utility.yul\":14972:15036   */\n      tag_219\n      jump\t// in\n    tag_375:\n        /* \"#utility.yul\":14962:15036   */\n      swap2\n      pop\n        /* \"#utility.yul\":14918:15046   */\n      pop\n        /* \"#utility.yul\":14702:15053   */\n      swap3\n      swap2\n      pop\n      pop\n      jump\t// out\n        /* \"#utility.yul\":15059:15250   */\n    tag_125:\n        /* \"#utility.yul\":15099:15102   */\n      0x00\n        /* \"#utility.yul\":15118:15138   */\n      tag_377\n        /* \"#utility.yul\":15136:15137   */\n      dup3\n        /* \"#utility.yul\":15118:15138   */\n      tag_184\n      jump\t// in\n    tag_377:\n        /* \"#utility.yul\":15113:15138   */\n      swap2\n      pop\n        /* \"#utility.yul\":15152:15172   */\n      tag_378\n        /* \"#utility.yul\":15170:15171   */\n      dup4\n        /* \"#utility.yul\":15152:15172   */\n      tag_184\n      jump\t// in\n    tag_378:\n        /* \"#utility.yul\":15147:15172   */\n      swap3\n      pop\n        /* \"#utility.yul\":15195:15196   */\n      dup3\n        /* \"#utility.yul\":15192:15193   */\n      dup3\n        /* \"#utility.yul\":15188:15197   */\n      add\n        /* \"#utility.yul\":15181:15197   */\n      swap1\n      pop\n        /* \"#utility.yul\":15216:15219   */\n      dup1\n        /* \"#utility.yul\":15213:15214   */\n      dup3\n        /* \"#utility.yul\":15210:15220   */\n      gt\n        /* \"#utility.yul\":15207:15243   */\n      iszero\n      tag_379\n      jumpi\n        /* \"#utility.yul\":15223:15241   */\n      tag_380\n      tag_207\n      jump\t// in\n    tag_380:\n        /* \"#utility.yul\":15207:15243   */\n    tag_379:\n        /* \"#utility.yul\":15059:15250   */\n      swap3\n      swap2\n      pop\n      pop\n      jump\t// out\n        /* \"#utility.yul\":15256:15425   */\n    tag_220:\n        /* \"#utility.yul\":15396:15417   */\n      0x54696d656f7574206e6f74207265616368656400000000000000000000000000\n        /* \"#utility.yul\":15392:15393   */\n      0x00\n        /* \"#utility.yul\":15384:15390   */\n      dup3\n        /* \"#utility.yul\":15380:15394   */\n      add\n        /* \"#utility.yul\":15373:15418   */\n      mstore\n        /* \"#utility.yul\":15256:15425   */\n      pop\n      jump\t// out\n        /* \"#utility.yul\":15431:15797   */\n    tag_221:\n        /* \"#utility.yul\":15573:15576   */\n      0x00\n        /* \"#utility.yul\":15594:15661   */\n      tag_383\n        /* \"#utility.yul\":15658:15660   */\n      0x13\n        /* \"#utility.yul\":15653:15656   */\n      dup4\n        /* \"#utility.yul\":15594:15661   */\n      tag_176\n      jump\t// in\n    tag_383:\n        /* \"#utility.yul\":15587:15661   */\n      swap2\n      pop\n        /* \"#utility.yul\":15670:15763   */\n      tag_384\n        /* \"#utility.yul\":15759:15762   */\n      dup3\n        /* \"#utility.yul\":15670:15763   */\n      tag_220\n      jump\t// in\n    tag_384:\n        /* \"#utility.yul\":15788:15790   */\n      0x20\n        /* \"#utility.yul\":15783:15786   */\n      dup3\n        /* \"#utility.yul\":15779:15791   */\n      add\n        /* \"#utility.yul\":15772:15791   */\n      swap1\n      pop\n        /* \"#utility.yul\":15431:15797   */\n      swap2\n      swap1\n      pop\n      jump\t// out\n        /* \"#utility.yul\":15803:16222   */\n    tag_128:\n        /* \"#utility.yul\":15969:15973   */\n      0x00\n        /* \"#utility.yul\":16007:16009   */\n      0x20\n        /* \"#utility.yul\":15996:16005   */\n      dup3\n        /* \"#utility.yul\":15992:16010   */\n      add\n        /* \"#utility.yul\":15984:16010   */\n      swap1\n      pop\n        /* \"#utility.yul\":16056:16065   */\n      dup2\n        /* \"#utility.yul\":16050:16054   */\n      dup2\n        /* \"#utility.yul\":16046:16066   */\n      sub\n        /* \"#utility.yul\":16042:16043   */\n      0x00\n        /* \"#utility.yul\":16031:16040   */\n      dup4\n        /* \"#utility.yul\":16027:16044   */\n      add\n        /* \"#utility.yul\":16020:16067   */\n      mstore\n        /* \"#utility.yul\":16084:16215   */\n      tag_386\n        /* \"#utility.yul\":16210:16214   */\n      dup2\n        /* \"#utility.yul\":16084:16215   */\n      tag_221\n      jump\t// in\n    tag_386:\n        /* \"#utility.yul\":16076:16215   */\n      swap1\n      pop\n        /* \"#utility.yul\":15803:16222   */\n      swap2\n      swap1\n      pop\n      jump\t// out\n        /* \"#utility.yul\":16228:16461   */\n    tag_161:\n        /* \"#utility.yul\":16267:16270   */\n      0x00\n        /* \"#utility.yul\":16290:16314   */\n      tag_388\n        /* \"#utility.yul\":16308:16313   */\n      dup3\n        /* \"#utility.yul\":16290:16314   */\n      tag_184\n      jump\t// in\n    tag_388:\n        /* \"#utility.yul\":16281:16314   */\n      swap2\n      pop\n        /* \"#utility.yul\":16336:16402   */\n      0xffffffffffffffffffffffffffffffffffffffffffffffffffffffffffffffff\n        /* \"#utility.yul\":16329:16334   */\n      dup3\n        /* \"#utility.yul\":16326:16403   */\n      sub\n        /* \"#utility.yul\":16323:16426   */\n      tag_389\n      jumpi\n        /* \"#utility.yul\":16406:16424   */\n      tag_390\n      tag_207\n      jump\t// in\n    tag_390:\n        /* \"#utility.yul\":16323:16426   */\n    tag_389:\n        /* \"#utility.yul\":16453:16454   */\n      0x01\n        /* \"#utility.yul\":16446:16451   */\n      dup3\n        /* \"#utility.yul\":16442:16455   */\n      add\n        /* \"#utility.yul\":16435:16455   */\n      swap1\n      pop\n        /* \"#utility.yul\":16228:16461   */\n      swap2\n      swap1\n      pop\n      jump\t// out\n        /* \"#utility.yul\":16467:16628   */\n    tag_222:\n        /* \"#utility.yul\":16607:16620   */\n      0x416c726561647920736574000000000000000000000000000000000000000000\n        /* \"#utility.yul\":16603:16604   */\n      0x00\n        /* \"#utility.yul\":16595:16601   */\n      dup3\n        /* \"#utility.yul\":16591:16605   */\n      add\n        /* \"#utility.yul\":16584:16621   */\n      mstore\n        /* \"#utility.yul\":16467:16628   */\n      pop\n      jump\t// out\n        /* \"#utility.yul\":16634:17000   */\n    tag_223:\n        /* \"#utility.yul\":16776:16779   */\n      0x00\n        /* \"#utility.yul\":16797:16864   */\n      tag_393\n        /* \"#utility.yul\":16861:16863   */\n      0x0b\n        /* \"#utility.yul\":16856:16859   */\n      dup4\n        /* \"#utility.yul\":16797:16864   */\n      tag_176\n      jump\t// in\n    tag_393:\n        /* \"#utility.yul\":16790:16864   */\n      swap2\n      pop\n        /* \"#utility.yul\":16873:16966   */\n      tag_394\n        /* \"#utility.yul\":16962:16965   */\n      dup3\n        /* \"#utility.yul\":16873:16966   */\n      tag_222\n      jump\t// in\n    tag_394:\n        /* \"#utility.yul\":16991:16993   */\n      0x20\n        /* \"#utility.yul\":16986:16989   */\n      dup3\n        /* \"#utility.yul\":16982:16994   */\n      add\n        /* \"#utility.yul\":16975:16994   */\n      swap1\n      pop\n        /* \"#utility.yul\":16634:17000   */\n      swap2\n      swap1\n      pop\n      jump\t// out\n        /* \"#utility.yul\":17006:17425   */\n    tag_166:\n        /* \"#utility.yul\":17172:17176   */\n      0x00\n        /* \"#utility.yul\":17210:17212   */\n      0x20\n        /* \"#utility.yul\":17199:17208   */\n      dup3\n        /* \"#utility.yul\":17195:17213   */\n      add\n        /* \"#utility.yul\":17187:17213   */\n      swap1\n      pop\n        /* \"#utility.yul\":17259:17268   */\n      dup2\n        /* \"#utility.yul\":17253:17257   */\n      dup2\n        /* \"#utility.yul\":17249:17269   */\n      sub\n        /* \"#utility.yul\":17245:17246   */\n      0x00\n        /* \"#utility.yul\":17234:17243   */\n      dup4\n        /* \"#utility.yul\":17230:17247   */\n      add\n        /* \"#utility.yul\":17223:17270   */\n      mstore\n        /* \"#utility.yul\":17287:17418   */\n      tag_396\n        /* \"#utility.yul\":17413:17417   */\n      dup2\n        /* \"#utility.yul\":17287:17418   */\n      tag_223\n      jump\t// in\n    tag_396:\n        /* \"#utility.yul\":17279:17418   */\n      swap1\n      pop\n        /* \"#utility.yul\":17006:17425   */\n      swap2\n      swap1\n      pop\n      jump\t// out\n        /* \"#utility.yul\":17431:17873   */\n    tag_172:\n        /* \"#utility.yul\":17580:17584   */\n      0x00\n        /* \"#utility.yul\":17618:17620   */\n      0x60\n        /* \"#utility.yul\":17607:17616   */\n      dup3\n        /* \"#utility.yul\":17603:17621   */\n      add\n        /* \"#utility.yul\":17595:17621   */\n      swap1\n      pop\n        /* \"#utility.yul\":17631:17702   */\n      tag_398\n        /* \"#utility.yul\":17699:17700   */\n      0x00\n        /* \"#utility.yul\":17688:17697   */\n      dup4\n        /* \"#utility.yul\":17684:17701   */\n      add\n        /* \"#utility.yul\":17675:17681   */\n      dup7\n        /* \"#utility.yul\":17631:17702   */\n      tag_193\n      jump\t// in\n    tag_398:\n        /* \"#utility.yul\":17712:17784   */\n      tag_399\n        /* \"#utility.yul\":17780:17782   */\n      0x20\n        /* \"#utility.yul\":17769:17778   */\n      dup4\n        /* \"#utility.yul\":17765:17783   */\n      add\n        /* \"#utility.yul\":17756:17762   */\n      dup6\n        /* \"#utility.yul\":17712:17784   */\n      tag_197\n      jump\t// in\n    tag_399:\n        /* \"#utility.yul\":17794:17866   */\n      tag_400\n        /* \"#utility.yul\":17862:17864   */\n      0x40\n        /* \"#utility.yul\":17851:17860   */\n      dup4\n        /* \"#utility.yul\":17847:17865   */\n      add\n        /* \"#utility.yul\":17838:17844   */\n      dup5\n        /* \"#utility.yul\":17794:17866   */\n      tag_197\n      jump\t// in\n    tag_400:\n        /* \"#utility.yul\":17431:17873   */\n      swap5\n      swap4\n      pop\n      pop\n      pop\n      pop\n      jump\t// out\n\n    auxdata: 0xa26469706673582212203eb5a18848382cec03b0f342390f494af1e469a050ea128c362e97414204315d64736f6c63430008180033\n}\n",
				"bytecode": {
					"linkReferences": {},
					"object": "60a060405234801562000010575f80fd5b5060405162001e8138038062001e81833981810160405281019062000036919062000117565b8173ffffffffffffffffffffffffffffffffffffffff1660808173ffffffffffffffffffffffffffffffffffffffff16815250508060025f6101000a81548173ffffffffffffffffffffffffffffffffffffffff021916908373ffffffffffffffffffffffffffffffffffffffff16021790555050506200015c565b5f80fd5b5f73ffffffffffffffffffffffffffffffffffffffff82169050919050565b5f620000e182620000b6565b9050919050565b620000f381620000d5565b8114620000fe575f80fd5b50565b5f815190506200011181620000e8565b92915050565b5f806040838503121562000130576200012f620000b2565b5b5f6200013f8582860162000101565b9250506020620001528582860162000101565b9150509250929050565b608051611d056200017c5f395f81816102be01526113dd0152611d055ff3fe608060405260043610610093575f3560e01c80633d6ae3a7116100585780633d6ae3a7146101e25780634e543b261461020c578063859a62d014610234578063c874b1c214610276578063fe25e00a14610292576100d3565b8062c2943c1461010e57806304f3bcec146101365780630b8e9246146101605780631570376e146101885780632c56e030146101b2576100d3565b366100d3576040517f08c379a00000000000000000000000000000000000000000000000000000000081526004016100ca90611459565b60405180910390fd5b6040517f08c379a0000000000000000000000000000000000000000000000000000000008152600401610105906114c1565b60405180910390fd5b348015610119575f80fd5b50610134600480360381019061012f919061151f565b6102bc565b005b348015610141575f80fd5b5061014a6106da565b60405161015791906115c4565b60405180910390f35b34801561016b575f80fd5b506101866004803603810190610181919061151f565b6106ff565b005b348015610193575f80fd5b5061019c610cfc565b6040516101a991906115ec565b60405180910390f35b6101cc60048036038101906101c79190611640565b610d02565b6040516101d991906115ec565b60405180910390f35b3480156101ed575f80fd5b506101f6610fec565b60405161020391906115ec565b60405180910390f35b348015610217575f80fd5b50610232600480360381019061022d9190611640565b610ff2565b005b34801561023f575f80fd5b5061025a6004803603810190610255919061151f565b6110c4565b60405161026d9796959493929190611694565b60405180910390f35b610290600480360381019061028b919061151f565b611185565b005b34801561029d575f80fd5b506102a66113db565b6040516102b39190611701565b60405180910390f35b7f000000000000000000000000000000000000000000000000000000000000000073ffffffffffffffffffffffffffffffffffffffff163373ffffffffffffffffffffffffffffffffffffffff161461034a576040517f08c379a000000000000000000000000000000000000000000000000000000000815260040161034190611764565b60405180910390fd5b5f805f8381526020019081526020015f2090508060030160029054906101000a900460ff16156103af576040517f08c379a00000000000000000000000000000000000000000000000000000000081526004016103a6906117cc565b60405180910390fd5b806003015f9054906101000a900460ff1680156103da57508060030160019054906101000a900460ff165b610419576040517f08c379a000000000000000000000000000000000000000000000000000000000815260040161041090611834565b60405180910390fd5b60025f9054906101000a900473ffffffffffffffffffffffffffffffffffffffff1673ffffffffffffffffffffffffffffffffffffffff1663cdd69a12836040518263ffffffff1660e01b815260040161047391906115ec565b602060405180830381865afa15801561048e573d5f803e3d5ffd5b505050506040513d601f19601f820116820180604052508101906104b29190611866565b8160030160036101000a81548173ffffffffffffffffffffffffffffffffffffffff021916908373ffffffffffffffffffffffffffffffffffffffff16021790555060018160030160026101000a81548160ff0219169083151502179055505f73ffffffffffffffffffffffffffffffffffffffff168160030160039054906101000a900473ffffffffffffffffffffffffffffffffffffffff1673ffffffffffffffffffffffffffffffffffffffff1614801561057e57508060030160029054906101000a900460ff165b1561065d57805f015f9054906101000a900473ffffffffffffffffffffffffffffffffffffffff1673ffffffffffffffffffffffffffffffffffffffff166108fc826002015490811502906040515f60405180830381858888f193505050501580156105ec573d5f803e3d5ffd5b50806001015f9054906101000a900473ffffffffffffffffffffffffffffffffffffffff1673ffffffffffffffffffffffffffffffffffffffff166108fc826002015490811502906040515f60405180830381858888f19350505050158015610657573d5f803e3d5ffd5b506106d6565b8060030160039054906101000a900473ffffffffffffffffffffffffffffffffffffffff1673ffffffffffffffffffffffffffffffffffffffff166108fc600283600201546106ac91906118be565b90811502906040515f60405180830381858888f193505050501580156106d4573d5f803e3d5ffd5b505b5050565b60025f9054906101000a900473ffffffffffffffffffffffffffffffffffffffff1681565b5f805f8381526020019081526020015f2090508060030160029054906101000a900460ff1615610764576040517f08c379a000000000000000000000000000000000000000000000000000000000815260040161075b906117cc565b60405180910390fd5b5f60025f9054906101000a900473ffffffffffffffffffffffffffffffffffffffff1673ffffffffffffffffffffffffffffffffffffffff1663460e2049846040518263ffffffff1660e01b81526004016107bf91906115ec565b6040805180830381865afa1580156107d9573d5f803e3d5ffd5b505050506040513d601f19601f820116820180604052508101906107fd9190611a3d565b90505f60025f9054906101000a900473ffffffffffffffffffffffffffffffffffffffff1673ffffffffffffffffffffffffffffffffffffffff166316b5551d85845f6002811061085157610850611a68565b5b60200201516040518363ffffffff1660e01b8152600401610873929190611a95565b602060405180830381865afa15801561088e573d5f803e3d5ffd5b505050506040513d601f19601f820116820180604052508101906108b29190611ae6565b90505f60025f9054906101000a900473ffffffffffffffffffffffffffffffffffffffff1673ffffffffffffffffffffffffffffffffffffffff166316b5551d868560016002811061090757610906611a68565b5b60200201516040518363ffffffff1660e01b8152600401610929929190611a95565b602060405180830381865afa158015610944573d5f803e3d5ffd5b505050506040513d601f19601f820116820180604052508101906109689190611ae6565b90505f60025f9054906101000a900473ffffffffffffffffffffffffffffffffffffffff1673ffffffffffffffffffffffffffffffffffffffff16630907af75876040518263ffffffff1660e01b81526004016109c591906115ec565b602060405180830381865afa1580156109e0573d5f803e3d5ffd5b505050506040513d601f19601f82011682018060405250810190610a049190611b25565b90505f81118015610a21575061025881610a1e9190611b50565b42115b610a60576040517f08c379a0000000000000000000000000000000000000000000000000000000008152600401610a5790611bcd565b60405180910390fd5b60018560030160026101000a81548160ff021916908315150217905550828015610a88575081155b15610b5757835f60028110610aa057610a9f611a68565b5b60200201518560030160036101000a81548173ffffffffffffffffffffffffffffffffffffffff021916908373ffffffffffffffffffffffffffffffffffffffff160217905550835f60028110610afa57610af9611a68565b5b602002015173ffffffffffffffffffffffffffffffffffffffff166108fc60028760020154610b2991906118be565b90811502906040515f60405180830381858888f19350505050158015610b51573d5f803e3d5ffd5b50610cf4565b818015610b62575082155b15610c335783600160028110610b7b57610b7a611a68565b5b60200201518560030160036101000a81548173ffffffffffffffffffffffffffffffffffffffff021916908373ffffffffffffffffffffffffffffffffffffffff16021790555083600160028110610bd657610bd5611a68565b5b602002015173ffffffffffffffffffffffffffffffffffffffff166108fc60028760020154610c0591906118be565b90811502906040515f60405180830381858888f19350505050158015610c2d573d5f803e3d5ffd5b50610cf3565b835f60028110610c4657610c45611a68565b5b602002015173ffffffffffffffffffffffffffffffffffffffff166108fc866002015490811502906040515f60405180830381858888f19350505050158015610c91573d5f803e3d5ffd5b5083600160028110610ca657610ca5611a68565b5b602002015173ffffffffffffffffffffffffffffffffffffffff166108fc866002015490811502906040515f60405180830381858888f19350505050158015610cf1573d5f803e3d5ffd5b505b5b505050505050565b60015481565b5f803403610d3c576040517f583aa02600000000000000000000000000000000000000000000000000000000815260040160405180910390fd5b8173ffffffffffffffffffffffffffffffffffffffff163373ffffffffffffffffffffffffffffffffffffffff1603610da1576040517f0e8a471c00000000000000000000000000000000000000000000000000000000815260040160405180910390fd5b60015f815480929190610db390611beb565b91905055506040518060e001604052803373ffffffffffffffffffffffffffffffffffffffff1681526020018373ffffffffffffffffffffffffffffffffffffffff1681526020013481526020016001151581526020015f151581526020015f151581526020015f73ffffffffffffffffffffffffffffffffffffffff168152505f808381526020019081526020015f205f820151815f015f6101000a81548173ffffffffffffffffffffffffffffffffffffffff021916908373ffffffffffffffffffffffffffffffffffffffff1602179055506020820151816001015f6101000a81548173ffffffffffffffffffffffffffffffffffffffff021916908373ffffffffffffffffffffffffffffffffffffffff160217905550604082015181600201556060820151816003015f6101000a81548160ff02191690831515021790555060808201518160030160016101000a81548160ff02191690831515021790555060a08201518160030160026101000a81548160ff02191690831515021790555060c08201518160030160036101000a81548173ffffffffffffffffffffffffffffffffffffffff021916908373ffffffffffffffffffffffffffffffffffffffff1602179055509050508173ffffffffffffffffffffffffffffffffffffffff163373ffffffffffffffffffffffffffffffffffffffff16827facc6a963a1e2d25ae5a02c89235769180842c7b739129172646b06516a75b81a34604051610fdf91906115ec565b60405180910390a4919050565b61025881565b5f73ffffffffffffffffffffffffffffffffffffffff1660025f9054906101000a900473ffffffffffffffffffffffffffffffffffffffff1673ffffffffffffffffffffffffffffffffffffffff1614611081576040517f08c379a000000000000000000000000000000000000000000000000000000000815260040161107890611c7c565b60405180910390fd5b8060025f6101000a81548173ffffffffffffffffffffffffffffffffffffffff021916908373ffffffffffffffffffffffffffffffffffffffff16021790555050565b5f602052805f5260405f205f91509050805f015f9054906101000a900473ffffffffffffffffffffffffffffffffffffffff1690806001015f9054906101000a900473ffffffffffffffffffffffffffffffffffffffff1690806002015490806003015f9054906101000a900460ff16908060030160019054906101000a900460ff16908060030160029054906101000a900460ff16908060030160039054906101000a900473ffffffffffffffffffffffffffffffffffffffff16905087565b5f805f8381526020019081526020015f209050806001015f9054906101000a900473ffffffffffffffffffffffffffffffffffffffff1673ffffffffffffffffffffffffffffffffffffffff163373ffffffffffffffffffffffffffffffffffffffff1614611220576040517f0e8a471c00000000000000000000000000000000000000000000000000000000815260040160405180910390fd5b8060030160019054906101000a900460ff1615611269576040517fbd68b4f400000000000000000000000000000000000000000000000000000000815260040160405180910390fd5b806002015434146112a6576040517f583aa02600000000000000000000000000000000000000000000000000000000815260040160405180910390fd5b60018160030160016101000a81548160ff02191690831515021790555060025f9054906101000a900473ffffffffffffffffffffffffffffffffffffffff1673ffffffffffffffffffffffffffffffffffffffff16634400e01c83835f015f9054906101000a900473ffffffffffffffffffffffffffffffffffffffff16846001015f9054906101000a900473ffffffffffffffffffffffffffffffffffffffff166040518463ffffffff1660e01b815260040161136693929190611c9a565b5f604051808303815f87803b15801561137d575f80fd5b505af115801561138f573d5f803e3d5ffd5b505050503373ffffffffffffffffffffffffffffffffffffffff16827fb90d7860e7ed9f46c97474267293bcb676d538b9e41122e100386f10601a912260405160405180910390a35050565b7f000000000000000000000000000000000000000000000000000000000000000081565b5f82825260208201905092915050565b7f557365206372656174654475656c206f72206163636570744475656c000000005f82015250565b5f611443601c836113ff565b915061144e8261140f565b602082019050919050565b5f6020820190508181035f83015261147081611437565b9050919050565b7f496e76616c69642066756e6374696f6e2063616c6c00000000000000000000005f82015250565b5f6114ab6015836113ff565b91506114b682611477565b602082019050919050565b5f6020820190508181035f8301526114d88161149f565b9050919050565b5f604051905090565b5f80fd5b5f819050919050565b6114fe816114ec565b8114611508575f80fd5b50565b5f81359050611519816114f5565b92915050565b5f60208284031215611534576115336114e8565b5b5f6115418482850161150b565b91505092915050565b5f73ffffffffffffffffffffffffffffffffffffffff82169050919050565b5f819050919050565b5f61158c6115876115828461154a565b611569565b61154a565b9050919050565b5f61159d82611572565b9050919050565b5f6115ae82611593565b9050919050565b6115be816115a4565b82525050565b5f6020820190506115d75f8301846115b5565b92915050565b6115e6816114ec565b82525050565b5f6020820190506115ff5f8301846115dd565b92915050565b5f61160f8261154a565b9050919050565b61161f81611605565b8114611629575f80fd5b50565b5f8135905061163a81611616565b92915050565b5f60208284031215611655576116546114e8565b5b5f6116628482850161162c565b91505092915050565b61167481611605565b82525050565b5f8115159050919050565b61168e8161167a565b82525050565b5f60e0820190506116a75f83018a61166b565b6116b4602083018961166b565b6116c160408301886115dd565b6116ce6060830187611685565b6116db6080830186611685565b6116e860a0830185611685565b6116f560c083018461166b565b98975050505050505050565b5f6020820190506117145f83018461166b565b92915050565b7f4f6e6c79206172626974657200000000000000000000000000000000000000005f82015250565b5f61174e600c836113ff565b91506117598261171a565b602082019050919050565b5f6020820190508181035f83015261177b81611742565b9050919050565b7f416c7265616479207265736f6c766564000000000000000000000000000000005f82015250565b5f6117b66010836113ff565b91506117c182611782565b602082019050919050565b5f6020820190508181035f8301526117e3816117aa565b9050919050565b7f4e6f7420726561647900000000000000000000000000000000000000000000005f82015250565b5f61181e6009836113ff565b9150611829826117ea565b602082019050919050565b5f6020820190508181035f83015261184b81611812565b9050919050565b5f8151905061186081611616565b92915050565b5f6020828403121561187b5761187a6114e8565b5b5f61188884828501611852565b91505092915050565b7f4e487b71000000000000000000000000000000000000000000000000000000005f52601160045260245ffd5b5f6118c8826114ec565b91506118d3836114ec565b92508282026118e1816114ec565b915082820484148315176118f8576118f7611891565b5b5092915050565b5f80fd5b5f601f19601f8301169050919050565b7f4e487b71000000000000000000000000000000000000000000000000000000005f52604160045260245ffd5b61194982611903565b810181811067ffffffffffffffff8211171561196857611967611913565b5b80604052505050565b5f61197a6114df565b90506119868282611940565b919050565b5f67ffffffffffffffff8211156119a5576119a4611913565b5b602082029050919050565b5f80fd5b5f6119c66119c18461198b565b611971565b905080602084028301858111156119e0576119df6119b0565b5b835b81811015611a0957806119f58882611852565b8452602084019350506020810190506119e2565b5050509392505050565b5f82601f830112611a2757611a266118ff565b5b6002611a348482856119b4565b91505092915050565b5f60408284031215611a5257611a516114e8565b5b5f611a5f84828501611a13565b91505092915050565b7f4e487b71000000000000000000000000000000000000000000000000000000005f52603260045260245ffd5b5f604082019050611aa85f8301856115dd565b611ab5602083018461166b565b9392505050565b611ac58161167a565b8114611acf575f80fd5b50565b5f81519050611ae081611abc565b92915050565b5f60208284031215611afb57611afa6114e8565b5b5f611b0884828501611ad2565b91505092915050565b5f81519050611b1f816114f5565b92915050565b5f60208284031215611b3a57611b396114e8565b5b5f611b4784828501611b11565b91505092915050565b5f611b5a826114ec565b9150611b65836114ec565b9250828201905080821115611b7d57611b7c611891565b5b92915050565b7f54696d656f7574206e6f742072656163686564000000000000000000000000005f82015250565b5f611bb76013836113ff565b9150611bc282611b83565b602082019050919050565b5f6020820190508181035f830152611be481611bab565b9050919050565b5f611bf5826114ec565b91507fffffffffffffffffffffffffffffffffffffffffffffffffffffffffffffffff8203611c2757611c26611891565b5b600182019050919050565b7f416c7265616479207365740000000000000000000000000000000000000000005f82015250565b5f611c66600b836113ff565b9150611c7182611c32565b602082019050919050565b5f6020820190508181035f830152611c9381611c5a565b9050919050565b5f606082019050611cad5f8301866115dd565b611cba602083018561166b565b611cc7604083018461166b565b94935050505056fea26469706673582212203eb5a18848382cec03b0f342390f494af1e469a050ea128c362e97414204315d64736f6c63430008180033",
					"opcodes": "PUSH1 0xA0 PUSH1 0x40 MSTORE CALLVALUE DUP1 ISZERO PUSH3 0x10 JUMPI PUSH0 DUP1 REVERT JUMPDEST POP PUSH1 0x40 MLOAD PUSH3 0x1E81 CODESIZE SUB DUP1 PUSH3 0x1E81 DUP4 CODECOPY DUP2 DUP2 ADD PUSH1 0x40 MSTORE DUP2 ADD SWAP1 PUSH3 0x36 SWAP2 SWAP1 PUSH3 0x117 JUMP JUMPDEST DUP2 PUSH20 0xFFFFFFFFFFFFFFFFFFFFFFFFFFFFFFFFFFFFFFFF AND PUSH1 0x80 DUP2 PUSH20 0xFFFFFFFFFFFFFFFFFFFFFFFFFFFFFFFFFFFFFFFF AND DUP2 MSTORE POP POP DUP1 PUSH1 0x2 PUSH0 PUSH2 0x100 EXP DUP2 SLOAD DUP2 PUSH20 0xFFFFFFFFFFFFFFFFFFFFFFFFFFFFFFFFFFFFFFFF MUL NOT AND SWAP1 DUP4 PUSH20 0xFFFFFFFFFFFFFFFFFFFFFFFFFFFFFFFFFFFFFFFF AND MUL OR SWAP1 SSTORE POP POP POP PUSH3 0x15C JUMP JUMPDEST PUSH0 DUP1 REVERT JUMPDEST PUSH0 PUSH20 0xFFFFFFFFFFFFFFFFFFFFFFFFFFFFFFFFFFFFFFFF DUP3 AND SWAP1 POP SWAP2 SWAP1 POP JUMP JUMPDEST PUSH0 PUSH3 0xE1 DUP3 PUSH3 0xB6 JUMP JUMPDEST SWAP1 POP SWAP2 SWAP1 POP JUMP JUMPDEST PUSH3 0xF3 DUP2 PUSH3 0xD5 JUMP JUMPDEST DUP2 EQ PUSH3 0xFE JUMPI PUSH0 DUP1 REVERT JUMPDEST POP JUMP JUMPDEST PUSH0 DUP2 MLOAD SWAP1 POP PUSH3 0x111 DUP2 PUSH3 0xE8 JUMP JUMPDEST SWAP3 SWAP2 POP POP JUMP JUMPDEST PUSH0 DUP1 PUSH1 0x40 DUP4 DUP6 SUB SLT ISZERO PUSH3 0x130 JUMPI PUSH3 0x12F PUSH3 0xB2 JUMP JUMPDEST JUMPDEST PUSH0 PUSH3 0x13F DUP6 DUP3 DUP7 ADD PUSH3 0x101 JUMP JUMPDEST SWAP3 POP POP PUSH1 0x20 PUSH3 0x152 DUP6 DUP3 DUP7 ADD PUSH3 0x101 JUMP JUMPDEST SWAP2 POP POP SWAP3 POP SWAP3 SWAP1 POP JUMP JUMPDEST PUSH1 0x80 MLOAD PUSH2 0x1D05 PUSH3 0x17C PUSH0 CODECOPY PUSH0 DUP2 DUP2 PUSH2 0x2BE ADD MSTORE PUSH2 0x13DD ADD MSTORE PUSH2 0x1D05 PUSH0 RETURN INVALID PUSH1 0x80 PUSH1 0x40 MSTORE PUSH1 0x4 CALLDATASIZE LT PUSH2 0x93 JUMPI PUSH0 CALLDATALOAD PUSH1 0xE0 SHR DUP1 PUSH4 0x3D6AE3A7 GT PUSH2 0x58 JUMPI DUP1 PUSH4 0x3D6AE3A7 EQ PUSH2 0x1E2 JUMPI DUP1 PUSH4 0x4E543B26 EQ PUSH2 0x20C JUMPI DUP1 PUSH4 0x859A62D0 EQ PUSH2 0x234 JUMPI DUP1 PUSH4 0xC874B1C2 EQ PUSH2 0x276 JUMPI DUP1 PUSH4 0xFE25E00A EQ PUSH2 0x292 JUMPI PUSH2 0xD3 JUMP JUMPDEST DUP1 PUSH3 0xC2943C EQ PUSH2 0x10E JUMPI DUP1 PUSH4 0x4F3BCEC EQ PUSH2 0x136 JUMPI DUP1 PUSH4 0xB8E9246 EQ PUSH2 0x160 JUMPI DUP1 PUSH4 0x1570376E EQ PUSH2 0x188 JUMPI DUP1 PUSH4 0x2C56E030 EQ PUSH2 0x1B2 JUMPI PUSH2 0xD3 JUMP JUMPDEST CALLDATASIZE PUSH2 0xD3 JUMPI PUSH1 0x40 MLOAD PUSH32 0x8C379A000000000000000000000000000000000000000000000000000000000 DUP2 MSTORE PUSH1 0x4 ADD PUSH2 0xCA SWAP1 PUSH2 0x1459 JUMP JUMPDEST PUSH1 0x40 MLOAD DUP1 SWAP2 SUB SWAP1 REVERT JUMPDEST PUSH1 0x40 MLOAD PUSH32 0x8C379A000000000000000000000000000000000000000000000000000000000 DUP2 MSTORE PUSH1 0x4 ADD PUSH2 0x105 SWAP1 PUSH2 0x14C1 JUMP JUMPDEST PUSH1 0x40 MLOAD DUP1 SWAP2 SUB SWAP1 REVERT JUMPDEST CALLVALUE DUP1 ISZERO PUSH2 0x119 JUMPI PUSH0 DUP1 REVERT JUMPDEST POP PUSH2 0x134 PUSH1 0x4 DUP1 CALLDATASIZE SUB DUP2 ADD SWAP1 PUSH2 0x12F SWAP2 SWAP1 PUSH2 0x151F JUMP JUMPDEST PUSH2 0x2BC JUMP JUMPDEST STOP JUMPDEST CALLVALUE DUP1 ISZERO PUSH2 0x141 JUMPI PUSH0 DUP1 REVERT JUMPDEST POP PUSH2 0x14A PUSH2 0x6DA JUMP JUMPDEST PUSH1 0x40 MLOAD PUSH2 0x157 SWAP2 SWAP1 PUSH2 0x15C4 JUMP JUMPDEST PUSH1 0x40 MLOAD DUP1 SWAP2 SUB SWAP1 RETURN JUMPDEST CALLVALUE DUP1 ISZERO PUSH2 0x16B JUMPI PUSH0 DUP1 REVERT JUMPDEST POP PUSH2 0x186 PUSH1 0x4 DUP1 CALLDATASIZE SUB DUP2 ADD SWAP1 PUSH2 0x181 SWAP2 SWAP1 PUSH2 0x151F JUMP JUMPDEST PUSH2 0x6FF JUMP JUMPDEST STOP JUMPDEST CALLVALUE DUP1 ISZERO PUSH2 0x193 JUMPI PUSH0 DUP1 REVERT JUMPDEST POP PUSH2 0x19C PUSH2 0xCFC JUMP JUMPDEST PUSH1 0x40 MLOAD PUSH2 0x1A9 SWAP2 SWAP1 PUSH2 0x15EC JUMP JUMPDEST PUSH1 0x40 MLOAD DUP1 SWAP2 SUB SWAP1 RETURN JUMPDEST PUSH2 0x1CC PUSH1 0x4 DUP1 CALLDATASIZE SUB DUP2 ADD SWAP1 PUSH2 0x1C7 SWAP2 SWAP1 PUSH2 0x1640 JUMP JUMPDEST PUSH2 0xD02 JUMP JUMPDEST PUSH1 0x40 MLOAD PUSH2 0x1D9 SWAP2 SWAP1 PUSH2 0x15EC JUMP JUMPDEST PUSH1 0x40 MLOAD DUP1 SWAP2 SUB SWAP1 RETURN JUMPDEST CALLVALUE DUP1 ISZERO PUSH2 0x1ED JUMPI PUSH0 DUP1 REVERT JUMPDEST POP PUSH2 0x1F6 PUSH2 0xFEC JUMP JUMPDEST PUSH1 0x40 MLOAD PUSH2 0x203 SWAP2 SWAP1 PUSH2 0x15EC JUMP JUMPDEST PUSH1 0x40 MLOAD DUP1 SWAP2 SUB SWAP1 RETURN JUMPDEST CALLVALUE DUP1 ISZERO PUSH2 0x217 JUMPI PUSH0 DUP1 REVERT JUMPDEST POP PUSH2 0x232 PUSH1 0x4 DUP1 CALLDATASIZE SUB DUP2 ADD SWAP1 PUSH2 0x22D SWAP2 SWAP1 PUSH2 0x1640 JUMP JUMPDEST PUSH2 0xFF2 JUMP JUMPDEST STOP JUMPDEST CALLVALUE DUP1 ISZERO PUSH2 0x23F JUMPI PUSH0 DUP1 REVERT JUMPDEST POP PUSH2 0x25A PUSH1 0x4 DUP1 CALLDATASIZE SUB DUP2 ADD SWAP1 PUSH2 0x255 SWAP2 SWAP1 PUSH2 0x151F JUMP JUMPDEST PUSH2 0x10C4 JUMP JUMPDEST PUSH1 0x40 MLOAD PUSH2 0x26D SWAP8 SWAP7 SWAP6 SWAP5 SWAP4 SWAP3 SWAP2 SWAP1 PUSH2 0x1694 JUMP JUMPDEST PUSH1 0x40 MLOAD DUP1 SWAP2 SUB SWAP1 RETURN JUMPDEST PUSH2 0x290 PUSH1 0x4 DUP1 CALLDATASIZE SUB DUP2 ADD SWAP1 PUSH2 0x28B SWAP2 SWAP1 PUSH2 0x151F JUMP JUMPDEST PUSH2 0x1185 JUMP JUMPDEST STOP JUMPDEST CALLVALUE DUP1 ISZERO PUSH2 0x29D JUMPI PUSH0 DUP1 REVERT JUMPDEST POP PUSH2 0x2A6 PUSH2 0x13DB JUMP JUMPDEST PUSH1 0x40 MLOAD PUSH2 0x2B3 SWAP2 SWAP1 PUSH2 0x1701 JUMP JUMPDEST PUSH1 0x40 MLOAD DUP1 SWAP2 SUB SWAP1 RETURN JUMPDEST PUSH32 0x0 PUSH20 0xFFFFFFFFFFFFFFFFFFFFFFFFFFFFFFFFFFFFFFFF AND CALLER PUSH20 0xFFFFFFFFFFFFFFFFFFFFFFFFFFFFFFFFFFFFFFFF AND EQ PUSH2 0x34A JUMPI PUSH1 0x40 MLOAD PUSH32 0x8C379A000000000000000000000000000000000000000000000000000000000 DUP2 MSTORE PUSH1 0x4 ADD PUSH2 0x341 SWAP1 PUSH2 0x1764 JUMP JUMPDEST PUSH1 0x40 MLOAD DUP1 SWAP2 SUB SWAP1 REVERT JUMPDEST PUSH0 DUP1 PUSH0 DUP4 DUP2 MSTORE PUSH1 0x20 ADD SWAP1 DUP2 MSTORE PUSH1 0x20 ADD PUSH0 KECCAK256 SWAP1 POP DUP1 PUSH1 0x3 ADD PUSH1 0x2 SWAP1 SLOAD SWAP1 PUSH2 0x100 EXP SWAP1 DIV PUSH1 0xFF AND ISZERO PUSH2 0x3AF JUMPI PUSH1 0x40 MLOAD PUSH32 0x8C379A000000000000000000000000000000000000000000000000000000000 DUP2 MSTORE PUSH1 0x4 ADD PUSH2 0x3A6 SWAP1 PUSH2 0x17CC JUMP JUMPDEST PUSH1 0x40 MLOAD DUP1 SWAP2 SUB SWAP1 REVERT JUMPDEST DUP1 PUSH1 0x3 ADD PUSH0 SWAP1 SLOAD SWAP1 PUSH2 0x100 EXP SWAP1 DIV PUSH1 0xFF AND DUP1 ISZERO PUSH2 0x3DA JUMPI POP DUP1 PUSH1 0x3 ADD PUSH1 0x1 SWAP1 SLOAD SWAP1 PUSH2 0x100 EXP SWAP1 DIV PUSH1 0xFF AND JUMPDEST PUSH2 0x419 JUMPI PUSH1 0x40 MLOAD PUSH32 0x8C379A000000000000000000000000000000000000000000000000000000000 DUP2 MSTORE PUSH1 0x4 ADD PUSH2 0x410 SWAP1 PUSH2 0x1834 JUMP JUMPDEST PUSH1 0x40 MLOAD DUP1 SWAP2 SUB SWAP1 REVERT JUMPDEST PUSH1 0x2 PUSH0 SWAP1 SLOAD SWAP1 PUSH2 0x100 EXP SWAP1 DIV PUSH20 0xFFFFFFFFFFFFFFFFFFFFFFFFFFFFFFFFFFFFFFFF AND PUSH20 0xFFFFFFFFFFFFFFFFFFFFFFFFFFFFFFFFFFFFFFFF AND PUSH4 0xCDD69A12 DUP4 PUSH1 0x40 MLOAD DUP3 PUSH4 0xFFFFFFFF AND PUSH1 0xE0 SHL DUP2 MSTORE PUSH1 0x4 ADD PUSH2 0x473 SWAP2 SWAP1 PUSH2 0x15EC JUMP JUMPDEST PUSH1 0x20 PUSH1 0x40 MLOAD DUP1 DUP4 SUB DUP2 DUP7 GAS STATICCALL ISZERO DUP1 ISZERO PUSH2 0x48E JUMPI RETURNDATASIZE PUSH0 DUP1 RETURNDATACOPY RETURNDATASIZE PUSH0 REVERT JUMPDEST POP POP POP POP PUSH1 0x40 MLOAD RETURNDATASIZE PUSH1 0x1F NOT PUSH1 0x1F DUP3 ADD AND DUP3 ADD DUP1 PUSH1 0x40 MSTORE POP DUP2 ADD SWAP1 PUSH2 0x4B2 SWAP2 SWAP1 PUSH2 0x1866 JUMP JUMPDEST DUP2 PUSH1 0x3 ADD PUSH1 0x3 PUSH2 0x100 EXP DUP2 SLOAD DUP2 PUSH20 0xFFFFFFFFFFFFFFFFFFFFFFFFFFFFFFFFFFFFFFFF MUL NOT AND SWAP1 DUP4 PUSH20 0xFFFFFFFFFFFFFFFFFFFFFFFFFFFFFFFFFFFFFFFF AND MUL OR SWAP1 SSTORE POP PUSH1 0x1 DUP2 PUSH1 0x3 ADD PUSH1 0x2 PUSH2 0x100 EXP DUP2 SLOAD DUP2 PUSH1 0xFF MUL NOT AND SWAP1 DUP4 ISZERO ISZERO MUL OR SWAP1 SSTORE POP PUSH0 PUSH20 0xFFFFFFFFFFFFFFFFFFFFFFFFFFFFFFFFFFFFFFFF AND DUP2 PUSH1 0x3 ADD PUSH1 0x3 SWAP1 SLOAD SWAP1 PUSH2 0x100 EXP SWAP1 DIV PUSH20 0xFFFFFFFFFFFFFFFFFFFFFFFFFFFFFFFFFFFFFFFF AND PUSH20 0xFFFFFFFFFFFFFFFFFFFFFFFFFFFFFFFFFFFFFFFF AND EQ DUP1 ISZERO PUSH2 0x57E JUMPI POP DUP1 PUSH1 0x3 ADD PUSH1 0x2 SWAP1 SLOAD SWAP1 PUSH2 0x100 EXP SWAP1 DIV PUSH1 0xFF AND JUMPDEST ISZERO PUSH2 0x65D JUMPI DUP1 PUSH0 ADD PUSH0 SWAP1 SLOAD SWAP1 PUSH2 0x100 EXP SWAP1 DIV PUSH20 0xFFFFFFFFFFFFFFFFFFFFFFFFFFFFFFFFFFFFFFFF AND PUSH20 0xFFFFFFFFFFFFFFFFFFFFFFFFFFFFFFFFFFFFFFFF AND PUSH2 0x8FC DUP3 PUSH1 0x2 ADD SLOAD SWAP1 DUP2 ISZERO MUL SWAP1 PUSH1 0x40 MLOAD PUSH0 PUSH1 0x40 MLOAD DUP1 DUP4 SUB DUP2 DUP6 DUP9 DUP9 CALL SWAP4 POP POP POP POP ISZERO DUP1 ISZERO PUSH2 0x5EC JUMPI RETURNDATASIZE PUSH0 DUP1 RETURNDATACOPY RETURNDATASIZE PUSH0 REVERT JUMPDEST POP DUP1 PUSH1 0x1 ADD PUSH0 SWAP1 SLOAD SWAP1 PUSH2 0x100 EXP SWAP1 DIV PUSH20 0xFFFFFFFFFFFFFFFFFFFFFFFFFFFFFFFFFFFFFFFF AND PUSH20 0xFFFFFFFFFFFFFFFFFFFFFFFFFFFFFFFFFFFFFFFF AND PUSH2 0x8FC DUP3 PUSH1 0x2 ADD SLOAD SWAP1 DUP2 ISZERO MUL SWAP1 PUSH1 0x40 MLOAD PUSH0 PUSH1 0x40 MLOAD DUP1 DUP4 SUB DUP2 DUP6 DUP9 DUP9 CALL SWAP4 POP POP POP POP ISZERO DUP1 ISZERO PUSH2 0x657 JUMPI RETURNDATASIZE PUSH0 DUP1 RETURNDATACOPY RETURNDATASIZE PUSH0 REVERT JUMPDEST POP PUSH2 0x6D6 JUMP JUMPDEST DUP1 PUSH1 0x3 ADD PUSH1 0x3 SWAP1 SLOAD SWAP1 PUSH2 0x100 EXP SWAP1 DIV PUSH20 0xFFFFFFFFFFFFFFFFFFFFFFFFFFFFFFFFFFFFFFFF AND PUSH20 0xFFFFFFFFFFFFFFFFFFFFFFFFFFFFFFFFFFFFFFFF AND PUSH2 0x8FC PUSH1 0x2 DUP4 PUSH1 0x2 ADD SLOAD PUSH2 0x6AC SWAP2 SWAP1 PUSH2 0x18BE JUMP JUMPDEST SWAP1 DUP2 ISZERO MUL SWAP1 PUSH1 0x40 MLOAD PUSH0 PUSH1 0x40 MLOAD DUP1 DUP4 SUB DUP2 DUP6 DUP9 DUP9 CALL SWAP4 POP POP POP POP ISZERO DUP1 ISZERO PUSH2 0x6D4 JUMPI RETURNDATASIZE PUSH0 DUP1 RETURNDATACOPY RETURNDATASIZE PUSH0 REVERT JUMPDEST POP JUMPDEST POP POP JUMP JUMPDEST PUSH1 0x2 PUSH0 SWAP1 SLOAD SWAP1 PUSH2 0x100 EXP SWAP1 DIV PUSH20 0xFFFFFFFFFFFFFFFFFFFFFFFFFFFFFFFFFFFFFFFF AND DUP2 JUMP JUMPDEST PUSH0 DUP1 PUSH0 DUP4 DUP2 MSTORE PUSH1 0x20 ADD SWAP1 DUP2 MSTORE PUSH1 0x20 ADD PUSH0 KECCAK256 SWAP1 POP DUP1 PUSH1 0x3 ADD PUSH1 0x2 SWAP1 SLOAD SWAP1 PUSH2 0x100 EXP SWAP1 DIV PUSH1 0xFF AND ISZERO PUSH2 0x764 JUMPI PUSH1 0x40 MLOAD PUSH32 0x8C379A000000000000000000000000000000000000000000000000000000000 DUP2 MSTORE PUSH1 0x4 ADD PUSH2 0x75B SWAP1 PUSH2 0x17CC JUMP JUMPDEST PUSH1 0x40 MLOAD DUP1 SWAP2 SUB SWAP1 REVERT JUMPDEST PUSH0 PUSH1 0x2 PUSH0 SWAP1 SLOAD SWAP1 PUSH2 0x100 EXP SWAP1 DIV PUSH20 0xFFFFFFFFFFFFFFFFFFFFFFFFFFFFFFFFFFFFFFFF AND PUSH20 0xFFFFFFFFFFFFFFFFFFFFFFFFFFFFFFFFFFFFFFFF AND PUSH4 0x460E2049 DUP5 PUSH1 0x40 MLOAD DUP3 PUSH4 0xFFFFFFFF AND PUSH1 0xE0 SHL DUP2 MSTORE PUSH1 0x4 ADD PUSH2 0x7BF SWAP2 SWAP1 PUSH2 0x15EC JUMP JUMPDEST PUSH1 0x40 DUP1 MLOAD DUP1 DUP4 SUB DUP2 DUP7 GAS STATICCALL ISZERO DUP1 ISZERO PUSH2 0x7D9 JUMPI RETURNDATASIZE PUSH0 DUP1 RETURNDATACOPY RETURNDATASIZE PUSH0 REVERT JUMPDEST POP POP POP POP PUSH1 0x40 MLOAD RETURNDATASIZE PUSH1 0x1F NOT PUSH1 0x1F DUP3 ADD AND DUP3 ADD DUP1 PUSH1 0x40 MSTORE POP DUP2 ADD SWAP1 PUSH2 0x7FD SWAP2 SWAP1 PUSH2 0x1A3D JUMP JUMPDEST SWAP1 POP PUSH0 PUSH1 0x2 PUSH0 SWAP1 SLOAD SWAP1 PUSH2 0x100 EXP SWAP1 DIV PUSH20 0xFFFFFFFFFFFFFFFFFFFFFFFFFFFFFFFFFFFFFFFF AND PUSH20 0xFFFFFFFFFFFFFFFFFFFFFFFFFFFFFFFFFFFFFFFF AND PUSH4 0x16B5551D DUP6 DUP5 PUSH0 PUSH1 0x2 DUP2 LT PUSH2 0x851 JUMPI PUSH2 0x850 PUSH2 0x1A68 JUMP JUMPDEST JUMPDEST PUSH1 0x20 MUL ADD MLOAD PUSH1 0x40 MLOAD DUP4 PUSH4 0xFFFFFFFF AND PUSH1 0xE0 SHL DUP2 MSTORE PUSH1 0x4 ADD PUSH2 0x873 SWAP3 SWAP2 SWAP1 PUSH2 0x1A95 JUMP JUMPDEST PUSH1 0x20 PUSH1 0x40 MLOAD DUP1 DUP4 SUB DUP2 DUP7 GAS STATICCALL ISZERO DUP1 ISZERO PUSH2 0x88E JUMPI RETURNDATASIZE PUSH0 DUP1 RETURNDATACOPY RETURNDATASIZE PUSH0 REVERT JUMPDEST POP POP POP POP PUSH1 0x40 MLOAD RETURNDATASIZE PUSH1 0x1F NOT PUSH1 0x1F DUP3 ADD AND DUP3 ADD DUP1 PUSH1 0x40 MSTORE POP DUP2 ADD SWAP1 PUSH2 0x8B2 SWAP2 SWAP1 PUSH2 0x1AE6 JUMP JUMPDEST SWAP1 POP PUSH0 PUSH1 0x2 PUSH0 SWAP1 SLOAD SWAP1 PUSH2 0x100 EXP SWAP1 DIV PUSH20 0xFFFFFFFFFFFFFFFFFFFFFFFFFFFFFFFFFFFFFFFF AND PUSH20 0xFFFFFFFFFFFFFFFFFFFFFFFFFFFFFFFFFFFFFFFF AND PUSH4 0x16B5551D DUP7 DUP6 PUSH1 0x1 PUSH1 0x2 DUP2 LT PUSH2 0x907 JUMPI PUSH2 0x906 PUSH2 0x1A68 JUMP JUMPDEST JUMPDEST PUSH1 0x20 MUL ADD MLOAD PUSH1 0x40 MLOAD DUP4 PUSH4 0xFFFFFFFF AND PUSH1 0xE0 SHL DUP2 MSTORE PUSH1 0x4 ADD PUSH2 0x929 SWAP3 SWAP2 SWAP1 PUSH2 0x1A95 JUMP JUMPDEST PUSH1 0x20 PUSH1 0x40 MLOAD DUP1 DUP4 SUB DUP2 DUP7 GAS STATICCALL ISZERO DUP1 ISZERO PUSH2 0x944 JUMPI RETURNDATASIZE PUSH0 DUP1 RETURNDATACOPY RETURNDATASIZE PUSH0 REVERT JUMPDEST POP POP POP POP PUSH1 0x40 MLOAD RETURNDATASIZE PUSH1 0x1F NOT PUSH1 0x1F DUP3 ADD AND DUP3 ADD DUP1 PUSH1 0x40 MSTORE POP DUP2 ADD SWAP1 PUSH2 0x968 SWAP2 SWAP1 PUSH2 0x1AE6 JUMP JUMPDEST SWAP1 POP PUSH0 PUSH1 0x2 PUSH0 SWAP1 SLOAD SWAP1 PUSH2 0x100 EXP SWAP1 DIV PUSH20 0xFFFFFFFFFFFFFFFFFFFFFFFFFFFFFFFFFFFFFFFF AND PUSH20 0xFFFFFFFFFFFFFFFFFFFFFFFFFFFFFFFFFFFFFFFF AND PUSH4 0x907AF75 DUP8 PUSH1 0x40 MLOAD DUP3 PUSH4 0xFFFFFFFF AND PUSH1 0xE0 SHL DUP2 MSTORE PUSH1 0x4 ADD PUSH2 0x9C5 SWAP2 SWAP1 PUSH2 0x15EC JUMP JUMPDEST PUSH1 0x20 PUSH1 0x40 MLOAD DUP1 DUP4 SUB DUP2 DUP7 GAS STATICCALL ISZERO DUP1 ISZERO PUSH2 0x9E0 JUMPI RETURNDATASIZE PUSH0 DUP1 RETURNDATACOPY RETURNDATASIZE PUSH0 REVERT JUMPDEST POP POP POP POP PUSH1 0x40 MLOAD RETURNDATASIZE PUSH1 0x1F NOT PUSH1 0x1F DUP3 ADD AND DUP3 ADD DUP1 PUSH1 0x40 MSTORE POP DUP2 ADD SWAP1 PUSH2 0xA04 SWAP2 SWAP1 PUSH2 0x1B25 JUMP JUMPDEST SWAP1 POP PUSH0 DUP2 GT DUP1 ISZERO PUSH2 0xA21 JUMPI POP PUSH2 0x258 DUP2 PUSH2 0xA1E SWAP2 SWAP1 PUSH2 0x1B50 JUMP JUMPDEST TIMESTAMP GT JUMPDEST PUSH2 0xA60 JUMPI PUSH1 0x40 MLOAD PUSH32 0x8C379A000000000000000000000000000000000000000000000000000000000 DUP2 MSTORE PUSH1 0x4 ADD PUSH2 0xA57 SWAP1 PUSH2 0x1BCD JUMP JUMPDEST PUSH1 0x40 MLOAD DUP1 SWAP2 SUB SWAP1 REVERT JUMPDEST PUSH1 0x1 DUP6 PUSH1 0x3 ADD PUSH1 0x2 PUSH2 0x100 EXP DUP2 SLOAD DUP2 PUSH1 0xFF MUL NOT AND SWAP1 DUP4 ISZERO ISZERO MUL OR SWAP1 SSTORE POP DUP3 DUP1 ISZERO PUSH2 0xA88 JUMPI POP DUP2 ISZERO JUMPDEST ISZERO PUSH2 0xB57 JUMPI DUP4 PUSH0 PUSH1 0x2 DUP2 LT PUSH2 0xAA0 JUMPI PUSH2 0xA9F PUSH2 0x1A68 JUMP JUMPDEST JUMPDEST PUSH1 0x20 MUL ADD MLOAD DUP6 PUSH1 0x3 ADD PUSH1 0x3 PUSH2 0x100 EXP DUP2 SLOAD DUP2 PUSH20 0xFFFFFFFFFFFFFFFFFFFFFFFFFFFFFFFFFFFFFFFF MUL NOT AND SWAP1 DUP4 PUSH20 0xFFFFFFFFFFFFFFFFFFFFFFFFFFFFFFFFFFFFFFFF AND MUL OR SWAP1 SSTORE POP DUP4 PUSH0 PUSH1 0x2 DUP2 LT PUSH2 0xAFA JUMPI PUSH2 0xAF9 PUSH2 0x1A68 JUMP JUMPDEST JUMPDEST PUSH1 0x20 MUL ADD MLOAD PUSH20 0xFFFFFFFFFFFFFFFFFFFFFFFFFFFFFFFFFFFFFFFF AND PUSH2 0x8FC PUSH1 0x2 DUP8 PUSH1 0x2 ADD SLOAD PUSH2 0xB29 SWAP2 SWAP1 PUSH2 0x18BE JUMP JUMPDEST SWAP1 DUP2 ISZERO MUL SWAP1 PUSH1 0x40 MLOAD PUSH0 PUSH1 0x40 MLOAD DUP1 DUP4 SUB DUP2 DUP6 DUP9 DUP9 CALL SWAP4 POP POP POP POP ISZERO DUP1 ISZERO PUSH2 0xB51 JUMPI RETURNDATASIZE PUSH0 DUP1 RETURNDATACOPY RETURNDATASIZE PUSH0 REVERT JUMPDEST POP PUSH2 0xCF4 JUMP JUMPDEST DUP2 DUP1 ISZERO PUSH2 0xB62 JUMPI POP DUP3 ISZERO JUMPDEST ISZERO PUSH2 0xC33 JUMPI DUP4 PUSH1 0x1 PUSH1 0x2 DUP2 LT PUSH2 0xB7B JUMPI PUSH2 0xB7A PUSH2 0x1A68 JUMP JUMPDEST JUMPDEST PUSH1 0x20 MUL ADD MLOAD DUP6 PUSH1 0x3 ADD PUSH1 0x3 PUSH2 0x100 EXP DUP2 SLOAD DUP2 PUSH20 0xFFFFFFFFFFFFFFFFFFFFFFFFFFFFFFFFFFFFFFFF MUL NOT AND SWAP1 DUP4 PUSH20 0xFFFFFFFFFFFFFFFFFFFFFFFFFFFFFFFFFFFFFFFF AND MUL OR SWAP1 SSTORE POP DUP4 PUSH1 0x1 PUSH1 0x2 DUP2 LT PUSH2 0xBD6 JUMPI PUSH2 0xBD5 PUSH2 0x1A68 JUMP JUMPDEST JUMPDEST PUSH1 0x20 MUL ADD MLOAD PUSH20 0xFFFFFFFFFFFFFFFFFFFFFFFFFFFFFFFFFFFFFFFF AND PUSH2 0x8FC PUSH1 0x2 DUP8 PUSH1 0x2 ADD SLOAD PUSH2 0xC05 SWAP2 SWAP1 PUSH2 0x18BE JUMP JUMPDEST SWAP1 DUP2 ISZERO MUL SWAP1 PUSH1 0x40 MLOAD PUSH0 PUSH1 0x40 MLOAD DUP1 DUP4 SUB DUP2 DUP6 DUP9 DUP9 CALL SWAP4 POP POP POP POP ISZERO DUP1 ISZERO PUSH2 0xC2D JUMPI RETURNDATASIZE PUSH0 DUP1 RETURNDATACOPY RETURNDATASIZE PUSH0 REVERT JUMPDEST POP PUSH2 0xCF3 JUMP JUMPDEST DUP4 PUSH0 PUSH1 0x2 DUP2 LT PUSH2 0xC46 JUMPI PUSH2 0xC45 PUSH2 0x1A68 JUMP JUMPDEST JUMPDEST PUSH1 0x20 MUL ADD MLOAD PUSH20 0xFFFFFFFFFFFFFFFFFFFFFFFFFFFFFFFFFFFFFFFF AND PUSH2 0x8FC DUP7 PUSH1 0x2 ADD SLOAD SWAP1 DUP2 ISZERO MUL SWAP1 PUSH1 0x40 MLOAD PUSH0 PUSH1 0x40 MLOAD DUP1 DUP4 SUB DUP2 DUP6 DUP9 DUP9 CALL SWAP4 POP POP POP POP ISZERO DUP1 ISZERO PUSH2 0xC91 JUMPI RETURNDATASIZE PUSH0 DUP1 RETURNDATACOPY RETURNDATASIZE PUSH0 REVERT JUMPDEST POP DUP4 PUSH1 0x1 PUSH1 0x2 DUP2 LT PUSH2 0xCA6 JUMPI PUSH2 0xCA5 PUSH2 0x1A68 JUMP JUMPDEST JUMPDEST PUSH1 0x20 MUL ADD MLOAD PUSH20 0xFFFFFFFFFFFFFFFFFFFFFFFFFFFFFFFFFFFFFFFF AND PUSH2 0x8FC DUP7 PUSH1 0x2 ADD SLOAD SWAP1 DUP2 ISZERO MUL SWAP1 PUSH1 0x40 MLOAD PUSH0 PUSH1 0x40 MLOAD DUP1 DUP4 SUB DUP2 DUP6 DUP9 DUP9 CALL SWAP4 POP POP POP POP ISZERO DUP1 ISZERO PUSH2 0xCF1 JUMPI RETURNDATASIZE PUSH0 DUP1 RETURNDATACOPY RETURNDATASIZE PUSH0 REVERT JUMPDEST POP JUMPDEST JUMPDEST POP POP POP POP POP POP JUMP JUMPDEST PUSH1 0x1 SLOAD DUP2 JUMP JUMPDEST PUSH0 DUP1 CALLVALUE SUB PUSH2 0xD3C JUMPI PUSH1 0x40 MLOAD PUSH32 0x583AA02600000000000000000000000000000000000000000000000000000000 DUP2 MSTORE PUSH1 0x4 ADD PUSH1 0x40 MLOAD DUP1 SWAP2 SUB SWAP1 REVERT JUMPDEST DUP2 PUSH20 0xFFFFFFFFFFFFFFFFFFFFFFFFFFFFFFFFFFFFFFFF AND CALLER PUSH20 0xFFFFFFFFFFFFFFFFFFFFFFFFFFFFFFFFFFFFFFFF AND SUB PUSH2 0xDA1 JUMPI PUSH1 0x40 MLOAD PUSH32 0xE8A471C00000000000000000000000000000000000000000000000000000000 DUP2 MSTORE PUSH1 0x4 ADD PUSH1 0x40 MLOAD DUP1 SWAP2 SUB SWAP1 REVERT JUMPDEST PUSH1 0x1 PUSH0 DUP2 SLOAD DUP1 SWAP3 SWAP2 SWAP1 PUSH2 0xDB3 SWAP1 PUSH2 0x1BEB JUMP JUMPDEST SWAP2 SWAP1 POP SSTORE POP PUSH1 0x40 MLOAD DUP1 PUSH1 0xE0 ADD PUSH1 0x40 MSTORE DUP1 CALLER PUSH20 0xFFFFFFFFFFFFFFFFFFFFFFFFFFFFFFFFFFFFFFFF AND DUP2 MSTORE PUSH1 0x20 ADD DUP4 PUSH20 0xFFFFFFFFFFFFFFFFFFFFFFFFFFFFFFFFFFFFFFFF AND DUP2 MSTORE PUSH1 0x20 ADD CALLVALUE DUP2 MSTORE PUSH1 0x20 ADD PUSH1 0x1 ISZERO ISZERO DUP2 MSTORE PUSH1 0x20 ADD PUSH0 ISZERO ISZERO DUP2 MSTORE PUSH1 0x20 ADD PUSH0 ISZERO ISZERO DUP2 MSTORE PUSH1 0x20 ADD PUSH0 PUSH20 0xFFFFFFFFFFFFFFFFFFFFFFFFFFFFFFFFFFFFFFFF AND DUP2 MSTORE POP PUSH0 DUP1 DUP4 DUP2 MSTORE PUSH1 0x20 ADD SWAP1 DUP2 MSTORE PUSH1 0x20 ADD PUSH0 KECCAK256 PUSH0 DUP3 ADD MLOAD DUP2 PUSH0 ADD PUSH0 PUSH2 0x100 EXP DUP2 SLOAD DUP2 PUSH20 0xFFFFFFFFFFFFFFFFFFFFFFFFFFFFFFFFFFFFFFFF MUL NOT AND SWAP1 DUP4 PUSH20 0xFFFFFFFFFFFFFFFFFFFFFFFFFFFFFFFFFFFFFFFF AND MUL OR SWAP1 SSTORE POP PUSH1 0x20 DUP3 ADD MLOAD DUP2 PUSH1 0x1 ADD PUSH0 PUSH2 0x100 EXP DUP2 SLOAD DUP2 PUSH20 0xFFFFFFFFFFFFFFFFFFFFFFFFFFFFFFFFFFFFFFFF MUL NOT AND SWAP1 DUP4 PUSH20 0xFFFFFFFFFFFFFFFFFFFFFFFFFFFFFFFFFFFFFFFF AND MUL OR SWAP1 SSTORE POP PUSH1 0x40 DUP3 ADD MLOAD DUP2 PUSH1 0x2 ADD SSTORE PUSH1 0x60 DUP3 ADD MLOAD DUP2 PUSH1 0x3 ADD PUSH0 PUSH2 0x100 EXP DUP2 SLOAD DUP2 PUSH1 0xFF MUL NOT AND SWAP1 DUP4 ISZERO ISZERO MUL OR SWAP1 SSTORE POP PUSH1 0x80 DUP3 ADD MLOAD DUP2 PUSH1 0x3 ADD PUSH1 0x1 PUSH2 0x100 EXP DUP2 SLOAD DUP2 PUSH1 0xFF MUL NOT AND SWAP1 DUP4 ISZERO ISZERO MUL OR SWAP1 SSTORE POP PUSH1 0xA0 DUP3 ADD MLOAD DUP2 PUSH1 0x3 ADD PUSH1 0x2 PUSH2 0x100 EXP DUP2 SLOAD DUP2 PUSH1 0xFF MUL NOT AND SWAP1 DUP4 ISZERO ISZERO MUL OR SWAP1 SSTORE POP PUSH1 0xC0 DUP3 ADD MLOAD DUP2 PUSH1 0x3 ADD PUSH1 0x3 PUSH2 0x100 EXP DUP2 SLOAD DUP2 PUSH20 0xFFFFFFFFFFFFFFFFFFFFFFFFFFFFFFFFFFFFFFFF MUL NOT AND SWAP1 DUP4 PUSH20 0xFFFFFFFFFFFFFFFFFFFFFFFFFFFFFFFFFFFFFFFF AND MUL OR SWAP1 SSTORE POP SWAP1 POP POP DUP2 PUSH20 0xFFFFFFFFFFFFFFFFFFFFFFFFFFFFFFFFFFFFFFFF AND CALLER PUSH20 0xFFFFFFFFFFFFFFFFFFFFFFFFFFFFFFFFFFFFFFFF AND DUP3 PUSH32 0xACC6A963A1E2D25AE5A02C89235769180842C7B739129172646B06516A75B81A CALLVALUE PUSH1 0x40 MLOAD PUSH2 0xFDF SWAP2 SWAP1 PUSH2 0x15EC JUMP JUMPDEST PUSH1 0x40 MLOAD DUP1 SWAP2 SUB SWAP1 LOG4 SWAP2 SWAP1 POP JUMP JUMPDEST PUSH2 0x258 DUP2 JUMP JUMPDEST PUSH0 PUSH20 0xFFFFFFFFFFFFFFFFFFFFFFFFFFFFFFFFFFFFFFFF AND PUSH1 0x2 PUSH0 SWAP1 SLOAD SWAP1 PUSH2 0x100 EXP SWAP1 DIV PUSH20 0xFFFFFFFFFFFFFFFFFFFFFFFFFFFFFFFFFFFFFFFF AND PUSH20 0xFFFFFFFFFFFFFFFFFFFFFFFFFFFFFFFFFFFFFFFF AND EQ PUSH2 0x1081 JUMPI PUSH1 0x40 MLOAD PUSH32 0x8C379A000000000000000000000000000000000000000000000000000000000 DUP2 MSTORE PUSH1 0x4 ADD PUSH2 0x1078 SWAP1 PUSH2 0x1C7C JUMP JUMPDEST PUSH1 0x40 MLOAD DUP1 SWAP2 SUB SWAP1 REVERT JUMPDEST DUP1 PUSH1 0x2 PUSH0 PUSH2 0x100 EXP DUP2 SLOAD DUP2 PUSH20 0xFFFFFFFFFFFFFFFFFFFFFFFFFFFFFFFFFFFFFFFF MUL NOT AND SWAP1 DUP4 PUSH20 0xFFFFFFFFFFFFFFFFFFFFFFFFFFFFFFFFFFFFFFFF AND MUL OR SWAP1 SSTORE POP POP JUMP JUMPDEST PUSH0 PUSH1 0x20 MSTORE DUP1 PUSH0 MSTORE PUSH1 0x40 PUSH0 KECCAK256 PUSH0 SWAP2 POP SWAP1 POP DUP1 PUSH0 ADD PUSH0 SWAP1 SLOAD SWAP1 PUSH2 0x100 EXP SWAP1 DIV PUSH20 0xFFFFFFFFFFFFFFFFFFFFFFFFFFFFFFFFFFFFFFFF AND SWAP1 DUP1 PUSH1 0x1 ADD PUSH0 SWAP1 SLOAD SWAP1 PUSH2 0x100 EXP SWAP1 DIV PUSH20 0xFFFFFFFFFFFFFFFFFFFFFFFFFFFFFFFFFFFFFFFF AND SWAP1 DUP1 PUSH1 0x2 ADD SLOAD SWAP1 DUP1 PUSH1 0x3 ADD PUSH0 SWAP1 SLOAD SWAP1 PUSH2 0x100 EXP SWAP1 DIV PUSH1 0xFF AND SWAP1 DUP1 PUSH1 0x3 ADD PUSH1 0x1 SWAP1 SLOAD SWAP1 PUSH2 0x100 EXP SWAP1 DIV PUSH1 0xFF AND SWAP1 DUP1 PUSH1 0x3 ADD PUSH1 0x2 SWAP1 SLOAD SWAP1 PUSH2 0x100 EXP SWAP1 DIV PUSH1 0xFF AND SWAP1 DUP1 PUSH1 0x3 ADD PUSH1 0x3 SWAP1 SLOAD SWAP1 PUSH2 0x100 EXP SWAP1 DIV PUSH20 0xFFFFFFFFFFFFFFFFFFFFFFFFFFFFFFFFFFFFFFFF AND SWAP1 POP DUP8 JUMP JUMPDEST PUSH0 DUP1 PUSH0 DUP4 DUP2 MSTORE PUSH1 0x20 ADD SWAP1 DUP2 MSTORE PUSH1 0x20 ADD PUSH0 KECCAK256 SWAP1 POP DUP1 PUSH1 0x1 ADD PUSH0 SWAP1 SLOAD SWAP1 PUSH2 0x100 EXP SWAP1 DIV PUSH20 0xFFFFFFFFFFFFFFFFFFFFFFFFFFFFFFFFFFFFFFFF AND PUSH20 0xFFFFFFFFFFFFFFFFFFFFFFFFFFFFFFFFFFFFFFFF AND CALLER PUSH20 0xFFFFFFFFFFFFFFFFFFFFFFFFFFFFFFFFFFFFFFFF AND EQ PUSH2 0x1220 JUMPI PUSH1 0x40 MLOAD PUSH32 0xE8A471C00000000000000000000000000000000000000000000000000000000 DUP2 MSTORE PUSH1 0x4 ADD PUSH1 0x40 MLOAD DUP1 SWAP2 SUB SWAP1 REVERT JUMPDEST DUP1 PUSH1 0x3 ADD PUSH1 0x1 SWAP1 SLOAD SWAP1 PUSH2 0x100 EXP SWAP1 DIV PUSH1 0xFF AND ISZERO PUSH2 0x1269 JUMPI PUSH1 0x40 MLOAD PUSH32 0xBD68B4F400000000000000000000000000000000000000000000000000000000 DUP2 MSTORE PUSH1 0x4 ADD PUSH1 0x40 MLOAD DUP1 SWAP2 SUB SWAP1 REVERT JUMPDEST DUP1 PUSH1 0x2 ADD SLOAD CALLVALUE EQ PUSH2 0x12A6 JUMPI PUSH1 0x40 MLOAD PUSH32 0x583AA02600000000000000000000000000000000000000000000000000000000 DUP2 MSTORE PUSH1 0x4 ADD PUSH1 0x40 MLOAD DUP1 SWAP2 SUB SWAP1 REVERT JUMPDEST PUSH1 0x1 DUP2 PUSH1 0x3 ADD PUSH1 0x1 PUSH2 0x100 EXP DUP2 SLOAD DUP2 PUSH1 0xFF MUL NOT AND SWAP1 DUP4 ISZERO ISZERO MUL OR SWAP1 SSTORE POP PUSH1 0x2 PUSH0 SWAP1 SLOAD SWAP1 PUSH2 0x100 EXP SWAP1 DIV PUSH20 0xFFFFFFFFFFFFFFFFFFFFFFFFFFFFFFFFFFFFFFFF AND PUSH20 0xFFFFFFFFFFFFFFFFFFFFFFFFFFFFFFFFFFFFFFFF AND PUSH4 0x4400E01C DUP4 DUP4 PUSH0 ADD PUSH0 SWAP1 SLOAD SWAP1 PUSH2 0x100 EXP SWAP1 DIV PUSH20 0xFFFFFFFFFFFFFFFFFFFFFFFFFFFFFFFFFFFFFFFF AND DUP5 PUSH1 0x1 ADD PUSH0 SWAP1 SLOAD SWAP1 PUSH2 0x100 EXP SWAP1 DIV PUSH20 0xFFFFFFFFFFFFFFFFFFFFFFFFFFFFFFFFFFFFFFFF AND PUSH1 0x40 MLOAD DUP5 PUSH4 0xFFFFFFFF AND PUSH1 0xE0 SHL DUP2 MSTORE PUSH1 0x4 ADD PUSH2 0x1366 SWAP4 SWAP3 SWAP2 SWAP1 PUSH2 0x1C9A JUMP JUMPDEST PUSH0 PUSH1 0x40 MLOAD DUP1 DUP4 SUB DUP2 PUSH0 DUP8 DUP1 EXTCODESIZE ISZERO DUP1 ISZERO PUSH2 0x137D JUMPI PUSH0 DUP1 REVERT JUMPDEST POP GAS CALL ISZERO DUP1 ISZERO PUSH2 0x138F JUMPI RETURNDATASIZE PUSH0 DUP1 RETURNDATACOPY RETURNDATASIZE PUSH0 REVERT JUMPDEST POP POP POP POP CALLER PUSH20 0xFFFFFFFFFFFFFFFFFFFFFFFFFFFFFFFFFFFFFFFF AND DUP3 PUSH32 0xB90D7860E7ED9F46C97474267293BCB676D538B9E41122E100386F10601A9122 PUSH1 0x40 MLOAD PUSH1 0x40 MLOAD DUP1 SWAP2 SUB SWAP1 LOG3 POP POP JUMP JUMPDEST PUSH32 0x0 DUP2 JUMP JUMPDEST PUSH0 DUP3 DUP3 MSTORE PUSH1 0x20 DUP3 ADD SWAP1 POP SWAP3 SWAP2 POP POP JUMP JUMPDEST PUSH32 0x557365206372656174654475656C206F72206163636570744475656C00000000 PUSH0 DUP3 ADD MSTORE POP JUMP JUMPDEST PUSH0 PUSH2 0x1443 PUSH1 0x1C DUP4 PUSH2 0x13FF JUMP JUMPDEST SWAP2 POP PUSH2 0x144E DUP3 PUSH2 0x140F JUMP JUMPDEST PUSH1 0x20 DUP3 ADD SWAP1 POP SWAP2 SWAP1 POP JUMP JUMPDEST PUSH0 PUSH1 0x20 DUP3 ADD SWAP1 POP DUP2 DUP2 SUB PUSH0 DUP4 ADD MSTORE PUSH2 0x1470 DUP2 PUSH2 0x1437 JUMP JUMPDEST SWAP1 POP SWAP2 SWAP1 POP JUMP JUMPDEST PUSH32 0x496E76616C69642066756E6374696F6E2063616C6C0000000000000000000000 PUSH0 DUP3 ADD MSTORE POP JUMP JUMPDEST PUSH0 PUSH2 0x14AB PUSH1 0x15 DUP4 PUSH2 0x13FF JUMP JUMPDEST SWAP2 POP PUSH2 0x14B6 DUP3 PUSH2 0x1477 JUMP JUMPDEST PUSH1 0x20 DUP3 ADD SWAP1 POP SWAP2 SWAP1 POP JUMP JUMPDEST PUSH0 PUSH1 0x20 DUP3 ADD SWAP1 POP DUP2 DUP2 SUB PUSH0 DUP4 ADD MSTORE PUSH2 0x14D8 DUP2 PUSH2 0x149F JUMP JUMPDEST SWAP1 POP SWAP2 SWAP1 POP JUMP JUMPDEST PUSH0 PUSH1 0x40 MLOAD SWAP1 POP SWAP1 JUMP JUMPDEST PUSH0 DUP1 REVERT JUMPDEST PUSH0 DUP2 SWAP1 POP SWAP2 SWAP1 POP JUMP JUMPDEST PUSH2 0x14FE DUP2 PUSH2 0x14EC JUMP JUMPDEST DUP2 EQ PUSH2 0x1508 JUMPI PUSH0 DUP1 REVERT JUMPDEST POP JUMP JUMPDEST PUSH0 DUP2 CALLDATALOAD SWAP1 POP PUSH2 0x1519 DUP2 PUSH2 0x14F5 JUMP JUMPDEST SWAP3 SWAP2 POP POP JUMP JUMPDEST PUSH0 PUSH1 0x20 DUP3 DUP5 SUB SLT ISZERO PUSH2 0x1534 JUMPI PUSH2 0x1533 PUSH2 0x14E8 JUMP JUMPDEST JUMPDEST PUSH0 PUSH2 0x1541 DUP5 DUP3 DUP6 ADD PUSH2 0x150B JUMP JUMPDEST SWAP2 POP POP SWAP3 SWAP2 POP POP JUMP JUMPDEST PUSH0 PUSH20 0xFFFFFFFFFFFFFFFFFFFFFFFFFFFFFFFFFFFFFFFF DUP3 AND SWAP1 POP SWAP2 SWAP1 POP JUMP JUMPDEST PUSH0 DUP2 SWAP1 POP SWAP2 SWAP1 POP JUMP JUMPDEST PUSH0 PUSH2 0x158C PUSH2 0x1587 PUSH2 0x1582 DUP5 PUSH2 0x154A JUMP JUMPDEST PUSH2 0x1569 JUMP JUMPDEST PUSH2 0x154A JUMP JUMPDEST SWAP1 POP SWAP2 SWAP1 POP JUMP JUMPDEST PUSH0 PUSH2 0x159D DUP3 PUSH2 0x1572 JUMP JUMPDEST SWAP1 POP SWAP2 SWAP1 POP JUMP JUMPDEST PUSH0 PUSH2 0x15AE DUP3 PUSH2 0x1593 JUMP JUMPDEST SWAP1 POP SWAP2 SWAP1 POP JUMP JUMPDEST PUSH2 0x15BE DUP2 PUSH2 0x15A4 JUMP JUMPDEST DUP3 MSTORE POP POP JUMP JUMPDEST PUSH0 PUSH1 0x20 DUP3 ADD SWAP1 POP PUSH2 0x15D7 PUSH0 DUP4 ADD DUP5 PUSH2 0x15B5 JUMP JUMPDEST SWAP3 SWAP2 POP POP JUMP JUMPDEST PUSH2 0x15E6 DUP2 PUSH2 0x14EC JUMP JUMPDEST DUP3 MSTORE POP POP JUMP JUMPDEST PUSH0 PUSH1 0x20 DUP3 ADD SWAP1 POP PUSH2 0x15FF PUSH0 DUP4 ADD DUP5 PUSH2 0x15DD JUMP JUMPDEST SWAP3 SWAP2 POP POP JUMP JUMPDEST PUSH0 PUSH2 0x160F DUP3 PUSH2 0x154A JUMP JUMPDEST SWAP1 POP SWAP2 SWAP1 POP JUMP JUMPDEST PUSH2 0x161F DUP2 PUSH2 0x1605 JUMP JUMPDEST DUP2 EQ PUSH2 0x1629 JUMPI PUSH0 DUP1 REVERT JUMPDEST POP JUMP JUMPDEST PUSH0 DUP2 CALLDATALOAD SWAP1 POP PUSH2 0x163A DUP2 PUSH2 0x1616 JUMP JUMPDEST SWAP3 SWAP2 POP POP JUMP JUMPDEST PUSH0 PUSH1 0x20 DUP3 DUP5 SUB SLT ISZERO PUSH2 0x1655 JUMPI PUSH2 0x1654 PUSH2 0x14E8 JUMP JUMPDEST JUMPDEST PUSH0 PUSH2 0x1662 DUP5 DUP3 DUP6 ADD PUSH2 0x162C JUMP JUMPDEST SWAP2 POP POP SWAP3 SWAP2 POP POP JUMP JUMPDEST PUSH2 0x1674 DUP2 PUSH2 0x1605 JUMP JUMPDEST DUP3 MSTORE POP POP JUMP JUMPDEST PUSH0 DUP2 ISZERO ISZERO SWAP1 POP SWAP2 SWAP1 POP JUMP JUMPDEST PUSH2 0x168E DUP2 PUSH2 0x167A JUMP JUMPDEST DUP3 MSTORE POP POP JUMP JUMPDEST PUSH0 PUSH1 0xE0 DUP3 ADD SWAP1 POP PUSH2 0x16A7 PUSH0 DUP4 ADD DUP11 PUSH2 0x166B JUMP JUMPDEST PUSH2 0x16B4 PUSH1 0x20 DUP4 ADD DUP10 PUSH2 0x166B JUMP JUMPDEST PUSH2 0x16C1 PUSH1 0x40 DUP4 ADD DUP9 PUSH2 0x15DD JUMP JUMPDEST PUSH2 0x16CE PUSH1 0x60 DUP4 ADD DUP8 PUSH2 0x1685 JUMP JUMPDEST PUSH2 0x16DB PUSH1 0x80 DUP4 ADD DUP7 PUSH2 0x1685 JUMP JUMPDEST PUSH2 0x16E8 PUSH1 0xA0 DUP4 ADD DUP6 PUSH2 0x1685 JUMP JUMPDEST PUSH2 0x16F5 PUSH1 0xC0 DUP4 ADD DUP5 PUSH2 0x166B JUMP JUMPDEST SWAP9 SWAP8 POP POP POP POP POP POP POP POP JUMP JUMPDEST PUSH0 PUSH1 0x20 DUP3 ADD SWAP1 POP PUSH2 0x1714 PUSH0 DUP4 ADD DUP5 PUSH2 0x166B JUMP JUMPDEST SWAP3 SWAP2 POP POP JUMP JUMPDEST PUSH32 0x4F6E6C7920617262697465720000000000000000000000000000000000000000 PUSH0 DUP3 ADD MSTORE POP JUMP JUMPDEST PUSH0 PUSH2 0x174E PUSH1 0xC DUP4 PUSH2 0x13FF JUMP JUMPDEST SWAP2 POP PUSH2 0x1759 DUP3 PUSH2 0x171A JUMP JUMPDEST PUSH1 0x20 DUP3 ADD SWAP1 POP SWAP2 SWAP1 POP JUMP JUMPDEST PUSH0 PUSH1 0x20 DUP3 ADD SWAP1 POP DUP2 DUP2 SUB PUSH0 DUP4 ADD MSTORE PUSH2 0x177B DUP2 PUSH2 0x1742 JUMP JUMPDEST SWAP1 POP SWAP2 SWAP1 POP JUMP JUMPDEST PUSH32 0x416C7265616479207265736F6C76656400000000000000000000000000000000 PUSH0 DUP3 ADD MSTORE POP JUMP JUMPDEST PUSH0 PUSH2 0x17B6 PUSH1 0x10 DUP4 PUSH2 0x13FF JUMP JUMPDEST SWAP2 POP PUSH2 0x17C1 DUP3 PUSH2 0x1782 JUMP JUMPDEST PUSH1 0x20 DUP3 ADD SWAP1 POP SWAP2 SWAP1 POP JUMP JUMPDEST PUSH0 PUSH1 0x20 DUP3 ADD SWAP1 POP DUP2 DUP2 SUB PUSH0 DUP4 ADD MSTORE PUSH2 0x17E3 DUP2 PUSH2 0x17AA JUMP JUMPDEST SWAP1 POP SWAP2 SWAP1 POP JUMP JUMPDEST PUSH32 0x4E6F742072656164790000000000000000000000000000000000000000000000 PUSH0 DUP3 ADD MSTORE POP JUMP JUMPDEST PUSH0 PUSH2 0x181E PUSH1 0x9 DUP4 PUSH2 0x13FF JUMP JUMPDEST SWAP2 POP PUSH2 0x1829 DUP3 PUSH2 0x17EA JUMP JUMPDEST PUSH1 0x20 DUP3 ADD SWAP1 POP SWAP2 SWAP1 POP JUMP JUMPDEST PUSH0 PUSH1 0x20 DUP3 ADD SWAP1 POP DUP2 DUP2 SUB PUSH0 DUP4 ADD MSTORE PUSH2 0x184B DUP2 PUSH2 0x1812 JUMP JUMPDEST SWAP1 POP SWAP2 SWAP1 POP JUMP JUMPDEST PUSH0 DUP2 MLOAD SWAP1 POP PUSH2 0x1860 DUP2 PUSH2 0x1616 JUMP JUMPDEST SWAP3 SWAP2 POP POP JUMP JUMPDEST PUSH0 PUSH1 0x20 DUP3 DUP5 SUB SLT ISZERO PUSH2 0x187B JUMPI PUSH2 0x187A PUSH2 0x14E8 JUMP JUMPDEST JUMPDEST PUSH0 PUSH2 0x1888 DUP5 DUP3 DUP6 ADD PUSH2 0x1852 JUMP JUMPDEST SWAP2 POP POP SWAP3 SWAP2 POP POP JUMP JUMPDEST PUSH32 0x4E487B7100000000000000000000000000000000000000000000000000000000 PUSH0 MSTORE PUSH1 0x11 PUSH1 0x4 MSTORE PUSH1 0x24 PUSH0 REVERT JUMPDEST PUSH0 PUSH2 0x18C8 DUP3 PUSH2 0x14EC JUMP JUMPDEST SWAP2 POP PUSH2 0x18D3 DUP4 PUSH2 0x14EC JUMP JUMPDEST SWAP3 POP DUP3 DUP3 MUL PUSH2 0x18E1 DUP2 PUSH2 0x14EC JUMP JUMPDEST SWAP2 POP DUP3 DUP3 DIV DUP5 EQ DUP4 ISZERO OR PUSH2 0x18F8 JUMPI PUSH2 0x18F7 PUSH2 0x1891 JUMP JUMPDEST JUMPDEST POP SWAP3 SWAP2 POP POP JUMP JUMPDEST PUSH0 DUP1 REVERT JUMPDEST PUSH0 PUSH1 0x1F NOT PUSH1 0x1F DUP4 ADD AND SWAP1 POP SWAP2 SWAP1 POP JUMP JUMPDEST PUSH32 0x4E487B7100000000000000000000000000000000000000000000000000000000 PUSH0 MSTORE PUSH1 0x41 PUSH1 0x4 MSTORE PUSH1 0x24 PUSH0 REVERT JUMPDEST PUSH2 0x1949 DUP3 PUSH2 0x1903 JUMP JUMPDEST DUP2 ADD DUP2 DUP2 LT PUSH8 0xFFFFFFFFFFFFFFFF DUP3 GT OR ISZERO PUSH2 0x1968 JUMPI PUSH2 0x1967 PUSH2 0x1913 JUMP JUMPDEST JUMPDEST DUP1 PUSH1 0x40 MSTORE POP POP POP JUMP JUMPDEST PUSH0 PUSH2 0x197A PUSH2 0x14DF JUMP JUMPDEST SWAP1 POP PUSH2 0x1986 DUP3 DUP3 PUSH2 0x1940 JUMP JUMPDEST SWAP2 SWAP1 POP JUMP JUMPDEST PUSH0 PUSH8 0xFFFFFFFFFFFFFFFF DUP3 GT ISZERO PUSH2 0x19A5 JUMPI PUSH2 0x19A4 PUSH2 0x1913 JUMP JUMPDEST JUMPDEST PUSH1 0x20 DUP3 MUL SWAP1 POP SWAP2 SWAP1 POP JUMP JUMPDEST PUSH0 DUP1 REVERT JUMPDEST PUSH0 PUSH2 0x19C6 PUSH2 0x19C1 DUP5 PUSH2 0x198B JUMP JUMPDEST PUSH2 0x1971 JUMP JUMPDEST SWAP1 POP DUP1 PUSH1 0x20 DUP5 MUL DUP4 ADD DUP6 DUP2 GT ISZERO PUSH2 0x19E0 JUMPI PUSH2 0x19DF PUSH2 0x19B0 JUMP JUMPDEST JUMPDEST DUP4 JUMPDEST DUP2 DUP2 LT ISZERO PUSH2 0x1A09 JUMPI DUP1 PUSH2 0x19F5 DUP9 DUP3 PUSH2 0x1852 JUMP JUMPDEST DUP5 MSTORE PUSH1 0x20 DUP5 ADD SWAP4 POP POP PUSH1 0x20 DUP2 ADD SWAP1 POP PUSH2 0x19E2 JUMP JUMPDEST POP POP POP SWAP4 SWAP3 POP POP POP JUMP JUMPDEST PUSH0 DUP3 PUSH1 0x1F DUP4 ADD SLT PUSH2 0x1A27 JUMPI PUSH2 0x1A26 PUSH2 0x18FF JUMP JUMPDEST JUMPDEST PUSH1 0x2 PUSH2 0x1A34 DUP5 DUP3 DUP6 PUSH2 0x19B4 JUMP JUMPDEST SWAP2 POP POP SWAP3 SWAP2 POP POP JUMP JUMPDEST PUSH0 PUSH1 0x40 DUP3 DUP5 SUB SLT ISZERO PUSH2 0x1A52 JUMPI PUSH2 0x1A51 PUSH2 0x14E8 JUMP JUMPDEST JUMPDEST PUSH0 PUSH2 0x1A5F DUP5 DUP3 DUP6 ADD PUSH2 0x1A13 JUMP JUMPDEST SWAP2 POP POP SWAP3 SWAP2 POP POP JUMP JUMPDEST PUSH32 0x4E487B7100000000000000000000000000000000000000000000000000000000 PUSH0 MSTORE PUSH1 0x32 PUSH1 0x4 MSTORE PUSH1 0x24 PUSH0 REVERT JUMPDEST PUSH0 PUSH1 0x40 DUP3 ADD SWAP1 POP PUSH2 0x1AA8 PUSH0 DUP4 ADD DUP6 PUSH2 0x15DD JUMP JUMPDEST PUSH2 0x1AB5 PUSH1 0x20 DUP4 ADD DUP5 PUSH2 0x166B JUMP JUMPDEST SWAP4 SWAP3 POP POP POP JUMP JUMPDEST PUSH2 0x1AC5 DUP2 PUSH2 0x167A JUMP JUMPDEST DUP2 EQ PUSH2 0x1ACF JUMPI PUSH0 DUP1 REVERT JUMPDEST POP JUMP JUMPDEST PUSH0 DUP2 MLOAD SWAP1 POP PUSH2 0x1AE0 DUP2 PUSH2 0x1ABC JUMP JUMPDEST SWAP3 SWAP2 POP POP JUMP JUMPDEST PUSH0 PUSH1 0x20 DUP3 DUP5 SUB SLT ISZERO PUSH2 0x1AFB JUMPI PUSH2 0x1AFA PUSH2 0x14E8 JUMP JUMPDEST JUMPDEST PUSH0 PUSH2 0x1B08 DUP5 DUP3 DUP6 ADD PUSH2 0x1AD2 JUMP JUMPDEST SWAP2 POP POP SWAP3 SWAP2 POP POP JUMP JUMPDEST PUSH0 DUP2 MLOAD SWAP1 POP PUSH2 0x1B1F DUP2 PUSH2 0x14F5 JUMP JUMPDEST SWAP3 SWAP2 POP POP JUMP JUMPDEST PUSH0 PUSH1 0x20 DUP3 DUP5 SUB SLT ISZERO PUSH2 0x1B3A JUMPI PUSH2 0x1B39 PUSH2 0x14E8 JUMP JUMPDEST JUMPDEST PUSH0 PUSH2 0x1B47 DUP5 DUP3 DUP6 ADD PUSH2 0x1B11 JUMP JUMPDEST SWAP2 POP POP SWAP3 SWAP2 POP POP JUMP JUMPDEST PUSH0 PUSH2 0x1B5A DUP3 PUSH2 0x14EC JUMP JUMPDEST SWAP2 POP PUSH2 0x1B65 DUP4 PUSH2 0x14EC JUMP JUMPDEST SWAP3 POP DUP3 DUP3 ADD SWAP1 POP DUP1 DUP3 GT ISZERO PUSH2 0x1B7D JUMPI PUSH2 0x1B7C PUSH2 0x1891 JUMP JUMPDEST JUMPDEST SWAP3 SWAP2 POP POP JUMP JUMPDEST PUSH32 0x54696D656F7574206E6F74207265616368656400000000000000000000000000 PUSH0 DUP3 ADD MSTORE POP JUMP JUMPDEST PUSH0 PUSH2 0x1BB7 PUSH1 0x13 DUP4 PUSH2 0x13FF JUMP JUMPDEST SWAP2 POP PUSH2 0x1BC2 DUP3 PUSH2 0x1B83 JUMP JUMPDEST PUSH1 0x20 DUP3 ADD SWAP1 POP SWAP2 SWAP1 POP JUMP JUMPDEST PUSH0 PUSH1 0x20 DUP3 ADD SWAP1 POP DUP2 DUP2 SUB PUSH0 DUP4 ADD MSTORE PUSH2 0x1BE4 DUP2 PUSH2 0x1BAB JUMP JUMPDEST SWAP1 POP SWAP2 SWAP1 POP JUMP JUMPDEST PUSH0 PUSH2 0x1BF5 DUP3 PUSH2 0x14EC JUMP JUMPDEST SWAP2 POP PUSH32 0xFFFFFFFFFFFFFFFFFFFFFFFFFFFFFFFFFFFFFFFFFFFFFFFFFFFFFFFFFFFFFFFF DUP3 SUB PUSH2 0x1C27 JUMPI PUSH2 0x1C26 PUSH2 0x1891 JUMP JUMPDEST JUMPDEST PUSH1 0x1 DUP3 ADD SWAP1 POP SWAP2 SWAP1 POP JUMP JUMPDEST PUSH32 0x416C726561647920736574000000000000000000000000000000000000000000 PUSH0 DUP3 ADD MSTORE POP JUMP JUMPDEST PUSH0 PUSH2 0x1C66 PUSH1 0xB DUP4 PUSH2 0x13FF JUMP JUMPDEST SWAP2 POP PUSH2 0x1C71 DUP3 PUSH2 0x1C32 JUMP JUMPDEST PUSH1 0x20 DUP3 ADD SWAP1 POP SWAP2 SWAP1 POP JUMP JUMPDEST PUSH0 PUSH1 0x20 DUP3 ADD SWAP1 POP DUP2 DUP2 SUB PUSH0 DUP4 ADD MSTORE PUSH2 0x1C93 DUP2 PUSH2 0x1C5A JUMP JUMPDEST SWAP1 POP SWAP2 SWAP1 POP JUMP JUMPDEST PUSH0 PUSH1 0x60 DUP3 ADD SWAP1 POP PUSH2 0x1CAD PUSH0 DUP4 ADD DUP7 PUSH2 0x15DD JUMP JUMPDEST PUSH2 0x1CBA PUSH1 0x20 DUP4 ADD DUP6 PUSH2 0x166B JUMP JUMPDEST PUSH2 0x1CC7 PUSH1 0x40 DUP4 ADD DUP5 PUSH2 0x166B JUMP JUMPDEST SWAP5 SWAP4 POP POP POP POP JUMP INVALID LOG2 PUSH5 0x6970667358 0x22 SLT KECCAK256 RETURNDATACOPY 0xB5 LOG1 DUP9 BASEFEE CODESIZE 0x2C 0xEC SUB 0xB0 RETURN TIMESTAMP CODECOPY 0xF BLOBHASH BLOBBASEFEE CALL 0xE4 PUSH10 0xA050EA128C362E974142 DIV BALANCE TSTORE PUSH5 0x736F6C6343 STOP ADDMOD XOR STOP CALLER "
				},
				"gasEstimates": {
					"creation": {
						"codeDepositCost": "1485800",
						"executionCost": "infinite",
						"totalCost": "infinite"
					},
					"external": {
						"": "489",
						"REVEAL_TIMEOUT()": "325",
						"acceptDuel(uint256)": "infinite",
						"arbiter()": "infinite",
						"claimVictoryIfTimeout(uint256)": "infinite",
						"createDuel(address)": "infinite",
						"declareWinner(uint256)": "infinite",
						"duelCounter()": "2492",
						"duels(uint256)": "infinite",
						"resolver()": "infinite",
						"setResolver(address)": "26906"
					}
				},
				"methodIdentifiers": {
					"REVEAL_TIMEOUT()": "3d6ae3a7",
					"acceptDuel(uint256)": "c874b1c2",
					"arbiter()": "fe25e00a",
					"claimVictoryIfTimeout(uint256)": "0b8e9246",
					"createDuel(address)": "2c56e030",
					"declareWinner(uint256)": "00c2943c",
					"duelCounter()": "1570376e",
					"duels(uint256)": "859a62d0",
					"resolver()": "04f3bcec",
					"setResolver(address)": "4e543b26"
				}
			},
			"storageLayout": {
				"storage": [
					{
						"astId": 23,
						"contract": "contracts/DuelManager.sol:DuelManager",
						"label": "duels",
						"offset": 0,
						"slot": "0",
						"type": "t_mapping(t_uint256,t_struct(Duel)18_storage)"
					},
					{
						"astId": 25,
						"contract": "contracts/DuelManager.sol:DuelManager",
						"label": "duelCounter",
						"offset": 0,
						"slot": "1",
						"type": "t_uint256"
					},
					{
						"astId": 33,
						"contract": "contracts/DuelManager.sol:DuelManager",
						"label": "resolver",
						"offset": 0,
						"slot": "2",
						"type": "t_contract(IDuelResolver)546"
					}
				],
				"types": {
					"t_address": {
						"encoding": "inplace",
						"label": "address",
						"numberOfBytes": "20"
					},
					"t_bool": {
						"encoding": "inplace",
						"label": "bool",
						"numberOfBytes": "1"
					},
					"t_contract(IDuelResolver)546": {
						"encoding": "inplace",
						"label": "contract IDuelResolver",
						"numberOfBytes": "20"
					},
					"t_mapping(t_uint256,t_struct(Duel)18_storage)": {
						"encoding": "mapping",
						"key": "t_uint256",
						"label": "mapping(uint256 => struct DuelManager.Duel)",
						"numberOfBytes": "32",
						"value": "t_struct(Duel)18_storage"
					},
					"t_struct(Duel)18_storage": {
						"encoding": "inplace",
						"label": "struct DuelManager.Duel",
						"members": [
							{
								"astId": 5,
								"contract": "contracts/DuelManager.sol:DuelManager",
								"label": "player1",
								"offset": 0,
								"slot": "0",
								"type": "t_address"
							},
							{
								"astId": 7,
								"contract": "contracts/DuelManager.sol:DuelManager",
								"label": "player2",
								"offset": 0,
								"slot": "1",
								"type": "t_address"
							},
							{
								"astId": 9,
								"contract": "contracts/DuelManager.sol:DuelManager",
								"label": "betAmount",
								"offset": 0,
								"slot": "2",
								"type": "t_uint256"
							},
							{
								"astId": 11,
								"contract": "contracts/DuelManager.sol:DuelManager",
								"label": "player1Paid",
								"offset": 0,
								"slot": "3",
								"type": "t_bool"
							},
							{
								"astId": 13,
								"contract": "contracts/DuelManager.sol:DuelManager",
								"label": "player2Paid",
								"offset": 1,
								"slot": "3",
								"type": "t_bool"
							},
							{
								"astId": 15,
								"contract": "contracts/DuelManager.sol:DuelManager",
								"label": "completed",
								"offset": 2,
								"slot": "3",
								"type": "t_bool"
							},
							{
								"astId": 17,
								"contract": "contracts/DuelManager.sol:DuelManager",
								"label": "winner",
								"offset": 3,
								"slot": "3",
								"type": "t_address"
							}
						],
						"numberOfBytes": "128"
					},
					"t_uint256": {
						"encoding": "inplace",
						"label": "uint256",
						"numberOfBytes": "32"
					}
				}
			},
			"userdoc": {
				"kind": "user",
				"methods": {},
				"version": 1
			}
		}
	}
}